:020000040800F2
:10000000900700208901000879260008B522000821
:10001000752600087D030008892E000800000000F6
:10002000000000000000000000000000F5270008AC
:1000300055040008000000007D260008F72700088E
:10004000A3010008A3010008A3010008A301000800
:10005000A3010008A3010008A3010008A3010008F0
:10006000A3010008A3010008A3010008A3010008E0
:10007000A3010008A3010008A3010008A3010008D0
:1000800081030008A3010008A3010008A3010008E0
:10009000A3010008A3010008A3010008A3010008B0
:1000A000A3010008A3010008A3010008A3010008A0
:1000B000A3010008A3010008A3010008A301000890
:1000C000A3010008A3010008A3010008A301000880
:1000D000A3010008A3010008212E0008A3010008C5
:1000E000A3010008A3010008A301000800F002F822
:1000F00000F03AF80AA090E8000C82448344AAF188
:100100000107DA4501D100F02FF8AFF2090EBAE885
:100110000F0013F0010F18BFFB1A43F0010318473B
:10012000A8320000C8320000103A24BF78C878C155
:10013000FAD8520724BF30C830C144BF04680C60ED
:10014000704700000023002400250026103A28BF35
:1001500078C1FBD8520728BF30C148BF0B60704739
:100160001FB51FBD10B510BD00F058F81146FFF7C0
:10017000F7FF02F0AFFE00F076F803B4FFF7F2FFEE
:1001800003BC00F07FF80000094880470948004799
:10019000FEE7FEE7FEE7FEE7FEE7FEE7FEE7FEE737
:1001A000FEE7FEE704480549054A064B7047000094
:1001B00083280008ED00000890010020900700202F
:1001C00090030020900300204FF0000200B513467A
:1001D00094469646203922BFA0E80C50A0E80C5067
:1001E000B1F12001BFF4F7AF090728BFA0E80C5018
:1001F00048BF0CC05DF804EB890028BF40F8042B11
:1002000008BF704748BF20F8022B11F0804F18BF7D
:1002100000F8012B7047704770477047754600F033
:100220002BF8AE4605006946534620F00700854688
:1002300018B020B5FFF7B6FFBDE820404FF000062C
:100240004FF000074FF000084FF0000B21F00701BE
:10025000AC46ACE8C009ACE8C009ACE8C009ACE801
:10026000C0098D46704710B50446AFF300802046A4
:10027000BDE81040FFF781BF004870473001002003
:100280007047000001491820ABBEFEE726000200BF
:1002900070B5044600252068806800F0010018B39E
:1002A0002068806820F001002168886000F0CEFF9F
:1002B000054613E000F0CAFF401B02280ED9206853
:1002C000806800F0010048B1A06A40F01000A06210
:1002D000E06A40F00100E062012070BD20688068A3
:1002E00000F001000028E5D10020F6E738B504460B
:1002F0000025002000902068806800F0010078BB95
:100300002068806840F00100216888601948006812
:100310001949B0FBF1F0009002E00098401E0090F7
:1003200000980028F9D100F091FF054619E000F08F
:100330008DFF401B022814D92068806800F001005E
:1003400078B9A06A40F01000A062E06A40F00100B5
:10035000E06200BF002084F8240000BF012038BD07
:1003600005E02068806800F001000028DFD0002050
:10037000F5E700002C00002040420F0000BFFEE720
:1003800010B5024800F060FC10BD0000EC00002039
:1003900030B590F840500124AC40C56B6C600468E7
:1003A00063604468102C04D10468A2600468E160B2
:1003B00003E00468A1600468E26030BD30B585B038
:1003C0001F480078012801D005B030BD0122D103BB
:1003D0001C4800F035FF6C46AA2020700020607099
:1003E0000120A0701020E0700820207116480068DD
:1003F000C4F8050015490968C4F809102079401DA2
:10040000C1B2684602F050F905462079401D0DF84A
:1004100000502079821D642369460D4801F0EAFEF0
:1004200000BF0B4800680068C0F380100028F8D0B7
:1004300000224FF40041034800F002FF00BFC3E771
:100440003E00002000080140180000201C00002091
:10045000A40000207047000010B5012211030A48D3
:1004600000F0EEFE01225103084800F0E9FE0122EF
:100470009103064800F0E4FE00224FF400410348D7
:1004800000F0DEFE10BD000000080140000C01403D
:1004900072B600BFFEE7000070B5044600250026D6
:1004A000012C01D10C4E05E0022C01D10B4E01E0D4
:1004B000002070BD304600F08BFA4FF0FF3130461F
:1004C00000F0C6F918B9304600F0BAF885B23046E7
:1004D00000F016FB2846ECE74400002074000020E2
:1004E00038B5024600230020009000BF92F8240097
:1004F000012801D1022038BD012082F8240000BF6C
:100500004868072812D21068406B0C79641E04EB0F
:1005100084051F24AC40A0430D796D1E05EB8505B5
:100520000C68AC4020431468606327E048680D28DD
:1005300012D21068006B0C79E41F04EB84051F24B1
:10054000AC40A0430D79ED1F05EB85050C68AC4070
:1005500020431468206311E01068C06A0C790D3CD8
:1005600004EB84051F24AC40A0430D790D3D05EB41
:1005700085050C68AC4020431468E06208680A28CE
:1005800012D31068C0680C780A3C04EB44050724B9
:10059000AC40A0430D780A3D05EB45058C68AC40A6
:1005A00020431468E0600FE0106800690C7804EBE9
:1005B00044050724AC40A0430D7805EB45058C6845
:1005C000AC402043146820610868102802D00868F5
:1005D000112827D1174C1068A0421ED110688068DE
:1005E00000F40000F0B91068806840F4000014685E
:1005F000A0600868102815D10F4800680F4CB0FBA8
:10060000F4F000EB80004000009002E00098401EF3
:10061000009000980028F9D104E0906A40F0200092
:100620009062012300BF002082F8240000BF18461A
:1006300061E70000002401402C00002040420F0030
:1006400001460868C06C70472DE9F0410446002758
:1006500000250026A84614B90120BDE8F081A06855
:1006600010B1207D00B100BFA06A30B90020E06267
:1006700084F82400204600F089F82046FFF708FEA1
:100680000746A06A00F01000002873D1002F71D136
:10069000A06A20F4885040F00200A062E16960681E
:1006A0000843217B40EA41000643A068B0F5807F03
:1006B00002D0A068012802D14FF4807000E0002031
:1006C0000543207D012811D1207B38B9A069401E47
:1006D0004FF4006141EA4030054307E0A06A40F072
:1006E0002000A062E06A40F00100E06220684068FB
:1006F00020F46940284321684860206880682149C7
:100700000840304321688860A068B0F5807F02D03F
:10071000A068012802D14FF4807000E00020B0F5FD
:10072000807F03D1208A401E4FEA00582068C06AAB
:1007300020F4700040EA08002168C86220688068E0
:1007400011490840B04208D10020E062A06A20F0C0
:10075000020040F00100A06211E0A06A20F0020057
:1007600040F01000A062E06A40F00100E062012762
:1007700005E0FFE7A06A40F01000A06201273846BC
:100780006BE70000FDF7E1FFFE0E1FFF10B586B01E
:1007900004460020029003900490059028492068A8
:1007A000884223D100BF2748806940F40070254962
:1007B00088610846806900F40070019000BF00BFA6
:1007C00000BF0846806940F00400886108468069DF
:1007D00000F00400019000BF00BF01200290032040
:1007E000039002A9184800F093FB26E017492068FF
:1007F000884222D100BF1348806940F480601149CB
:1008000088610846806900F48060019000BF00BFE5
:1008100000BF0846806940F004008861084680698E
:1008200000F00400019000BF00BF022002900320EE
:10083000039002A9044800F06BFB06B010BD000055
:10084000002401400010024000080140002801403F
:10085000F8B504460D46002600200090002700F061
:10086000F5FC06462068806800F4807050B1A06AEC
:1008700040F02000A06200BF002084F8240000BFE8
:100880000120F8BD2068406800F4807020BB20681B
:10089000C06A00F47000F8B917E0681CA8B125B16F
:1008A00000F0D4FC801BA8420FD92068006800F03B
:1008B000020050B9A06A40F00400A06200BF00200E
:1008C00084F8240000BF0320DBE72068006800F004
:1008D00002000028E1D053E0022000F08FFD3849EB
:1008E0000968B1FBF0F021680969364A114091B9F5
:1008F0002168C9689211114069B921680969324AB1
:10090000114031B92168C9689211114009B9142107
:1009100017E0292115E0216809692B4A114021B906
:100920002168C9689211114041B121680969274ABB
:10093000114029B92168C968114009B9542100E062
:10094000FC2100FB01F718E0681C98B125B100F00C
:100950007DFC801BA8420DD90098B8420AD2A06A3B
:1009600040F00400A06200BF002084F8240000BF13
:10097000032086E70098401C00900098B842E3D31B
:100980006FF0120021680860A06A40F40070A06255
:100990002068806800F46020B0F5602F0DD1207BC6
:1009A00058B9A06A20F48070A062A06A00F4805058
:1009B00018B9A06A40F00100A062002061E70000C1
:1009C0002C000020244992249224491249922400A8
:1009D00070B50446002500BF94F82400012801D119
:1009E000022070BD012084F8240000BF2046FFF7DC
:1009F0007DFC0546002D77D1A06A40F20121884395
:100A000040F48070A0623C492068884208D13B488D
:100A1000006800F4702008B9012002E0002000E026
:100A2000012078B1A06A20F48010A062206840689C
:100A300000F4806000B3A06A20F4005040F48050BD
:100A4000A06219E0A06A40F48010A0622B49091F3F
:100A50002068884203D028492068884204D127486A
:100A6000006800F4806000E0002028B1A06A20F453
:100A7000005040F48050A062A06A00F4805020B181
:100A8000E06A20F00600E06201E00020E06200BFC2
:100A9000002084F8240000BFC01E21680860206880
:100AA000806800F46020B0F5602F16D112492068EC
:100AB000884208D11148006800F4702008B901206C
:100AC00002E0002000E0012038B12068806840F496
:100AD000A000216888600CE006E02068806840F48F
:100AE00080102168886004E000BF002084F82400A2
:100AF00000BF284675E7000000280140042401409B
:100B000070B50446002500BF94F82400012801D1E7
:100B1000022070BD012084F8240000BF2046FFF7AA
:100B2000B7FB05462DB9A06A20F4885040F00100BB
:100B3000A06200BF002084F8240000BF2846E8E738
:100B40000146002291F82100022808D00420886381
:100B500000BF002081F8200000BF01207047086816
:100B6000006820F00E000B6818600868006820F02C
:100B700001000B68186091F8403001209840CB6B61
:100B80005860012081F8210000BF002081F820007A
:100B900000BF1046E2E7000070B50446002594F857
:100BA0002100022803D00420A063012548E020682A
:100BB000006820F00E00216808602068006820F0BE
:100BC0000100216808601F492068884201D1012086
:100BD00026E01C4914312068884201D110201FE012
:100BE000184928312068884201D1801518E015493C
:100BF0003C312068884201D1801411E01149503104
:100C00002068884202D14FF4803009E00D496431F8
:100C10002068884202D14FF4801001E04FF08070CC
:100C2000084908394860012084F8210000BF0020ED
:100C300084F8200000BF606B10B12046616B8847CC
:100C4000284670BD0800024070B50446E06B056898
:100C50002068066894F84010042088402840002846
:100C600046D006F00400002842D02068006800F05A
:100C7000200028B92068006820F00400216808607E
:100C800057492068884201D1042027E05449143193
:100C90002068884201D1402020E051492831206855
:100CA000884201D1001519E04D493C312068884245
:100CB00002D14FF4804011E0494950312068884208
:100CC00002D14FF4802009E0454964312068884210
:100CD00002D14FF4800001E04FF0806040490839B4
:100CE0004860E06A00287AD02046E16A884776E0CA
:100CF00094F84010022088402840A0B306F002007B
:100D000088B32068006800F0200040B920680068BF
:100D100020F00A0021680860012084F82100304991
:100D20002068884201D1022028E02D491431206832
:100D3000884201D1202021E02949283120688842B9
:100D400001D140151AE026493C312068884202D181
:100D50004FF4005012E0224950312068884203D1FC
:100D60004FF400300AE017E01D49643120688842E2
:100D700002D14FF4001001E04FF00070184908391B
:100D8000486000BF002084F8200000BFA06A30B394
:100D90002046A16A884722E094F840100820884045
:100DA0002840E0B106F00800C8B12068006820F0D3
:100DB0000E002168086094F8401001208840E16B23
:100DC00048600120A06384F8210000BF002084F85F
:100DD000200000BF206B10B12046216B884770BDFA
:100DE000080002400146002209B901207047164B55
:100DF0000868C01A1423B0FBF3F08000086412489E
:100E00000838C863022081F821000868026843F6A8
:100E1000F0708243D1E901031843CB6818430B6992
:100E200018434B6918438B691843CB691843024335
:100E30000868026000208863012081F821000020FA
:100E400081F8200000BFD1E7080002402DE9F04101
:100E500004460D4616461F464FF0000800BF94F8A2
:100E60002000012802D10220BDE8F081012084F891
:100E7000200000BF94F8210001282CD1022084F822
:100E800021000020A0632068006820F00100216894
:100E900008603B46324629462046FFF779FAE06A69
:100EA00030B12068006840F00E00216808600BE057
:100EB0002068006820F0040021680860206800684D
:100EC00040F00A00216808602068006840F00100D6
:100ED0002168086006E000BF002084F8200000BF01
:100EE0004FF002084046BFE770B5044600F0AEF987
:100EF00006462546681C10B104480078054400BF2A
:100F000000F0A4F9801BA842FAD370BD280000208D
:100F10002DE9F8470346002294466EE14FF00108A0
:100F200008FA02F4D1F8008008EA0400A0427DD15A
:100F3000DFF8DCA2D1F80480A8EB0A09D0453AD04A
:100F400014DCB8F1030F50D009DCB8F1000F31D038
:100F5000B8F1010F1CD0B8F1020F49D120E0B8F16F
:100F6000110F18D0B8F1120F42D11EE0B9F5881F49
:100F700025D006DCB9F5803F20D0B9F5801F37D1E8
:100F80001AE0B9F5001F18D0B9F5041F30D117E0E9
:100F9000D1F80CC02DE0D1F80C8008F1040C28E049
:100FA000D1F80C8008F1080C23E0D1F80C8008F18E
:100FB0000C0C1EE000BF00BF00BF00BF00BF00BFA1
:100FC000D1F80880B8F1000F02D14FF0040C0BE00B
:100FD000D1F80880B8F1010F03D14FF0080C1C6163
:100FE00002E04FF0080C5C6103E04FF0000C00E001
:100FF00000BF00BFFF2801D8984601E003F10408B4
:101000004646FF2802D84FEA820803E0A2F108080A
:101010004FEA88084746D6F800804FF00F0909FAD2
:1010200007F928EA09080CFA07F900E088E048EA1D
:101030000908C6F80080D1F8048008F08058B8F19B
:10104000805F7DD100BFDFF8CC81D8F8188048F0F0
:101050000108DFF8C091C9F81880C846D8F8188090
:1010600008F00108CDF8008000BF00BF4FEAB93892
:101070004FEA920958F829504FEA82784FEA1879D6
:101080004FF00F0808FA09F825EA0805DFF888810B
:10109000434502D14FF0000816E0DFF88081434558
:1010A00002D14FF001080FE0DFF87481434502D10F
:1010B0004FF0020808E0DFF86C81434502D14FF0A1
:1010C000030801E04FF004084FEA82794FEA1979EA
:1010D00008FA09F848EA0505DFF84C814FEA920959
:1010E00048F82950D1F8048008F48018B8F5801F1A
:1010F0000AD1DFF83881D8F8008048EA0008DFF824
:101100002C91C9F8008009E0DFF82081D8F8008030
:1011100028EA0008DFF81491C9F80080D1F80480AB
:1011200008F40018B8F5001F10D1DFF8008108F1AD
:101130000408D8F8008048EA0008DFF8F09000E0E2
:101140005AE009F10409C9F800800DE0DFF8DC80FD
:1011500008F10408D8F8008028EA0008DFF8CC90ED
:1011600009F10409C9F80080D1F8048008F40038B6
:10117000B8F5003F0ED1DFF8B480A8F10408D8F824
:10118000008048EA0008DFF8A490A9F10409C9F832
:1011900000800DE0DFF89480A8F10408D8F8008002
:1011A00028EA0008DFF88490A9F10409C9F8008052
:1011B000D1F8048008F48038B8F5803F0ED1DFF80C
:1011C0006C80A8F10808D8F8008048EA0008DFF829
:1011D0005C90A9F10809C9F800800DE0DFF84C80A7
:1011E000A8F10808D8F8008028EA0008DFF83C9049
:1011F000A9F10809C9F80080521CD1F8008028FA2A
:1012000002F8B8F1000F7FF489AEBDE8F88700005E
:10121000000011100010024000080140000C0140C5
:101220000010014000140140080001400804014082
:10123000024693680B400BB1012000E0002070478C
:101240000AB1016101E00B040361704701480068C5
:101250007047000020000020034800680349097817
:101260000844014908607047200000202800002041
:1012700010B50848006840F01000064908600320D7
:1012800000F0A8F80F2000F007F800F02BF800207D
:1012900010BD00000020024070B504460E480078E2
:1012A0004FF47A71B1FBF0F00C490968B1FBF0F52D
:1012B000284600F00FFD08B1012070BD102C07D2A8
:1012C00000222146501E00F047F80548046001E066
:1012D0000120F2E70020F0E7280000202C00002089
:1012E0002400002008B500BF1148806940F00100CB
:1012F0000F4988610846806900F00100009000BF36
:1013000000BF00BF0846C06940F08050C861084671
:10131000C06900F08050009000BF00BF00BF0549C9
:10132000486820F0E06040F00070486000BF08BDF1
:10133000001002400000014001460846002809DB79
:1013400000F01F0301229A4043099B0003F1E023B0
:10135000C3F8002100BF70472DE9F05F80460D46BD
:101360001646002701F092FD074639462A463346C5
:1013700001F00700C0F1070ABAF1040F02D94FF0DB
:10138000040A01E0C0F1070AD14600F1040ABAF1EB
:10139000070F02D24FF0000A01E0A0F1030AD44681
:1013A0004FF0010A0AFA09FAAAF1010A0AEA020A46
:1013B0000AFA0CFA4FF0010B0BFA0CFBABF1010B24
:1013C0000BEA030B4AEA0B042146404601F066FD96
:1013D000BDE8F09F00BF00F00702064B19684FF60A
:1013E000FF031940044B0B4343EA0221014B1960F0
:1013F00000BF70470CED00E00000FA052DE9F04752
:1014000006464FF00008002500270024A146012EC3
:1014100031D0022E56D0102E5FD132484468006879
:1014200000F0807008B33048C4F38341475C04F493
:10143000803078B12B484068C0F340402B4911F808
:10144000008004F4803040B12948B0FBF8F000FB84
:1014500007F502E0274807FB00F52248406800F442
:101460008000B0F5800F01D1A94603E06800032198
:10147000B0FBF1F932E01B48046A04F44070B0F5A7
:10148000807F05D104F0020010B14FF4004918E04C
:1014900004F44070B0F5007F07D11248406A00F0B4
:1014A000020010B149F640490BE004F44070B0F579
:1014B000407F06D10B48006800F4003008B14FF2BD
:1014C00024490BE000F08CF906494968C1F38131E9
:1014D000491C4900B0FBF1F900E000BF00BF4846DD
:1014E000BDE8F087001002409E330008AE330008CC
:1014F00000127A0000093D00F8B5044600260025D8
:10150000207800F0010000286BD000274348C06914
:1015100000F0805070B900BF4048C06940F0805072
:101520003E49C8610846C06900F08050009000BF85
:1015300000BF01273A48006800F48070B0B938480D
:10154000006840F4807036490860FFF77FFE064669
:1015500006E0FFF77BFE801B642801D90320F8BD5D
:101560002F48006800F480700028F2D02B48006AF1
:1015700000F440752DB3A08800F44070A84220D03C
:101580002648006A20F440750120264908600020A2
:1015900008602248056205F0010090B1FFF756FE91
:1015A000064608E0FFF752FE801B41F28831884270
:1015B00001D90320D3E71948006A00F0020000288F
:1015C000F0D01648006A20F440706168084313495F
:1015D0000862012F04D10846C06920F08050C8611C
:1015E00000BF207800F00200022807D10B484068B5
:1015F00020F44040A168084308494860207800F082
:101600001000102807D10548406820F48000E168E8
:101610000843024948600020A1E700000010024092
:10162000007000404004424270B504460D460CB9BB
:10163000012070BD5A48006800F00700A8420ED291
:101640005748006820F007002843554908600846BD
:10165000006800F00700A84201D00120E9E72078E7
:1016600000F0020002281DD1207800F004000428B8
:1016700005D14C48406840F4E0604A494860207811
:1016800000F00800082805D14648406840F4605042
:10169000444948604348406820F0F000A16808438E
:1016A00040494860207800F0010078B36068012864
:1016B00006D13C48006800F4003090B90120B8E73A
:1016C0006068022806D13748006800F0007040B911
:1016D0000120AEE73348006800F0020008B901209D
:1016E000A7E73048406820F00300616808432D49AF
:1016F0004860FFF7ABFD064609E0FFF7A7FD801B3A
:1017000041F28831884202D9032092E707E0254858
:10171000406800F00C006168B0EB810FEDD120480B
:10172000006800F00700A8420ED91D48006820F0AC
:10173000070028431A4908600846006800F00700BF
:10174000A84201D0012074E7207800F004000428AA
:1017500007D11448406820F4E060E168084311496B
:101760004860207800F00800082808D10D4840683B
:1017700020F46050216940EAC1000A49486000F045
:101780003FF808494968C1F30311074A515CC84052
:101790000649086006480068FFF77EFD002048E71C
:1017A0000020024000100240B03300082C0000204E
:1017B0002400002001480068704700002C00002031
:1017C00000B5FFF7F7FF04494968C1F30221034A56
:1017D000515CC84000BD000000100240C03300084A
:1017E00000B5FFF7E7FF04494968C1F3C221034A86
:1017F000515CC84000BD000000100240C03300082A
:1018000070B500210022002400230020134D6968D8
:1018100001F00C05F5B1042D02D0082D19D101E01D
:101820000F4819E00F4DC1F38346AB5D01F48035DD
:1018300055B10A4D6D68C5F340450B4E725D084DBC
:101840005D43B5FBF2F402E0084D03FB05F42046CE
:1018500002E000BF024800BF00BF70BD00100240A0
:1018600000127A008C3300089C33000800093D0008
:10187000F8B504460CB90120F8BD207800F001004D
:10188000002878D0F848406800F00C0004280CD0FC
:10189000F548406800F00C00082811D1F248406873
:1018A00000F48030B0F5803F0AD1EF48006800F4C2
:1018B000003000285FD0606800285CD10120DBE7A1
:1018C00000BF6068B0F5803F06D1E748006840F48B
:1018D0008030E549086028E0606858B9E24800684F
:1018E00020F48030E04908600846006820F4802039
:1018F00008601AE06068B0F5A02F0BD1DA480068E4
:1019000040F48020D84908600846006840F48030E0
:1019100008600AE0D448006820F48030D2490860AA
:101920000846006820F48020086000BF606888B125
:10193000FFF78CFC054606E0FFF788FC401B642897
:1019400001D9032098E7C848006800F40030002857
:10195000F2D010E0FFF77AFC054606E0FFF776FCD0
:10196000401B642801D9032086E7BF48006800F4C3
:1019700000300028F2D1207800F00200022857D170
:10198000B948406800F00C0050B1B748406800F01A
:101990000C00082818D1B448406800F4803098B989
:1019A000B148006800F0020020B12069012801D090
:1019B000012061E7AC48006820F0F800616940EA66
:1019C000C100A949086033E02069E8B10120A749B6
:1019D0000860FFF73BFC054606E0FFF737FC401BBD
:1019E000022801D9032047E79F48006800F0020061
:1019F0000028F2D09C48006820F0F800616940EAB5
:101A0000C1009949086013E0002098490860FFF779
:101A10001DFC054606E0FFF719FC401B022801D912
:101A2000032029E79048006800F002000028F2D166
:101A3000207800F0080008282DD1A069B8B1012055
:101A40008B490860FFF702FC054606E0FFF7FEFB46
:101A5000401B022801D903200EE78348406A00F0AA
:101A600002000028F2D0012000F00AFE13E000205E
:101A70007F490860FFF7EAFB054606E0FFF7E6FB53
:101A8000401B022801D90320F6E67748406A00F09F
:101A900002000028F2D1207800F00400042873D15D
:101AA00000277148C06900F0805070B900BF6E48CF
:101AB000C06940F080506C49C8610846C06900F0B8
:101AC0008050009000BF00BF01276A48006800F402
:101AD0008070B0B96748006840F48070654908605C
:101AE000FFF7B4FB054606E0FFF7B0FB401B642898
:101AF00001D90320C0E65F48006800F48070002828
:101B0000F2D000BFE068012806D15748006A40F0D3
:101B100001005549086227E0E06858B95248006A58
:101B200020F00100504908620846006A20F00400D5
:101B3000086219E0E06805280BD14B48006A40F0C4
:101B40000400494908620846006A40F00100086242
:101B50000AE04548006A20F001004349086208464F
:101B6000006A20F00400086200BFE068A0B1FFF73F
:101B70006DFB054609E0FFF769FB401B41F2883128
:101B8000884202D9032077E622E03748006A00F055
:101B900002000028EFD012E0FFF758FB054608E0EE
:101BA000FFF754FB401B41F28831884201D90320E2
:101BB00062E62D48006A00F002000028F0D1012FF3
:101BC00005D12948C06920F080502749C86100BF6D
:101BD000E069C8B32448406800F00C00082860D0D1
:101BE000E069022848D1002020490866FFF72EFB53
:101BF000054606E0FFF72AFB401B022801D9032017
:101C00003AE61948006800F000700028F2D1206A16
:101C1000B0F5803F07D11448406820F40030A16837
:101C2000084311494860D4E9080108430E4949684E
:101C300021F4741108430C49486001200B490866DF
:101C4000FFF704FB054607E03DE0FFF7FFFA401B06
:101C5000022801D903200FE60348006800F0007055
:101C60000028F2D02FE000000010024000004242A5
:101C70008004424200700040002014490866FFF7CB
:101C8000E5FA054606E0FFF7E1FA401B022801D914
:101C90000320F1E50E48006800F000700028F2D142
:101CA00011E0E069012800D1E6E50948466806F43C
:101CB0008031206A814204D106F47011606A814249
:101CC00001D00120D8E50020D6E500000000424206
:101CD0000010024070B504462546681EB0F1807FB2
:101CE00001D301200FE0681E4FF0E02148610F2171
:101CF0004FF0FF3001F0D2F800204FF0E021886172
:101D000007200861002070BD704770B504460025AB
:101D100020684069C0F3C01594F84100212817D10C
:101D2000B5B100BF00BF2168143151E8001F21F098
:101D300080002168143141E80002002AF3D100BF7D
:101D4000A06B10B1A06BFEF7FBFE204600F07EFEFC
:101D500020684069C0F3801594F84200222817D10A
:101D6000B5B100BF00BF2168143151E8001F21F058
:101D700040002168143141E80002002AF3D100BF7D
:101D8000E06B10B1E06BFEF7DBFE204600F018FEC2
:101D9000002070BD704700002DE9F84F0446206810
:101DA00005682068C668206847694FF00009CA4680
:101DB00005F00F09B9F1000F0AD105F0200038B184
:101DC00006F0200020B1204600F053FEBDE8F88F59
:101DD000B9F1000F7BD007F0010018B906F490703C
:101DE000002874D005F0010030B106F4807018B1FD
:101DF000606C40F00100606405F0040030B107F051
:101E0000010018B1606C40F00200606405F002004F
:101E100030B107F0010018B1606C40F0040060645C
:101E200005F0080048B106F0200010B907F00100E5
:101E300018B1606C40F008006064606C002845D008
:101E400005F0200028B106F0200010B1204600F077
:101E500010FE20684069C0F3801A606C00F0080032
:101E600010B9BAF1000F2CD0204600F0A9FD20686F
:101E7000406900F0400000B300BF00BF216814318A
:101E800051E8001F21F040002168143141E80002B0
:101E9000002AF3D100BFE06B50B17748E16B486393
:101EA000E06BFEF779FE88B1E06B416B88470DE08F
:101EB0002046FFF76FFF09E009E02046FFF76AFFC1
:101EC00004E02046FFF766FF002060647EE7206B99
:101ED000012877D105F01000002873D006F010001B
:101EE0000028FAD000BF0020009020680068009011
:101EF00020684068009000BF00BF2068406900F083
:101F0000400000285FD0E06B006840681FFA80F84E
:101F1000B8F1000F55D0A08D404552DDA4F82E80B9
:101F2000E06B8069202843D000BF00BF21680C31DE
:101F300051E8001F21F4807021680C3141E8000253
:101F4000002AF3D100BF00BF00BF2168143151E85F
:101F5000001F21F001002168143141E80002002A2D
:101F6000F3D100BF00BF00BF2168143151E8001F4A
:101F700021F040002168143141E80002002AF3D129
:101F800000BF202084F842000020206300BF00BF73
:101F900021680C3151E8001F21F0100021680C313C
:101FA00041E80002002AF3D100BFE06BFEF7C8FD54
:101FB00002206063A08DE28D801A81B22046FFF777
:101FC000A3FE03E742E0A08DE18D401A1FFA80F8DE
:101FD000E08DD0B3B8F1000F37D000BF00BF21684B
:101FE0000C3151E8001F21F4907021680C3141E858
:101FF0000002002AF3D100BF00BF00BF21681431E6
:1020000051E8001F21F001002168143141E800026D
:10201000002AF3D100BF202084F842000020206372
:1020200000BF00BF21680C3151E8001F21F01000F3
:1020300021680C3141E80002002AF3D100BF0220E0
:10204000606341462046FFF75FFEBFE605F0800073
:1020500030B106F0800018B1204600F06BFEB5E606
:1020600005F0400030B106F0400018B1204600F005
:10207000DDFCABE600BFA9E68528000810B50446E4
:102080000CB9012010BDA06900B100E000BF94F8B8
:10209000410028B9002084F84000204600F02AF8CA
:1020A000242084F841002068C06820F40050216892
:1020B000C860204600F05CFD2068006920F4904074
:1020C000216808612068406920F02A002168486181
:1020D0002068C06840F400502168C8600020606437
:1020E000202084F8410084F842000020606300BF93
:1020F000C8E7000010B586B00446002002900390A7
:10210000049005902A49206888424ED100BF294892
:10211000C06940F400302749C8610846C06900F42E
:102120000030019000BF00BF00BF0846806940F04A
:10213000040088610846806900F00400019000BF37
:1021400000BF04200290022003900320059002A902
:102150001948FEF7DDFE082002900020039004904D
:1021600002A91548FEF7D4FE14481549086000205E
:1021700048600021124881608021C1600021016116
:1021800041618161C161FEF72DFE08B1FEF780F962
:1021900000BF0B48E063446200BF002211462620C6
:1021A000FFF7DAF82620FFF7C7F806B010BD0000E9
:1021B0000044004000100240000801406C00024052
:1021C000EC00002070B504460D46164694F8420017
:1021D00020280BD105B10EB9012070BD002020636D
:1021E00032462946204600F041FDF6E70220F4E79A
:1021F000704770472DE9F84F04460E46174699463A
:102200004FF0000A94F84100202850D106B117B9C8
:102210000120BDE8F88F00206064212084F841008F
:10222000FFF714F88246A784E784A068B0F5805FC2
:1022300004D1206910B90025B04602E035464FF0C0
:1022400000081EE05346002280212046CDF8009071
:1022500000F0A0FD20B1202084F841000320D8E741
:1022600045B9B8F80000C0F308002168486008F1DB
:10227000020803E02878216848606D1CE08C401E4D
:10228000E084E08C0028DDD1534600224021204626
:10229000CDF8009000F07EFD20B1202084F84100B0
:1022A0000320B6E7202084F841000020B1E7022097
:1022B000AFE7704700BFFEE700B585B000BF10482C
:1022C000806940F008000E4988610846806900F086
:1022D0000800009000BF00BFC020019011200290B4
:1022E000012003900320049001A90648FEF710FE88
:1022F0000122C0210348FEF7A3FF05B000BD000086
:1023000000100240000C014010B5012280210A4853
:10231000FEF796FF012240210748FEF791FF00F0EB
:10232000D1FD002280210448FEF78AFF00224021CF
:102330000148FEF785FF10BD000C014010B50022DA
:1023400080210848FEF77CFF012240210548FEF766
:1023500077FF00F0B7FD012280210248FEF770FFF1
:1023600010BD0000000C014010B5012280210A4878
:10237000FEF766FF012240210748FEF761FF00BF1C
:1023800080210548FEF754FF0028F9D100224021A2
:102390000148FEF755FF10BD000C014070B5044622
:1023A000254600261BE0002240211148FEF748FF89
:1023B00005F0800028B1012280210D48FEF740FF82
:1023C00004E0002280210A48FEF73AFF6806050E65
:1023D000012240210648FEF733FF701CC6B2082ECA
:1023E000E1DB002240210248FEF72AFF70BD000019
:1023F000000C014070B504460025002604F470600E
:102400000512E6B2FFF780FFC020FFF7C7FFFFF716
:10241000ABFF2846FFF7C2FFFFF7A6FF3046FFF7E6
:10242000BDFFFFF7A1FFFFF789FF0A20FEF75CFD64
:1024300070BD00000EB5002000900190029013487E
:1024400013490860002112488160012101730021B5
:1024500001754FF46021C16100200D4948600121E0
:102460000B480161FEF7F0F808B1FEF711F8002003
:102470000090012001900020029069460448FEF778
:102480002FF808B1FEF704F80EBD0000002401404B
:10249000440000200EB500200090019002901248E8
:1024A0001249086000211148816001210173002157
:1024B00001754FF46021C16100200C494860012181
:1024C0000A480161FEF7C0F808B1FDF7E1FF0120FD
:1024D000009001900020029069460448FEF700F841
:1024E00008B1FDF7D5FF0EBD0028014074000020A3
:1024F00008B500BF0A48406940F00100084948613A
:102500000846406900F00100009000BF00BF0022B3
:1025100011461020FEF720FF1020FEF70DFF08BD2A
:102520000010024000B585B0002001900290039099
:10253000049000BF3D48806940F010003B4988612D
:102540000846806900F01000009000BF00BF00BF87
:102550000846806940F0200088610846806900F0E4
:102560002000009000BF00BF00BF0846806940F017
:10257000040088610846806900F00400009000BFF4
:1025800000BF00BF0846806940F008008861084627
:10259000806900F00800009000BF00BF00224FF4E7
:1025A000C0412348FEF74CFE00224EF2C0012148F4
:1025B000FEF746FE00224FF410411F48FEF740FE92
:1025C0004FF4C040019001200290002003900220AF
:1025D000049001A91648FEF79BFC4FF4604001905F
:1025E00001200290002003900220049001A91148CC
:1025F000FEF78EFC4FF41040019001200290002065
:1026000003900220049001A90B48FEF781FCC02032
:10261000019011200290012003900220049001A952
:102620000448FEF775FC05B000BD00000010024034
:1026300000100140000C01400008014010B50B489B
:102640000B4908604FF4E130486000210848816080
:10265000C16001610C21416100218161C161FFF70D
:102660000DFD08B1FDF714FF10BD0000004400404F
:10267000A400002000BFFEE700BFFEE77047000097
:1026800008B508490968C9084FF47A72B1FBF2F13C
:102690004143009100BF00BF00994A1E00920029EB
:1026A000F9D108BD2C00002010B5024600230020FF
:1026B00004E0145C1C44A3B2441CE0B28842F8DB82
:1026C000D8B210BD2DE9F0474048007808B9BDE800
:1026D000F0873F480078072800DA6AE03D4C207810
:1026E000AA2800D065E02079851D39480078A842E5
:1026F00000D05EE0681EC1B23648FFF7D5FF06463F
:10270000681E3449095CB14200D052E0E0781028DC
:102710004BD020284AD12079012845DB2D48477924
:10272000012F1CD1FDF798FE4FF07E502A4908601A
:102730002A492948006800F05DFD8246284900F0DA
:1027400063FC8146274900F055FD804600F01EFDE0
:102750002549088008460088FFF74CFE23E0022F39
:102760001CD1FDF779FE4FF07F501B4908601B49D3
:102770001948006800F03EFD8246194900F044FC0B
:102780008146184900F036FD804600F0FFFC1649EE
:10279000088008460088FFF72DFE04E0032F02D1D1
:1027A00001201249087000BF01E000E000BF00BF37
:1027B00000BF002005490870054908700722054937
:1027C0000B48FFF7FFFC00BF81E700000700002077
:1027D000080000200000002014000020CDCC4C3E5A
:1027E0003333534000F07F45120000203E000020AC
:1027F000A4000020704710B5FEF72EFD10BD00B5F7
:1028000093B0282109A8FDF7DFFC142104A8FDF7E7
:10281000DBFC0020009001900290039001200990C1
:1028200000040A9000200B9001200D9002201090CF
:10283000C10311914FF4E011129109A8FFF718F8A4
:1028400008B1FDF725FE0F2004900220059000201E
:1028500006904FF48060079000200890022104A8A1
:10286000FEF7E2FE08B1FDF713FE022000908003A0
:1028700002906846FEF740FE08B1FDF709FE13B06E
:1028800000BD704770B505466C6A0020E085E084A5
:102890002046FFF77FFA70BD70B506460025746AC2
:1028A00020684069C0F3C01594F84100212805D183
:1028B00025B10020E084204600F0C8F82068406977
:1028C000C0F3801594F84200222805D125B10020DC
:1028D000E085204600F074F8606C40F01000606401
:1028E0002046FFF757FA70BD70B505466C6A286838
:1028F000006800F02000002842D1E08500BF00BF42
:1029000021680C3151E8001F21F4807021680C31DE
:1029100041E80002002AF3D100BF00BF00BF2168D8
:10292000143151E8001F21F001002168143141E801
:102930000002002AF3D100BF00BF00BF216814319C
:1029400051E8001F21F040002168143141E80002E5
:10295000002AF3D100BF202084F84200206B012818
:102960000ED100BF00BF21680C3151E8001F21F0DB
:10297000100021680C3141E80002002AF3D100BFA9
:1029800000206063206B012804D1A18D2046FFF751
:10299000BBF902E02046FFF72BFC70BD70B5054681
:1029A0006C6A01206063206B012805D1A08D41086D
:1029B0002046FFF7A9F902E02046FFF71AFC70BD98
:1029C00000BF00BF02680C3252E8002F22F4907161
:1029D00002680C3242E80013002BF3D100BF00BFA5
:1029E00000BF0268143252E8002F22F00101026891
:1029F000143242E80013002BF3D100BF016B012910
:102A00000ED100BF00BF02680C3252E8002F22F046
:102A1000100102680C3242E80013002BF3D100BF12
:102A2000202180F8421000210163704710B5044650
:102A30002068C06820F040002168C860202084F829
:102A400041002046FFF735FC002010BD00BF00BF4D
:102A500002680C3252E8002F22F0C00102680C32EA
:102A600042E80013002BF3D100BF202180F8411071
:102A70007047F8B5044694F84200222875D1A06842
:102A8000B0F5805F0CD1206950B90025A66A206896
:102A90004068C0F308003080A06A801CA06215E086
:102AA000A56A0026A068B0F5805F03D0A06828B9A9
:102AB000206918B920684068287004E020684068E0
:102AC00000F07F002870A06A401CA062E08D401ECC
:102AD00080B2E085002846D12068C06820F0200040
:102AE0002168C8602068C06820F480702168C860D0
:102AF0002068406920F0010021684861202084F8A6
:102B0000420000206063206B012826D10020206352
:102B100000BF00BF21680C3151E8001F21F01000F8
:102B200021680C3141E80002002AF3D100BF20687F
:102B3000006800F0100010280AD100BF00200090AB
:102B400020680068009020684068009000BF00BFC7
:102B5000A18D2046FFF7D8F802E02046FFF748FB9A
:102B60000020F8BD01E00020FBE70220F9E70000AB
:102B700070B504462168096921F44051E2681143A7
:102B8000226811612269A1681143626941EA020564
:102B90002168C96841F20C62914329432268D160DF
:102BA0002168496921F44071A26911432268516189
:102BB0002D4A2168914202D1FEF712FE01E0FEF794
:102BC000FFFD00EBC00101EB001162689200B1FB58
:102BD000F2F100EBC00202EB001263689B00B2FB53
:102BE000F3F26423B2FBF3F202EBC20303EB021233
:102BF000A1EB8201322202EB01116422B1FBF2F15E
:102C000001F0F00100EBC00202EB001263689B00D0
:102C1000B2FBF3F26423B2FBF3F201EB021200EB1E
:102C2000C00101EB001163689B00B1FBF3F100EB05
:102C3000C00303EB00136668B600B3FBF6F364262B
:102C4000B3FBF6F303EBC30606EB0313A1EB83011F
:102C5000322303EB01116423B1FBF3F101F00F0107
:102C600011442268916070BD0038014077B581B091
:102C7000044615460298A062A585002060642220C3
:102C800084F842002848E16B88622848E16BC862FA
:102C90002748E16B08630020E16B486302AE3268AD
:102CA0002368191D2B46E06BFEF7D0F800BF00200B
:102CB000009020680068009020684068009000BF85
:102CC00000BF206970B100BF00BF21680C3151E81E
:102CD000001F41F4807021680C3141E80002002A95
:102CE000F3D100BF00BF00BF2168143151E8001FBD
:102CF00041F001002168143141E80002002AF3D1BB
:102D000000BF00BF00BF2168143151E8001F41F02F
:102D100040002168143141E80002002AF3D100BFCD
:102D2000002004B070BD0000E92800089D290008BB
:102D300099280008014691F84100212828D1886887
:102D4000B0F5805F0BD1086948B90A6A1088C0F3F2
:102D500008000B685860086A801C086205E00B6A6E
:102D6000581C086218780B685860C88C401E80B2E6
:102D7000C88458B90868C06820F080000B68D86023
:102D80000868C06840F040000B68D86000207047B9
:102D90000220FCE72DE9F84304460D461746984605
:102DA000089E31E0701C70B3FEF750FAA0EB0800EB
:102DB000B04200D816B90320BDE8F8832068C06887
:102DC00000F00400F8B1802D1ED0402D1CD02068EA
:102DD0000068C0F3C000B0B100BF002000902068C0
:102DE0000068009020684068009000BF00BF204647
:102DF000FFF7E6FD0820606400BF002084F8400073
:102E000000BF0120D8E7FFE7206800682840A842FB
:102E100001D1012000E00020B842C3D00020CBE760
:102E200008B5144800680068C0F30010F0B100BF96
:102E3000002000900F480068006800900D4800686E
:102E40004068009000BF00BF0A48FEF75EFF0A48D6
:102E500000684068C0F1070008490870012008496F
:102E60000870072207490348FFF7ACF90148FEF74D
:102E700093FF08BDA4000020EC0000200800002003
:102E8000070000200000002000BFFEE702480068A5
:102E9000C0F30220704700000CED00E010B50028E0
:102EA00004DB0A07130E054A135406E00A07140E42
:102EB000034A00F00F031B1FD45410BD00E400E0D0
:102EC00018ED00E0002001E0411CC8B20A28FBDB3D
:102ED00070470000FEF7CCF9FFF791FCFFF722FBEB
:102EE000FFF706FBFFF7AAFBFFF7A4FAFFF7D2FAFA
:102EF00000224FF400413648FEF7A2F90722354977
:102F00003548FFF75FF934480068C06840F01000AA
:102F100031490968C860012251033048FEF790F931
:102F2000012291032D48FEF78BF9FFF7C5F92C49D3
:102F30002C48006800F05EF906462B4900F064F862
:102F400005462A4900F056F9044600F01FF92849C1
:102F50000880FDF781FA39E0FFF7B4FBFDF72EFAA0
:102F600023480088FFF746FA0120FDF795FA21492A
:102F700008800220FDF790FA1F4908801D4800884C
:102F800000F024F90646194900F03EF805461649B6
:102F900000F030F904464FF07A5100F035F8174947
:102FA00008601548008800F011F906460F4900F046
:102FB0002BF805460C4900F01DF90446104900F0B5
:102FC00019F9104908600A20FDF78EFFC4E70000D8
:102FD0000008014000000020A40000200010014073
:102FE000CDCC4C3E140000203333534000F07F45DD
:102FF000120000200E000020100000201800002009
:10300000000020411C0000204FF47F0C1CEAD0126D
:103010001EBF1CEAD11392EA0C0F93EA0C0F00F0CA
:10302000858090EA010F48BF42F4807240F4000CA2
:1030300041F400002CF07F4120F07F4000B5814238
:10304000A2EB03020FF2081CACEB504EC0F10000E3
:103050009EF800E04FEA4E0E00FB0EFC38BF490020
:103060004FEA2C1C02F5FA020CFB0EF34FEACE1EBF
:103070004FEA112C4FEAC1210EEB635E42EB224274
:103080000EFB0CFC4FEA1C5300FB03114FEA112C02
:103090004FEA01310EFB0CFC4FEADC4C00FB0C113B
:1030A000C14228BF09184CEB03335DF804EB10EB69
:1030B000410143EBC250B2F57C0F38BF704729D5B0
:1030C00012F0F00F1CBF00F1C04000F0004070474C
:1030D000008182838485868788898B8C8D8E8F91F1
:1030E0009293959697999A9C9D9FA0A2A3A5A7A815
:1030F000AAACAEB0B2B3B5B7B9BCBEC0C2C5C7C941
:10310000CCCED1D4D7D9DCDFE2E6E9ECF0F3F7FAA4
:10311000FE0000004FEA400C0CF1807CBCF17E4FB9
:1031200028BF7047B0F1C04000F02BB990EA010F02
:103130000CEAD11348BF42F48072624538BF634540
:1031400007D213F47F0F16D080EA010000F0004090
:10315000704710B500F0CFF8097EFC3E00F005B8CE
:1031600080EA010000F00040704780EA010000F0B2
:10317000004000F006B912F47F0F04BF0248704708
:1031800080EA010000F0FDB80000C07FC10DD1F160
:103190009E0206DB4FEA002343F0004323FA02F0CD
:1031A0007047004207D54FEA4001B1F1FE4F02D20D
:1031B0004FF00000704710B500F09DF84992248050
:1031C000002070476FEA200070470000B0FA80F3DB
:1031D00010FA03F2C3F19D030AD0D90501EB1220C6
:1031E000530638BF704700F1010008BF20F001000E
:1031F000704700004FF47F0C1CEAD0121EBF1CEA7F
:10320000D11392EA0C0F93EA0C0F00F0478090EA7A
:10321000010F48BF42F480724FF0004C4CEA00208E
:103220004CEA012102EB0302A0FB0113A2F500020C
:10323000002918BF43F001035B0028BF4FEA3303A6
:1032400042EB22425FEA132C4CEBC2502EBFBCEB88
:10325000436FB2F57C0F70474FEA036CBCF1004F2F
:1032600008BF20F00100B2F57C0F38BF70470BD5C6
:1032700082F0FF0212F5803FC8BF704700F1C040E6
:10328000D8BF00F00040704700F5000C5FEA4C0C1E
:1032900048BF7047B0F1C04000F073B890EA010F2A
:1032A0000CEAD11348BF42F48072624538BF6345CF
:1032B00004D280EA010000F00040704710B500F031
:1032C0001AF800BF8900013E00F007B800F009B805
:1032D0005FEA410C5FEA1C6C08D080EA010000F054
:1032E00050B85FEA400C5FEA1C6CF6D14FF000402A
:1032F000A0F5800070470EF1020E2EF0030E5EF86E
:10330000044B244204D44FEA4102B2F17F4F11D85A
:103310004FEA4003B3F17F4F0CD80ED14FEAD07C77
:10332000B2F17F4F0CEB4C0C0CF1020C08BF4CEBD4
:10333000D17C04E04FF0080C01E04FEAD17C0CEBAB
:103340004C0324FA03F404F00704B4F1040C06D28D
:103350000EEB840CBDE810404CF0010C6047DFE838
:103360000CF0070802024FF00040A0F5800010BDED
:103370000846420018BFD2F1807288BF00F00040BA
:1033800010BDFF2141EAD050C0057047020304057B
:10339000060708090A0B0C0D0E0F1010010202039C
:1033A0000405060708090A0B0C0D0E0F1010010288
:1033B00000000000000000000102030406070809E5
:1033C0000000000001020304E833000800000020B0
:1033D00044000000280100082C34000844000020AC
:1033E0004C0700004401000800000000000000003D
:1033F0000000000000000000000000000000803F0E
:1034000000000000000000000000000010000000AC
:103410000100000000127A0000000000000000001F
:0C3420000000000000000100000000009F
:04000005080000ED02
:00000001FF
