:020000040800F2
:10000000D02F0020610200088B1C00088B13000811
:10001000891C00080B040008791E0008000000007D
:10002000000000000000000000000000C9010008FE
:100030000D040008000000000D020008691D000802
:100040007B0200087B0200087B0200087B0200089C
:100050007B0200087B0200087B0200087B0200088C
:100060007B0200087B0200087B0200087B0200087C
:100070007B0200087B0200087B0200087B0200086C
:100080007B0200087B0200087B0200087B0200085C
:100090007B0200087B0200087B0200087B0200084C
:1000A0007B020008F51D00087B0200087B020008A7
:1000B0007B0200087B0200087B0200087B0200082C
:1000C0007B0200087B0200087B0200087B0200081C
:1000D0007B0200087B0200087B0200087B0200080C
:1000E0007B0200087B0200087B02000800F002F897
:1000F00000F05AF80AA090E8000C82448344AAF168
:100100000107DA4501D100F04FF8AFF2090EBAE865
:100110000F0013F0010F18BFFB1A43F0010318473B
:10012000FC4000001C4100000A444FF0000C10F895
:10013000013B13F0070408BF10F8014B1D1108BF65
:1001400010F8015B641E05D010F8016B641E01F805
:10015000016BF9D113F0080F1EBF10F8014BAD1C55
:100160000C1B09D16D1E58BF01F801CBFAD505E073
:1001700014F8016B01F8016B6D1EF9D59142D6D3CD
:10018000704700000023002400250026103A28BFF5
:1001900078C1FBD8520728BF30C148BF0B607047F9
:1001A0001FB51FBD10B510BD00F0F5F81146FFF7E3
:1001B000F7FF01F0DAFE00F013F903B4FFF7F2FFE6
:1001C00003BC00F01BF90000224B19680868B0E876
:1001D000F00F80F30988BFF36F8F4FF0000080F3BA
:1001E00011884EF00D0E70470000000006480068B0
:1001F000006880F3088862B661B6BFF34F8FBFF323
:100200006F8F00DF00BF00BF08ED00E0EFF3098053
:10021000BFF36F8F0F4B1A6820E9F00F106008B51D
:100220004FF0500080F31188BFF34F8FBFF36F8FF3
:1002300002F042FA4FF0000080F31188BDE8084058
:1002400019680868B0E8F00F80F30988BFF36F8F72
:10025000704700BF14000020EFF3058070470000D6
:100260000948804709480047FEE7FEE7FEE7FEE74A
:10027000FEE7FEE7FEE7FEE7FEE7FEE70448054986
:10028000054A064B70470000F31D0008ED0000080A
:10029000D0290020D02F0020D02B0020D02B0020F0
:1002A00010B5431C02E010F8011B71B18107FAD1AF
:1002B0004FF0013202C88C1A8C4314EAC211F9D0F3
:1002C000C01A0A0603D0C01E10BDC01A10BD0A0411
:1002D00001D0801E10BD0902FCD0401E10BD10B51B
:1002E000203AC0F00B80B1E81850203AA0E818502E
:1002F000B1E81850A0E81850BFF4F5AF5FEA027CEF
:1003000024BFB1E81850A0E8185044BF18C918C05D
:10031000BDE810405FEA827C24BF51F8043B40F8FE
:10032000043B08BF7047D20728BF31F8023B48BFE3
:1003300011F8012B28BF20F8023B48BF00F8012B21
:1003400070474FF0000200B5134694469646203998
:1003500022BFA0E80C50A0E80C50B1F12001BFF47E
:10036000F7AF090728BFA0E80C5048BF0CC05DF8E4
:1003700004EB890028BF40F8042B08BF704748BF32
:1003800020F8022B11F0804F18BF00F8012B7047A6
:10039000704770477047754600F02CF8AE46050070
:1003A0006946534620F00700854618B020B5FFF790
:1003B00065FFBDE820404FF000064FF000074FF00A
:1003C00000084FF0000B21F00701AC46ACE8C00973
:1003D000ACE8C009ACE8C009ACE8C0098D4670477C
:1003E00010B50446AFF300802046BDE81040FFF78B
:1003F000E4BE0000004870476C2900200149182025
:10040000ABBEFEE7260002007047FEE77047000023
:100410002DE9F84F82464FF6FF79484600F0B6FFC7
:100420002E4C1F260096002122881423084601F036
:1004300009F92B4D4FF4FC6714232F8022881946AD
:10044000002001F01FF82E80152322881946002075
:1004500001F018F84FF60748A5F800801623228807
:100460001946002001F00EF8009663882288A3F157
:10047000140081B2002001F0E5F82F806088228806
:10048000143883B281B2002000F0FCFF2E80608817
:100490002288153883B281B2002000F0F3FFA5F85E
:1004A000008060882288163883B281B2002000F074
:1004B000E9FFA5F8009001251023524602210020F3
:1004C000009500F0EBF9009560881023123881B296
:1004D00004A2002000F0E2F9BDE8F88F5C290020BA
:1004E0007C000020C9EEDBDACAD0BAE8D1B6B5E7A5
:1004F000D7D3D3D0CFDEB9ABCBBE00002DE9F843C4
:10050000002741A0FFF784FF424C4FF6FF70009098
:1005100060882288183883B21821002001F092F8F0
:100520003D4E3E4D36F8170028806188C7EB071016
:1005300000EB510101F1230293B22288193900EB3B
:10054000520000F12302193892B289B280B200F051
:10055000F5FF642001F0A1FC7F1CFFB2052FE1D361
:100560005FF000071E2236F817002880C7EBC7008F
:1005700000EB80003C21323000F0FDFF642001F0F0
:100580008CFC7F1CFFB2052FECD340F2DC584046B8
:1005900001F083FC5FF0000736F817002880009018
:1005A0006188C7EB071000EB510101F1230293B200
:1005B0002288193900EB520000F12302193892B257
:1005C00089B280B201F03EF8642001F066FC7F1C25
:1005D000FFB2052FE0D30024C4EBC40036F814307A
:1005E00000EB80002B801E223C21323001F062FCA7
:1005F000642001F052FC641CE4B2052CECD34046AC
:10060000BDE8F84301F049BCCDBCD0CEB2E2CAD4BB
:10061000000000005C290020B41900207C000020AC
:100620002DE9FF4F044683B03420CDE900409B46BE
:1006300000274FF0800900BF2B48059A07EB0711F0
:1006400010F811301278934239D100EB410A059825
:100650009AF801104078814231D110231A46204681
:10066000049901F053F901F08DFA002600250AEBF8
:10067000060800BFBBF1000F98F8021029FA05F038
:1006800001EA00010BD019B12046049900F048FF9F
:10069000641C0098A4B2201A10281FD007E012484A
:1006A000001F09B1008800E0408801F035FA6D1C98
:1006B000EDB2082DDED3761CF6B2202ED6D37F1CE9
:1006C0000198BFB28742B7D3084800214388028807
:1006D00007B00846BDE8F04F01F018B90498009C37
:1006E000401C80B20490E6E7800000205C290020D6
:1006F0002DE9FF4F044683B00620CDE900409B461C
:1007000000274FF0800900BF07EB870000EB47117F
:100710002A48059A10F811301278934238D100EB2C
:10072000410A05989AF801104078814230D1182387
:100730001A462046049901F0E9F801F023FA002650
:1007400000250AEB060800BFBBF1000F98F8021065
:1007500029FA05F001EA00010BD019B120460499ED
:1007600000F0DEFE641C0098A4B2201A18281ED0E7
:1007700006E0134809B1008800E0408801F0CCF998
:100780006D1CEDB2082DDFD3761CF6B2482ED7D300
:100790007F1C0198BFB28742B6D30A480021438824
:1007A000028807B00846BDE8F04F01F0AFB80498E2
:1007B000009C401C80B20490E6E70000680700201F
:1007C0007C0000205C2900202DE9FF4F044683B007
:1007D0000820CDE900409B4600274FF0800900BF6C
:1007E0002B48059A07EB871110F8113012789342C5
:1007F00038D100EB410A05989AF8011040788142FF
:1008000030D120231A462046049901F07FF801F0E8
:10081000B9F9002600250AEB060800BFBBF1000F5E
:1008200098F8021029FA05F001EA00010BD019B17D
:100830002046049900F074FE641C0098A4B2201AAB
:1008400020281ED006E0134809B1008800E0408847
:1008500001F062F96D1CEDB2082DDFD3761CF6B203
:10086000802ED7D37F1C0198BFB28742B8D30A48E5
:1008700000214388028807B00846BDE8F04F01F028
:1008800045B80498009C401C80B20490E6E7000044
:10089000240900207C0000205C2900202DE9F84379
:1008A00005461C46174688461046089EFFF7F8FC8A
:1008B0000C4980B2102C098803D9620800FB121081
:1008C00002E0404201EBC00000EBD070C0F34F00EB
:1008D000284480B223463A464146009601F0D6F9B4
:1008E000BDE8F8835C29002070B5044600F004F9E7
:1008F0000546601C02D004480078044400F0FCF86F
:10090000401BA042FAD370BD040000202DE9F84F2F
:10091000DFF8B8910024A9F1040B23460F2709F151
:10092000040AABF1040EC9E00125A5402A40AA4201
:100930007DD1674ED1F804C0ACEB0608B44532D087
:1009400014DCBCF1030F3AD009DCBCF1000F2AD053
:10095000BCF1010F1CD0BCF1020F31D11DE0BCF184
:10096000110F17D0BCF1120F2AD119E0B8F5881F6A
:1009700019D006DCB8F5803F15D0B8F5801F1FD11F
:1009800011E0B8F5001F0ED0B8F5041F18D10AE029
:10099000CB6815E0CB681B1D12E0CB6808330FE075
:1009A000CB680C330CE08B682BB1012B4FF00803A4
:1009B00003D0456104E0042302E0056100E0002368
:1009C000FF2A01D8064601E000F104064FEA84053B
:1009D00001D9A5F12005D6F8008007FA05FC28EA20
:1009E0000C0803FA05F548EA0508C6F800804D68CA
:1009F000ED0062D5374DAE6946F00106AE61AD69D6
:100A000024F0030605F001050095334D06EB050CB7
:100A1000DCF80850A607360F07FA06F825EA08059D
:100A2000DFF8B880404503D14FF0000817E044E0FC
:100A3000DFF8AC80404502D14FF001080FE0DFF84D
:100A4000A480404502D14FF0020808E0DFF898800A
:100A5000404502D14FF0030801E04FF0040808FAC6
:100A600006F848EA0508CCF808804D68D9F8006017
:100A7000ED024D4601D5164300E096432E604D68C9
:100A8000DAF80060AD02554601D5164300E0964302
:100A90002E604D68DBF80060AD035D4601D516435E
:100AA00000E096432E604D68DEF80060ED03754669
:100AB00001D5164300E096432E60641C0D682A465B
:100AC000E5407FF431AFBDE8F88F00000804014035
:100AD0000000111000100240000001400008014019
:100AE000000C014000100140001401400AB10161F6
:100AF00070470904FBE70000014880687047000068
:100B00000400002002488168027811448160704727
:100B100004000020074810B5016841F01001016091
:100B2000032000F0A1F80F2000F006F800F04AF8CA
:100B3000002010BD0020024030B505461C4887B09B
:100B4000816941F400618161806906A900F4006057
:100B5000009001A800F030F900F04EF91549164A4E
:100B6000B0FBF1F11548491E0260416040F2E732E6
:100B70000021C0E903218160816100F005FB0400D0
:100B800012D10E4800F02EFB04000DD1192000F008
:100B90003DF8102D07D200222946192000F044F814
:100BA0000748056000E0012407B0204630BD000082
:100BB0000010024040420F00002C0140241C002085
:100BC000080000200F4808B5816941F001018161EA
:100BD000816901F001010091C16941F08051C16159
:100BE000C069002200F0805000900F21901E00F09C
:100BF0001BF80548416821F0E06141F00071416057
:100C000008BD00000010024000000140002809DB80
:100C100000F01F02012191404009800000F1E02016
:100C2000C0F8001170470000F0B40E4B1B680C4672
:100C3000C3F30223C3F10705042D00D90425191DB0
:100C4000072901D2002300E0DB1E012606FA05F188
:100C5000491E214099409E40761E16403143F0BC0B
:100C600001F00BB90CED00E0064900F0070208683E
:100C70004FF6FF03184040EA0220034A1043086081
:100C8000704700000CED00E00000FA052DE9F04788
:100C90000F46050061D0434E306800F00700B842AF
:100CA00009D2306820F0070038433060306800F027
:100CB0000700B84251D128683B4C810712D5400744
:100CC00003D5606840F4E06060602878000703D5D1
:100CD000606840F4605060606068A96820F0F000CF
:100CE000084360602878C00728D06868012810D0C1
:100CF0002168022810D0890700292EDA616821F0C6
:100D0000030101436160FFF7F7FE804641F2883935
:100D10000DE021688903EFE78901EDE7FFF7ECFEBD
:100D2000A0EB0801494502D90320BDE8F0876068BF
:100D3000696800F00C00B0EB810FEFD1306800F073
:100D40000700B8420BD9306820F007003843306004
:100D5000306800F00700B84201D00120E5E72878AC
:100D6000400705D56068E96820F4E06008436060EA
:100D70002878000706D56068296920F4605040EAA9
:100D8000C100606000F048F86168084AC1F30311CF
:100D9000515CC8400649086006480068FFF7CCFE71
:100DA0000020C2E70020024000100240362A00085E
:100DB00010000020080000200F2202600C4A536837
:100DC00003F003034360536803F0F0038360536848
:100DD00003F4E063C36052684FF4E06303EAD202B5
:100DE00002610448006800F00700086070470000D6
:100DF000001002400020024004480549006849688C
:100E0000044AC1F3C221515CC84070471000002061
:100E100000100240462A00080E4A51680E4801F0B0
:100E20000C03042B11D0082B0FD10C48C1F38343C2
:100E3000C903C05C0AD55168084AC1F34041921EFB
:100E4000515C054A5043B0FBF1F0704704494843F8
:100E5000704700000010024000127A00262A0008A5
:100E600000093D002DE9F84F040070D02078C04DF6
:100E7000C00749D06868C0F38100012807D06868BE
:100E8000C0F38100022809D16868C00306D528682C
:100E9000800339D560680028E7D035E06068B0F598
:100EA000803F0BD010B1B0F5A02F11D0286820F4EE
:100EB00080302860286820F4802002E0286840F410
:100EC00080302860606890B1FFF716FE06460AE0A1
:100ED000286840F480202860F0E700BFFFF70CFE90
:100EE000801B642873D828688003F7D50CE0FFF7CF
:100EF00003FE064605E000BFFFF7FEFD801B6428E9
:100F0000F0D828688003F7D420789A4E80074FF0F5
:100F100001094FF0000839D5686810F00C0F07D0B0
:100F20006868C0F38100022809D16868C00306D44C
:100F30002868800714D52069012808D110E02069AD
:100F4000B0B1C6F80090FFF7D7FD074605E00AE10B
:100F5000FFF7D2FDC01B0228C4D828688007F7D548
:100F60002868616920F0F80040EAC10028600DE0BF
:100F7000C6F80080FFF7C0FD074604E0FFF7BCFDA0
:100F8000C01B022823D828688007F7D420780007E0
:100F90002CD57948A169D9B1C0F80090FFF7ACFD14
:100FA000074604E0FFF7A8FDC01B02280FD8686AB7
:100FB0008007F7D571484FF4FA510068B0FBF1F0A3
:100FC000009000BF0098411E0091FAD20EE080E030
:100FD000C0F80080FFF790FD074604E0FFF78CFDA6
:100FE000C01B022875D8686A8007F7D420784007AC
:100FF00060D5E8690027C00008D4E86940F0805057
:10100000E861E869012700F0805000905C480168C1
:10101000C90513D40168834641F480710160FFF76C
:101020006BFD824606E000BFFFF766FDA0EB0A00FD
:1010300064284ED8DBF80000C005F5D5E06801282B
:101040000AD008B1052813D0286A20F001002862D0
:10105000286A20F0040002E0286A40F001002862BB
:10106000E06841F2883B98B1FFF746FD82460BE00D
:10107000286A40F004002862EEE700BFFFF73CFD5D
:10108000A0EB0A0159455AD8286A8007F6D50CE02A
:10109000FFF732FD824605E0FFF72EFDA0EB0A01C7
:1010A00059454CD8286A8007F6D41FB1E86920F06A
:1010B0008050E861E06988B36968C1F38101022961
:1010C00044D00228C6F8608004D0FFF715FD04461E
:1010D00038E034E0FFF710FD074604E0FFF70CFDB1
:1010E000C01B02282BD828688001F7D4206AB0F5ED
:1010F000803F05D16868A16820F40030084368602B
:10110000D4E908010843696821F474110843686050
:10111000C6F86090FFF7F0FC044606E025E000BF4B
:10112000FFF7EAFC001B022809D828688001F7D5E0
:101130001BE000BFFFF7E0FC001B022802D90320E0
:10114000BDE8F88F28688001F4D40EE00128F7D0BC
:101150006868226A00F48031914204D1616A00F427
:101160007010884201D00120EAE70020E8E7000083
:101170000010024000004242800442421000002061
:10118000007000407047704710B5040003D094F819
:101190003D0010B107E0012010BD002084F83C00A4
:1011A000204600F01EF8022084F83D00211D206832
:1011B00000F026FE012084F8460084F83E0084F802
:1011C0003F0084F8400084F8410084F8420084F82D
:1011D000430084F8440084F8450084F83D00002072
:1011E00010BD704790F83D10012901D001207047D3
:1011F000022180F83D100168CA6842F00102CA600D
:1012000000680B49884208D0B0F1804F05D00949E9
:10121000884202D00849884204D1816801F0070160
:10122000062903D0016841F00101016000207047E8
:10123000002C0140000400400008004070472DE9E8
:10124000F04104460068C66805694FF00007A90729
:1012500013D5B10711D5F91E01610120207720684F
:1012600080698007204602D0FFF7E8FF04E000F025
:101270007EF8204600F07CF82777680716D57007BF
:1012800014D521686FF004000861022020772068DF
:10129000806910F4407F204602D0FFF7CFFF04E0C2
:1012A00000F065F8204600F063F82777280715D589
:1012B000300713D521686FF00800086104202077FB
:1012C0002068C0698007204602D0FFF7B7FF04E01E
:1012D00000F04DF8204600F04BF82777E80616D5C9
:1012E000F00614D521686FF01000086108202077FF
:1012F0002068C06910F4407F204602D0FFF79EFFAF
:1013000004E000F034F8204600F032F82777E807D0
:1013100008D0F00706D021686FF001000861204670
:1013200000F028F8280608D5300606D521686FF0A9
:10133000800008612046FFF725FF680608D5700683
:1013400006D521686FF040000861204600F01CF8C7
:10135000A8060AD5B00608D521686FF020000861FC
:101360002046BDE8F041FFF70EBFBDE8F0817047B1
:101370007047000000680349884201D1FFF7C2BBF3
:1013800070470000002C01407047FEE770B506462C
:10139000094800240188458820464D43214600F035
:1013A0009BFA00F0EFFB03E0304600F0B5FB641C55
:1013B000AC42F9D370BD00005C2900202DE9F0415A
:1013C000F0212C232A252E4C4FF4A0722B2630B16D
:1013D000012804D0022815D0032813D022E00027CA
:1013E000A77121806280238165810028A6814FF04A
:1013F000360003D000F05AFBC02011E000F056FB8D
:1014000000200DE00127A771228061802381658182
:101410000228A6814FF036002ED000F047FB602056
:1014200000F00EFB608900F041FB002000F008FB9B
:10143000002000F005FB2088401EC0F30F2000F0C4
:10144000FFFA2078401EC0B200F0FAFAA08900F03E
:101450002DFB002000F0F4FA002000F0F1FA608883
:10146000401EC0F30F2000F0EBFAA078BDE8F04179
:10147000401EC0B200F0E4BA00F018FBA020CFE795
:101480005C2900202DE9FE4F161ACDE900104FF01F
:1014900000085D1A47464FF0FF30002E02DD4FF086
:1014A000010102E003D14FF000018B4602E08346C8
:1014B000C6F10006002D02DD4FF0010002E003D16D
:1014C0004FF00000824602E08246C5F10005AE42C0
:1014D00001DD344600E02C46601C4FF0000902900C
:1014E00018E0009881B2019880B200F019F8B04479
:1014F0002F44A04504DD0198A8EB0408584401904E
:10150000A74203DD00983F1B5044009009F1010001
:101510001FFA80F902998945E3DDBDE8FE8F0000DE
:1015200010B500F0D9F900F02DFB03480088BDE8A4
:10153000104000F0F1BA00007C0000202DE9F041DD
:101540001C4615460E4607460B46FFF79BFF3A46DC
:10155000234631461046FFF795FF23462A46194693
:101560003846FFF78FFF2A4623463146BDE8F04153
:101570001046FFF787BF2DE9FC5F80460025144623
:1015800003200F46A0EB440649E0381B81B208EB6C
:10159000050A01901FFA8AF0FFF7C2FF781B81B29B
:1015A00008EB040900901FFA89F0FFF7B9FF07EB79
:1015B000050B1FFA8BF11FFA89F0FFF7B1FF07EB5C
:1015C00004091FFA89F11FFA8AF0FFF7A9FFA8EBB7
:1015D000050A1FFA89F11FFA8AF0FFF7A1FFA8EBAD
:1015E00004091FFA8BF11FFA89F0FFF799FF0198A0
:1015F00081B21FFA8AF0FFF793FF009881B21FFAB9
:1016000089F0FFF78DFF6D1C002E03DA06EB8506CF
:10161000B61D04E0281B06EB8006641E0A36A542B0
:10162000B3DDBDE8FC9F000010B5144600F054F98E
:10163000034821460089BDE8104000F0A9BA000027
:101640005C2900202DE9F843204C1E468046A388E3
:10165000DDF82090A3F5D040043802D1A07901280C
:1016600005D0A2EB0800401C84B20D462AE0258874
:101670000846A91AA5EB08030025A57132462A25BC
:1016800065812B26491E5B1EA68189B29BB2CDF8CF
:101690000090FFF7D7FF0120A0716681A581BDE80A
:1016A000F8832946404600F017F900F06BFA00274E
:1016B00004E0484600F030FA7F1CBFB2A742F8D3DE
:1016C0006D1CADB2B542ECD9E9E700005C29002001
:1016D00010B5804C012220212046FFF707FA012295
:1016E00051022046FFF702FA012280212046FFF72F
:1016F000FDF9012208212046FFF7F8F901224021D7
:101700002046FFF7F3F9012211022046FFF7EEF918
:10171000002208212046FFF7E9F90120FFF7E4F84D
:10172000012208212046FFF7E1F90120FFF7DCF84C
:10173000002208212046FFF7D9F90A20FFF7D4F844
:10174000012208212046FFF7D1F97820FFF7CCF8D5
:101750007820FFF7C9F8112000F0A8F97820FFF7EA
:10176000C3F8362000F0A2F9002000F069F93A2011
:1017700000F09CF9552000F063F9B22000F096F9D2
:101780000C2000F05DF90C2000F05AF9002000F068
:1017900057F9332000F054F9332000F051F9B72005
:1017A00000F084F9462000F04BF9BB2000F07EF9F0
:1017B0001B2000F045F9C02000F078F92C2000F043
:1017C0003FF9C22000F072F9012000F039F9C3207E
:1017D00000F06CF90F2000F033F9C42000F066F936
:1017E000202000F02DF9C62000F060F90F2000F055
:1017F00027F9D02000F05AF9A42000F021F9A12007
:1018000000F01EF9D62000F051F9A12000F018F9DF
:10181000E02000F04BF9F02000F012F9002000F079
:101820000FF9062000F00CF9042000F009F905205A
:1018300000F006F9052000F003F9312000F000F96E
:10184000442000F0FDF8482000F0FAF8362000F0BF
:10185000F7F8122000F0F4F8122000F0F1F82B2035
:1018600000F0EEF8342000F0EBF8E12000F01EF973
:10187000F02000F0E5F80B2000F0E2F80F2000F077
:10188000DFF80F2000F0DCF80D2000F0D9F826205A
:1018900000F0D6F8312000F0D3F8432000F0D0F863
:1018A000472000F0CDF8382000F0CAF8142000F0EE
:1018B000C7F8142000F0C4F82C2000F0C1F8322042
:1018C00000F0BEF8212000F0F1F8BDE8104029201A
:1018D00000F0ECB8000C014070B50B4E05460C460C
:1018E000708900F0E3F8280A00F0AAF8E8B200F0E6
:1018F000A7F8B08900F0DAF8200A00F0A1F8E0B209
:10190000BDE8704000F09CB85C2900202DE9F04152
:1019100005461044401E87B2C818DFF84C80401EB0
:1019200086B20C46B8F80A0000F0C0F8280A00F0A9
:1019300087F8E8B200F084F8380A00F081F8F8B2CD
:1019400000F07EF8B8F80C0000F0B0F8200A00F0C3
:1019500077F8E0B200F074F8300A00F071F8F0B2F5
:10196000BDE8F04100F06CB85C2900202DE9FF5F74
:101970001D460C468A46580700D0012000EBD500D2
:1019800069084843203A00F0FF09D0B20026DFF88A
:101990009CB0029045E00C2D12D0102D15D0182DC2
:1019A00041D10298224900EBC00000BF01EB80004A
:1019B0004FF00008875D38060CD51E4802880DE000
:1019C00002981D4900EB4000F0E71C49029801EB2A
:1019D0000010EDE70E9828B9164842882146009875
:1019E000FFF722FE7806070E641CBBF80200A4B2C3
:1019F000A04218D9A4EB0A00A84209D10098544685
:101A0000401C80B20090BBF8001081420BD906E068
:101A100008F1010000F0FF08B8F1080FCBD3761CE5
:101A2000F6B24E45B7D3BDE8FF9F00005C29002009
:101A3000B23400087C0000204E2A0008C22E0008A4
:101A40002DE9F041184E05464FF40078002241463A
:101A50003046FFF74BF8012211023046FFF746F8F7
:101A600000244FF6FF77280601D5012200E000226E
:101A700080213046FFF73AF807EA45050022402169
:101A80003046FFF733F8012240213046FFF72EF8A9
:101A9000641CE4B2082CE6D341463046BDE8F04170
:101AA0000122FFF723B80000000C01402DE9F041AE
:101AB000184E05464FF40078002241463046FFF7A5
:101AC00015F80022B1153046FFF710F800244FF644
:101AD000FF77280601D5012200E000228021304650
:101AE000FFF704F807EA4505002240213046FEF7DB
:101AF000FDFF012240213046FEF7F8FF641CE4B2EE
:101B0000082CE6D341463046BDE8F0410122FEF7FD
:101B1000EDBF0000000C01402DE9F041184E0546D4
:101B20004FF40078002241463046FEF7DFFF0122E5
:101B300011023046FEF7DAFF00244FF6FF77280443
:101B400001D5012200E0002280213046FEF7CEFFC1
:101B500007EA4505002240213046FEF7C7FF012273
:101B600040213046FEF7C2FF641CE4B2102CE6D3DD
:101B700041463046BDE8F0410122FEF7B7BF000004
:101B8000000C014001480089FFF790BF5C2900204C
:101B900010B50C46FFF78AFF2046BDE81040FFF75E
:101BA000BBBF000000B587B01C2206496846FEF79F
:101BB00096FB0021684600F000FA0349086007B070
:101BC00000BD0000082A0008000000202DE9F043B5
:101BD00085B00024294800940194029403948169FB
:101BE00041F010018161816901F010010491816966
:101BF00041F020018161816901F020010491816936
:101C000041F004018161816901F00401049181695D
:101C100041F0080181618069012200F00800DFF8CD
:101C200060805503049029464046FEF75FFFDFF8C9
:101C300054904FF47A77012239464846FEF756FF12
:101C40000095022601250396CDE9015469464046D8
:101C5000FEF75CFE00970396CDE9015469464846BD
:101C6000FEF754FE1020CDE9000469464846029470
:101C7000FEF74CFE05B0BDE8F08300000010024006
:101C800000100140000C0140FEE7FEE72DE9F84F8F
:101C90001D4616460F46044682464FF00008DFF800
:101CA000BC90DDF828B04BE0B8F1000F2FD1C8464A
:101CB000B8F80010A1EB5501A14226DBB8F80200EC
:101CC000401BB84221DB3278802A20D80D2A0BD065
:101CD000182DCDF800B00CD3182339462046FFF755
:101CE00045FE0C34A4B20CE0781987B25446761C39
:101CF00007E02B4639462046FFF738FE04EB550037
:101D000084B216F8010F0028D2D1BDE8F88FB9F8D7
:101D10000010491BA142F8DBB9F80200401BB84291
:101D2000F3DB4FF00008202D0ED0182D5B46324615
:101D3000394620460FD0FEF773FC601984B2B61CFA
:101D400030780028B0D1E0E75B463246394620467D
:101D5000FEF73AFDF1E7FEF7CBFCEEE75C29002049
:101D6000012000F01EF9FBE710B5502080F3118828
:101D7000BFF34F8FBFF36F8F00F078FD18B10449A8
:101D80004FF080500860002080F3118810BD0000E3
:101D900004ED00E030B58FB028216846FEF7D1FA97
:101DA00014210AA8FEF7CDFA01210804CDE900109C
:101DB0000024029402250491CDE907504FF4E0106D
:101DC00009906846FFF74EF808B172B6FEE70F209B
:101DD000CDE90A054FF48060CDE90C4002210AA844
:101DE0000E94FEF753FF002801D072B6FEE70FB045
:101DF00030BD70470148FFF722BA0000241C0020C4
:101E0000F0B50268194B1A4C1A4D4FF080479842B2
:101E100005D0B84203D0A04201D0A84203D122F09D
:101E200070064A683243984205D0B84203D0A042B7
:101E300001D0A84203D122F44074CA6822434C69FD
:101E400022F08002224302608A68C2620A688262CB
:101E5000984201D109690163012141610169C90702
:101E600003D0016921F001010161F0BD002C0140A6
:101E70000004004000080040FEE70907090E0028A2
:101E800004DB00F1E02080F80014704700F00F0040
:101E900000F1E02080F8141D7047FEF725BD08B55D
:101EA000002A06D00244521E009392B20B46FFF75E
:101EB000C9FB08BD2DE9FF5F80460E4640F2C320F6
:101EC00050434FF47A71B0FBF1F702FB02F000EBE4
:101ED000520B14464FF6FF7000EA4202A8EB0400D2
:101EE00080B231467F1C039BFFF7D9FF012538E004
:101EF00005FB05F004FB040159451BD9BC4218D968
:101F00006800A0F10209301981B2A8EB050000F1C8
:101F1000010A1FFA89F21FFA8AF0039BFFF7BFFF3D
:101F2000301B81B21FFA89F21FFA8AF0039BFFF778
:101F3000B6FF641E4FF6FF7000EA4402701981B2CA
:101F4000A8EB040A91461FFA8AF0039BFFF7A7FF4C
:101F5000701B81B24A461FFA8AF0039BFFF79FFF6E
:101F60006D1CBD42C4D9BDE8FF9FFEF7D3FDFFF74E
:101F700011FFFFF72BFEFFF7ABFB0320FFF71EFA65
:101F80004FF6FF70FFF702FAFEF7B8FAFFF70AFE06
:101F900000F00EF8FEE701460020842900D0C81C9E
:101FA000704710B500B9012000F022FB002010BDE1
:101FB00010B500F043FB002010BD7FB50D46044670
:101FC0004169B0F9080081B1A16971B1FFF7E3FF80
:101FD000D4E905128DE80700D4E900102B462269E8
:101FE00000F019FC039004B070BDFFF7D4FF03A903
:101FF000CDE90001208A2B4682B2D4E9001000F01E
:10200000DDFB012801D00020EDE70398EBE700009D
:102010002DE9F041184C0F460546E6682068001D82
:1020200000F01CFA38B9206890F82C100120884084
:10203000216981432161681C07D137B12168BDE85E
:10204000F0410E48091D00F04EBA20683544B542F3
:102050004560216805D2A06BBDE8F041091D00F084
:102060002ABA606B091D00F026FAA06A854200D2E8
:10207000A562BDE8F081000014000020481D00208A
:102080002DE9F041054600F03BFA2E4CA068401CBB
:10209000A06020682C4F10B1606940B32DE025602E
:1020A000A068012829D1002606EB860007EB8000F6
:1020B00000F0F3F9761C072EF6D323488C3000F09D
:1020C000ECF92148A03000F0E8F91F48B43000F0E6
:1020D000E4F91D48C83000F0E0F91B48DC3000F09E
:1020E000DCF919488C3060631430A06305E0206887
:1020F000E96AC06A884200D82560606A401C606254
:10210000E96A0120226988401043206101EB8100C7
:1021100007EB8000291D00F0E6F900F011FA606974
:1021200000280CD02068E96AC06A884207D20749B3
:102130004FF080500860BFF34F8FBFF36F8FBDE843
:10214000F0810000140000206C1C002004ED00E071
:1021500010B5044690F8510058B101280CD002285F
:102160000FD0502080F31188BFF34F8FBFF36F8FD4
:10217000FEE7206B00F0F8F92046BDE8104000F0C3
:10218000F3B910BD10484FF44061420706D0C01D9E
:102190000D4920F00700411AC1F540610B4A0023A8
:1021A0000144C2E900030839183A21F0070111601F
:1021B0004B600B600B1AC0E9001393604FF00040B6
:1021C00053605061704700005C1D002068000020D3
:1021D000144E154CA6F1C8074FF08058DFF84C900C
:1021E00012E000BF00F08CF9F068C568281D00F00F
:1021F00035F9A068401EA0606068401E606000F075
:102200009FF92846FFF7A4FF60680028EAD13868E4
:102210000128F9D9C9F80080BFF34F8FBFF36F8F42
:10222000F2E70000341D00201400002004ED00E05F
:102230002DE9F0479A46DDE9098481466FF00303F2
:10224000206B03EB82021044089E20F007077807FA
:1022500007D0502080F31188BFF34F8FBFF36F8FEB
:10226000FEE7002561B1002023180A5C83F83420C2
:102270000A5C12B1401C1028F6D384F8435001E0E8
:1022800084F83450072E00D30626E662C4E91165AF
:10229000201D00F00DF904F1180000F009F9246187
:1022A000C6F107006462A061E56484F850505246AC
:1022B0004946384600F0C0F82060B8F1000F01D060
:1022C000C8F80040BDE8F08730B5114900E011467C
:1022D0000A688242FBD34B685C18844203D1406891
:1022E00018444860084643681C18944209D1084CB9
:1022F000183C2468A24209D052681A4442600A6815
:1023000012680260814200D0086030BD0460F9E7C5
:10231000680000200648416B096829B1416BC96813
:10232000C9684968816270474FF0FF31FAE70000E1
:102330001400002008484068401C4FF0500080F313
:10234000118804D0BFF34F8FBFF36F8FFEE7BFF349
:102350004F8FBFF36F8FFEE7700000202DE9F04133
:102360000546002700F0A0F9324E306808B9FFF7A3
:1023700009FF706905424ED1C5B3083568070ED014
:1023800005F00700C0F108000544680707D0502099
:1023900080F31188BFF34F8FBFF36F8FFEE72DB32C
:1023A0007068854237D82348183001460C6801E030
:1023B00020460C466168A94202D221680029F7D163
:1023C00031688C4227D0076821680160606808374F
:1023D000411B10290FD96019420708D0502080F303
:1023E0001188BFF34F8FBFF36F8FFEE713E041609B
:1023F0006560FFF769FF61687068401A7060B268D5
:10240000904200D2B060706901430020C4E900012D
:10241000F068401CF06000F095FA780707D0502073
:1024200080F31188BFF34F8FBFF36F8FFEE73846FD
:10243000BDE8F0815000002010B5031F4FF08074FC
:102440001C601B1F21F001011960191F024B0B605A
:10245000143940380A6010BD35230008D0E9013234
:1024600001699A60D0E901235A604A68824201D129
:1024700082684A60002202610868401E086008689D
:1024800070470000034B036003F154000860802094
:1024900010607047D0190020704700F108014FF01C
:1024A000FF32C0E90112C160016100210160704783
:1024B00000210161704730B50B685A1C02D000F151
:1024C000080202E0026904E02246546825689D4241
:1024D000FAD953684B6099608A605160086101685D
:1024E000491C016030BD42684A6093688B60936804
:1024F0005960916008610168491C016070470000E3
:10250000502080F31188BFF34F8FBFF36F8F0A49BC
:102510004868401C486001280CD10848006810F049
:10252000FF0F07D0502080F31188BFF34F8FBFF308
:102530006F8FFEE7704700007000002004ED00E0A0
:102540000849486828B1401E486001D180F31188CD
:102550007047502080F31188BFF34F8FBFF36F8F08
:10256000FEE700007000002070B500282AD0164D4C
:10257000A0F1080460686969084207D1502080F31F
:102580001188BFF34F8FBFF36F8FFEE722683AB118
:10259000502080F31188BFF34F8FBFF36F8FFEE79A
:1025A0008843606000F080F860686968084468608B
:1025B0002046FFF789FE2869401C2861BDE870406D
:1025C00000F0C0B970BD0000500000204FF0E020C6
:1025D00000210161816105494FF47A720968B1FBFC
:1025E000F2F1491E4161072101617047100000208E
:1025F00010B5020014D00F48006B38B1502080F3A2
:102600001188BFF34F8FBFF36F8FFEE700F04CF8D8
:1026100000211046FFF7FCFC00F094F9002807D1D8
:1026200005494FF080500860BFF34F8FBFF36F8FA5
:1026300010BD00001400002004ED00E010B586B0CD
:102640000024039405AA04A903A80494FFF71AFF21
:10265000DDE903010094CDE9011000230EA110482B
:10266000059A00F0D8F80F490028C86211D0502010
:1026700080F31188BFF34F8FBFF36F8F4FF0FF30A0
:10268000886201204861CC6006B0BDE8104000F0CF
:1026900041B806B010BD000049444C4500000000A0
:1026A000D1210008140000200248016B491C01637D
:1026B00070470000140000201448016B11B1012183
:1026C000C16170470021C1610169B1FA81F1C1F1B5
:1026D0001F0101EB81020E4951F822306BB101EB71
:1026E000820101F108034A6852684A609A4201D1A6
:1026F00052684A60D16801607047502080F31188A9
:10270000BFF34F8FBFF36F8FFEE700001400002070
:102710006C1C00201CB5264908780190FF20087029
:1027200008788DF800009DF800009DF8002000F06A
:10273000F000904207D0502080F31188BFF34F8FF4
:10274000BFF36F8FFEE79DF800001A4C00F05000B9
:1027500020700720A06005E09DF8002052008DF851
:102760000020401E9DF800201206F5D4A06003282A
:1027700007D0502080F31188BFF34F8FBFF36F8FC6
:10278000FEE74FF44070A060019808700A480168A5
:1027900041F470010160016841F070410160FFF790
:1027A00015FF00206060FDF721FD00201CBD00002A
:1027B00000E400E07000002020ED00E02DE9FF5F64
:1027C0008346DDE90E87994616468A469000FFF754
:1027D000C5FD05001CD05420FFF7C0FD040014D037
:1027E0000020256384F85100CDE90240CDE900873F
:1027F0004B46324651465846FFF71AFD2046FFF732
:102800003FFC012004B0BDE8F09F2846FFF7ACFE76
:102810004FF0FF30F6E7F0B585B0DDE90B640A9DB7
:10282000A6B1DCB1542700972663022684F85160D4
:10283000002604AFCDE90246CDE90057FFF7F8FCCA
:102840002046FFF71DFC049805B0F0BD502080F332
:102850001188BFF34F8FBFF36F8FFEE7502080F3D7
:102860001188BFF34F8FBFF36F8FFEE72DE9F04163
:10287000324C0027206B38B1A069401CA061FFF7E3
:102880000BFE3846BDE8F081E668761CE66013D1A1
:10289000606B006838B1502080F31188BFF34F8F10
:1028A000BFF36F8FFEE7606BA16B6163A063206A6B
:1028B000401C2062FFF72EFDA06ADFF8848086426C
:1028C00009D3606B006890B1606BC068C5686868C8
:1028D00086420FD2A0622068C06A00EB800158F8DF
:1028E0002100012800D90127A06900B321E04FF0A1
:1028F000FF30EFE7281DFFF7B1FDA86A18B105F119
:102900001800FFF7ABFDE96A0120226988401043F7
:10291000206101EB810108EB8100291DFFF7E3FD38
:10292000E86A2168C96A8842CBD30127C9E7FFF763
:10293000B3FDE0690028A4D00127A2E7140000201D
:102940006C1C00202DE9F0472C4D00242746286BF5
:1029500038B1FFF7D5FD286B401E2863286B40B1C6
:1029600046E0502080F31188BFF34F8FBFF36F8F85
:10297000FEE7A968224E0120D1B3A6F1B409804632
:102980003068E8B1F068C46804F11800FFF766FD2C
:10299000201DFFF763FDE06A2A6908FA00F1114380
:1029A000296100EB800109EB8100211DFFF79BFDF0
:1029B000E06A2968C96A8842E2D3C5F81C80DFE76B
:1029C0000CB1FFF7A7FCAC6944B14646FFF74EFFD8
:1029D00000B1EE61641EF9D10020A861E86938B148
:1029E0000849012738070860BFF34F8FBFF36F8F87
:1029F000FFF7A6FD3846BDE8F08700001400002070
:102A0000201D002004ED00E010420008611D0008B8
:102A10000000000000000000800000000000000036
:102A200000000000010202030405060708090A0B62
:102A30000C0D0E0F1010000000000000000001023D
:102A40000304060708090000000001020304000057
:102A500000000000000000000000000000003F40F7
:102A60000000000000000000300040003000400086
:102A7000000009000BC03D000BC03D00090018C05C
:102A800024407FE0224031800000180024C01B0059
:102A90000D803240018003801C4027401C8007408D
:102AA0000040100060000000000000000000000076
:102AB000000000001F8020404020000040202040F7
:102AC0001F8000000000090006001F8006000900AA
:102AD0000000040004003F80040004000000001017
:102AE000006000000000000000000400040004007A
:102AF000040004000000000000400000000000008E
:102B00000000002001C006003800400000001F80C7
:102B10002040204020401F800000000010403FC0A7
:102B200000400000000018C021402240244018400E
:102B3000000010802040244024401B800000020040
:102B40000D0011003FC0014000003C8024402440A3
:102B50002440238000001F80244024403440038010
:102B600000003000200027C03800200000001B803B
:102B70002440244024401B8000001C0022C022402E
:102B800022401F80000000000000084000000000FC
:102B900000000000000004600000000000000000D1
:102BA00004000A00110020804040090009000900CB
:102BB00009000900000000004040208011000A00C8
:102BC00004001800200023402400180000001F808B
:102BD0002040274029401F400000004007C0390026
:102BE0000F0001C0004020403FC0244024401B8013
:102BF00000001F8020402040204030800000204006
:102C00003FC0204020401F80000020403FC02440A3
:102C10002E4030C0000020403FC024402E00300035
:102C200000000F001080204022403380020020402E
:102C30003FC0040004003FC02040204020403FC06F
:102C40002040204000000060202020203FC02000C5
:102C5000200020403FC024400B0030C020402040D6
:102C60003FC020400040004000C03FC03C0003C0C7
:102C70003C003FC0000020403FC00C4023003FC04C
:102C800020001F802040204020401F800000204066
:102C90003FC024402400180000001F802140214034
:102CA00020E01FA0000020403FC02440260019C0A3
:102CB000004018C0244024402240318000003000F1
:102CC00020403FC020403000000020003F800040F6
:102CD00000403F80200020003E0001C00700380077
:102CE0002000380007C03C0007C03800000020402A
:102CF00039C0060039C0204000002000384007C01D
:102D0000384020000000304021C02640384020C01C
:102D10000000000000007FE0402040200000000094
:102D200070000C00038000400000000040204020A4
:102D30007FE00000000000002000400020000000B4
:102D40000000001000100010001000100010000023
:102D5000000040000000000000000000028005406C
:102D6000054003C0004020003FC0044004400380F1
:102D70000000000003800440044006400000000002
:102D80000380044024403FC0004000000380054011
:102D9000054003400000000004401FC024402440C0
:102DA0002000000002E0055005500650042020409D
:102DB0003FC00440040003C000400000044027C09E
:102DC00000400000000000100010041027E0000088
:102DD000000020403FC00140070004C004402040E4
:102DE00020403FC000400040000007C0040007C072
:102DF000040003C00000044007C00440040003C0F6
:102E000000400000038004400440038000000410E0
:102E100007F00450044003800000000003800440D9
:102E2000045007F00010044007C0024004000400F2
:102E30000000000006400540054004C000000000FE
:102E400004001F8004400040000004000780004090
:102E5000044007C000400400070004C001800600D1
:102E60000400060001C0070001C006000000044085
:102E700006C0010006C0044000000410071004E072
:102E80000180060004000000044005C00640044024
:102E900000000000000004007BE040200000000073
:102EA00000000000FFF000000000000040207BE078
:102EB00004000000000040008000400020002000CE
:102EC00040000000000000000000000000000000C2
:102ED00000000000000000001FCC000C00000000FB
:102EE00000000000080030006000080030006000B2
:102EF0000000022003FC1E20022003FC1E200220F2
:102F0000000000000E1811043FFF10840C78000030
:102F100000000F0010840F3800C007781884007874
:102F2000000000780F8410C411240E9800E400847F
:102F300000080800680070000000000000000000A9
:102F4000000000000000000007E018182004400204
:102F50000000000040022004181807E000000000F4
:102F600000000240024001800FF001800240024058
:102F700000000080008000800FF80080008000804A
:102F800000000001000D000E000000000000000025
:102F90000000000000800080008000800080008031
:102FA00000800000000C000C000000000000000089
:102FB00000000000000600180060018006001800F4
:102FC0002000000007F0080810041004080807F0AB
:102FD00000000000080408041FFC000400040000B6
:102FE000000000000E0C10141024104411840E0C6C
:102FF000000000000C1810041104110412880C7059
:103000000000000000E00320042408241FFC00242A
:10301000000000001F981084110411041088107023
:103020000000000007F008881104110418880070DF
:10303000000000001C00100010FC13001C00100019
:10304000000000000E3811441084108411440E3822
:10305000000000000700088C10441044088807F0A6
:103060000000000000000000030C030C0000000042
:103070000000000000000001010600000000000048
:103080000000000000800140022004100808100425
:103090000000022002200220022002200220022042
:1030A0000000000010040808041002200140008005
:1030B000000000000E001200100C106C10800F00B9
:1030C000000003E00C1813E4142417C4082807D0E8
:1030D00000000004003C03C41C40074000E4001C46
:1030E000000410041FFC1104110411040E88007068
:1030F000000003E00C1810041004100410081C1049
:10310000000010041FFC100410041004080807F04D
:10311000000010041FFC1104110417C41004081847
:10312000000010041FFC1104110017C0100008005B
:10313000000003E00C181004100410441C78004038
:10314000000010041FFC10840080008010841FFC0D
:1031500010040000100410041FFC100410040000F0
:10316000000000030001100110011FFE10001000FC
:10317000000010041FFC110403801464181C1004C8
:10318000000010041FFC1004000400040004000CE4
:10319000000010041FFC1F0000FC1F001FFC100497
:1031A000000010041FFC0C04030000E010181FFCBA
:1031B000100007F00808100410041004080807F0B5
:1031C000000010041FFC10841080108010800F007D
:1031D000000007F0081810241024101C080A07F239
:1031E000000010041FFC1104110011C011300E0C5E
:1031F000000400000E1C11041084108410441C38BC
:1032000000001800100010041FFC1004100018002B
:10321000000010001FF810040004000410041FF840
:10322000100010001E0011E0001C007013801C0034
:1032300010001FC0103C00E01F0000E0103C1FC049
:1032400000001004180C163401C001C01634180C0C
:10325000100410001C00130400FC13041C001000D8
:1032600000000804101C1064108413041C041018BF
:1032700000000000000000007FFE4002400240020B
:103280000000000030000C0003800060001C000300
:10329000000000004002400240027FFE00000000EB
:1032A000000000000000200040004000400020001E
:1032B0000000000100010001000100010001000107
:1032C000000100004000400020000000000000005D
:1032D000000000000098012401440144014400FC66
:1032E000000410001FFC0088010401040088007025
:1032F000000000000070008801040104010400883F
:1033000000000000007000880104010411081FFC87
:103310000004000000F8014401440144014400C8D5
:1033200000000000010401040FFC1104110411004D
:103330001800000000D601290129012901C9010650
:10334000000010041FFC008401000100010400FCC7
:10335000000400000104190419FC0004000400002A
:1033600000000000000300010101190119FE000026
:10337000000010041FFC0024004001B4010C0104F3
:1033800000000000100410041FFC000400040000F2
:103390000000010401FC0104010001FC0104010022
:1033A00000FC010401FC008401000100010400FC98
:1033B0000004000000F8010401040104010400F805
:1033C0000000010101FF0085010401040088007074
:1033D000000000000070008801040104010501FFE5
:1033E00000010104010401FC0084010401000180CA
:1033F0000000000000CC01240124012401240198D4
:10340000000000000100010007F8010401040000B1
:103410000000010001F8000400040004010801FCA0
:103420000004010001800170000C001001600180A7
:10343000010001F0010C003001C00030010C01F06E
:10344000010000000104018C00740170018C010472
:103450000000010101810171000E0018016001806E
:10346000010000000184010C013401440184010CBD
:103470000000000000000000000001003EFC4002CF
:1034800040020000000000000000FFFF00000000FC
:1034900000000000400240023EFC0100000000006D
:1034A000000000006000800080004000400020001C
:1034B00020000000000000000000000000000000EC
:1034C00000000000000000000000000000000000FC
:1034D00000000000000000000000000000000000EC
:1034E00000000000000F80380FFE380F8038000009
:1034F00000000000000000000000000000000000CC
:103500000100000600000C00003800003100000639
:1035100000000C0000380000300000000000000037
:10352000000061800067F807F98000618000618019
:103530000061800061800067F807F9800061800009
:10354000000000000000000001C0E003E0F00630D1
:10355000080418081FFFFE040E080787F00381E027
:1035600000000000000001F000060C000404080642
:103570000C7001F9C0000E00003BE000EC180708D9
:1035800008040C180003E00000000001E00007F050
:1035900003F818041C0804170807E1D003C0E00072
:1035A00023B0003C080020080000100000000000CC
:1035B000000100003100003200001C00000000008B
:1035C00000000000000000000000000000000000FB
:1035D00000000000000000000000000000000000EB
:1035E00000007F0001FFC00780F00C0018100004ED
:1035F0002000020000000000002000021000040C67
:1036000000180780F001FFC0007F000000000000EC
:103610000000000000000000000000000000420068
:10362000006600006600003C0000180003FFC000B8
:103630001800003C00006600006600004200000028
:103640000000080000080000080000080000080052
:1036500001FFC0000800000800000800000800008A
:1036600008000000000000010000310000320000EE
:103670001C0000000000000000000000000000002E
:10368000000000000000000000000800000800002A
:1036900008000008000008000008000008000008FA
:1036A000000008000008000000000000000000000A
:1036B0000000380000380000380000000000000062
:1036C00000000000000000000000000000000000FA
:1036D0000000000600001C000070000180000E00C9
:1036E00000380000C0000700001C0000300000008F
:1036F0000000000000007F8001FFE00380700600F2
:103700001804000804000806001803807001FFE098
:10371000007F8000000000000000000001000801A0
:10372000000801000803FFF807FFF8000008000088
:103730000800000800000000000000000001C03880
:1037400002C0580400980401180402180404180662
:103750001C1803F81801E0F8000000000000000049
:103760000001C0E003C0F0040008040808040808D1
:1037700006180803F41801E7F00001E0000000005B
:103780000000000000000300000D000011000061B7
:103790000000810803010807FFF80FFFF800010887
:1037A0000001080000000000000000E007FCD00657
:1037B0000808061008061008061008061838060F34
:1037C000F00607C0000000000000000000003F807D
:1037D00001FFE003843002081804100804100804F4
:1037E0001008071810030FF00007C00000000000C9
:1037F0000000000003C0000700000600000600F8FB
:103800000607F806180006E00007000006000000A2
:10381000000000000001E1E003F7F0063410041896
:1038200008041808040C08040C0806161803F3F022
:1038300001C1E000000000000000F80003FC3003BC
:1038400006380402080402080402080404100308ED
:10385000F001FFC0007F0000000000000000000039
:103860000000000000000000000070380070380008
:1038700070380000000000000000000000000000A0
:103880000000000000000000000000000000301AEE
:1038900000301C00000000000000000000000000DC
:1038A00000000000000000000008000014000022DA
:1038B0000000410000808001004002002004001050
:1038C00008000800000000000000210000210000A6
:1038D0002100002100002100002100002100002122
:1038E0000000210000210000000000000000000096
:1038F0000800080400100200200100400080800041
:103900004100002200001400000800000000000038
:103910000003C00004C000040000080038080F388D
:103920000808380810000C300007E00003C0000051
:103930000000000000003F8000FFE0038070020FE5
:103940001006708804C088048308047F8802C09031
:1039500003012000FE400000080000180001F800EC
:103960003E0801C20007020007E20000FE00001F3F
:10397000C80001F800003800000804000807FFF83C
:1039800007FFF804080804080804080804080806E3
:10399000180803F41801E7F00001E000000000003F
:1039A00000003F8001FFE00380700200180400085F
:1039B0000400080400080400100600200780C0006E
:1039C000000004000807FFF807FFF80400080400DF
:1039D0000804000804001802001003807001FFE0D2
:1039E000007F8000000004000807FFF807FFF804CC
:1039F0000808040808040808040808043E0804002D
:103A00000806001801006000000004000807FFF825
:103A100007FFF8040808040800040800040800046C
:103A20003E000600000600000180000000000000CB
:103A300000003F8001FFE0038070060018040008CA
:103A40000402080402080203F00783F000020000E9
:103A5000020004000807FFF807FFF8040808000840
:103A60000000080000080000080004080807FFF82C
:103A700007FFF8040008000000000000040008042C
:103A8000000804000807FFF807FFF8040008040016
:103A9000080400080000000000000000000000060C
:103AA00000000700000104000104000104000307F6
:103AB000FFFE07FFFC0400000400000400000400F7
:103AC0000807FFF807FFF8040C08001800003E0084
:103AD00004C7800503C80600F80400380400180075
:103AE000000804000807FFF807FFF80400080000BA
:103AF0000800000800000800000800000800001886
:103B000000006000000004000807FFF807800807B5
:103B1000FC00007FC00003F80007C00078000780A9
:103B20000807FFF807FFF804000804000807FFF87B
:103B300007000803C00000E000003800001E00007D
:103B400007000001C00400F007FFF80400000000B7
:103B500000007F8001FFE003807006001804000869
:103B600004000806001803003001FFE0007F800019
:103B7000000004000807FFF807FFF8040408040425
:103B800000040400040400040400060C0003F80010
:103B900001F000000000000000007F8001FFE00352
:103BA00080700600880400880400C806003C0300FA
:103BB0003E01FFE6007F8400000004000807FFF8D4
:103BC00007FFF8040808040800040C00040F0004B0
:103BD0000BC00610F003F03801E0080000080000F8
:103BE0000001E0F803F0300630100418080418084B
:103BF000040C08040C080206180207F00781E00014
:103C00000000018000060000040000040000040021
:103C10000807FFF807FFF80400080400000400008C
:103C200006000001800004000007FFE007FFF00429
:103C3000001800000800000800000800000800004C
:103C40000804001007FFE004000004000006000064
:103C500007E00007FE00041FE00001F80000380044
:103C600001E0043E0007C00006000004000004005C
:103C70000007E00007FFC0041FF80007C007F800B6
:103C800007FF80043FF80007C004F80007000004A5
:103C9000000000000004000806001807C07805F1C5
:103CA000C8003E00001F800463E80780F806001883
:103CB0000400080000000400000600000780000760
:103CC000E008047C08001FF80007F800180804E06A
:103CD00008070000060000040000000000010008C2
:103CE0000600380400F80403E8040F08047C080503
:103CF000F00807C00807001804006000000000007A
:103D0000000000000000000000000000003FFFFE77
:103D100020000220000220000220000220000200F9
:103D2000000000000000000008000007000000C0C4
:103D3000000038000006000001C000003000000E46
:103D40000000010000000000000000002000022030
:103D500000022000022000022000023FFFFE0000BF
:103D60000000000000000000000000000000000053
:103D700000000008000010000030000020000030AB
:103D8000000010000008000000000000000000001B
:103D9000010000010000010000010000010000011D
:103DA000000001000001000001000001000001000E
:103DB00000010000000000000000002000002000C2
:103DC00000100000100000000000000000000000D3
:103DD0000000000000000000000000F00019F800E2
:103DE0001B18002208002608002408002410003FA9
:103DF000F8001FF800000800001800000004000090
:103E000007FFF80FFFF00018180010080020080046
:103E10002008003018001FF0000FC0000000000054
:103E2000000007C0001FF000183000200800200824
:103E3000002008003C08001C10000060000000008A
:103E400000000000000007C0001FF000381800202C
:103E50000800200800200804101007FFF80FFFF0EA
:103E60000000100000000000000000000007C0007B
:103E70001FF0001230002218002208002208003231
:103E800008001E10000E20000000000000002000AE
:103E900000200800200801FFF803FFF806200804AE
:103EA0002008042008072000030000000000000094
:103EB0000000000E000E6E001FF30031B10020B1B3
:103EC0000020B1003191001F13002E1E00200E00B3
:103ED000300000000004000807FFF80FFFF8001092
:103EE00008002000002000002008003FF8001FF814
:103EF0000000080000000000000000000020080092
:103F00002008002008063FF8063FF80000080000DF
:103F10000800000800000000000000000000000091
:103F20000000030000030020010020010020030620
:103F30003FFE063FFC000000000000000000000003
:103F40000004000807FFF80FFFF8000188000300D5
:103F5000002FC00038F800203800200800000800BA
:103F60000000000000000000040008040008040035
:103F70000807FFF80FFFF80000080000080000081D
:103F8000000000000000002008003FF8003FF8009B
:103F90001008002000003FF8003FF8001008002043
:103FA00000003FF8003FF800000800000000200873
:103FB000003FF8003FF8001008001000002000004B
:103FC0002008003FF8001FF8000008000000000073
:103FD000000007C0000FF000183000300800200873
:103FE000002008003008001830000FF00007C00063
:103FF0000000000000002001003FFF003FFF001014
:1040000011002009002008002008003038001FF0AF
:10401000000FC00000000000000007C0001FF000FB
:104020003818002008002008002009001011001F87
:10403000FF003FFF000001000000002008002008F2
:10404000002008003FF8003FF800080800100800B2
:1040500020080020000030000030000000000000B8
:1040600000000000000C78001E1800330800230830
:104070000021080021880021980030F000386000FD
:10408000000000000000200000200000200000FFD1
:10409000F003FFF80020080020080020080000308E
:1040A000000000000000000000002000003FF000C1
:1040B0007FF8000018000008000008002010003FF2
:1040C000F8007FF000001000000000000000200059
:1040D000003000003C00003F800023F0000078002A
:1040E0000070002380003C00003000002000002011
:1040F00000003C00003FE00023F80000E000270043
:10410000003E00003FE00021F80001E0003E00001A
:104110002000000000002008002008003838003E81
:10412000680027800003C8002CF8003838002018E9
:104130000020080000000000000020000030030004
:104140003C01003F830023EC000070002380003C12
:10415000000020000020000000000000000000001F
:104160000038080020380020F80023E8002F8800DD
:104170003E08003808002018000070000000000011
:104180000000000000000000000000000000080027
:104190000014001FF7FC30000620000200000000A1
:1041A000000000000000000000000000000000000F
:1041B00000000000FFFFFF00000000000000000002
:1041C000000000000000000000000000200002309D
:1041D00000061FF7FC0014000008000000000000AB
:1041E00000000000000000000000000000180000B7
:1041F00060000040000040000020000010000008A7
:1042000000000400000400000C000010000000008A
:1042100064656661756C745461736B003C420008A0
:1042200000000020D0190000280100088852000872
:10423000D0190020001600008401000841320182DC
:10424000100361127A1AAA016125FFFFD7E81E7DCB
:10425000F8450849022B51F8061C45084510100A7C
:1042600069085108410847FE4023B7F1137FFC134A
:10427000800112032009056009183104C1023C1FA6
:10428000F01001290813D4F2B809047F0441044155
:10429000244902101614241204210440948088B585
:1042A000C820403F7E48908508011C3FF801F2334A
:1042B000FFFE100A207FFC0820042004A0180D40F7
:1042C000B4FD08400840104023FC4808180E17FEB3
:1042D0003010501097FE101012101102190D1420FA
:1042E000D6D812103BF83F3C1A01801A117C2904E1
:1042F0004952295014D0C2101508047F78180D4077
:1043000022401440FF7E084808487F04180E2A48BF
:104310004948888828881108C8E7104519023D7C5B
:10432000FE4422021808424424441444080416227D
:104330007C42448023C9EE180C27FC140414A48189
:104340001042084092100F17FC2040E0E02150225C
:10435000482C462040480840DBDA11041124025A58
:10436000FD082902180E1D24E1244224020404043D
:10437000CAD002A6212B7FFCEA29A05B2108022CCF
:104380002821101213BAE8101E108020407C1F4410
:10439000846444544444044C2440447EC402470290
:1043A0005C7A4802400A1C04D1B68819E01C11103E
:1043B00001022DF11017D00C1902C80C12150A19A0
:1043C0000A11060102B5E75E9908160A0102010208
:1043D0001CFED7D3841AF8EF122015400180014B40
:1043E000FFFE324902120512021AD3AA1A0218124B
:1043F000041204280D0FF0081018102FF048108830
:10440000100C190226500820CFDE180A7BF84A0843
:10441000520853F8620610124BF84A444A486A3070
:1044200052204210428843064213B9AB1B8004025B
:10443000180D084008401020201042088206502025
:104440000A40082010203FF0101023CBBE133FF885
:1044500012082C087FE8061B1F88633902290A11FD
:1044600012281C10CDBCAA1820FC4204420447E4C8
:104470004C445284410446C4783C4304408446047E
:1044800041847FFC4004D0CE22680E8412041208BE
:10449000121012221202FFC40A2813220422084218
:1044A000108260D3A208200820FFFE0820DE2D1F06
:1044B000F01110022DFFFE02808C38083018C00663
:1044C000CEC402FA1CFFFE1001292E160440028001
:1044D00001892213CAD4100A28202410241020078E
:1044E000FE280820F02017E01120461009151019A9
:1044F000CA170A02062C02D6D04229026D3FF821C3
:104500000802290C691813B2E2180B0427C41444DA
:104510001454855445021A150210112554E55421EE
:10452000042284224424140808D2BA28248020407B
:1045300017FE11208120423C424416641294234805
:10454000E24822302220225022880306BEA70FE034
:10455000A06906218F7EFC428442840623CFD42B9F
:104560001FF0C86906200F04404444244414481432
:10457000500440FFFE23CABE833FF82BFFFE9C1968
:10458000CC1009082104410281020512022BC6C188
:1045900022196119C01F241022202FF880180B2027
:1045A0003FFC22204220442084191808D0FD20809E
:1045B0001080103C12FE180921FC20243C2424A069
:1045C000022ABC06164560553E8A3CD7AA2001281F
:1045D00017FDFC4020504093FEFC40108011FC1C55
:1045E00004F088505010209A14B3CC081E1DFCF122
:1045F00004110214FDFC101230180939FE54205425
:104600002091FC20152013FE1024D0F20115803FCC
:10461000FE201B23F8133EA020402FFE832A4001DA
:104620001381401480C6AC5B4010021A1F4429025B
:104630002B1FE0403A107E2D4020D0E8CC12011014
:10464000087FFE41029D74012B1D70F41A02141B99
:1046500024880226A82010D2AA1F7FFC0440044010
:10466000142F4824483FF80210180E2008401C80E0
:10467000038006703808D0A36019521411FEFC287C
:104680000E108831043A0254885088905010CA188D
:104690001D5010881306D7BC01404120212023FE65
:1046A000022016201BFC1220222023FCE2061908FF
:1046B00013FE2212022BB4A590180A782049FC910F
:1046C000247D24550210107DFC552454207C285450
:1046D0002457FE45028C100CC3FE1110111017FC5C
:1046E0001110FC00191613F8120817F81A0833F8FD
:1046F000D04017FC10A0111052082406A3AC1A30A9
:10470000021210322013C7EB100A40404027FC2051
:104710004003F81540E7FE202D23F8220804180C6A
:104720002BF8320822280210B5E3028E12022B0366
:10473000FC061B3FF0D71902233FF0100C248822FF
:104740004442448004BBF70129024B3FF8082BFF89
:10475000FE064B210802133FF82408C4BB1E3FF895
:104760002008200E1808241022202FF80426100CF0
:1047700011103FF8D116115011200113B6C119EED6
:104780001511FC1020101B2003FEF0021094105095
:104790001110109013FE1428184410820302BACD91
:1047A00004120E1278180E087C0844FF44084418BE
:1047B000441C442A021C484488121208120814D1CE
:1047C000D5101C08FE7F60280B147C7F444454489D
:1047D00054525406280D51544228442488423082B1
:1047E000C9AB2868091FE020204040BFF8A019731A
:1047F0002A0202231FFE3818D6B5084008400FFCD5
:104800001040104033F8320853F8920813F812049D
:104810001612081FFE1043D6D022103A180639038C
:10482000DF1FFFF81810180349157C1010102759C6
:104830003649392173CEC46A201A180908083FFF87
:10484000FC010180031122811903228322422246A6
:1048500022246A2C3E226617C3800301F00C1B7CC5
:1048600030D02163B2E2121018090809FE080D8643
:10487000080103380AB66841B64833B64813036ADC
:1048800005032B09A603281439A4481960081858F1
:104890000818C4081886081B0238045A1173CAD4B1
:1048A0001201151001F00813980C138804258404D4
:1048B000FFFE1A800318097E028004FF80040803AB
:1048C0002DC00408400310104860048922050E32F0
:1048D0000670120E401C04220E32025ACF4A1503F3
:1048E000FFC0021360021A4003390C2909590C1346
:1048F00080401A62E11810181042100C4220064243
:104900004006428002431295083FFFFC83CABEE581
:10491000200FFFF01B047F2919B912181301192069
:10492000180318800318400618200C1830081818AF
:1049300010180C20180841F81A703B4183B2E2228B
:104940000814100C20380918063FF0180330300402
:10495000111430331814323398180D33B318303320
:10496000331818B333181C041A0C041A09102A013E
:10497000044A32045A02041A0604180B7E3623181D
:104980001C2603180C0504180D0C80180C08401880
:104990000C1870180C54150C6031F05D801070010B
:1049A000829BCAD4BC311407C00C140670061406CE
:1049B00030031B0610041A180412081A3FD61132CD
:1049C0000649041A0104147F801614031FFA1C03FD
:1049D0000182049A83042A81041C80030904100EB6
:1049E000118CC40321F0C40343C06403DE147403B8
:1049F00088143C03801A1C7E5A0C711183C0FD1967
:104A000016111301C014180180100C100180101031
:104A1000037FF81003061820100206021006060392
:104A200010060403100F0C23100A0FFB101A0823A2
:104A300010121863102210041908180B422C43108E
:104A40000226C3100246042E0583100201041E0331
:104A5000100203024019441A04041A08041A10042C
:104A6000162003F00240237002422093B3CC321090
:104A70001279180A1003E1FFF83D818030C7C9049C
:104A800058088980307FFDFFF0101119CC100918EB
:104A900003E3FFFC03B8041B0798041388041A05FA
:104AA00004140D8004180A098004101181FFF81104
:104AB0000C1A21041A41044A01041E08018FFFFC4C
:104AC000E639F241C3CFD42A011814FFFF801A80BF
:104AD00024A904091914394A2B0C30041015200894
:104AE0000C3070060C3060070C30C0038C31800134
:104AF0008C3324018C321B8C34202A3824C6303F5E
:104B0000FFFFF8F3CABE199E11061BC003FFFFE0AA
:104B10001A18461AFCD119B3590423618823F18469
:104B200013C183181F01C18180018180C0030180EE
:104B3000E0060180700C01803808018018100180A7
:104B40001020612C1A1F0432076202F3C6C11A201A
:104B50007E23F0037A30041910192D153002040257
:104B6000140206071C020306041204100C020108BA
:104B700060027FFFF0060206D9041B3005E81A0424
:104B80000C1A0C044B0806041B100C041308061B1B
:104B90002030041B6006B9520493D0F2420132C0A7
:104BA000126012041C60300746320619041E4006CB
:104BB0003FFFC03413E00612031C060104141AD888
:104BC000041A60041A70044B30102C143038041B83
:104BD0003020044B400C04119A08043A10041220AF
:104BE0001C2007E00612E01A4002410B20BEF7022B
:104BF000080A21DFF77DF7AFDBFFF7FF2C0924025E
:104C000015FFF739EE0F39D0B3E4FFFFDE46AADF18
:104C10005214FFABE2AED888D9FFFF16092C4E8B99
:104C20001CEF3C15FFF79AEE12E01BE00552093528
:104C3000E48CFF63C83C1ADF52111BD802520B32BE
:104C40004EE3521ADF02117DD0D8EDFF103A7D50AD
:104C500019521BD8DE0E092F9E14F772E47BD88FF1
:104C60008C15FFF7F4EC194E29A26B92E466092A21
:104C7000EE1302D86CE0ECDA3A3EFFFF84D8015024
:104C80000D2E01D8ACE2F215FFFF32E45DE001E049
:104C90006EA01CFFF7D310294E19503BE02A500993
:104CA00028F41ADF40111AD0DA3BD893DA15FFF74F
:104CB0009EF74AD84E295029A00D267DF7DBEEA697
:104CC0002DFFF7ACE2DC114CD859EE505A63EC29B9
:104CD00002111BE0F0B60F22FFFFE5D052E4527A3A
:104CE000DF8E112BD8FFAC5CFFE9D9EC49161DE033
:104CF000F7E5FF6413F4E40C20D88BDA524DFFFF84
:104D0000D0E3401B01D0871BF7D438290E3D42D891
:104D100042E25019161ADE501399EE12D80B1FE01A
:104D2000CC524DFFFF67D9DE2B43D850114AD09C9F
:104D30001C61F501502E01E026D9FF262CF718EE54
:104D400076112CE096ED10091A504B43D850298A61
:104D50004B97EDAC180862E260FEE1EA021A2B8E76
:104D6000E3924DFFFF2EE32629C6091C502A02E0DC
:104D70001BD902CE4CF8ED76502808D8C1FDC0FDF5
:104D8000E1F4141C92E4FF24133CF7292639A20A0B
:104D900017F7A239CA2BFF232A1CE142EB7C3BD830
:104DA000FBD613C2E1180EFE80FD20FE22D801D8EA
:104DB0008BE2FFFFEC594E29500B14D0E3501EFF3D
:104DC000FFCCD2FF011B06D9CA1DD8C0FEA2341CDD
:104DD00023D8630C180B81EBC0FD80FDE0FDE2E2FF
:104DE000404CD8A7D94E3AE2060D1201E00DE3F28D
:104DF00015DFF79EF72AD0502BCCE250113CFEC0B5
:104E0000F5FA190C2B01EC501AA0022912191E19DF
:104E1000141C42D902C20918A015FFF7B3E4180800
:104E2000E014EDFFFF76ED801809D861F5C0FD8133
:104E3000F5620A280902D841EBE0FD80F5F24B62E9
:104E4000E1623EE2D880FE820C110C13D818EE50BD
:104E500014FF4EE31DE022D8FF0A2F01D002E081AB
:104E6000EC90281320FEA1EB02D9A2D0E0FDAEF613
:104E700049F6A0FD01EC4E4808A2E220FE40FEA249
:104E8000BE19D409104E29501C2DE301CC1E25D982
:104E9000FFF7B6A21361EA1BFE80E613C0FD180BF4
:104EA000FEE0FD60F54AF6DDF760A61DA1E281F5A2
:104EB000AE2CFD21FEFC111CD896E5820B11F7DF0C
:104EC000F01A72F01A0252111809D851E4C9D90126
:104ED000D8E1A0181080FD4AF6C3F560FD60FD8D95
:104EE000F6FFFF400A2BE0F51619AA14F502D81DAB
:104EF000E08BDAFF01ED15ED18EE5215DFF73CF708
:104F000049C22AD8A81908100CE140FEA0FD40F5BE
:104F100035F757F716F558F79AFF2EF5AFF628F63E
:104F2000B6180820FE42E201E06A4E15F8EDC4D83A
:104F30000913F41DFFFF88D9481ED842EC42E2CC89
:104F400019021B82D8E219521C36F7DC1E1C57F7D7
:104F5000798C1540F580FD2CFE61F4201CC9E1011F
:104F6000A411FDD8DBEEFF4E29A23A7DA2280F62E4
:104F7000D8A0FE20FEE0F4E1EB81EBA0F4DE2B40B4
:104F8000F5D629011A089E1FC0FD42E302D0781C05
:104F9000D862E1F40C12D8F4EC9E39A22CF776ED2D
:104FA000521AC2EA1AC038580AE2F5A0F560FD406C
:104FB000FDC5501C36F7209E100D80F5C0FDE0FDAC
:104FC00040FEA0FEA1E10C12D835ED9C59A2193487
:104FD0001B59F6F41CE082E1A21FFDA0F5D0F6DD1E
:104FE000EA6901380835F74AF6A2F5A04E1808011B
:104FF000EC01E065E03C1E09164A2825FFFFFAEEA9
:105000004FBC4492619142D002E802E041EBE0FDE6
:1050100020F6A0F502F6AAF6CEFEEEFEABFE44F6B2
:105020004A1E41F501EB42744F81A84EB499DE6AE5
:1050300099E4390118163CEF6FBCC389E0804089C0
:105040008191A291C289429982C0023415C2E04185
:10505000EA1DEB80F380041F20EB61EA81E96A100E
:105060000CD802C802A9A289A28961897F894089D6
:10507000EDB39856380CFFFF17DE4FBCA391A0800C
:10508000204A8902180BC289C289219903B162C0E2
:105090003E180FC802D002C822C001B8A1A8429988
:1050A000A21A8928101382914089E0884189CCBBDB
:1050B000D7D5FFFF08BB60E49809ED01F563CBA3EA
:1050C000998126290211280889C79AD4CD408140A8
:1050D0002902176081F0BC49A3BB81A126781E82FA
:1050E00091E4A1E3D341F5E0ECA0ECCAC341F52281
:1050F000C323C342C3A1E4E2EC04A282261A61FCEA
:10510000AF32CDFFFF20811417E8A2FFFFB5D59B7A
:1051100081407A281F44AA41F541D463C3A3CB023E
:10512000BBC4F5D2F6C0D301ED02D421ED61DC227F
:10513000EDE3A13E294C2809A79A9DF7FFFF29A37B
:105140003A3A820239B23B81FF011E4AABC080610C
:105150001A1812819124AA61F502D441F5A2C32143
:10516000EDA0D3141C136DC41809DCE0EC41DC6223
:10517000C360AC2809E080C08008A399E6362BDA2A
:10518000E6361A62481810C299A39983916289E0A1
:105190008858DEFFFFDF6A181A3CEF8BABE08020F7
:1051A0009163CB61F5C3CB81E440F5A0D36EC4FF1E
:1051B000FFBE1C180F59E689BB42C3E0D385DCEC67
:1051C000BB53CD311901291828172DB46191A3CBF8
:1051D00022ED21F5E1EC21ED81FD22DCA2994EBC0E
:1051E0001C3CBEF7DF26480F37DE06B3E0C260CBBB
:1051F00080BA85AAF7DD1A691C69013ADF142950C3
:1052000068170EC460E482E4A2CBC1ECE1ECE3D306
:10521000A59941F582CB8ABB3649243808FFFF7E29
:10522000F7DBE67D0A8918091202180EDFFF9ADE05
:1052300040F5C2A1A0FDE0ECA1D0E80920F580E492
:10524000A0A911D5383ADF02091C4C697E08131E4B
:10525000DCFF4EDD09B3A5B284B2A5AA29BB6FC499
:10526000DAEE86091C023ABFC889010A1FDF4E1117
:1052700015F8E0071F15E0FF1FF81BF81F0C34CFCF
:08528000011F431F8400000020
:04000005080000ED02
:00000001FF
