:020000040800F2
:10000000D819002061020008531D00084917000894
:10001000511D00083F050008712100080000000084
:10002000000000000000000000000000C9010008FE
:1000300077050008000000000D020008C91D000837
:100040007B0200087B0200087B0200087B0200089C
:100050007B0200087B0200087B0200087B0200088C
:100060007B0200087B0200087B0200087B0200087C
:100070007B0200087B0200087B0200087B0200086C
:100080007B020008410500087B0200087B02000893
:100090007B0200087B0200087B0200087B0200084C
:1000A0007B020008551E00087B0200087B02000846
:1000B0007B0200087B0200087B0200087B0200082C
:1000C0007B0200087B0200087B0200087B0200081C
:1000D0007B0200087B020008652100087B02000803
:1000E0007B0200087B0200087B02000800F002F897
:1000F00000F05AF80AA090E8000C82448344AAF168
:100100000107DA4501D100F04FF8AFF2090EBAE865
:100110000F0013F0010F18BFFB1A43F0010318473B
:100120005CF000007CF000000A444FF0000C10F876
:10013000013B13F0070408BF10F8014B1D1108BF65
:1001400010F8015B641E05D010F8016B641E01F805
:10015000016BF9D113F0080F1EBF10F8014BAD1C55
:100160000C1B09D16D1E58BF01F801CBFAD505E073
:1001700014F8016B01F8016B6D1EF9D59142D6D3CD
:10018000704700000023002400250026103A28BFF5
:1001900078C1FBD8520728BF30C148BF0B607047F9
:1001A0001FB51FBD10B510BD00F090F91146FFF747
:1001B000F7FF0AF05FF900F0AEF903B4FFF7F2FFC2
:1001C00003BC00F0B5F90000224B19680868B0E8DC
:1001D000F00F80F30988BFF36F8F4FF0000080F3BA
:1001E00011884EF00D0E70470000000006480068B0
:1001F000006880F3088862B661B6BFF34F8FBFF323
:100200006F8F00DF00BF00BF08ED00E0EFF3098053
:10021000BFF36F8F0F4B1A6820E9F00F106008B51D
:100220004FF0500080F31188BFF34F8FBFF36F8FF3
:100230000BF0C0F94FF0000080F31188BDE80840D2
:1002400019680868B0E8F00F80F30988BFF36F8F72
:10025000704700BF14000020EFF3058070470000D6
:100260000948804709480047FEE7FEE7FEE7FEE74A
:10027000FEE7FEE7FEE7FEE7FEE7FEE70448054986
:10028000054A064B70470000531E0008ED000008A9
:10029000D8130020D8190020D8150020D815002028
:1002A00053EA020C00F069802DE9F04B4FF0000694
:1002B000002B1FBFB3FA83F503FA05F424FA05F601
:1002C0005E4012BF1643B2FA82F502FA05F4C5F198
:1002D00020051EBF22FA05FC44EA0C04203556EA2C
:1002E000044C4FEA144418BF641C4FF000084FF050
:1002F0000009904271EB030C39D3002919BFB1FA00
:1003000081F701FA07F6B0FA80F700FA07F6C7F1AD
:1003100020071EBF20FA07FC46EA0C062037B6FB72
:10032000F4FCA7EB0507103F07F01F0BCBF12006ED
:100330000CFA0BFB2CFA06F644BFB3460026202F1E
:10034000A4BF5E464FF0000B5BEA060C08BF4FF0FF
:10035000010B19EB0B09ABFB027C48EB0608C01B39
:1003600006FB02CC0BFB03CC71EB0C01C1E70B4687
:10037000024641464846BDE8F08B13B54FF00000F9
:100380004FF00001AFF30080BDE81C40704740EA29
:100390000103024630B59B0710D14FF0013400E055
:1003A00008C208C91D1B9D4315EAC41FF8D013F0ED
:1003B000FF0102F8011B0DD01B0AF8E711F8013B01
:1003C000002B02F8013B05D011F8013B002B02F88D
:1003D000013BF3D130BD10B5431C02E010F8011B06
:1003E00071B18107FAD14FF0013202C88C1A8C43E7
:1003F00014EAC211F9D0C01A0A0603D0C01E10BDFB
:10040000C01A10BD0A0401D0801E10BD0902FCD024
:10041000401E10BD10B5203AC0F00B80B1E8185056
:10042000203AA0E81850B1E81850A0E81850BFF4DE
:10043000F5AF5FEA027C24BFB1E81850A0E818507D
:1004400044BF18C918C0BDE810405FEA827C24BFD1
:1004500051F8043B40F8043B08BF7047D20728BF5F
:1004600031F8023B48BF11F8012B28BF20F8023BAE
:1004700048BF00F8012B70474FF0000200B513464B
:1004800094469646203922BFA0E80C50A0E80C50B4
:10049000B1F12001BFF4F7AF090728BFA0E80C5065
:1004A00048BF0CC05DF804EB890028BF40F8042B5E
:1004B00008BF704748BF20F8022B11F0804F18BFCB
:1004C00000F8012B7047704770477047754600F081
:1004D0002BF8AE4605006946534620F007008546D6
:1004E00018B020B5FFF7CAFEBDE820404FF0000667
:1004F0004FF000074FF000084FF0000B21F007010C
:10050000AC46ACE8C009ACE8C009ACE8C009ACE84E
:10051000C0098D46704710B50446AFF300802046F1
:10052000BDE81040FFF749BE004870477413002033
:1005300001491820ABBEFEE7260002007047FEE727
:10054000014800F08BB80000EC03002030B590F8B3
:1005500040500124AC40C56B6C6004686360436824
:10056000102B036803D099600068C26030BD9A60A8
:100570000068C16030BD704772B6FEE710B590F8F4
:1005800021100022022905D00421816380F8202057
:10059000012010BD01680B6823F00E030B60016899
:1005A0000B6823F001030B6090F84030C46B01210D
:1005B00001FA03F3636080F8211080F820201046D0
:1005C00010BD000010B590F821100024022903D0BE
:1005D0000421816301243DE001680A6822F00E02D3
:1005E0000A6001680A6822F001020A601A4A01687A
:1005F000914201D1012121E0174A1432914201D1E7
:1006000010211BE0144A2832914201D1891515E0CE
:10061000114A3C32914201D189140FE00E4A503206
:10062000914202D14FF4803108E00B4A643291428A
:1006300002D14FF4801101E04FF08071064A083A70
:100640005160012180F82110002180F82010416BB9
:1006500001B18847204610BD080002402DE9F05F37
:10066000C16B0C6801680B68D0F840C0042202FA24
:100670000CF2494DDFF824A1494E4A4FDFF828B16A
:10068000DFF828E122422CD05A072AD50A689206C0
:1006900003D40A6822F004020A600168A94201D169
:1006A000042219E0514501D1402215E0B14202D1A6
:1006B0004FF4806210E0B94202D14FF480420BE067
:1006C000594502D14FF4802206E0714502D14FF422
:1006D000800201E04FF080622F4908394A60C16A08
:1006E0003BE04FF0020808FA0CF818EA040F4FF04C
:1006F00000094FF0010235D05FEA837832D50B68EC
:100700009B0605D40B6823F00A030B6080F82120B8
:100710000168A94201D1022219E0514501D12022EC
:1007200015E0B14202D14FF4007210E0B94202D19B
:100730004FF400520BE0594502D14FF4003206E06D
:10074000714502D14FF4001201E04FF000721249DE
:1007500008394A6080F82090816A00291AD0BDE8E3
:10076000F05F0847082505FA0CF5254212D01B0753
:1007700010D50B6823F00E030B6090F84010C36B8C
:1007800002FA01F15960826380F8212080F82090FC
:10079000016BE2E7BDE8F09F080002401C00024048
:1007A0003000024044000240580002406C00024009
:1007B00030B528B308C8134914221944B1FBF2F12B
:1007C0008900C16310498163022141771A6843F6A9
:1007D000F0718A43D0E900142143D0E902452C434B
:1007E000214304692143446921438469214311431E
:1007F000196000214163012242770177084630BD2C
:10080000012030BDF8FFFDBF0000024070B5044676
:1008100090F82000002501280CD0012084F8200049
:1008200094F821600020012E06D084F820000225D3
:10083000284670BD022070BD022684F82160A063A6
:100840002068066826F0010606602046FFF77EFE57
:10085000E06A00282068016802D041F00E0106E03D
:1008600021F0040101602068016841F00A01016083
:100870002068016841F001010160D9E770B50446C4
:1008800000F004F90546601C02D0044800780444D6
:1008900000F0FCF8401BA042FAD370BD0400002019
:1008A0002DE9F84FDFF8B8910024A9F1040B234695
:1008B0000F2709F1040AABF1040EC9E00125A54098
:1008C0002A40AA427DD1674ED1F804C0ACEB06089D
:1008D000B44532D014DCBCF1030F3AD009DCBCF1D2
:1008E000000F2AD0BCF1010F1CD0BCF1020F31D196
:1008F0001DE0BCF1110F17D0BCF1120F2AD119E085
:10090000B8F5881F19D006DCB8F5803F15D0B8F5CA
:10091000801F1FD111E0B8F5001F0ED0B8F5041FDD
:1009200018D10AE0CB6815E0CB681B1D12E0CB683C
:1009300008330FE0CB680C330CE08B682BB1012B34
:100940004FF0080303D0456104E0042302E0056191
:1009500000E00023FF2A01D8064601E000F104066A
:100960004FEA840501D9A5F12005D6F8008007FAE1
:1009700005FC28EA0C0803FA05F548EA0508C6F85C
:1009800000804D68ED0062D5374DAE6946F0010636
:10099000AE61AD6924F0030605F001050095334D05
:1009A00006EB050CDCF80850A607360F07FA06F828
:1009B00025EA0805DFF8B880404503D14FF000086C
:1009C00017E044E0DFF8AC80404502D14FF0010869
:1009D0000FE0DFF8A480404502D14FF0020808E0A4
:1009E000DFF89880404502D14FF0030801E04FF056
:1009F000040808FA06F848EA0508CCF808804D68AB
:100A0000D9F80060ED024D4601D5164300E096434B
:100A10002E604D68DAF80060AD02554601D51643E8
:100A200000E096432E604D68DBF80060AD035D4644
:100A300001D5164300E096432E604D68DEF8006055
:100A4000ED03754601D5164300E096432E60641C05
:100A50000D682A46E5407FF431AFBDE8F88F00000D
:100A60000804014000001110001002400000014085
:100A700000080140000C014000100140001401403A
:100A80000AB1016170470904FBE700000148806872
:100A90007047000004000020024881680278114479
:100AA0008160704704000020074810B5016841F0DC
:100AB00010010160032000F0A1F80F2000F006F8FB
:100AC00000F04AF8002010BD0020024030B5054675
:100AD0001C4887B0816941F400618161806906A981
:100AE00000F40060009001A800F030F900F05EF919
:100AF0001549164AB0FBF1F11548491E02604160E4
:100B000040F2E7320021C0E903218160816100F0F9
:100B100015FB040012D10E4800F03EFB04000DD17D
:100B2000192000F03DF8102D07D200222946192087
:100B300000F044F80748056000E0012407B02046B3
:100B400030BD00000010024040420F00002C014068
:100B500030040020080000200F4808B5816941F0EA
:100B600001018161816901F001010091C16941F0D8
:100B70008051C161C069002200F0805000900F21B7
:100B8000901E00F01BF80548416821F0E06141F03B
:100B90000071416008BD00000010024000000140EB
:100BA000002809DB00F01F0201219140400980006C
:100BB00000F1E020C0F8001170470000F0B40E4BC7
:100BC0001B680C46C3F30223C3F10705042D00D9AB
:100BD0000425191D072901D2002300E0DB1E012690
:100BE00006FA05F1491E214099409E40761E1640A6
:100BF0003143F0BC01F0BDBA0CED00E0064900F055
:100C0000070208684FF6FF03184040EA0220034A33
:100C100010430860704700000CED00E00000FA058A
:100C20002DE9F0470F46050061D0434E306800F0D3
:100C30000700B84209D2306820F00700384330601E
:100C4000306800F00700B84251D128683B4C81075A
:100C500012D5400703D5606840F4E06060602878F2
:100C6000000703D5606840F4605060606068A96860
:100C700020F0F000084360602878C00728D068683A
:100C8000012810D02168022810D0890700292EDA07
:100C9000616821F0030101436160FFF7F7FE8046C0
:100CA00041F288390DE021688903EFE78901EDE71A
:100CB000FFF7ECFEA0EB0801494502D90320BDE88F
:100CC000F0876068696800F00C00B0EB810FEFD12D
:100CD000306800F00700B8420BD9306820F00700F8
:100CE00038433060306800F00700B84201D001207E
:100CF000E5E72878400705D56068E96820F4E060FA
:100D0000084360602878000706D56068296920F4E8
:100D1000605040EAC100606000F058F86168084A1D
:100D2000C1F30311515CC8400649086006480068D9
:100D3000FFF7CCFE0020C2E7002002400010024076
:100D400032B9000810000020080000200F220260C5
:100D50000C4A536803F003034360536803F0F00345
:100D60008360536803F4E063C36052684FF4E06348
:100D700003EAD20202610448006800F0070008603C
:100D8000704700000010024000200240044805495E
:100D900000684968044AC1F30221515CC8407047A9
:100DA000100000200010024042B900080448054924
:100DB00000684968044AC1F3C221515CC8407047C9
:100DC000100000200010024042B900080E4A51688D
:100DD0000E4801F00C03042B11D0082B0FD10C4846
:100DE000C1F38343C903C05C0AD55168084AC1F303
:100DF0004041921E515C054A5043B0FBF1F07047F0
:100E000004494843704700000010024000127A0075
:100E100022B9000800093D002DE9F84F040070D008
:100E20002078C04DC00749D06868C0F38100012810
:100E300007D06868C0F38100022809D16868C00340
:100E400006D52868800339D560680028E7D035E0EA
:100E50006068B0F5803F0BD010B1B0F5A02F11D075
:100E6000286820F480302860286820F4802002E080
:100E7000286840F480302860606890B1FFF706FE73
:100E800006460AE0286840F480202860F0E700BFAA
:100E9000FFF7FCFD801B642873D828688003F7D512
:100EA0000CE0FFF7F3FD064605E000BFFFF7EEFD9F
:100EB000801B6428F0D828688003F7D420789A4EE5
:100EC00080074FF001094FF0000839D5686810F02D
:100ED0000C0F07D06868C0F38100022809D1686848
:100EE000C00306D42868800714D52069012808D1DA
:100EF00010E02069B0B1C6F80090FFF7C7FD0746C3
:100F000005E00AE1FFF7C2FDC01B0228C4D828682B
:100F10008007F7D52868616920F0F80040EAC10031
:100F200028600DE0C6F80080FFF7B0FD074604E03A
:100F3000FFF7ACFDC01B022823D828688007F7D430
:100F4000207800072CD57948A169D9B1C0F8009064
:100F5000FFF79CFD074604E0FFF798FDC01B022841
:100F60000FD8686A8007F7D571484FF4FA510068C6
:100F7000B0FBF1F0009000BF0098411E0091FAD242
:100F80000EE080E0C0F80080FFF780FD074604E037
:100F9000FFF77CFDC01B022875D8686A8007F7D46C
:100FA0002078400760D5E8690027C00008D4E869C8
:100FB00040F08050E861E869012700F0805000901F
:100FC0005C480168C90513D40168834641F4807107
:100FD0000160FFF75BFD824606E000BFFFF756FDAC
:100FE000A0EB0A0064284ED8DBF80000C005F5D558
:100FF000E06801280AD008B1052813D0286A20F03B
:1010000001002862286A20F0040002E0286A40F00B
:1010100001002862E06841F2883B98B1FFF736FD95
:1010200082460BE0286A40F004002862EEE700BF29
:10103000FFF72CFDA0EB0A0159455AD8286A800712
:10104000F6D50CE0FFF722FD824605E0FFF71EFD16
:10105000A0EB0A0159454CD8286A8007F6D41FB185
:10106000E86920F08050E861E06988B36968C1F3FD
:101070008101022944D00228C6F8608004D0FFF71D
:1010800005FD044638E034E0FFF700FD074604E0C4
:10109000FFF7FCFCC01B02282BD828688001F7D47E
:1010A000206AB0F5803F05D16868A16820F400305F
:1010B00008436860D4E908010843696821F47411A1
:1010C00008436860C6F86090FFF7E0FC044606E05D
:1010D00025E000BFFFF7DAFC001B022809D82868CA
:1010E0008001F7D51BE000BFFFF7D0FC001B0228F2
:1010F00002D90320BDE8F88F28688001F4D40EE0FF
:101100000128F7D06868226A00F48031914204D146
:10111000616A00F47010884201D00120EAE70020E3
:10112000E8E7000000100240000042428004424212
:1011300010000020007000407047704710B5040098
:1011400003D094F83D0010B107E0012010BD00204D
:1011500084F83C00204600F01EF8022084F83D0090
:10116000211D206800F07CFE012084F8460084F8F0
:101170003E0084F83F0084F8400084F8410084F881
:10118000420084F8430084F8440084F8450084F861
:101190003D00002010BD704790F83D10012901D09E
:1011A00001207047022180F83D100168CA6842F0B2
:1011B0000102CA6000680B49884208D0B0F1804F34
:1011C00005D00949884202D00849884204D1816883
:1011D00001F00701062903D0016841F00101016017
:1011E00000207047002C014000040040000800402F
:1011F00070472DE9F04104460068C66805694FF064
:101200000007A90713D5B10711D5F91E0161012007
:101210002077206880698007204602D0FFF7E8FF2A
:1012200004E000F07EF8204600F07CF8277768079D
:1012300016D5700714D521686FF0040008610220EC
:1012400020772068806910F4407F204602D0FFF7A5
:10125000CFFF04E000F065F8204600F063F8277740
:10126000280715D5300713D521686FF008000861ED
:10127000042020772068C0698007204602D0FFF74D
:10128000B7FF04E000F04DF8204600F04BF8277758
:10129000E80616D5F00614D521686FF01000086135
:1012A000082020772068C06910F4407F204602D0D3
:1012B000FFF79EFF04E000F034F8204600F032F81B
:1012C0002777E80708D0F00706D021686FF0010003
:1012D0000861204600F028F8280608D5300606D513
:1012E00021686FF0800008612046FFF725FF68063F
:1012F00008D5700606D521686FF0400008612046C9
:1013000000F01CF8A8060AD5B00608D521686FF0D1
:10131000200008612046BDE8F041FFF70EBFBDE8A0
:10132000F08170477047000000680349884201D18E
:10133000FFF7B2BB70470000002C014070477047B8
:1013400070470000F8B5016804460868CA684B6930
:1013500010F00F0F4FF0000559D003F0010602F412
:101360009077374365D0C10705D0D10503D5616CAF
:1013700041F001016164410705D5D90703D0616CD3
:1013800041F002016164810705D5D90703D0616C82
:1013900041F004016164010707D502F020013143E7
:1013A00003D0616C41F008016164616C00293AD09E
:1013B000800604D5900602D5204600F015FE206870
:1013C0004069616CC0F38010090700D460B3204607
:1013D00000F0D5FD20684069400621D52068143012
:1013E00050E8001F21F0400140E80012002AF5D12A
:1013F000E06BA8B16D494163E06BFFF7E3F80028AB
:1014000011D0E06B416B01B0BDE8F04008478306A6
:101410000FD593060DD52046BDE8F84000F0E4BD99
:101420002046FFF78DFFF8BD2046FFF789FF656472
:10143000F8BD266B2023012E7CD1C6067AD5D606B0
:1014400078D508684868009048694FF00206400661
:1014500040D5E16B086840680004000CE8D0A28D1C
:101460008242E5D9E085886920282DD020680C309B
:1014700050E8001F21F4807140E80012002AF5D1E5
:101480002068143050E8001F21F0010140E80012EC
:10149000002AF5D12068143050E8001F21F04001E7
:1014A00040E80012002AF5D184F842302563206814
:1014B0000C3050E8001F21F0100140E80012002A13
:1014C000F5D1E06BFFF75AF86663A08DE18D401A05
:1014D00081B22AE0A08DE18D401A81B2E08D002812
:1014E000A6D00029A4D022680C3252E8000F20F4C4
:1014F000907042E80007002FF5D12068143050E8C2
:10150000002F22F0010240E80027002FF5D184F8D7
:101510004230256320680C3050E8002F22F0100282
:1015200040E80023002BF5D166632046FFF707FF54
:10153000F8BDFFE705062BD5150629D594F841001F
:101540002128F5D1A068B0F5805F01D12069B0B144
:10155000206A411C2162216800784860E08C401EAE
:101560000004000CE084E3D12068C16821F0800110
:10157000C1602068C16841F04001C160D8E7206ABD
:101580000088C0F308004860206A801C2062E5E7FC
:101590004006CDD55006CBD5CA68204622F0400281
:1015A000CA6084F8413000F0CDF8C1E7D91E0008C8
:1015B00070B5040004D094F84100002510B106E095
:1015C000012070BD84F84050204600F023F824200C
:1015D00084F841002068C16821F40051C1602046B0
:1015E00000F064FD2068016921F4904101612068E8
:1015F000416921F02A0141612068C16841F400512C
:10160000C1606564202084F8410084F8420065636D
:10161000002070BD70B586B0002506460095019586
:101620000295039500682349884240D12249C86940
:1016300040F40030C861C86900F400300490886943
:1016400040F00400886188691C4C00F0040004909C
:101650000420009002200190032003906946204658
:10166000FFF71EF90820CDE90005694620460295DE
:10167000FFF716F9134C124820601020C4E9010549
:101680008020C4E903052020C4E905502046E56117
:10169000FFF78EF808B1FEF76FFFB4630022052153
:1016A00026206662FFF78AFA2620FFF779FA06B04D
:1016B00070BD0000004400400010024000080140DE
:1016C00080000240EC0300207047000070B5044623
:1016D00090F84100202801D0022070BD49B342B3E8
:1016E0002162A284E28400206064212384F84130D6
:1016F000A56B114BAB62A56B104BEB62A56B104B4E
:101700002B63A36B5863256813462A1DA06BFFF754
:101710007DF821686FF0400008602068143050E8C0
:10172000001F41F0800140E80012002AF5D100209E
:1017300070BD012070BD0000331F0008751F000838
:10174000E91E000870477047FEE7000070B50646C6
:10175000094800240188458820464D43214600F071
:1017600075F900F02FFA03E0304600F0F5F9641C3B
:10177000AC42F9D370BD0000681100202DE9F041A2
:10178000F0212C232A252E4C4FF4A0722B2630B1A9
:10179000012804D0022815D0032813D022E0002706
:1017A000A77121806280238165810028A6814FF086
:1017B000360003D000F09AF9C02011E000F096F94D
:1017C00000200DE00127A7712280618023816581BF
:1017D0000228A6814FF036002ED000F087F9602055
:1017E00000F04EF9608900F081F9002000F048F91E
:1017F000002000F045F92088401EC0F30F2000F0C3
:101800003FF92078401EC0B200F03AF9A08900F0FC
:101810006DF9002000F034F9002000F031F9608803
:10182000401EC0F30F2000F02BF9A078BDE8F04176
:10183000401EC0B200F024B900F058F9A020CFE754
:101840006811002010B5804C012220212046FFF7AE
:1018500017F9012251022046FFF712F901228021D7
:101860002046FFF70DF9012208212046FFF708F96D
:10187000012240212046FFF703F9012211022046F0
:10188000FFF7FEF8002208212046FFF7F9F80120B3
:10189000FEF7F4FF012208212046FFF7F1F80120AE
:1018A000FEF7ECFF002208212046FFF7E9F80A20A6
:1018B000FEF7E4FF012208212046FFF7E1F8782037
:1018C000FEF7DCFF7820FEF7D9FF112000F00EF9BB
:1018D0007820FEF7D3FF362000F008F9002000F052
:1018E000CFF83A2000F002F9552000F0C9F8B220F4
:1018F00000F0FCF80C2000F0C3F80C2000F0C0F859
:10190000002000F0BDF8332000F0BAF8332000F0DA
:10191000B7F8B72000F0EAF8462000F0B1F8BB2095
:1019200000F0E4F81B2000F0ABF8C02000F0DEF877
:101930002C2000F0A5F8C22000F0D8F8012000F01B
:101940009FF8C32000F0D2F80F2000F099F8C420CF
:1019500000F0CCF8202000F093F8C62000F0C6F884
:101960000F2000F08DF8D02000F0C0F8A42000F087
:1019700087F8A12000F084F8D62000F0B7F8A12065
:1019800000F07EF8E02000F0B1F8F02000F078F8E8
:10199000002000F075F8062000F072F8042000F036
:1019A0006FF8052000F06CF8052000F069F8312090
:1019B00000F066F8442000F063F8482000F060F87A
:1019C000362000F05DF8122000F05AF8122000F0E6
:1019D00057F82B2000F054F8342000F051F8E120A3
:1019E00000F084F8F02000F04BF80B2000F048F8ED
:1019F0000F2000F045F80F2000F042F80D2000F015
:101A00003FF8262000F03CF8312000F039F8432060
:101A100000F036F8472000F033F8382000F030F8B6
:101A2000142000F02DF8142000F02AF82C2000F0EB
:101A300027F8322000F024F8212000F057F8BDE804
:101A40001040292000F052B8000C014070B50B4E38
:101A500005460C46708900F049F8280A00F010F895
:101A6000E8B200F00DF8B08900F040F8200A00F06C
:101A700007F8E0B2BDE8704000F002B8681100203D
:101A80002DE9F041184E05464FF4007800224146FA
:101A90003046FEF7F5FF012211023046FEF7F0FF57
:101AA00000244FF6FF77280601D5012200E000222E
:101AB00080213046FEF7E4FF07EA45050022402179
:101AC0003046FEF7DDFF012240213046FEF7D8FF09
:101AD000641CE4B2082CE6D341463046BDE8F04130
:101AE0000122FEF7CDBF0000000C01402DE9F041BE
:101AF000184E05464FF40078002241463046FEF766
:101B0000BFFF0022B1153046FEF7BAFF00244FF6A2
:101B1000FF77280601D5012200E00022802130460F
:101B2000FEF7AEFF07EA4505002240213046FEF7EA
:101B3000A7FF012240213046FEF7A2FF641CE4B259
:101B4000082CE6D341463046BDE8F0410122FEF7BD
:101B500097BF0000000C01402DE9F041184E0546EA
:101B60004FF40078002241463046FEF789FF0122FB
:101B700011023046FEF784FF00244FF6FF77280459
:101B800001D5012200E0002280213046FEF778FFD7
:101B900007EA4505002240213046FEF771FF012289
:101BA00040213046FEF76CFF641CE4B2102CE6D3F3
:101BB00041463046BDE8F0410122FEF761BF00001A
:101BC000000C014001480089FFF790BF6811002018
:101BD000094808B5416941F00101416140690022AD
:101BE00000F00100009005211120FEF7E7FFBDE89D
:101BF00008401120FEF7D4BF0010024000B587B0A6
:101C00001C2206496846FEF705FC0021684608F0DC
:101C100094FC0349086007B000BD000004B9000847
:101C2000000000202DE9F04F85B0002435480094D5
:101C3000019402940394816941F0100181618169EA
:101C400001F010010491816941F0200181618169F5
:101C500001F020010491816941F0040181618169F1
:101C600001F004010491816941F0080181618069FA
:101C7000012200F00800DFF89090550304902946F7
:101C80004846FEF7FDFE0122DFF880B0D702394654
:101C90005846FEF7F5FEDFF878A04FF47A78012277
:101CA00041465046FEF7ECFE0095022601250396BC
:101CB000CDE9015469464846FEF7F2FD1548009704
:101CC000CDE9010469465046FEF7EAFDCDF80080F3
:101CD0000396CDE9015469465046FEF7E1FD102018
:101CE000CDE90004694650460294FEF7D9FD0097FD
:101CF0000396CDE9015469465846FEF7D1FD05B07B
:101D0000BDE8F08F001002400010014000080140C3
:101D1000000C0140000011100C4810B50A49016088
:101D20004FF4E1314160002181600C22C160C0E9C3
:101D300004128161C161FFF73BFC002803D0BDE8BC
:101D40001040FEF719BC10BD00440040A403002061
:101D5000FEE7FEE710B500231A4604E0845C521C3F
:101D600023449BB2D2B28A42F8D3D8B210BD00004D
:101D70001CB5AA228DF800208DF8010000208DF8F6
:101D8000020020208DF8030001208DF804008DF85A
:101D9000051006216846FFF7DDFF07498DF80600AC
:101DA000009A0A60BDF804208A80887107220348DF
:101DB000FFF78CFC1CBD000048010020A40300209C
:101DC000012008F0AEFBFBE710B5502080F311882E
:101DD000BFF34F8FBFF36F8F09F0C6FC18B10449F2
:101DE0004FF080500860002080F3118810BD000083
:101DF00004ED00E030B58FB028216846FEF73CFBCB
:101E000014210AA8FEF738FB01210804CDE90010CF
:101E10000024029402250491CDE907504FF4E0100C
:101E200009906846FEF7F8FF08B172B6FEE70F208A
:101E3000CDE90A054FF48060CDE90C4002210AA8E3
:101E40000E94FEF7EDFE002801D072B6FEE70FB04B
:101E500030BD70470148FFF7CCB9000030040020C6
:101E6000F0B50268194B1A4C1A4D4FF08047984252
:101E700005D0B84203D0A04201D0A84203D122F03D
:101E800070064A683243984205D0B84203D0A04257
:101E900001D0A84203D122F44074CA6822434C699D
:101EA00022F08002224302608A68C2620A6882626B
:101EB000984201D109690163012141610169C907A2
:101EC00003D0016921F001010161F0BD002C014046
:101ED000000400400008004010B5406A0021C185A0
:101EE000C184FFF72DFA10BD70B5446A20684069BF
:101EF00094F84110C0F3C0100025212904D118B175
:101F0000E584204600F062F82068406994F84210A9
:101F1000C0F38010222904D118B1E585204600F0D5
:101F20002EF8606C40F0100060642046FFF708FA5D
:101F300070BD10B50146406A09680968890616D463
:101F40000021C1840168143151E8002F22F0800281
:101F500041E80023002BF5D101680C3151E8002F36
:101F600042F0400241E80023002BF5D110BDFFF7FD
:101F7000E9FB10BD10B5406AFFF7E5FB10BD016835
:101F80000C3151E8002F22F4907241E80023002B1D
:101F9000F5D10168143151E8002F22F0010241E827
:101FA0000023002BF5D1016B012909D101680C3107
:101FB00051E8002F22F0100241E80023002BF5D158
:101FC000202180F8421000210163704701680C3124
:101FD00051E8002F22F0C00241E80023002BF5D188
:101FE000202180F84110704708B590F8421022294E
:101FF00001D0022008BD82684FF480539A4201D17B
:10200000016921B1816A9A421BD04AB10AE0026893
:10201000816A5268C2F308020A80816A891C08E05A
:10202000026972B10268526802F07F020A70816A26
:10203000491C8162C18D491E0904090CC18503D068
:102040001BE002685268F1E70168CA6822F02002CA
:10205000CA600168CA6822F48072CA6001684A696D
:1020600022F001024A61202180F8421000214163E0
:10207000026B012A03D0FFF727FB002008BD016394
:1020800001680C3151E8002F22F0100241E80023D2
:10209000002BF5D101680A68D20602D50A684968A2
:1020A0000091818DFFF74BF9E7E7000070B504461A
:1020B00000680169E26821F440511143016121691E
:1020C000A0680843616908432168CA6841F20C634B
:1020D0009A430243CA6020684169A26921F44071B1
:1020E000114341611E492068884202D1FEF75EFE1D
:1020F00001E0FEF74BFE00EBC00101EB001260684F
:1021000064218000B2FBF0F3B3FBF1F36FF018062B
:102110007343B2FBF0F5B2FBF0F605EB8305322317
:1021200003EB0515B5FBF1F5B6FBF1F605F0F0058F
:1021300005EB0615B2FBF0F6B2FBF0F0B0FBF1F0E8
:102140006FF01802504306EB800003EB0010B0FB69
:10215000F1F0216800F00F002844886070BD000095
:10216000003801400148FFF7EDB80000A40300204B
:10217000FEE70907090E002804DB00F1E02080F8E3
:102180000014704700F00F0000F1E02080F8141DEB
:10219000704770B5044600256FF02F0608E02068F0
:1021A000411C2160007805EB850106EB41014518D3
:1021B0002068007800F004F80028F0D1284670BDAF
:1021C0003038092801D8012070470020704770B5C9
:1021D000B1F90030B2F90040A34200DC234603808D
:1021E000B1F90250B2F90240A54200DD2C4644800C
:1021F000B1F90460B2F90450AE4200DA3546858088
:10220000B1F90610B2F90620914200DB1146C180F7
:102210000120AB4201DC8C4200DD002070BDF8B52E
:102220000D460446B0F90000B1F900101646884288
:1022300047DBB4F90210B5F90220914241DBB4F951
:102240000410B5F9042091423BDCB4F90610B5F94D
:102250000620914235DC96B3ADF800006088ADF8F9
:10226000020032466946284600F02DF8002827D0A3
:10227000A088ADF800006088ADF8020032466946DB
:10228000284600F020F800281AD02088ADF8000079
:10229000E088ADF8020032466946284600F013F89F
:1022A00000280DD0A088ADF80000E088ADF802004D
:1022B00032466946284600F006F8002800D0012082
:1022C000F8BD0020F8BD2DE9FC4114460E46B1F9D9
:1022D0000020B0F9001005468A423ADBB5F9040047
:1022E000824236DCB6F90270B5F90220974230DB43
:1022F000B5F906309F422CDC002C75DD401A9A1A85
:10230000401C521C00B212B200EBD07002EBD27231
:1023100040105210904200DB1046844200DD04461B
:10232000ADF80010288800222044ADF80400688829
:10233000ADF80200688831462044ADF806006846D2
:10234000FFF7C1FF40B1BDF804002044ADF8040020
:102350003FE00020BDE8FC81E8880022001BADF8CA
:102360000200E888ADF8060031466846FFF7ABFF8B
:1023700028B1BDF804002044ADF8040011E0A8889D
:102380000022001BADF80000A888ADF8040031461B
:102390006846FFF798FF50B1BDF80000001BADF88C
:1023A0000000BDF80200001BADF8020016E06888CE
:1023B000ADF80200688800222044ADF806003146DE
:1023C0006846FFF780FF70B1BDF80000001BADF854
:1023D0000000BDF806002044ADF80600314668460E
:1023E00007F014FAB6E7FFE70120B3E708494968A8
:1023F0000AE04A68824202D00A68824203D10A7E19
:1024000042F001020A7649690029F2D170470000C2
:102410007C0000207FB50E46040003D102F056FB7D
:1024200004002CD002F0B8FB002828D094F8280033
:10243000400724D4002506B3ADF80050ADF8025093
:10244000204602F057FB401EADF80400204602F083
:102450008DFB401EADF806006A46314602A8FFF724
:10246000B6FE00280BD02068017C890708D5DDE97D
:102470000001C4E90C01012029E0A4F850517FBDFE
:1024800082690AB102A9904700260AE004EBC6015E
:10249000002202A83031FFF7C2FE0028EFD1761CDF
:1024A000B6B2B4F85001B042F0D880B2202804D2BD
:1024B00004EBC00002A9303004E0A4F8505104F14C
:1024C0003000694602F032F9B4F85001401CA4F81B
:1024D000500160680028D2D007F0BFFC7FBD002803
:1024E00000D0406870470068091D40587047006878
:1024F00040587047002800D08068704770B5044687
:102500000068083004F03AF8050013D001460022B4
:10251000204608F001F829462046626807F0F6FFD9
:10252000616819B12A46204607F0F6FF6560A06889
:1025300000B9A560284670BD70B504460068083033
:1025400004F01CF8050013D001460022204607F0D5
:10255000DDFF29462046A26807F0DEFFA16819B119
:102560002A46204607F0D2FFA560606800B9656082
:10257000284670BD28B1416809B9806808B10020BB
:1025800070470120704770B504000DD0FFF7A7FF1A
:1025900000228842204608D1FFF7A5FF6060011E97
:1025A00001D000221EE0A26070BDFFF7A3FF8842A9
:1025B000206808440AD10168A16029B12046BDE81D
:1025C0007040002207F0A2BF626070BD056820461F
:1025D000FFF789FF064602462946204607F096FF88
:1025E0002A4631462046BDE8704007F095BF806816
:1025F000002801D0B0F9160070478068002801D08B
:10260000807E8009704770B5164605460C4651EA33
:1026100006001AD0284604F02DF9A8680123324696
:10262000018A21440182A868418A314441822146BD
:10263000284606F08DF800220B21284603F06CF89E
:10264000012803D1284605F0FFFF012070BD77B5B2
:1026500081B00E46050017D0622205F0D9FC0400B7
:1026600012D0206880B128463146632205F0D0FCA4
:1026700010F0FF0208D02368204603999847009085
:10268000BDF80000ADF80C00039804B070BD000068
:102690002DE9F047064690B0C08B189F40F0080027
:1026A000F0839046B28399468A463A89304605F0CF
:1026B000AFFC0546A6F81C903A895146304605F015
:1026C000A7FC0446F08BA54220F00800F08303D15C
:1026D0002904B1EB044F66D0A6F81C803A89514614
:1026E000304605F095FC05468046A6F81C905146FC
:1026F000304601F065FE398900682A4607F03CFA49
:1027000038890B2823D147F6FF794D4501D04C4538
:102710001DD1304605F0E0FD00EBD070451030468D
:1027200004F0E9FE00EBD0704010C84506D1691CEA
:10273000431C994200DA00E0194688464C4506D110
:10274000691C421C914201DA6C1C00E014461848D6
:10275000FFF7D4FE050029D02E60C5E9038438892F
:10276000A8806846C5F808A001F03CFF1148FF2189
:10277000CDE90050104802901048039000200790C7
:10278000CDE9080138880A9078889DF83E104042CB
:102790000B90F8680690002060F300018DF83E1061
:1027A000684601F073FF10B0BDE8F087FEE7000057
:1027B000CC110020DDAE0008C9B0000825B000082B
:1027C0002DE9F84F00259046894606462C460427F9
:1027D000E5E000BFF16807EBC400085882017AD435
:1027E00080B230EA090211D05FF0000230EA08003E
:1027F0000ED0002082426ED051F834A06A461021DB
:10280000504607F027F8002871D103E00122EDE7D8
:102810000120EFE76A461121504607F01BF8002817
:1028200065D16A461221504607F014F800285ED19F
:102830006A461321504607F00DF8002857D16A4622
:102840001521504607F006F8002850D16A46142199
:10285000504606F0FFFFE8BB6A460A21504606F0E4
:10286000F9FFB8BB6A466B21504606F0F3FF88BB00
:102870006A466C21504606F0EDFF58BB6A460121BE
:10288000504606F0E7FF28BB6A460421504606F092
:10289000E1FFF8B96A460221504606F0DBFFC8B9ED
:1028A0006A460321504606F0D5FF98B96A460521CD
:1028B000504606F0CFFF68B96A460621504606F03A
:1028C000C9FF38B96A463221504606F0C3FF08B93D
:1028D0006A4601E00BE061E06E21504606F0BAFF67
:1028E00028B96A466D21504606F0B4FF10B10320A6
:1028F000BDE8F88F6A466921504606F0ABFFE8BB99
:102900006A466A21504606F0A5FFB8BB6A466E21AA
:10291000504606F09FFF88BB6A466D21504606F080
:1029200099FF58BB6A463721504606F093FF28BBF3
:102930006A463821504606F08DFFF8B96A463521BF
:10294000504606F087FFC8B96A464021504606F057
:1029500081FF98B96A464521504606F07BFF68B969
:102960006A464121504606F075FF38B96A46422151
:10297000504606F06FFF08B96A4600E00AE04321BE
:10298000504606F067FF28B96A464921504606F0CE
:1029900061FF08B1022501E005B90125641CF08B37
:1029A000C0F30510A0423FF615AF2846A0E7C0F3DC
:1029B0000410072800D9072070470000A0F57F41C8
:1029C000FF3905D0002804D0712803D208490AE055
:1029D0001F2070470749713880B2096829B1064A3B
:1029E0005268904201D2085C704700207047000096
:1029F000E4F00008F4000020080100202DE9F04177
:102A0000094D90460E466A681C460746194690478F
:102A1000306020B120686A68384400219047C8F8C7
:102A20000000BDE8F0810000240100202DE9F04FF6
:102A300087B08A46DDE910581F46934604460021B8
:102A400005B129805CB12078002809D0BAF1000FC7
:102A500005D0002618F0060F15D0002004E0002055
:102A600007B0BDE8F08F401C215C0A2904D00D2975
:102A700002D00029F7D100E0401C002DF0D04FF02B
:102A8000FF312980ECE75FEA887001D541F6FF77D6
:102A9000894608468DF81410049127E00498CDF873
:102AA000189068B34FF0000C05AA06ABCDF80CC027
:102AB000CDF80080CDE9013220443B465A465146CC
:102AC00007F0B6FA06997A1A314417B20EB288B1F5
:102AD00004990144049120780A280BD00D2809D0CC
:102AE000605C0A280FD00D280DD00846205C08B184
:102AF000002FD3DC049848B105B12E800498AFE7CD
:102B00004FF0010CD0E7481C0490F3E7064A04A9F3
:102B1000204652689047002DF0D0014600225046D2
:102B200002F0CEFE06B2E8E724010020002302787E
:102B3000232902D0012A0DD00FE02AB10021012A59
:102B400004D0022A04D008E0012101E0017004E071
:102B5000017001E0202902D00123184670470221AC
:102B6000F6E72DE9F0410E46804602460021334645
:102B7000084607F059FC04460027401C03F0FEFC01
:102B8000050008D02F5533464246611C07F04CFC27
:102B90002846BDE8F081FEE72DE9F0471E461446C1
:102BA0000D468246DDF8209015E000BF4FEA54083C
:102BB00008FB0657394650464A469047002808DD2C
:102BC00044F30000C0EB540407EB0605A4F1010434
:102BD00001E005DA4446002CE8D12046BDE8F08744
:102BE0003846FBE72DE9FC5F9B460CAB8A468146E5
:102BF000DDE9116093E81210DDE90F575FEA807894
:102C00004FF030031AD45EB15FEAC07808D000F00C
:102C10000C0858EA0C0803D0761E01E00B55641C22
:102C2000BC4204D2202CF9D301E00B55641C5FEAAE
:102C3000C07803D0B44201D2202CF6D35FEAC0683A
:102C400025D55FEA40580AD44CB1BC4201D0B44209
:102C500005D1641E03D0102D03D1641E04E0102D95
:102C600002D0022D0AD00EE0850603D4202C1ED2FD
:102C7000782506E0202C1AD2582502E0202C16D206
:102C800062250D55641C202C11D20B55641C202C80
:102C90000DD2BCF1000F01D02D2306E0430701D572
:102CA0002B2302E0030702D520230B55641CCDE93A
:102CB00000BAC846154681468B46AA46800714D1FD
:102CC000274607E02A46DDE900316D1C2020C44676
:102CD000E0477F1CB742F5D307E02A466D1C641E0F
:102CE000DDE900311BF80400C047002CF5D15FEA94
:102CF000897006D409E02A46DDE900316D1C2020E8
:102D0000C047A5EB0A00B042F5D32846BDE8FC9FBA
:102D10002DE9F04F8FB099468B46DDE91818DDE9B3
:102D20001C63DDE91A4792468646002209B923F062
:102D30001003580507AD00D5C9B1B1FBF4F004FB91
:102D40001010C0B20A2801D2303009E05FEA836C6B
:102D500002D54FF0410C01E04FF0610C60440A389D
:102D6000B1FBF4F1A854521C09B1202AE5D3CDF8E7
:102D70000880CDE90563CDE90052CDE903474B4614
:102D8000524659467046FFF72DFF0FB0BDE8F08F51
:102D90002DE9FF4F8FB01CACDDE9239594E80308C3
:102DA00020AC94E8C004002450EA010201D125F0CF
:102DB00010056A050DF11C0802D550EA010217D072
:102DC00032463B46FDF76CFAD2B20A2A01D23032C3
:102DD00006E0AB0601D5412300E061231A440A3A1C
:102DE00008F80420641C50EA010201D0202CE7D32B
:102DF000CDE90084CDF808B0CDE90595CDE9036AA9
:102E00000FAF97E80F00FFF7EDFE13B0BDE8F08FAE
:102E10009A4200D288547047704700002DE9FF4F56
:102E200089B005460A9800249246002800D1FE4D3C
:102E30008FE1252804D02246641C53460A990BE2F0
:102E4000491C4FF0000808460C9101782B2919D035
:102E500004DC202919D0232904D119E02D290ED012
:102E6000302909D00026C8B2FFF7AAF9B0B10CA8E2
:102E7000FFF78FF906461FE048F001010AE048F02D
:102E8000020107E048F0040104E048F0080101E015
:102E900048F01001401C88460C90D6E70C99087841
:102EA0002A2809D1169840C81690002E02DA48F058
:102EB00002087642491C0C910C984FF0000B0178E7
:102EC0002E2919D1401C0C9048F480680078FFF737
:102ED00077F920B10CA8FFF75CF983460CE00C9A57
:102EE00010782A2808D1169901C91691002800DC0B
:102EF0000020521C83460C920C9801786C290AD051
:102F000004DC68290FD06A2919D128E0742929D056
:102F10007A2914D126E0401C0C90017848F480787E
:102F20006C291CD00BE0401C0C90017848F0800804
:102F3000682904D148F04001401C88460C900146A5
:102F40000078692822D015DC62281FD00DDC2528E6
:102F500072D050281AD058287FF46DAF16E048F48C
:102F60000071E9E748F48071E6E7632879D06428C6
:102F7000F2D10BE0732875D004DC6F2806D07028DE
:102F8000EAD103E0752801D07828E5D178280DD062
:102F900058280BD070280BD0502809D06F2816D095
:102FA000622816D00A2228F0100016E0102207E04E
:102FB0004878102248F48878562804D1491C0C918E
:102FC0000878582807D00878502804D006E008224E
:102FD00009E0022207E048F02000804608786928CE
:102FE00003D0642801D028F00C085FEA485001D5CE
:102FF00028F00108087869281FD064281DD05628B9
:1030000064D05FEA885072D51698CDF818B0C01D0C
:103010000021CDE904210291CDE9076820F00700E5
:103020005346F0E80212CDE90012169022462846D7
:103030000A99FFF7ADFE88E009E15FEA885022D5E2
:10304000169804AFC01D20F00703F3E802011693A1
:10305000002387E80C08CDE90768002903DA01227C
:1030600002E07FE0A6E00022002302921A461B1A2B
:103070008A4103DB0022404262EB010153462246B3
:10308000CDE90001D3E75FEAC85004D5169901C91C
:103090000FE0404215E05FEA486003D5169911F849
:1030A000040B06E05FEA0860F0D5169931F8040BCE
:1030B00000B21691CDE9022BCDE90468C10F0028BA
:1030C000E7DD53462246CDE900013AE01699AAEB26
:1030D000040201C9169141680968009103680A98C1
:1030E00001192846FFF79AFE04442FE0FFE75FEA44
:1030F000C8500CD5CDE9022BCDE904681698002103
:10310000534604C8CDE900211690224619E05FEA33
:10311000486003D5169810F8041B08E05FEA0860C1
:10312000169803D530F8041B89B200E002C8169047
:1031300001AF0020009187E80508CDE904685346F7
:10314000224628460A99FFF7E3FD04460C98401CE6
:103150000C900C99087800287FF46BAE54457DD212
:1031600022467DE001275FEA887006D509E0224605
:10317000641C534620200A99A84738467F1CB04259
:10318000F5D316982246641C10F804CB16905346CB
:1031900060460A99A8475FEA887006D4D6E72246B7
:1031A000641C534620200A99A84738467F1CB04229
:1031B000F5D3CBE7169850F8049B16904B46BBF11D
:1031C000000001D0014601E04FF0FF31484600E029
:1031D000401C02780AB1491EFAD2C71A5FEA485069
:1031E00003D558465F4500D307465FEA887006D589
:1031F00011E02246641C534620200A99A84738460D
:103200007F1CB042F5D306E0224609F10109641C97
:1032100053460A99A84799F8000040B15FEA48511F
:10322000F2D5BBF1010B01E0192E0008ECD25FEAE8
:10323000887006D48AE72246641C534620200A99E7
:10324000A84738467F1CB042F5D37FE706E0224608
:10325000641C534625200A99A84777E7AAF1010282
:10326000534600200A99A8470DB02046BDE8F08FCC
:1032700010B502004FF000000CD04B1E194200D0D8
:10328000FEE70A44521E9A43B2F5006F02D20C2A9E
:1032900001D9104610BD0C2010BD08444A1E401E26
:1032A0009043114200D0FEE77047000010B5084C73
:1032B000012020700748FFF712F90028A06803D00A
:1032C000BDE8104006F0C9BDBDE8104006F0C2BD23
:1032D000C8000020A811002070B5044640680D46C3
:1032E00008B1FFF7F9FF2268002A04D029462046DA
:1032F000BDE87040104770BD10B5044640688208B4
:103300000AD0496821F00301091D08446060204685
:1033100000F042F8204610BDFEE74068103120F072
:103320000300884201D301207047002070472DE937
:10333000FC47054648680C4620F0030001AA694690
:1033400007F0C0F8DDE9007005EBC71101EB80095B
:103350008046D9F8280060B164B1C4E9020504F1DF
:103360000806C46030460421FFF797FF864202D06A
:10337000FEE7FEE7FEE7C9F828400120296900FAC8
:1033800007F21143296105EB870100FA08F04A6949
:1033900002434A61BDE8FC8710B5044600F087F897
:1033A000046010BD2DE9FC4706464FF000000D00FB
:1033B00000900746019042D00C46E9460DF1040802
:1033C000802907D3084607F081FD411F012088406E
:1033D000401E044442464946204607F073F8009CCC
:1033E000052C2CDA06EB8400019A40694FF0FF317E
:1033F00001FA02F210400CD1641C3069A14008406F
:103400001DD007F05BFD0446009006EB800040698C
:1034100078B107F053FD034606EBC411019001EBB0
:103420008000876A5FB1786820F00300A84201D26B
:10343000FEE7FEE739463046009A07F0EEFA3846D6
:10344000BDE8FC8710B50446FFF7A6FF416841F0D0
:1034500002014160606840F00100606010BD10B57D
:10346000044600F024F8416821F0020141606068E0
:1034700020F00100606010BD70B506460D4608469C
:1034800000F015F8040010D02079C0070BD0686850
:1034900080080BD02146304600F03CF821462846F3
:1034A000FFF72AFF0546284670BDFEE7FEE74268A3
:1034B00000F1080122F00300001F0844910800D128
:1034C000FEE7704770B506460C004FF000001ED0B6
:1034D000F2B120791546C0071BD011462046FFF7F0
:1034E0001CFF78B12946204600F025F80546204605
:1034F000FFF752FF6868294640F0020068603046D6
:10350000FFF715FF2046FFF7AAFF04F1080070BD82
:10351000FEE7FEE77CB5054648680C4620F0030050
:1035200001AA694606F0CEFFDDE9002321462846C0
:1035300007F073FA7CBD2DE9F0410D46044600F119
:103540000801281F0E18606806F1080720F0030024
:10355000401BA0F1040838460421FFF79EFE874275
:1035600000D0FEE7606820F0030108EB0500001DB5
:10357000814200D0FEE7307900F0030040EA080005
:10358000706020F003000C2800D2FEE7207900F0E4
:103590000300284360603046FFF754FF3046BDE823
:1035A000F08100002DE9F14F00221146009805F04E
:1035B000B7FE0021009804F093FC04460021009817
:1035C00004F01AFD20440FFA80F90021009804F05D
:1035D000EFFC20440FFA80F8009804F027FC00EB81
:1035E000090101EB0800DFF898A006B254460098E4
:1035F00003F0E1FE074600252AE000982149806893
:10360000006850F82500834604F073FEF8B9584668
:1036100005F072F840BB0021584604F02BFC18B3AB
:10362000012821D002281FD003281DD00021584690
:1036300004F099FD58B9BBF81610BBF81200081A2F
:10364000401C00B24844A04200DB044624B26D1C7A
:10365000BD42D2D3544504D004EB080000B2B042BE
:1036600000DC3046BDE8F88F0098BBF91610B0F9C1
:103670001200081A411CA142E8DB0C46E6E70000F4
:1036800001E0FFFF010004002DE9F84F0022804611
:10369000114605F02FFE0021404604F021FC0446AF
:1036A0000021404604F09CFC20440FFA80FA0021DF
:1036B000404604F089FC20440FFA80F9404604F0AB
:1036C000C3FB00EB090101EB0A00DFF844B105B2CE
:1036D0005C46404603F06FFE07460021404604F07A
:1036E000D2FB01284FF0000644D078E0D8F808005B
:1036F0004849006850F82600009004F0FAFDC0BB6D
:10370000009804F0F9FF50B10098B8F91410B0F91E
:103710001000091A481CA0422ADB4C1C28E000219A
:10372000009804F0A7FB58B1032809D0062807D059
:10373000082805D00021009804F00FFD58B118E0CA
:103740000098B8F91410B0F91000081A411CA142F1
:103750000EDB0C460CE000981030009001F006F8EB
:103760005044A04204DB009801F000F800EB0A048A
:1037700024B2761CBE42B9D35C453BD004EB0900B1
:1037800033E000BFD8F808002249006850F826004E
:10379000009004F0AEFD08BB009804F0ADFF60BBE4
:1037A0000021009804F066FB38B3012825D00428D6
:1037B00023D0072821D00021009804F0D4FC68B958
:1037C00000981030009000F0D1FF4844A04204DB84
:1037D000009800F0CBFF00EB090424B2761CBE4237
:1037E000D0D35C4506D004EB0A0000B2584501D0A6
:1037F000A84200DC2846BDE8F88F0098B0F9141004
:10380000B8F91000091A481CA042E6DB4C1CE4E79A
:1038100001E0FFFF010004002DE9F04F91B00E0020
:1038200005463FD02E83286808B102F01DFF06EB45
:103830004600062101EB400002F0A0FE286040B3E4
:10384000022101EB46010144E960042101EB8601FC
:103850000144C5E9010101210024012E1AD0F00024
:10386000083002F0A3FE814600EB860000F1040858
:10387000B00000B2A346ADF81000C0F10102801004
:10388000ADF812B00FFA82FA5C46CDF828B0069077
:10389000ABE0FEE7B4220270E8680480E86841808B
:1038A000A868048011B0BDE8F08F0027BDF8122091
:1038B000BAF1000F07DC032101EB42010AEB010022
:1038C0000FFA80FA0CE0BDF810100523521A03EB32
:1038D000420202EB0A00491E0FFA80FAADF81010FE
:1038E000BDF81200401CADF8120004A800F0E7F883
:1038F00068B1BDF9100006AA811042F827100AA984
:1039000000F0030041F827007F1C042FCEDB042FBA
:1039100071D109990698884212D129F8140028F823
:1039200014B0DDE90A010144DDE90C20104408442B
:1039300069680855696800010855641C24B252E0A2
:103940000799884219D029F8140028F814B06A6839
:103950000A9810556A6800011055641C069A20B236
:10396000521E29F8102028F810B0DDE90B120A4485
:103970000D99091D11446A682FE0089929F814006F
:10398000884228F814B0DDE90A025946104412D0E2
:103990006A6810556A6800011055641C069A20B2C6
:1039A000521E29F8102028F81010DDE90C121144DD
:1039B00008316A6811E00C9A10446A6810556A6808
:1039C00000011055641C069A20B2521E29F81020DE
:1039D00028F810100D996A680C3111546A680901B1
:1039E0001154401C04B20BF1010B04A800F067F85D
:1039F00000287FF45AAF09EB440140F2D32046433C
:103A000031F9021CB012814205D108EB440131F9B1
:103A1000021C81421AD0A6EB8021B1F5007F03DCA5
:103A2000494341F3CF3106E0C1F58061494341F399
:103A3000CF31C1F10F0129F8140028F8140068688B
:103A40000155686809010155641C24B2A01E0DE0EF
:103A500038F8102029F8142039F8102028F81420FC
:103A600069680A5C0A55641C24B2401E0028EFDA1B
:103A7000EB680021084619801BE0EA6822F8110073
:103A8000AB6839F8102023F811200AE0AE6839F944
:103A9000102036F81130934200DA1A4626F8112029
:103AA000401C38F910208A4201D1A042EEDB491CAB
:103AB00009B2A042E1DB484602F0C4FDF2E6B0F9EB
:103AC0000210B0F90000814201DC012070470020A3
:103AD00070472DE9F04798B0054601F01BFE0446FB
:103AE000284601F0DFFD064609A9204603F068FCE0
:103AF00094F844000025C10600D50125800601D5B3
:103B000045F002050021204604F021FBA0F51C51E0
:103B1000D13904D1E08B000501D445F004050BA890
:103B200001F0E8FAB4F84000ADF84200B4F8420001
:103B3000ADF844008DF849500BAA0021204604F04E
:103B4000DDFB9DF848004FF0010808B98DF848806A
:103B5000A06B0C90E06B0D900C994FF6FF708142BA
:103B60001ED00D9981421BD04FF480292746552243
:103B70004946204604F04CFA024649463846FEF7CC
:103B800066FD0090BDF80000ADF83A002046202206
:103B9000494604F03DFA0090BDF80000ADF83C0045
:103BA00094F8440041F6FF7A00F00700022801D0A3
:103BB00003281ED19DF84800022801D0032818D1FF
:103BC000BDF93E10CDE9001A0295BDF940300B9ABF
:103BD00016A8216A06F0C6FABDF82800BDF8241020
:103BE000401A401CBDF9581000B2884201DA8DF825
:103BF000488094F8440004F12C0700F007000328E3
:103C000009D0BDF82A00BDF82610401A401C00B2A9
:103C1000B0F5806F00DA002709A914A8B268FEF792
:103C2000D6FA00287DD094F8440040070BD12046F6
:103C300003F0BAFD404202B2002109A800F0AFFD36
:103C4000E08AADF82A0094F844000DF1500900F024
:103C50000700022813D0032811D0009709AA0BA946
:103C60003046236A00F0A6FFB068C6F80890804688
:103C700094F8440000F0070003280FD05FE0D6F866
:103C80000880C6F80890009709AA0BA93046236A55
:103C900000F090FF4046C6F80880E6E7BDF93E1008
:103CA000CDE9001A0295BDF940300B9A06A8216AA9
:103CB00006F058FABDF82800BDF82410401A401C40
:103CC000BDF9181000B2884219DA202211460B986B
:103CD00001F0F6FDB4F84010BDF8182000EB4000EC
:103CE00011440844ADF84200B4F84200ADF8440075
:103CF000009709AA0BA93046236A00F05BFFBDF8C4
:103D00002A00BDF82610401A401C01B2BDF91A0065
:103D1000814214DAB4F84010ADF842100B990989C9
:103D200000E00EE0B4F84220009710440844ADF8DB
:103D3000440009AA0BA93046236A00F03BFFC6F8ED
:103D4000088018B0BDE8F08770B5A4B00C460546F1
:103D500020AA22A903F03DFD22A800F0F9FC20B919
:103D600020A800F0F5FC00283ED012A9284606F055
:103D7000E9FF012838D12146684603F05BF91B486A
:103D800001900220029012A804904FF480300D9010
:103D900022A800F0DDFC80B122A803906A461A2117
:103DA000284601F0B9FC22AA12A9204601F026FCFF
:103DB0006A461B21284601F0AFFC20A800F0C8FC91
:103DC000002811D020AE6A461A212846039601F039
:103DD000A3FC20AA12A92046039601F00FFC6A4614
:103DE0001B21284601F098FC24B070BD4CB9000896
:103DF00070B5044601F054FE48B1006882680AB10B
:103E0000217A9047207E810742D4C0077BD10021D0
:103E1000606803F05BFB002518E0017A0A0610D504
:103E2000802904D0227A21F08001914209D1416891
:103E3000E160016820468847207E810728D4C007BA
:103E400061D16D1C2946606803F040FB18B1016820
:103E50000029F6D0E1E72146002003F096FA05009C
:103E600053D00021606803F031FB002619E001689F
:103E700091B1017A0A060FD411B1227A91420BD185
:103E80004168E160016820468847207E810701D5AE
:103E9000012070BDC00736D1761C3146606803F042
:103EA00015FB10B1012DE2D02FE0012D2DD160685E
:103EB000416851B3217E490727D4217A232919D09B
:103EC000242917D0A90304F00DFAF0B1207A113893
:103ED0001C280FD2DFE800F019191919191919193E
:103EE0001919190E0E190E0E191919190E0E0E0E9A
:103EF00019190E196068406860602046FFF778FF66
:103F00000546012801D0002070BD284670BD2DE96E
:103F1000F74F0546007E93464FF0000AC00760D178
:103F20004FF00108EC680026C1467CB9287EC0F33A
:103F3000C000401E304254D1B9F1000F51D0019958
:103F4000284688474FF000080446C1460EB9261E91
:103F500047D0B8F1000F06D0214628465A46904770
:103F60000446B0423DD04FF00108002CDED020685E
:103F700003F078FF0006D8D427681FE001213846F7
:103F800004F0B0F9B0B12FB10121384604F0AAF91C
:103F90000028CAD1E868A04223D0B0B1284600F07A
:103FA000BDF80246E8680F21006801F0B5FB012862
:103FB00017D106E0384603F0C5FA0746002FDDD1D9
:103FC000E8E7E868006804F03FFB2846EC6000F092
:103FD000A5F80246E8680E21006801F09DFB012863
:103FE00002D05046BDE8FE8FE868006804F02CFB64
:103FF000296909B1284688470120F3E72DE9FC47E4
:104000000F0023D00569686928B10168B94202D15F
:104010004068BDE8FC87698A00224FF0040CC1F3B8
:1040200008040CE0AE6802EB820356F823100CEB98
:104030008303F35A791A8B420AD2521C92B29442E9
:10404000F0D818B107606969002048600020E0E7F7
:1040500002EB82041222A86802EB84020026825C32
:104060004FF00609022A0CD04FF00C0A6AB1DFF8B3
:10407000A8C008234FF01008032A0FD0012A26D029
:1040800043E009EB8402805A06E00AEB840209EB64
:1040900084038258C05A515C461836E0ADF80410CB
:1040A00008EB8401CDF800C003EB8408425A50F8B5
:1040B0000810022301A8FEF76FFD30B3A96851F87C
:1040C0000820801A09EB84024010895A1CE0ADF8E0
:1040D000041008EB8401CDF800C003EB8408425AB9
:1040E00050F80810022301A8FEF756FD68B1A96830
:1040F00009EB840351F80820801A0AEB840240106F
:104100008A58C95A32F810000E18686910B1076051
:104110006869466030467CE7A3B200082DE9F041AB
:10412000002607463546304610E000BF01F0E3FCAC
:10413000616DB94209D1022802D0042803D003E0FE
:104140002046BDE8F08126462546204601F0AEFC1B
:104150000400EBD10EB13046F3E70DB12846F0E78D
:10416000BDE8F041002001F0A1BC00007CB503696E
:10417000006900255B8AC4689E04A3682BD4980F4D
:1041800017D00120B0EB937F31D101EB02402668BC
:10419000019018480090A068042320F04042314666
:1041A00001A8FEF7F9FC10B3801B801061680D5662
:1041B0001DE001EB02202668ADF804000E4823F054
:1041C000404200900223314601A8FEF7E5FC70B1A1
:1041D000801B4010EAE76068405C995C38B131B1FF
:1041E000637B2268401E00FB0320491E455628467B
:1041F0007CBD0000AD440008C14400082DE9F04139
:1042000005460F46E98B00200426C1F30513EA6832
:104210000FE000BF06EBC00414595FEAC41C07D5C9
:1042200024F07F44BC4203D152F83000BDE8F08155
:10423000401C8342EED84FF0806000EBB1204FEA83
:10424000B050E883C0F30510C100104602F022FA16
:10425000E860C0B3E88BC0F30514641E16D06FF09D
:1042600003025300E86802EBC40141585FEAC11C35
:104270000CD489010AD403EBC40C00EBC4018444C0
:10428000641EDCE9000CC1E9000CEBD1E8680821F0
:1042900000EBC40002F0AAFA082002F06FF9E96806
:1042A00041F8340005F07BFBEA6806EBC4001158C6
:1042B00041F080711150EA6867F317011150E86806
:1042C00050F83400B2E7FFE7FEE72DE9FF4F83B077
:1042D00005461F460598FEF76AFB01460120884007
:1042E000B5F81C9000F0FF086FEA090080B2019059
:1042F000A87F4FF0FF36C0F3C00A00244FF0040B34
:104300001FE0E96801EBC4004268920140D5BAF1B0
:10431000000F15D10BEBC4028958049AC1F3074171
:10432000090491420CD10068817911EA080F07D085
:104330006A46059905F08EFA012830D0022831D05E
:10434000641CE88BC0F30510A042DAD820E0E968CD
:1043500051F83400827912EA080F18D00BEBC4022E
:104360008A58C2F307411FFA82FA049A090491425B
:104370000DD1019A1AEA020F09D1B24507DD6A464A
:10438000059905F067FA01280FD002280AD0641CAD
:10439000E88BC0F30510A042D9D8002E0EDB0098A0
:1043A0003860012007B0BDE8F08F5046CA45F6D00E
:1043B0005645ECDA064600983860E8E70020F1E759
:1043C0002DE9F04104460D46E68B00200423C6F398
:1043D0000511E2680BE000BF03EBC007D7595FEAA5
:1043E000871C03D527F07F47AF4202D0401C814293
:1043F000F2D8814203D002EBC000BDE8F0814FF05B
:10440000806000EBB6204FEAB050E083C0F30510A7
:10441000C100104602F03EF9E060E08BC0F30510E9
:10442000401E0DD06FF00702E16802EBC00601EB01
:10443000C0030E44401ED6E90016C3E90016F3D1AE
:104440000821E06802F0D2F9082002F097F8E1684C
:10445000086005F0A4FAE168486840F00070486020
:10446000E16865F317004860E068C6E70021A0F145
:104470003002092A01D8D1B216E0612801D32038D0
:10448000C0B2413806280FD2DFE800F00305070963
:104490000B0D0A2108E00B2106E00C2104E00D21A0
:1044A00002E00E2100E00F210846704703880A88C9
:1044B000934201D0981A704740884988401A704743
:1044C00003780A78934201D0981A70474078497867
:1044D000401A704770B5044602F06DFF064600258D
:1044E00006E0A068006850F82500FFF7F3FF6D1C98
:1044F000B542F6D3E08BC1071AD020F00100E0836B
:10450000204604F00CFB204604F02BFA86B1002173
:10451000204603F005FD58B10C494968884207D888
:104520000B49096801EBC00050E902212046904781
:10453000E08B810708D520F00200E0832046BDE82B
:104540007040002104F0C4B970BD00009C00002040
:10455000E00000202DE9F041074688460026144877
:10456000FDF7BDFF04461DE021461148FDF7BBFFE6
:1045700005462068B84200D09FB96168414502D025
:10458000B8F1000F0DD121460948FDF7FCFF216964
:1045900009B120468847204602F066F8FEF786FEFD
:1045A00001262C46002CDFD13046BDE8F08100000A
:1045B000A811002070B505460C460948FDF78FFF8D
:1045C0000BE00168A94204D14168A14207D0002C48
:1045D00005D001460248FDF786FF0028F1D170BDE5
:1045E000A811002010B50446402102F0FFF84FF456
:1045F000FA70A0620020E061642060620120A08760
:104600000448A06194F83E0040F0010084F83E00A8
:1046100010BD00004D46000838B504464FF48065D3
:104620000095D4E90A200023194601F089FF40F2E1
:10463000B6334FF461720021009500F0C4F8E269CE
:10464000616A891A414302EBA12038BD38B504469E
:104650004FF480600090D4E90A200023194601F04D
:104660006FFFE269616A891A414302EBA12038BDFC
:104670008B1A002B00DC531A4FF47A714B43B3FBB7
:10468000F0F0002800D101207047000070B54168AB
:10469000054611B12868FFF75DFF1948FDF76AFF6D
:1046A000184E10B105F014FB70601548FDF726FF99
:1046B000040024D04022294602F004F82868A842C9
:1046C00000D12460717894F83E0061F3820084F890
:1046D0003E00C0070FD0616939B120468847E169C3
:1046E0000144E161616A0844606262681AB120684D
:1046F00008B1E1699047FEF7D9FD204670BDFEE79D
:10470000A8110020C80000200A8802804A88428040
:104710008A888280C988C18070470A8802804A8856
:1047200042808A888280C988C18070470A88028056
:104730004A8842808A888280C988C18070470A88F6
:1047400002804A8842808A888280C988C1807047F6
:10475000B0F90410B0F90020891AB0F90620B0F9B8
:104760000200101A401C491C484370478188008889
:10477000081A401C00B2704781880088081A401C43
:1047800000B2704703885B1A0380838819448180D4
:104790004188891A4180C1881144C18070470388CB
:1047A0000B440380838819448180418811444180EF
:1047B000C1881144C180704710B5029C01804280BD
:1047C0008380C48010BDF0B5C0F5806404FB04F59F
:1047D000AD0A05FB04F64FEA962C00FB00F6B60A7C
:1047E00006FB00F745435543BF0A0CFB01FC74432D
:1047F0004FEA9C2105EB45005C43DDF814E004EB37
:10480000440201EB105007FB0EF700EB125000EBD7
:104810009720F0BDF0B504464FF4FA66C1F341307D
:104820007710642501280BD121F4C040B04207DC89
:10483000B84201DDC0F57A70584390FBF5F001B243
:10484000C2F3413001280BD122F4C040B04207DC52
:10485000B84201DDC0F57A70584390FBF5F002B222
:10486000944201DA204600E01046884201DA084608
:10487000F0BD944201DA2046F0BD1046F0BDF0B51F
:1048800004464FF4FA66C1F34130771064250128DD
:104890000BD121F4C040B04207DCB84201DDC0F5C5
:1048A0007A70584390FBF5F001B2C2F34130012811
:1048B0000BD122F4C040B04207DCB84201DDC0F5A4
:1048C0007A70584390FBF5F002B2944201DA204628
:1048D00000E01046884201DA0846F0BD944201DA51
:1048E0002046F0BD1046F0BD002208B51146104626
:1048F00000F018F80090BDF8000008BD002208B5CF
:104900001146104600F026F80090BDF8000008BDE2
:10491000002208B51146104600F034F80090BDF8AA
:10492000000008BD08B5D308BDF8002063F30402F9
:10493000ADF800208A08BDF8001062F34A11ADF806
:104940000010C108BDF8000061F3CF20ADF80000F1
:1049500080B208BD08B5D308BDF8002063F3040297
:10496000ADF800208A08BDF8001062F34A11ADF8D6
:104970000010C108BDF8000061F3CF20ADF80000C1
:1049800080B208BD08B5D308BDF8002063F3040267
:10499000ADF800208A08BDF8001062F34A11ADF8A6
:1049A0000010C108BDF8000061F3CF20ADF8000091
:1049B00080B208BD08B5D308BDF8002063F3040237
:1049C000ADF800208A08BDF8001062F34A11ADF876
:1049D0000010C108BDF8000061F3CF20ADF8000061
:1049E00080B208BDFF2208B511461046FFF7B2FF9E
:1049F0000090BDF8000008BD1EA504F024FF01F0E2
:104A0000B1F80446012101F02FFD0321204601F0F9
:104A1000EFFC7821204604F0B8FD2A461BA1204671
:104A200001F066FD0A2300220921204601F013FF50
:104A300004F009FF01F096F80446012101F014FD8D
:104A40000321204601F0D4FC7821204604F09DFD8E
:104A500013A1204601F04CFD6FF00903002209214B
:104A6000204601F0F8FE00BF05F058F9052006F0D9
:104A7000E7FCF9E768747470733A2F2F67697465FF
:104A8000652E636F6D2F573233000000236666304A
:104A90003030302047697465653A20257323000063
:104AA000236666303030302048656C6C6F232023DD
:104AB00030303030666620776F726C64202131327E
:104AC0003334353637383923000000000148C068D8
:104AD00070470000B000002010B90548C06820B140
:104AE00000680069C0F3C910704782207047000059
:104AF000B000002018B90948C068002809D0006833
:104B0000017CC1F30111012904D0032902D0B0F9BD
:104B100000007047B0F9020070470000B0000020AC
:104B200010B518B9FFF7D2FF002800D0006A10BDF9
:104B300010B518B9FFF7CAFF002800D0C06910BD32
:104B400010B518B9FFF7C2FF002800D0006910BDEA
:104B500010B518B9FFF7BAFF002800D0406910BDA2
:104B600010B508B9FFF7B2FF806810BD18B9094841
:104B7000C068002809D00068017CC1F30111012937
:104B800004D0032902D0B0F902007047B0F9000048
:104B900070470000B000002010B518B9FFF796FF6D
:104BA000002804D0D0F85401002801DD012010BDF8
:104BB000002010BD2DE9FF4FB5B0887E429F1E46F4
:104BC00092460C4602287DD9206800287AD0359874
:104BD000006A002876D0202222A8FBF71BFC206860
:104BE0000390002E6ED0307800286BD03598514657
:104BF00082682EA8FDF7EBFA002863D0207FB0F181
:104C0000000B01D14FF0010B607F810707D4BAF888
:104C10000410BAF80000081A401C03B20FE0B4F9FF
:104C20001210009141F6FF72CDE90120B4F9143061
:104C3000314606A8226805F095FABDF918300398A8
:104C4000B4F912100025B0F908906A1E01EB0900B2
:104C50000B90BAF80000ADF81000BAF80210ADF8E9
:104C60001210B4F916000690B4F918000144ADF81A
:104C7000121007B3F8B9BAF9021000291BDAD7F8F5
:104C800008C0ACEB0100002801DCA1EB0C000B9983
:104C9000C1F1000C4FF4806101EB4C01884200DD52
:104CA0003A603868002806DB0546BDF81210B8885F
:104CB0000844ADF81200617F0020CDE90001B4F98D
:104CC000142000E0A2E070192D930399FDF7AEFEC9
:104CD00000EB050829E0617F0020CDE90001B4F96F
:104CE000142006EB08002D9B0399FDF79FFE454617
:104CF00000EB0508BDF812000B99084400B2ADF8AE
:104D000012007FB110F5806F0CDB3868002809DADB
:104D10003D60BDF91210BAF90200081A7860BAF9BC
:104D20000200B860705D002870D0BDF9121001EB70
:104D3000090035998968B1F902108842CBDB5846E1
:104D4000CDF8C0B0BBF1020F02D0032816D029E085
:104D5000607F0090B4F91430A8EB05017019039A34
:104D600005F05EFA07465046FFF706FDC01BBDF88A
:104D7000101000EBD07001EB600011E0607F00903C
:104D8000B4F91430A8EB05017019039A05F048FA3C
:104D900007465046FFF7F0FCBDF81010C01B084452
:104DA000ADF81000D4E9019BD94502D94846D9464F
:104DB0008346A07F800717D00FA800F0D3F9A08901
:104DC000ADF83C00039890F90E0000B90120ADF851
:104DD0003E00A07E8DF84400A07F9DF84510C008DD
:104DE00060F301018DF8451000200E90FFF77CFD67
:104DF0003390FFF779FD319012A800F013FC208A60
:104E0000ADF84C00BDF9100032906AE16DE100BFD1
:104E1000BDF81010069800270844ADF8100070196E
:104E200008972190A8EB05002A90BAE00021A9F587
:104E30007F420991FF3A09D0ABF57F41FF3905D098
:104E4000AB4A2918304612689047099008AB6A4669
:104E500001A92198FDF7D2FD607FC0070AD0019813
:104E6000232802D0012F13D004E047B1012F0AD02C
:104E7000022F0BD0E0683190022F4ED04FE00898FF
:104E80000E90012047E00027E06847E0002042E064
:104E9000202841D108990E98081A072801D0A08926
:104EA00037E00E9A21982BA91044062210F8013BF6
:104EB00001F8013B521EF9D100208DF8B2009DF897
:104EC000AD00FFF7D3FA07469DF8AC00FFF7CEFA26
:104ED00007EB001007909DF8AF00FFF7C7FA0746F1
:104EE0009DF8AE00FFF7C2FA07EB001009909DF89D
:104EF000B100FFF7BBFA07469DF8B000FFF7B6FA1E
:104F000007EB0010C2B20998C1B20798C0B2FFF710
:104F100009FD33900220074643E033983190DDE9E4
:104F20000021039800F0CCFC2C904FF6FF708145D7
:104F300022D0834520D0099848451DD358451BD21F
:104F4000BDF81010ADF82410BDF81200ADF8260021
:104F5000A28A0A442C99491E1144ADF828100B99D5
:104F600009AA491E0844ADF82A0012A9359800F094
:104F700045FBE089ADF8C400BDF8C400ADF894006D
:104F800004AA22A9019B359800F0DAF82C98002891
:104F900007DDBDF81010A08A01442C980844ADF834
:104FA00010002A99089881423FF640AFA07F800701
:104FB00023D53298ADF80000206802AB6A46B0F9FC
:104FC0000810BDF93E0001EBD171491000EBD07023
:104FD00001EB6000BDF812100844BDF81010ADF8E8
:104FE0000810ADF80200ADF80A00BDF8C400ADF835
:104FF0003C000FA9359800F0A8F8A07FC0071FD08B
:105000003298ADF800002068BDF8121002AB02899A
:1050100040891144091A03986A4690F90D00081A4C
:10502000BDF81010ADF80810ADF80200ADF80A0098
:10503000BDF8C400ADF83C000FA9359800F085F824
:10504000617F0020CDE9000106EB0800B4F91420CF
:1050500007462D9B0399FDF7E9FC454600EB050843
:10506000BAF80000ADF810003098022802D00328EA
:1050700016D029E0607F0090B4F91430A8EB050148
:105080003846039A05F0CCF807465046FFF774FB04
:10509000C01BBDF8101000EBD07001EB600011E0F8
:1050A000607F0090B4F91430A8EB05013846039AEC
:1050B00005F0B6F807465046FFF75EFBBDF8101046
:1050C000C01B0844ADF81000BDF812100B9808443E
:1050D000359900B2ADF812008968B1F9061088421E
:1050E00003DC705D00287FF493AE39B0BDE8F08F2B
:1050F0003401002038B50446202101F077FBFF2061
:10510000A076FFF7F1FB0090BDF80000A0810B48EE
:1051100020604FF6FF706060A060FFF7E5FB009035
:10512000BDF80000E081052004F0C0FA0090BDF851
:10513000000020820020E07638BD000094EE0008D8
:1051400030B4046AA44630BC604730B44C88002CAC
:1051500006D00C7A022C03D9446AA44630BC6047BE
:1051600030BC704738B504460A2101F03FFB0120EE
:105170006080FF202072BDF80010002060F3040161
:1051800089B260F34A1189B260F3CF21ADF8001003
:1051900088B20090BDF800000090BDF800002080AB
:1051A00038BD000010B503460A4A002052F83040CE
:1051B00024B1401CC0B21028F8D301E0102802D35B
:1051C0004FF0FF3010BD42F8303002EBC0025160AA
:1051D00010BD0000F412002010B50179022906D09C
:1051E000052913D18068BDE8104001F03DBA04469E
:1051F000406900280AD00169002904DA406801F0FA
:1052000033FA6069EFE74169491E416110BD2DE93C
:10521000FE4F8046DDF830900E461C4699F812008D
:10522000174600F0010AB9F91050684609F1080163
:10523000FFF785FABDF90200BAF1000F2FD0B8428E
:1052400050DCBDF90600B8424CDBBDF90000411945
:10525000B14205DCBDF904203119521B914209DD30
:10526000BDF902104A19BA4240DCBDF90620521BB2
:10527000BA423BDBBAF1000F18D0801B00D50020EA
:10528000A04231DCBDF90410891B091A491C4218DF
:10529000A24200DD211A002926DB4044EFE0B8429B
:1052A00013DCBDF90600B8420FDBCEE7871BA7422F
:1052B0000BDC002F03DB3946404601F097FABDF9BD
:1052C0000400851B6D1C002D02DC0020BDE8FE8F54
:1052D000A54204DA611B08EB050001F087FA1FB94B
:1052E000A54201D10120F1E70220EFE7BDF804302B
:1052F000821B181A401C0FFA80FCBDF80600401AE9
:10530000401C03B2781A00B2A84202DA281A401EE2
:1053100001E0591B401AD9F8141000B20223CF68DB
:1053200003EB4003FB5A37F810609B1B1EB28B68DF
:10533000496833F8103037F810004FF0000700EBE1
:10534000010B02EB0C00401B18440FFA80F95019B6
:10535000C01A401E05B2BAF1000F22D06BE0F11B5B
:1053600001EB0B0010F8010C029009EB07005FEA5B
:10537000000A08D4A24506DA18F80A10029805F0C7
:10538000B7F808F80A00B5EB070A08D4A24506DA10
:1053900018F80A10029805F0ABF808F80A007F1C0C
:1053A0003FB2B742DBDB09EB0700A04201DA01465E
:1053B00000E02146002901DA002002E0A04200DBE3
:1053C000204600B2211A404401F010FAA81B411CEB
:1053D000A14201DA0A4600E02246002A01DA00244E
:1053E00002E0A14200DA0C4621B2404647E0F11B40
:1053F00001EB0B0010F8010CC0F1FF00029009EB6B
:1054000007005FEA000A08D4A24506DA18F80A1075
:10541000029805F06DF808F80A00B5EB070A08D401
:10542000A24506DA18F80A10029805F061F808F8A3
:105430000A007F1C3FB2B742D9DB681CA04201DAE8
:10544000691C00E02146002901DA002504E0A042A1
:1054500001DA6D1C00E025462AB2A9EB0200A11A70
:10546000884201DA034600E00B46002B01DA0020F7
:1054700002E0884200DB084601B208EB020001F0BE
:10548000B5F931E72DE9F0411546064688880A88C6
:105490001C46801A401C02B2C8884B88C01A401CA7
:1054A00000B2824200DA1046B5EB600F00DD451015
:1054B000002D00DA002506F10800FFF740F93582DB
:1054C000B47438483060022030710023C5B13648CA
:1054D00000214FF47A7200BFC1EBC10400EB8404D9
:1054E000B4F91840AC421BD1C1EBC10100EB810003
:1054F0004169491C41610169102D04DA012303E06F
:105500007361BDE8F0812B110B44934205DA102D35
:1055100001DA012200E02A110A4402617061F0E719
:10552000491C0429D8D300244FEA0401C1EBC10768
:1055300000EB8707D7F814C0BCF1000F07D12CB1DE
:10554000D7F810C0D4F810E0F44500DA3C46491C06
:105550000429EBD33CB16069401CC4E90430102D30
:105560000EDA01200DE01C2001F008F8040006D03E
:105570001C2101F03BF94FF0FF3020610BE0FEE70A
:1055800028111844904205DA102D01DA012000E0BC
:1055900028111A182261204629467461BDE8F0419D
:1055A000FEF73AB90F52000884120020F0B500252A
:1055B000094E07462C4600BF06EBC4004068B842BF
:1055C00004D156F83450204600F008F8641CE4B2C8
:1055D000102CF1D32846F0BDF41200200021421C0B
:1055E00008D0054A002352F8301042F8303002EB60
:1055F000C000436008467047F412002030B4D388DE
:1056000054881B1B5B1C1BB2012B09DB938814887D
:105610001B1B5B1C1BB2012B02DB036930BC184750
:1056200030BC704738B50446382101F0DFF8FFF789
:10563000D9F90090BDF8000024F8040FFFF7D2F963
:105640000090BDF800006080FFF758F90090BDF8A9
:105650000000E080FF2525720220A072FFF74EF9BE
:105660000090BDF800006083FFF748F90090BDF896
:10567000000020850748206104F8015CA57584F8C6
:105680002650A57784F83250E07F20F03E001E308F
:10569000E07738BD94EE0008007A20F08000704773
:1056A00040687047017A15290BD0142909D01629B2
:1056B00007D0182905D0172903D0192901D00020B7
:1056C000704700697047017A01291FD002291DD057
:1056D00003291BD0042919D0052917D0062915D074
:1056E000072913D0082911D009290FD00A290DD074
:1056F0000B290BD00C2909D00D2907D00E2905D074
:105700000F2903D0102901D000207047006970478D
:10571000006970470068704710B588B0C0B100904C
:1057200001908DF808100020CDE903029DF81800C3
:10573000084C20F007008DF8180060680590C4F848
:1057400004D06846FEF754FB0599616008B010BDAF
:105750000120FBE77C000020027A132A06D10069B1
:10576000B0F900208A4200DD11460180704710B573
:10577000092900D120210469FEF740FC002806D049
:10578000616801EBC000618A890B01D0002010BD67
:1057900000682168C0F31300084410BD2DE9F047EC
:1057A000994617460C46060014D0A4B14FF00008E5
:1057B0000546C4F80080D5F800C04B463A4621465D
:1057C0002846E04740B1A07BC00605D401202560F3
:1057D000BDE8F087FEE7FEE76D69002DEBD1202FD5
:1057E00002D3A7F57840FF38A4F80680A4F8048017
:1057F000C4F8008031892181A4F80A80A4F80C80C3
:10580000A07B20F00F0000F1010040F01000A07319
:105810004FF00000DCE700002DE9F0479A460C4607
:105820008146092A47D000261146D9F81050FEF7C4
:10583000E5FB071E3DD0E8684FF0000850B1514627
:105840004846FEF7DBFB020004D039464846FEF727
:105850008DFC80466868298A00EBC70001FB08F1CF
:105860000A110168090D002E02D000BF4FEA410164
:10587000114401F108014FEA1111A1804179218100
:105880000179E18090F90620628190F90700A081FA
:10589000688A4FEA5022A07B62F3030020F01000D8
:1058A000A07304D04FF6FF7000EA4100E0804FF093
:1058B0000100BDE8F0874FF001064FF02002B3E78A
:1058C0001FB540B113460A466946FFF767FFBDF8AA
:1058D000040004B010BDFEE770B506000C4633D0DE
:1058E000084600F080F83046FCF7F9FD05E008684E
:1058F000A04229D03046FCF7F6FD0100F7D1204642
:1059000001F0F4FD40B1A168896829B1C96809684E
:10591000A14201D100F052F8A06810B9204600F071
:10592000A9FFA06886603046FCF706FE05000AD095
:1059300030462C60FCF7D3FDA84205D13046BDE8C7
:10594000704000F03BB8FEE770BD000010B50446A3
:10595000074A0849FEF7DBFA6269002A06D00028E8
:1059600004D12046BDE810400121104710BD0000C1
:10597000E7240008DF24000810B50446074A084958
:10598000FEF7C5FA6269002A06D0002804D1204635
:10599000BDE810400021104710BD0000EF240008B2
:1059A000F5240008014800687047000084000020CA
:1059B000002802D0007EC0F34000704770B5044656
:1059C000007EC0F3C00540F0080020764007204666
:1059D00002D4FFF7BBFF01E0FFF7CEFF207E65F3A7
:1059E000C300207670BD2DE9F041064601F07EFD32
:1059F00004003DD0E068002740B30068B04220D1E9
:105A0000207EC10702D020F0010020762046FCF75E
:105A100066FDE16888420FD12046FCF76BFDE16826
:105A2000884209D12046FEF779FB0246E0680F2143
:105A30000068FFF771FE02E02046FFF7BFFFE06855
:105A400020B1E0680068B04200D1E7602046FCF772
:105A500046FD11E028682946B04220460AD1FCF7ED
:105A600092FD284600F000FEB068002800D0876054
:105A7000BDE8F081FCF737FD0500EBD1F8E7032125
:105A800030B10078A0F120015F2903D801207047D0
:105A900008467047802801D30220704700207047D5
:105AA00001488068704700008800002018B1014656
:105AB0000248FCF718BD0148FCF711BD9011002009
:105AC000002806D001680978012903D0032901D0F4
:105AD0000020704790F8440000F00F007047002845
