:020000040800F2
:10000000A030002069020008032F0008DD2100084D
:10001000012F0008070700088934000800000000CD
:10002000000000000000000000000000D1010008F6
:10003000B109000800000000150200089531000811
:10004000830200088302000883020008830200087C
:10005000830200088302000883020008830200086C
:10006000830200088302000883020008830200085C
:10007000830200088302000883020008830200084C
:1000800099090008A50900088302000883020008F6
:10009000830200088302000883020008830200082C
:1000A000830200082132000883020008830200084E
:1000B000830200088302000883020008830200080C
:1000C00083020008830200088302000883020008FC
:1000D00083020008830200087D34000883020008C0
:1000E00083020008830200088302000800F002F87F
:1000F00000F05FF80AA090E8000C82448344AAF163
:100100000107DA4501D100F054F8AFF2090EBAE860
:100110000F0013F0010F18BFFB1A43F0010318473B
:10012000E0580000005900000A444FF0000C10F89D
:10013000013B13F0070408BF10F8014B1D1108BF65
:1001400010F8015B641E05D010F8016B641E01F805
:10015000016BF9D113F0080F1EBF10F8014BAD1C55
:100160000C1B09D16D1E58BF01F801CBFAD505E073
:1001700014F8016B01F8016B6D1EF9D59142D6D3CD
:10018000704700000023002400250026103A28BFF5
:1001900078C1FBD8520728BF30C148BF0B607047F9
:1001A000782900F0BD80002070471FB51FBD10B535
:1001B00010BD00F06EFA1146FFF7F7FF03F0E4F907
:1001C00000F08CFA03B4FFF7F2FF03BC00F094FADE
:1001D000224B19680868B0E8F00F80F30988BFF374
:1001E0006F8F4FF0000080F311884EF00D0E7047B6
:1001F0000000000006480068006880F3088862B6C6
:1002000061B6BFF34F8FBFF36F8F00DF00BF00BF3A
:1002100008ED00E0EFF30980BFF36F8F0F4B1A6812
:1002200020E9F00F106008B54FF0500080F31188FE
:10023000BFF34F8FBFF36F8F03F0DCFD4FF0000073
:1002400080F31188BDE8084019680868B0E8F00F2D
:1002500080F30988BFF36F8F704700BF180000203C
:10026000EFF30580704700000948804709480047C0
:10027000FEE7FEE7FEE7FEE7FEE7FEE7FEE7FEE756
:10028000FEE7FEE704480549054A064B70470000B3
:100290001D320008ED000008A02A0020A030002038
:1002A000A02C0020A02C00200FB41CB5074B06AAE0
:1002B0007B4469460090059800F0D3F90020694618
:1002C00000F0E2F91CBC5DF814FB0000D50300004F
:1002D00070B5044685690068C10601D5302600E086
:1002E0002026C00707D070BDD4E9012130469047D1
:1002F000206A401C20626D1EF6D570BD70B50446A4
:1003000085690078C00707D170BDD4E9012120209C
:100310009047206A401C20626D1EF6D570BD00001B
:1003200070B504460D4621461068AFF30080218861
:10033000090502D50F4A7A4402E00E4A7A440E3289
:10034000002104F1240305E000F00F060009965D8A
:100350005E54491C0028F7D120780023000704D5FB
:10036000702D02D009B1022311322046BDE8704041
:1003700000F019B9465600002DE9F05F89460446A1
:100380004FF0000ADFF824B1FB44C0F820A020465B
:10039000E168884700287DD0252806D0D4E90121CE
:1003A0009047206A401C2062F1E700255F46204606
:1003B000E16888472028064607DB312E05D2B819A8
:1003C00010F8200C08B10543F1E7A80701D525F086
:1003D0000405C4F81CA00027C4F818A02A2E09D0D0
:1003E000304603F062F838B304EB8708303EC8F8B3
:1003F000186019E059F8041B204604EB870291614C
:10040000E1688847012F064618D1E069002820DA04
:1004100025F020051DE0D8F8180000EB800006EB61
:1004200040003038C8F818002046E1688847064682
:1004300003F03BF80028EED1012F0AD02E2E08D170
:100440002046E16888477F1C0646022F45F02005BC
:10045000C4DBA069002803DA404245F00105A06131
:10046000E80701D025F01005A6B1A6F14100192832
:1004700002D8203645F400654A46314620462560BC
:100480004D46FFF78DFE60B1012807D0ED1D25F028
:10049000070000E007E000F1080978E705F104092A
:1004A00075E730467AE7206ABDE8F09F1C560000E9
:1004B00010B5431C02E010F8011B71B18107FAD19D
:1004C0004FF0013202C88C1A8C4314EAC211F9D0E1
:1004D000C01A0A0603D0C01E10BDC01A10BD0A04FF
:1004E00001D0801E10BD0902FCD0401E10BD10B509
:1004F000203AC0F00B80B1E81850203AA0E818501C
:10050000B1E81850A0E81850BFF4F5AF5FEA027CDC
:1005100024BFB1E81850A0E8185044BF18C918C04B
:10052000BDE810405FEA827C24BF51F8043B40F8EC
:10053000043B08BF7047D20728BF31F8023B48BFD1
:1005400011F8012B28BF20F8023B48BF00F8012B0F
:1005500070474FF0000200B5134694469646203986
:1005600022BFA0E80C50A0E80C50B1F12001BFF46C
:10057000F7AF090728BFA0E80C5048BF0CC05DF8D2
:1005800004EB890028BF40F8042B08BF704748BF20
:1005900020F8022B11F0804F18BF00F8012B704794
:1005A0007047704770472DE9F0470D4699469246CF
:1005B000044600F124080168880604D5E06921F0AA
:1005C0001001216000E00120A84201DD471B00E08E
:1005D0000027A1697A1902EB0900081AA0612078A6
:1005E000C00602D42046FFF773FE002608E0D4E9D7
:1005F00001211AF806009047206A401C761C2062F0
:100600004E45F4DB2078C0060AD52046FFF760FE91
:1006100006E0D4E9012130209047206A401C206286
:10062000381EA7F10107F4DC07E0D4E9012118F82E
:1006300005009047206A401C2062281EA5F1010594
:10064000F3DC2046FFF75AFE2078000602D5022090
:10065000BDE8F0870120FBE701694A1C02610878C8
:10066000704700B58FB0CDE90131002105910549F2
:100670007944CDE9031011466846FFF77DFE0FB0BF
:1006800000BD0000E5FFFFFF0A6802F8010B0A60E9
:100690007047754600F02CF8AE4605006946534693
:1006A00020F00700854618B020B5FFF7EBFDBDE848
:1006B00020404FF000064FF000074FF000084FF0C9
:1006C000000B21F00701AC46ACE8C009ACE8C0095A
:1006D000ACE8C009ACE8C0098D46704710B50446C7
:1006E000AFF300802046BDE81040FFF76BBD00006F
:1006F00000487047402A002001491820ABBEFEE7A1
:10070000260002007047FEE738B516A000F098F901
:1007100018494FF47840012408801749002010231D
:10072000088016A21E210A20009402F0B3FC1023B8
:1007300016A232210A20009402F0ACFC182318A261
:1007400046210A20009402F0A5FC202318A264216F
:100750000A20009402F09EFCBDE8384040F2DC50D4
:1007600002F0AABED6D0CEC4CFD4CABEB2E2CAD49A
:100770000000000080000020820000203136583147
:10078000363ABAE8D1B6B5E7D7D30000313658319A
:10079000363A544654D2BABEA7CFD4CABEC6C10058
:1007A00032345832343AD6D0CEC4CFD4CABE000088
:1007B00033325833323AB2E2CAD4C0FDB3CC00006F
:1007C000F8B500F0F7F84FF6FF75284601F008FD80
:1007D0001E4E00200124308010231DA21E21142053
:1007E000009402F057FC4FF47A77384602F064FE2A
:1007F00035804FF4784001F0F3FC102316A21E213F
:100800001420009402F046FC384602F055FE4FF4E6
:10081000FC6001F0E5FC102311A21E2114200094BD
:1008200002F038FC384602F047FE1F2001F0D8FCE9
:1008300010230DA21E211420009402F02BFCBDE811
:10084000F84040F2DC5002F037BE0000800000208B
:10085000574849544500000052454420000000001C
:10086000475245454E200000424C554520000000AF
:1008700070B5484E4FF400442146304600F070FEFB
:1008800000B9002425464FF480442146304600F04C
:1008900067FE00B9002425434FF40054214630463A
:1008A00000F05EFE00B9002425434FF48054214639
:1008B000304600F055FE00B9002425434FF4006493
:1008C0002146304600F04CFE00B9002425434FF489
:1008D00080642146304600F043FE00B900242543E1
:1008E0004FF400742146304600F03AFE00B900246F
:1008F00025434FF480742146304600F031FE00B9A4
:1009000000242C438021304600F02AFE08B18025C7
:1009100000E0002525434021304600F021FE08B1CB
:10092000402400E000242C432021304600F018FE33
:1009300008B1202500E0002525431021304600F0B5
:100940000FFE08B1102400E000242C43082130469B
:1009500000F006FE08B1082500E00025254304212B
:10096000304600F0FDFD08B1042400E000242C43D3
:100970000221304600F0F4FD08B1022500E0002518
:1009800025430121304600F0EBFD00B10120284352
:1009900070BD000000100140014800F00FBC0000D5
:1009A000B41C0020014800F009BC0000701C0020AD
:1009B000704700002DE9F04188B020221E496846AA
:1009C000FFF795FD1D4F002108467B883A8801F00E
:1009D00095FF02F095F90025E84600260BE000247B
:1009E00005E038F8250080B202F088F9641C3888E8
:1009F000A042F6D8761C7888B6EBD00FEFD36D1CEA
:100A0000082DEAD300250AE0002404E0079880B20C
:100A100002F074F9641C3888A042F7D86D1CB878CD
:100A200000F00700A842EFD84FF47A7002F044FDBE
:100A300008B0BDE8F081000060590008302A0020AD
:100A40002DE9F84F82464FF6FF79484601F0C8FB82
:100A50002E4C1F260096002122881423084601F000
:100A60001FFD2B4D4FF4FC6714232F80228819465D
:100A7000002001F037FC2E80152322881946002023
:100A800001F030FC4FF60748A5F8008016232288B5
:100A90001946002001F026FC009663882288A3F105
:100AA000140081B2002001F0FBFC2F8060882288B6
:100AB000143883B281B2002001F014FC2E806088CB
:100AC0002288153883B281B2002001F00BFCA5F812
:100AD000008060882288163883B281B2002001F03D
:100AE00001FCA5F8009001251023524602210020A8
:100AF000009500F0CDFA009560881023123881B27D
:100B000004A2002000F0C4FABDE8F88F302A0020CB
:100B100080000020C9EEDBDACAD0BAE8D1B6B5E76A
:100B2000D7D3D3D0CFDEB9ABCBBE00007CB527A0E6
:100B3000FFF786FF294C4FF47840294920804FF673
:100B4000FF7008800C2527A0CDE900502B46C82255
:100B50001E210A2001F068FF2AA0CDE900500C23D5
:100B6000C8222D210A2001F05FFF4FF4FC60208095
:100B700010252CA0CDE900502B46C8223C210A208C
:100B800001F052FF2FA0CDE900501023C8225021C0
:100B90000A2001F049FF1F202080182431A0CDE950
:100BA00000402346C82264210A2001F03DFF36A000
:100BB000CDE900401823C82280210A2001F034FF2B
:100BC000BDE87C4040F2DC5002F076BCD3A2CEC43B
:100BD000CFD4CABEB2E2CAD4000000008000002018
:100BE00082000020365831323A616263646566677C
:100BF00068696A6B6C6D6E6F7071727374757677FD
:100C000078797A00365831323A4142434445464772
:100C100048494A4B4C4D4E4F5030313233343536C3
:100C200037383900385831363A616263646566672F
:100C300068696A6B6C6D6E6F7071727374757677BC
:100C400078797A00385831363A414243444546472C
:100C500048494A4B4C4D4E4F503031323334353683
:100C60003738390031325832343A6162636465662C
:100C70006768696A6B6C6D6E6F707172737475768C
:100C80007778797A0000000031325832343A4142A4
:100C9000434445464748494A4B4C4D4E4F503031EE
:100CA00032333435363738390000000072B6FEE78B
:100CB0002DE9F843002440A0FFF7C2FE414D4FF656
:100CC000FF70009068882A88183883B218210020A5
:100CD00001F0E6FB3C4F3D4E37F814003080698848
:100CE000C4EB041000EB510101F1230293B22A88F6
:100CF000193900EB520000F12302193892B289B27F
:100D000080B201F049FB642002F0D6FB641CE4B21F
:100D1000052CE1D300241E2237F814003080C4EBE8
:100D2000C40000EB80003C21323001F052FB642013
:100D300002F0C2FB641CE4B2052CECD340F2DC5898
:100D4000404602F0B9FB002437F8140030800090D0
:100D50006988C4EB041000EB510101F1230293B246
:100D60002A88193900EB520000F12302193892B297
:100D700089B280B201F094FB642002F09DFB641CF8
:100D8000E4B2052CE0D30024C4EBC40037F81430DF
:100D900000EB800033801E223C21323002F099FBB0
:100DA000642002F089FB641CE4B2052CECD34046BD
:100DB000BDE8F84302F080BBCDBCD0CEB2E2CAD4CD
:100DC00000000000302A0020B81900208000002018
:100DD0002DE9FF4F83B00546814634208B464FF006
:100DE00000084FF0800A01902B49059A08EB081083
:100DF00011F810301278934237D101EB4000009087
:100E000041780598407881422FD110231A465946DF
:100E1000284601F073FD01F073FF002600980024BE
:100E200087190698B97800282AFA04F001EA000127
:100E30000BD019B15946284601F0A0FA6D1CADB28D
:100E4000A5EB0900102821D007E01348001F09B1C5
:100E5000008800E0408801F011FE641CE4B2082C18
:100E6000DFD3761CF6B2202ED8D308F10100019909
:100E70001FFA80F88845B7D30848002143880288C4
:100E800007B00846BDE8F04F01F038BD0BF1010096
:100E90004D461FFA80FBE4E784000020302A002042
:100EA0002DE9FF4F83B005468146062001900020C2
:100EB0008B4680464FF0800A00EB800101EB481022
:100EC0002A49059A11F810301278934236D101EB75
:100ED0004000009041780598407881422ED1182337
:100EE0001A465946284601F009FD01F009FF00267F
:100EF0000098002487190698B97800282AFA04F087
:100F000001EA00010BD019B15946284601F036FA22
:100F10006D1CADB2A5EB0900182820D006E01448DE
:100F200009B1008800E0408801F0A8FD641CE4B22B
:100F3000082CE0D3761CF6B2482ED9D308F1010074
:100F400080B2019980468842B6D30A48002143887E
:100F5000028807B00846BDE8F04F01F0CFBC0BF1A6
:100F600001004D461FFA80FBE4E700006C070020FB
:100F700080000020302A00202DE9FF4F83B0054675
:100F8000814608208B464FF000084FF0800A019000
:100F90002B49059A08EB881011F81030127893420B
:100FA00036D101EB400000904178059840788142AD
:100FB0002ED120231A465946284601F09FFC01F005
:100FC0009FFE00260098002487190698B97800280B
:100FD0002AFA04F001EA00010BD019B1594628465B
:100FE00001F0CCF96D1CADB2A5EB0900202820D092
:100FF00006E0144809B1008800E0408801F03EFD99
:10100000641CE4B2082CE0D3761CF6B2802ED9D34F
:1010100008F1010001991FFA80F88845B8D30A4801
:1010200000214388028807B00846BDE8F04F01F070
:1010300065BC0BF101004D461FFA80FBE4E70000A0
:101040002809002080000020302A002070B51546B5
:1010500028231A4601F052FC01F052FE00244FF4FE
:10106000C86605EB440115F81400497840EA0120F0
:1010700001F004FD641CB442F3DB04480021438802
:101080000288BDE87040084601F038BC302A0020D4
:101090002DE9F84305461C46174688461046089E2B
:1010A000FFF706FA0C4980B2102C098803D96208B0
:1010B00000FB121002E0404201EBC00000EBD070D8
:1010C000C0F34F00284480B223463A46414600967A
:1010D00001F0E0FFBDE8F883302A002010B590F859
:1010E00021100022022905D00421816380F82020EC
:1010F000012010BD01680B6823F00E030B6001682E
:101100000B6823F001030B6090F84030012404FACF
:1011100003F1C36B596080F8214080F8202010460D
:1011200010BD000010B590F821100024022903D052
:101130000421816301243DE001680A6822F00E0267
:101140000A6001680A6822F001020A601A4A01680E
:10115000914201D1012121E0174A1432914201D17B
:1011600010211BE0144A2832914201D1891515E063
:10117000114A3C32914201D189140FE00E4A50329B
:10118000914202D14FF4803108E00B4A643291421F
:1011900002D14FF4801101E04FF08071064A083A05
:1011A0005160012180F82110002180F82010416B4E
:1011B00001B18847204610BD080002402DE9F05FCC
:1011C000C16B0B6801680A68046C4FF0040C0CFAE0
:1011D00004FC4A4DDFF828A14A4E4B4FDFF82CB1F2
:1011E000DFF82CE11CEA030F2DD05FEA427C2AD500
:1011F0000A68920603D40A6822F004020A600168B1
:10120000A94201D1042119E0514501D1402115E045
:10121000B14202D14FF4806110E0B94202D14FF4E3
:1012200080410BE0594502D14FF4802106E0714521
:1012300002D14FF4800101E04FF080612F4A083A5B
:101240005160C16A3BE04FF0020808FA04F818EA5E
:10125000030F4FF000094FF0010C35D05FEA8278A0
:1012600032D50A68920605D40A6822F00A020A609A
:1012700080F821C00168A94201D1022119E051453D
:1012800001D1202115E0B14202D14FF4007110E0EC
:10129000B94202D14FF400510BE0594502D14FF44D
:1012A000003106E0714502D14FF4001101E04FF02A
:1012B0000071124A083A516080F82090816A002932
:1012C0001AD0BDE8F05F08470825A5401D4213D09D
:1012D000120711D50A6822F00E020A6090F8401039
:1012E000C26B0CFA01F15160C0F838C080F821C01F
:1012F00080F82090016BE2E7BDE8F09F0800024013
:101300001C000240300002404400024058000240ED
:101310006C00024030B528B302C8134A14230A44B3
:10132000B2FBF3F29200C263104A82630222427758
:101330000B6843F6F0729343D0E900242243D0E9CE
:1013400002452C43224304692243446922438469B1
:1013500022431A430A600021416301224277017748
:10136000084630BD012030BDF8FFFDBF000002403F
:1013700070B5044600F0FEF80546601C02D0044833
:101380000078044400F0F6F8401BA042FAD370BD88
:10139000080000202DE9F84FDFF8A4910024A9F1FE
:1013A000040B23464FF00F0809F1040AABF1040EB9
:1013B000BEE00127A7403A40BA4272D1DFF884C1AB
:1013C0004D68A5EB0C0665452BD00DDC032D34D004
:1013D00005DC35B3012D19D0022D2FD11BE0112DC5
:1013E00016D0122D2AD119E0B6F5881F19D006DCC7
:1013F000B6F5803F15D0B6F5801F1FD111E0B6F5C8
:10140000001F0ED0B6F5041F18D10AE0CB6815E016
:10141000CB681B1D12E0CB6808330FE0CB680C33A0
:101420000CE08B682BB1012B4FF0080303D0476110
:1014300004E0042302E0076100E00023FF2A01D852
:10144000064601E000F104064FEA840501D9A5F142
:101450002005376808FA05FC27EA0C0703FA05F5AA
:1014600047EA050737604D68ED0060D5364DAE6937
:1014700046F00106AE61AD6924F0030605F00105F2
:101480000095324D7719BE68A5072D0F08FA05FCA7
:1014900026EA0C06DFF8B8C0604503D14FF0000C17
:1014A00017E044E0DFF8ACC0604502D14FF0010C1A
:1014B0000FE0DFF8A4C0604502D14FF0020C08E055
:1014C000DFF898C0604502D14FF0030C01E04FF007
:1014D000040C0CFA05FC4CEA060CC7F808C04D6871
:1014E000D9F80060ED024D4601D5164300E0964361
:1014F0002E604D68DAF80060AD02554601D51643FE
:1015000000E096432E604D68DBF80060AD035D4659
:1015100001D5164300E096432E604D68DEF800606A
:10152000ED03754601D5164300E096432E60641C1A
:101530000A6832FA04F57FF43CAFBDE8F88F00008A
:10154000080401400000111000100240000001409A
:1015500000080140000C014000100140001401404F
:101560008068084000D0012070470AB101617047CF
:101570000904FBE70148806870470000080000206C
:101580000248816802781144816070470800002099
:10159000074810B5016841F010010160032000F018
:1015A000A1F80F2000F006F800F04AF8002010BD66
:1015B0000020024030B505461C4887B0816941F4DF
:1015C00000618161806905A900F4006006906846A9
:1015D00000F036F900F064F91549164AB0FBF1F154
:1015E0001548491E026040F2E732C26000220261E3
:1015F000C0E90112826100F017FB040012D10E480D
:1016000000F040FB04000DD1192000F03DF8102D32
:1016100007D200222946192000F044F80748056047
:1016200000E0012407B0204630BD00000010024059
:1016300040420F00002C0140F81C00200C0000204C
:101640000F4808B5816941F001018161816901F0AC
:1016500001010091C16941F08051C161C06900225E
:1016600000F0805000900F21901E00F01BF80549FB
:10167000486820F0E06040F00070486008BD00005D
:101680000010024000000140002809DB00F01F02AA
:10169000012191404009800000F1E020C0F80011D4
:1016A00070470000F0B40E4B1B68C3F30223C3F174
:1016B0000704042C00D904241D1D072D01D200238A
:1016C00000E0DB1E012606FA04F56D1E0D409D406C
:1016D0009E40761E164045EA0601F0BC01F0D5BEDC
:1016E0000CED00E0064A00F0070110684FF6FF031A
:1016F000184040EA01200349084310607047000089
:101700000CED00E00000FA052DE9F0470D4604005D
:1017100067D0DFF81881D8F8000000F00700A84271
:101720000CD2D8F8001021F007012943C8F80010A6
:10173000D8F8000000F00700A84252D120683C4EC3
:10174000810712D5400703D5706840F4E0607060EF
:101750002078000703D5706840F4605070607068AE
:10176000A16820F0F000084370602078C00727D0FF
:101770006068012810D03168022810D0890700293C
:101780002FDA716821F0030101437160FFF7F2FE67
:10179000074641F288390CE031688903EFE7890197
:1017A000EDE7FFF7E7FEC11B494502D90320BDE87D
:1017B000F0877068616800F00C00B0EB810FF0D129
:1017C000D8F80010404601F00701A9420BD9016882
:1017D00021F0070129430160006800F00700A842DA
:1017E00001D00120E3E72078400705D57068E16863
:1017F00020F4E060084370602078000706D5706828
:10180000216920F4605040EAC100706000F058F88F
:101810007168084AC1F30311515CC8400649086069
:1018200006480068FFF7C6FE0020C0E7002002401F
:101830000010024076410008140000200C00002037
:101840000F2202600C4A536803F00303436053689D
:1018500003F0F0038360536803F4E063C3605268ED
:101860004FF4E06303EAD20202610448006800F02A
:10187000070008607047000000100240002002408E
:101880000448054900684968044AC1F30221515CD3
:10189000C840704714000020001002408641000834
:1018A0000448054900684968044AC1F3C221515CF3
:1018B000C840704714000020001002408641000814
:1018C0000E4B59680E4801F00C02042A11D0082A68
:1018D0000FD10C48C1F38342C903805C0AD5596813
:1018E000084AC1F34041921E515C054A5043B0FB87
:1018F000F1F070470449484370470000001002406F
:1019000000127A006641000800093D002DE9F84FF9
:1019100004006FD02078BE4DC00747D06868C0F380
:101920008100012807D06868C0F38100022809D12E
:101930006868C00306D52868800337D5606800282A
:10194000E7D033E06068B0F5803F0BD010B1B0F560
:10195000A02F11D0286820F480302860286820F457
:10196000802002E0286840F480302860606888B1F8
:10197000FFF700FE064609E0286840F48020286052
:10198000F0E7FFF7F7FD801B642873D82868800311
:10199000F7D50BE0FFF7EEFD064604E0FFF7EAFDA2
:1019A000801B6428F1D828688003F7D42078DFF8FA
:1019B000648280074FF0010A4FF0000939D568684A
:1019C00010F00C0F07D06868C0F38100022809D11D
:1019D0006868C00306D42868800714D520690128E8
:1019E00008D110E02069B0B1C8F800A0FFF7C2FD2F
:1019F000064605E007E1FFF7BDFD801B0228C4D8BD
:101A000028688007F7D52868616920F0F80040EA67
:101A1000C10028600DE0C8F80090FFF7ABFD064656
:101A200004E0FFF7A7FD801B022823D82868800761
:101A3000F7D4207800072CD57748A169D9B1C0F830
:101A400000A0FFF797FD064604E0FFF793FD801B1B
:101A500002280FD8686A8007F7D570484FF4FA510A
:101A60000068B0FBF1F0009000BF0098411E0091AB
:101A7000FAD20EE07CE0C0F80090FFF77BFD06464E
:101A800004E0FFF777FD801B022871D8686A8007A1
:101A9000F7D4207840075BD5E8690027C00008D458
:101AA000E86940F08050E861E869012700F0805063
:101AB00000905B480168C90511D40168834641F470
:101AC00080710160FFF756FD064604E0FFF752FD06
:101AD000801B64284CD8DBF80000C005F6D5E06810
:101AE00001280AD008B1052813D0286A20F0010087
:101AF0002862286A20F0040002E0286A40F0010011
:101B00002862E06841F2883B88B1FFF733FD064662
:101B100009E0286A40F004002862EEE7FFF72AFD9A
:101B2000811B59455BD8286A8007F7D50BE0FFF782
:101B300021FD064604E0FFF71DFD811B59454ED8E7
:101B4000286A8007F7D41FB1E86920F08050E86167
:101B5000E069A8B36968C1F38101022946D002286F
:101B6000484606D0C8F86000FFF704FD044639E097
:101B700035E04746C8F86000FFF7FCFC064604E085
:101B8000FFF7F8FC801B022829D828688001F7D4C9
:101B9000206AB0F5803F05D16868A16820F4003064
:101BA00008436860D4E908010843696821F47411A6
:101BB00008436860C7F860A0FFF7DCFC044605E056
:101BC00023E0FFF7D7FC001B022808D82868800113
:101BD000F7D51AE0FFF7CEFC001B022802D903203C
:101BE000BDE8F88F28688001F4D40EE00128F7D012
:101BF0006868226A00F48031914204D1616A00F47D
:101C00007010884201D00120EAE70020E8E70000D8
:101C100000100240000042428004424214000020B2
:101C2000007000407047704710B5040003D094F86E
:101C30003D0010B107E0012010BD002084F83C00F9
:101C4000204600F01EF8022084F83D00211D206887
:101C500001F0ECFA012084F8460084F83E0084F894
:101C60003F0084F8400084F8410084F8420084F882
:101C7000430084F8440084F8450084F83D000020C7
:101C800010BD704790F83D10012901D00120704728
:101C9000022180F83D100168CA6842F00102CA6062
:101CA00000680B49884208D0B0F1804F05D009493F
:101CB000884202D00849884204D1816801F00701B6
:101CC000062903D0016841F001010160002070473E
:101CD000002C0140000400400008004070472DE93E
:101CE000F04104460068C66805694FF00007A9077F
:101CF00013D5B10711D5F91E0161012020772068A5
:101D000080698007204602D0FFF7E8FF04E000F07A
:101D10007EF8204600F07CF82777680716D5700714
:101D200014D521686FF00400086102202077206834
:101D3000806910F4407F204602D0FFF7CFFF04E017
:101D400000F065F8204600F063F82777280715D5DE
:101D5000300713D521686FF0080008610420207750
:101D60002068C0698007204602D0FFF7B7FF04E073
:101D700000F04DF8204600F04BF82777E80616D51E
:101D8000F00614D521686FF0100008610820207754
:101D90002068C06910F4407F204602D0FFF79EFF04
:101DA00004E000F034F8204600F032F82777E80726
:101DB00008D0F00706D021686FF0010008612046C6
:101DC00000F028F8280608D5300606D521686FF0FF
:101DD000800008612046FFF725FF680608D57006D9
:101DE00006D521686FF040000861204600F01CF81D
:101DF000A8060AD5B00608D521686FF02000086152
:101E00002046BDE8F041FFF70EBFBDE8F081704706
:101E10007047000000680349884201D1FFF7B0BB5A
:101E200070470000002C0140704770477047000069
:101E3000F8B5016804460868CA684B6910F00F0FCE
:101E40004FF0000559D003F0010602F490773743B4
:101E500065D0C10705D0D10503D5616C41F0010102
:101E60006164410705D5D90703D0616C41F00201D7
:101E70006164810705D5D90703D0616C41F0040185
:101E80006164010707D502F02001314303D0616C82
:101E900041F008016164616C00293AD0800604D5E4
:101EA000900602D5204601F02CFA20684069616C4A
:101EB000C0F38010090700D460B3204601F0FAF99E
:101EC00020684069400621D52068143050E8001F82
:101ED00021F0400140E80012002AF5D1E06BA8B1E2
:101EE0006D494163E06BFFF71DF9002811D0E06BED
:101EF000416B01B0BDE8F040084783060FD593065B
:101F00000DD52046BDE8F84001F0FBB92046FFF7AB
:101F10008DFFF8BD2046FFF789FF6564F8BD266B8D
:101F20002023012E7CD1C6067AD5D60678D508683E
:101F30004868009048694FF00206400640D5E16BC2
:101F4000086840680004000CE8D0A28D8242E5D900
:101F5000E085886920282DD020680C3050E8001FCB
:101F600021F4807140E80012002AF5D12068143075
:101F700050E8001F21F0010140E80012002AF5D1CD
:101F80002068143050E8001F21F0400140E80012A2
:101F9000002AF5D184F84230256320680C3050E8DF
:101FA000001F21F0100140E80012002AF5D1E06B7B
:101FB000FFF794F86663A08DE18D401A81B22AE0A4
:101FC000A08DE18D401A81B2E08D0028A6D00029B5
:101FD000A4D020680C3050E8002F22F4907240E822
:101FE0000027002FF5D12068143050E8002F22F090
:101FF000010240E80027002FF5D184F84230256324
:1020000020680C3050E8002F22F0100240E8002336
:10201000002BF5D166632046FFF707FFF8BDFFE709
:1020200005062BD5150629D594F841002128F5D1B0
:10203000A068B0F5805F01D12069B0B1206A411C71
:102040002162216800784860E08C401E0004000C8A
:10205000E084E3D12068C16821F08001C16020687C
:10206000C16841F04001C160D8E7206A0088C0F330
:1020700008004860206A801C2062E5E74006CDD554
:102080005006CBD5CA68204622F04002CA6084F8C8
:10209000413000F0A2F8C1E7A532000870B5040095
:1020A00004D094F84100002510B106E0012070BD75
:1020B00084F84050204600F023F8242084F84100A2
:1020C0002068C16821F40051C160204601F07AF90E
:1020D0002068016921F4904101612068416921F083
:1020E0002A0141612068C16841F40051C160656402
:1020F000202084F8410084F842006563002070BD10
:10210000F0B585B00025044600950195029503952C
:1021100000682C49884252D12B48C16941F40031F2
:10212000C161C16901F400310491816941F0040188
:1021300081618069254E00F0040004900420009025
:10214000022001900320039069463046FFF722F9F0
:102150000820CDE90005694630460295FFF71AF9D7
:102160001C4E1B48802701C61020A1C6194846F8FE
:1021700010597561B561F561FFF7CCF808B1FEF74C
:1021800095FDA6637462134E114844361438C6E9AF
:102190000005C6E9025735617561B5613046F561E4
:1021A000FFF7B8F808B1FEF781FDE66300220521CC
:1021B00026207462FFF776FA2620FFF765FA05B04D
:1021C000F0BD000000440040001002400008014043
:1021D00080000240701C002070477047FEE700003E
:1021E00070B50A490546002408884E8821464643B2
:1021F000204600F069FB00F083FD03E0284600F074
:102200003DFC641CB442F9D370BD0000302A0020AC
:10221000282000F0D3BC292000F0D0BC2DE9F041EB
:10222000F0222C232A252E4C4FF4A0712B2630B1FE
:10223000012804D0022815D0032813D022E000275B
:10224000A77121806280238165810028A6814FF0DB
:10225000360003D000F0B2FCC02011E000F0AEFC6C
:1022600000200DE00127A771218062802381658114
:102270000228A6814FF036002ED000F09FFC60208F
:1022800000F0FCFB608900F099FC002000F0F6FBF8
:10229000002000F0F3FB2088401EC0F30F2000F068
:1022A000EDFB2078401EC0B200F0E8FBA08900F0F2
:1022B00085FC002000F0E2FB002000F0DFFB6088DE
:1022C000401EC0F30F2000F0D9FBA078BDE8F0411C
:1022D000401EC0B200F0D2BB00F070FCA020CFE7DF
:1022E000302A00202DE9FE4F0026A2EB000882468E
:1022F0005F1A701E35468946B8F1000F02DD4FF0B7
:10230000010102E003D14FF00001019102E0C8F1A8
:1023100000080190002F02DD4FF0010002E003D120
:102320004FF00000009002E0C7F100070090404627
:10233000B84501DD044600E03C46601C4FF0000B50
:10234000029015E01FFA89F11FFA8AF000F016F8E2
:1023500046443D44A64202DD0199361B8A44A5420B
:1023600002DD00992D1B89440BF101001FFA80FB4F
:1023700002998B45E6DDBDE8FE8F000010B500F048
:10238000A3FA00F0BDFC03480088BDE8104000F04F
:1023900075BB0000800000202DE9F0411C46154669
:1023A0000E4607460B46FFF79DFF3A462346314649
:1023B0001046FFF797FF23462A4619463846FFF78F
:1023C00091FF2A4623463146BDE8F0411046FFF70B
:1023D00089BF2DE9FC5F80460024154603200F4687
:1023E000A0EB450649E0781B81B208EB040A019096
:1023F0001FFA8AF0FFF7C2FF381B81B208EB05090C
:1024000000901FFA89F0FFF7B9FF07EB040B1FFAE2
:102410008BF11FFA89F0FFF7B1FF07EB05091FFAEF
:1024200089F11FFA8AF0FFF7A9FFA8EB040A1FFA47
:1024300089F11FFA8AF0FFF7A1FFA8EB05091FFA3F
:102440008BF11FFA89F0FFF799FF019881B21FFA0B
:102450008AF0FFF793FF009881B21FFA89F0FFF727
:102460008DFF641C002E03DA06EB8406B61D04E023
:10247000601B06EB80066D1E0A36AC42B3DDBDE87C
:10248000FC9F000010B5144600F01EFA03482146D8
:102490000089BDE8104000F039BC0000302A00205F
:1024A0002DE9F8431F4C98468146A388089FA3F561
:1024B000D040043802D1A079012805D0A2EB090050
:1024C000401C86B20D4629E023880846991A00254B
:1024D000A5712A25A3EB090365812B26491E5B1EE6
:1024E000A68189B242469BB20097FFF7D9FF01202F
:1024F000A0716681A581BDE8F8832946484600F0B1
:10250000E3F900F0FDFB002404E0384600F0B6FAE1
:10251000641CA4B2B442F8D36D1CADB24545ECD9ED
:10252000E9E70000302A002010B57D4C012210217F
:102530002046FFF71AF8012220212046FFF715F860
:10254000012211022046FFF710F80122D103204694
:10255000FFF70BF8734C002208212046FFF705F81F
:102560006420FEF705FF012208212046FEF7FDFF4B
:102570007820FEF7FDFE112000F020FB7820FEF70A
:10258000F7FE362000F01AFB002000F077FA3A2020
:1025900000F014FB552000F071FAB22000F00EFBA1
:1025A0000C2000F06BFA0C2000F068FA002000F01C
:1025B00065FA332000F062FA332000F05FFAB720AA
:1025C00000F0FCFA352000F059FABB2000F0F6FAD2
:1025D000322000F053FAC02000F0F0FA0C2000F096
:1025E0004DFAC22000F0EAFA012000F047FAC320B9
:1025F00000F0E4FA102000F041FAC42000F0DEFA06
:10260000202000F03BFAC62000F0D8FA0F2000F09E
:1026100035FAD02000F0D2FAA42000F02FFAA12041
:1026200000F02CFAE02000F0C9FAD02000F026FAE1
:10263000002000F023FA022000F020FA072000F02A
:102640001DFA0A2000F01AFA282000F017FA3220AA
:1026500000F014FA442000F011FA422000F00EFAC3
:10266000062000F00BFA0E2000F008FA122000F00D
:1026700005FA142000F002FA172000F0FFF9E1201B
:1026800000F09CFAD02000F0F9F9002000F0F6F9F3
:10269000022000F0F3F9072000F0F0F90A2000F022
:1026A000EDF9282000F0EAF9312000F0E7F9542094
:1026B00000F0E4F9472000F0E1F90E2000F0DEF927
:1026C0001C2000F0DBF9172000F0D8F91B2000F0E7
:1026D000D5F91E2000F0D2F92A2000F06FFA002070
:1026E00000F0CCF9002000F0C9F9002000F0C6F994
:1026F000EF2000F0C3F92B2000F060FA002000F07A
:10270000BDF9002000F0BAF9012000F0B7F93F2030
:1027100000F0B4F9BDE81040292000F04FBA0000E5
:1027200000080140000C01402DE9F041174C4FF02A
:102730008830206060600020E060154D012220217B
:102740002846FEF712FF002210212846FEF70DFF53
:102750004FF40046002231462846FEF706FFFEF7FA
:1027600087F80746012231462846FEF7FEFE012281
:1027700010212846FEF7F9FE4FF0333020606060EC
:102780004FF6FF70E0603846BDE8F0810010014070
:10279000000801402DE9F05F3C4A1388834202D9CA
:1027A00052888A4202D80020BDE8F09F00F08CF8E1
:1027B0002E2000F003FADFF8D8804FF08830C8F8F8
:1027C000000008F10409C9F80000DFF8C4A04FF6C2
:1027D000FF750AF10C0ACAF800502E4C0122202184
:1027E0002046FEF7C2FE002210212046FEF7BDFE65
:1027F0004FF40046002231462046FEF7B6FE022284
:10280000521ED2B2FCD2FEF733F8012231462046E6
:10281000FEF7ABFE002231462046FEF7A6FE02225E
:10282000521ED2B2FCD2FEF723F8074601223146EF
:102830002046FEF79AFE002231462046FEF795FE1E
:102840000220401EC0B2FCD2FEF712F88346314689
:10285000012226462046FEF788FEF8B205EA00244B
:10286000012210213046FEF780FE4FF03330C8F8C9
:102870000000C9F80000CAF80050F80AC002A10A16
:1028800040EA411141EADB208EE70000302A0020B7
:10289000000C01400008014010B500F08FF9FFF76F
:1028A00043FFFFF741FFFFF73FFF064C4FF6FF7175
:1028B00001EA0020A080FFF737FFA1880843A0802D
:1028C00010BD0000302A002070B50B4E05460C46A6
:1028D000708900F073F9280A00F0D0F8E8B200F02F
:1028E000CDF8B08900F06AF9200A00F0C7F8E0B22C
:1028F000BDE8704000F0C2B8302A00202DE9F04158
:1029000005461044401E87B2C818DFF84C80401EB0
:1029100086B20C46B8F80A0000F050F9280A00F018
:10292000ADF8E8B200F0AAF8380A00F0A7F8F8B25B
:1029300000F0A4F8B8F80C0000F040F9200A00F00C
:102940009DF8E0B200F09AF8300A00F097F8F0B283
:10295000BDE8F04100F092B8302A00202DE9F84F90
:1029600082461F460C468B46580700D0012000EBDC
:10297000D70079084843203AC0B202F0FF09002688
:10298000009041E00C2F10D0102F12D0182F3ED104
:10299000204909EBC90001EB80004FF00008855D7C
:1029A00028060AD51C4802880BE009EB49001B49A0
:1029B000F1E71B4901EB0910EFE70A9828B916481F
:1029C000428821465046FFF75DFD6806050E154812
:1029D000641CA4B24088A04219D9A4EB0B00B842F1
:1029E00009D10AF101001FFA80FA0E485C460188FD
:1029F00051450CD906E008F1010000F0FF08B8F1DC
:102A0000080FCDD3761CF6B200988642BAD3BDE843
:102A1000F88F0000F24B0008800000208E41000873
:102A200002460008302A00202DE9F84F044600F045
:102A3000FF0810190D46DDE90A761FFA80FA5819C9
:102A40001FFA80F94FF0000B11E0544502D3E8194A
:102A5000444685B24D450FD23B4629462046CDF827
:102A600000B0FFF77BFF04EB570084B2761C32788E
:102A7000A2F120005E28E8D9BDE8F88F2DE9F041E9
:102A80004C4D0446002210212846FEF76EFD01221F
:102A900020212846FEF769FD474F00224FF6FF71BF
:102AA0003846FEF762FDE00704D0012211463846A1
:102AB000FEF75BFDA00704D5012202213846FEF790
:102AC00054FD600704D5012204213846FEF74DFD70
:102AD000200704D5012208213846FEF746FDE0060E
:102AE00004D5012210213846FEF73FFDA00604D58B
:102AF000012220213846FEF738FD600604D5012268
:102B000040213846FEF731FD200604D50122802100
:102B10003846FEF72AFDE0054FF4807604D5012201
:102B200031463846FEF721FDA00504D501225102A9
:102B30003846FEF71AFD600504D501229102384699
:102B4000FEF713FD200504D50122D1023846FEF719
:102B50000CFDE00404D5012211033846FEF705FD03
:102B6000A00404D5012251033846FEF7FEFC6004A0
:102B700004D5012291033846FEF7F7FC200404D562
:102B80000122D1033846FEF7F0FC6420401EC0B29B
:102B9000FCD2002231462846FEF7E7FC01223146EE
:102BA0002846FEF7E2FC2846BDE8F041012210214C
:102BB000FEF7DBBC00080140001001402DE9F041A8
:102BC0004C4D0446002210212846FEF7CEFC002280
:102BD00020212846FEF7C9FC474F00224FF6FF711F
:102BE0003846FEF7C2FCE00704D001221146384601
:102BF000FEF7BBFCA00704D5012202213846FEF7F0
:102C0000B4FC600704D5012204213846FEF7ADFC70
:102C1000200704D5012208213846FEF7A6FCE0066D
:102C200004D5012210213846FEF79FFCA00604D5EA
:102C3000012220213846FEF798FC600604D50122C7
:102C400040213846FEF791FC200604D50122802160
:102C50003846FEF78AFCE0054FF4807604D5012261
:102C600031463846FEF781FCA00504D50122510209
:102C70003846FEF77AFC600504D5012291023846F9
:102C8000FEF773FC200504D50122D1023846FEF779
:102C90006CFCE00404D5012211033846FEF765FC04
:102CA000A00404D5012251033846FEF75EFC6004FF
:102CB00004D5012291033846FEF757FC200404D5C1
:102CC0000122D1033846FEF750FC6420401EC0B2FA
:102CD000FCD2002231462846FEF747FC012231464D
:102CE0002846FEF742FC2846BDE8F04101221021AB
:102CF000FEF73BBC0008014000100140FFF7BEBEDC
:102D000001480089FFF75ABF302A002010B50C4651
:102D1000FFF754FF2046BDE81040FFF7AFBE0000AC
:102D20000D4808B5416941F0010141614069002247
:102D300000F00100009005211020FEF7B3FC1020E8
:102D4000FEF7A2FC002205211120FEF7ABFCBDE836
:102D500008401120FEF798BC0010024000B587B073
:102D60001C2206496846FDF7C2FB0021684600F0B8
:102D7000C5FC0349086007B000BD000048410008D9
:102D8000040000202DE9F04385B000254A48009555
:102D9000019502950395816941F010018161816976
:102DA00001F010010491816941F020018161816984
:102DB00001F020010491816941F004018161816980
:102DC00001F004010491816941F008018161806989
:102DD0003A4F00F00800049001224FF6FF313846C8
:102DE000FEF7C3FBDFF8D88001224FF413614046A1
:102DF000FEF7BBFB00224FF400414046FEF7B5FB57
:102E0000002239153846FEF7B0FBDFF8B8900122F2
:102E1000E8214846FEF7A9FB0022B9154846FEF70F
:102E2000A4FB01244FF6FF70CDE900040226CDE992
:102E3000024669463846FEF7ADFA4FF49870CDE980
:102E40000004CDE9024669464046FEF7A3FAC020D9
:102E5000CDE90005694602944046FEF79BFA4FF221
:102E60000200CDE90005694602944846FEF792FA51
:102E70004FF408408DE8710069464046FEF78AFA33
:102E80002820CDE90004CDE9024669464846FEF710
:102E900081FA1020CDE90005694648460295FEF703
:102EA00079FA4FF4E0708DE8710069464846FEF704
:102EB00071FA05B0BDE8F083001002400010014037
:102EC00000080140000C01400C4810B50A4901609F
:102ED0004FF4E1314160002181600C22C160C0E902
:102EE00004128161C161FFF7D9F8002803D0BDE861
:102EF0001040FDF7DBBE10BD00440040281C002040
:102F0000FEE7FEE710B50BA0FDF79AFD0D491F2067
:102F10000D4A088064213C20FEF798F80A4A642193
:102F20008220FEF793F8BDE8104040F2DC5000F03C
:102F3000C3BA0000CDBCC6ACCFD4CABEB2E2CAD4BC
:102F40000000000080000020380D00202DE9F04135
:102F500086B0142101A8FDF7FCFA21A0FDF770FD51
:102F60004FF6FF70009022484188028817398BB2D3
:102F700017210020FFF794FA1E4F1F4E00244FF038
:102F8000010837F814003080009004EBC40000EB17
:102F9000041505F1410305F12D0132221E20FFF732
:102FA0007FFA05F137012820FFF7F4FB024613A151
:102FB00001A8FDF779F905F12F01102301AA3C20A2
:102FC000CDF8008000F066F8641CE4B2072CD8D37A
:102FD00040F2DC5000F070FA06B0BDE8F08100006D
:102FE000B6C1D1D5C9ABD6B5B2E2CAD40000000093
:102FF000302A0020C2190020800000207265616420
:1030000020636F6C6F723A3078253034780000009E
:103010002DE9F043194885B001AE0FC886E80F00CE
:103020000024DFF85C801F274FF001094FF47A7508
:103030002046FFF7F3F813A0FDF702FDA8F8007093
:10304000CDF8009056F8242010231E21142000F003
:1030500021F80F4A32211E20FDF7F8FF284600F024
:103060002BFA284600F028FA641CE4B2042CDFD3C3
:103070000020FFF7D3F805B0BDE8F08350590008F1
:1030800080000020D0FDD7AAB2E2CAD40000000020
:10309000380D00202DE9F84F1C4616460F46054610
:1030A00082464FF00008DFF8B8B0DDF828901CE049
:1030B000BBF80010B8F1000F58461BD0091BA942FD
:1030C00016DBBBF80200001BB84211DB4FF0000812
:1030D000202C3AD0182C4B463246394628463BD055
:1030E000FDF776FE281985B2B61C3278002ADFD1AA
:1030F000BDE8F88FA1EB5401A942F9DBBBF802004F
:10310000001BB842F4DB802A02D94FF00108ECE73B
:103110000D2A0BD0182CCDF800900CD3182339466B
:103120002846FFF71BFC0C35ADB20CE0381987B20E
:103130005546761C07E0234639462846FFF70EFC25
:1031400005EB540085B2761CCFE74B463246394634
:103150002846FDF711FFC5E7FDF7A2FEC2E7000014
:10316000302A0020012000F0BDFAFBE770B50324EF
:103170004FF4C87509E0FFF74BF8284600F09CF9BA
:10318000FFF749F8284600F097F9641EE4B2F2D23E
:1031900070BD000010B5502080F31188BFF34F8F31
:1031A000BFF36F8F00F002FF18B104494FF0805059
:1031B0000860002080F3118810BD000004ED00E0DD
:1031C00030B58FB028216846FDF7C3F914210AA84D
:1031D000FDF7BFF90120010400248DE813000490DD
:1031E0004FF4E010CDE90810022507956846FEF778
:1031F0008DFB08B172B6FEE70F20CDE90A054FF44A
:103200008060CDE90C4002210AA80E94FEF77CFAFA
:10321000002801D072B6FEE70FB030BD7047000045
:103220000148FEF75CBD0000F81C0020F0B5026804
:10323000194C1A4D1A4E4FF08047A04205D0B842A3
:1032400003D0A84201D0B04203D122F070034A68F3
:103250001A43A04205D0B84203D0A84201D0B042E0
:1032600003D122F44073CA681A434B6922F08002EA
:103270001A4302608A68C2620A688262A04201D16F
:1032800009690163012141610169C90703D001692D
:1032900021F001010161F0BD002C0140000400405B
:1032A0000008004010B5406A0021C185C184FEF7C6
:1032B000BDFD10BD01680C3151E8002F22F4907261
:1032C00041E80023002BF5D10168143151E8002FAB
:1032D00022F0010241E80023002BF5D1016B012906
:1032E00009D101680C3151E8002F22F0100241E8A9
:1032F0000023002BF5D1202180F84210002101632A
:10330000704708B590F84210222901D0022008BD6C
:1033100081684FF48053994201D1026922B1826AD7
:1033200099421BD049B10AE00268816A5268C2F32F
:1033300008020A80816A891C08E0016971B101688C
:10334000496801F07F011170816A491C8162C18D59
:10335000491E0904090CC18503D01BE001684968B6
:10336000F1E70168CA6822F02002CA600168CA68F1
:1033700022F48072CA6001684A6922F001024A613F
:10338000202180F8421000214163026B012A03D002
:10339000FEF722FF002008BD016301680C3151E8EF
:1033A000002F22F0100241E80023002BF5D1016824
:1033B0000A68D20602D50A6849680091818DFEF735
:1033C00034FDE7E770B5044600680169E26821F45E
:1033D000405111430161A1682069014360690143C3
:1033E0002068C26841F20C639A430A43C2602068B5
:1033F0004169A26921F44071114341611E4920686D
:10340000884202D1FEF74CFA01E0FEF739FA00EBF0
:10341000C00101EB0011606864228000B1FBF0F391
:10342000B3FBF2F36FF018067343B1FBF0F5B1FB99
:10343000F0F605EB8305322303EB0515B5FBF2F53A
:10344000B6FBF2F605F0F00505EB0615B1FBF0F65C
:10345000B1FBF0F0B0FBF2F06FF01801484306EB5F
:10346000800003EB0010B0FBF2F0216800F00F00C9
:103470002844886070BD0000003801400148FEF714
:10348000D7BC0000281C0020FEE70907090E002811
:1034900004DB00F1E02080F80014704700F00F001A
:1034A00000F1E02080F8141D704730380A2801D25E
:1034B0000120704700207047FDF75ABF08B5002A69
:1034C00006D00244521E009392B20B46FEF7E8FF6C
:1034D00008BD2DE9FF5F80460E4640F2C3205043F1
:1034E0004FF47A71B0FBF1F702FB02F000EB520BE4
:1034F00014464FF6FF7000EA4202A8EB040080B2C7
:1035000031467F1C039BFFF7D9FF012538E005FBFF
:1035100005F004FB040159451BD9BC4218D96800C9
:10352000A0F10209301981B2A8EB050000F1010AEF
:103530001FFA89F21FFA8AF0039BFFF7BFFF301BC7
:1035400081B21FFA89F21FFA8AF0039BFFF7B6FFD8
:10355000641E4FF6FF7000EA4402701981B2A8EBB6
:10356000040A91461FFA8AF0039BFFF7A7FF701B1E
:1035700081B24A461FFA8AF0039BFFF79FFF6D1C3A
:10358000BD42C4D9BDE8FF9FFEF702F8FFF718FE61
:10359000FFF7F8FBFFF7C4FBFFF796FC1A4C00227D
:1035A0004FF480712046FDF7E0FFFEF7BDFF0122DA
:1035B00080212046FDF7D9FF0020FEF72FFE0020D6
:1035C000FEF70EFE012280212046FDF7CEFF0420EB
:1035D000FFF762F90D4908800DA000F01FF8FDF714
:1035E000EFF8FFF7B3FCFDF763FBFDF79FFAFDF77C
:1035F0008BF8FFF787FCFFF7B9FDFFF709FDFFF731
:10360000ADFB00F076F8FEE7000C01400000002062
:1036100049433A535437373839560000F8B506460F
:103620001CA0FDF70DFA1F4C4FF4784001252080B7
:1036300020231DA2642100200095FDF729FD4FF4F1
:10364000FC60208020231AA2872100200095FDF72E
:103650001FFD1F20208018233246AA21002000953C
:10366000FDF716FD00262680182314A2C42130463B
:103670000095FDF70DFD2680182313A2EB210020F5
:103680000095FDF705FDBDE8F8404FF4E160FFF758
:1036900013BF0000CFD4CABEC6C1B2E2CAD4B3CCF5
:1036A000D0F2000080000020CFD4CABEC6C1000006
:1036B000B2E2CAD4B3CCD0F20000000032343052AF
:1036C00047422A333230000054454C3A31333532C8
:1036D000383839363132370001460020842900D08D
:1036E000C81C704710B500B9012000F01FFB002076
:1036F00010BD10B500F040FB002010BD7FB50D4699
:1037000004464169B0F9080081B1A16971B1FFF7C0
:10371000E3FFD4E905128DE80700D4E900102B4639
:10372000226900F016FC039004B070BDFFF7D4FFCF
:1037300003A9CDE90001208A2B4682B2D4E900100A
:1037400000F0DAFB012801D00020EDE70398EBE759
:103750002DE9F041184E0F460446F5683068001D0B
:1037600000F01AFA38B9306890F82C10012088401F
:10377000316981433161601C07D137B13168BDE8DF
:10378000F0410E48091D00F04CBA30682C44AC42A0
:103790004460316805D2B06BBDE8F041091D00F00E
:1037A00028BA706B091D00F024FAB06A844200D276
:1037B000B462BDE8F0810000180000201C1E00204B
:1037C0002DE9F041054600F039FA2E4EB068401C54
:1037D000B06030682C4F10B1706940B32DE0356097
:1037E000B068012829D1002404EB840007EB800095
:1037F00000F0F1F9641C072CF6D323488C3000F05C
:10380000EAF92148A03000F0E6F91F48B43000F092
:10381000E2F91D48C83000F0DEF91B48DC3000F04A
:10382000DAF919488C3070631430B06305E0306801
:10383000E96AC06A884200D83560706A0121401C7C
:103840007062E86A326981401143316100EB8000A7
:1038500007EB8000291D00F0E4F900F00FFA706911
:1038600000280CD03068E96AC06A884207D207494C
:103870004FF080500860BFF34F8FBFF36F8FBDE8EC
:10388000F081000018000020401D002004ED00E041
:1038900010B5044690F8510058B101280CD0022808
:1038A0000FD0502080F31188BFF34F8FBFF36F8F7D
:1038B000FEE7206B00F0F6F92046BDE8104000F06E
:1038C000F1B910BD10484FF44061420706D0C01D49
:1038D0000D4920F00700411AC1F540610B4A002351
:1038E0000144C2E900030839183A21F007011160C8
:1038F0004B600B600B1AC0E9001393604FF000405F
:103900005360506170470000301E00206C000020A2
:10391000134E144DA6F1C8074FF08058DFF84890B9
:1039200011E000F08BF9F068C468201D00F034F954
:10393000A868401EA8606868401E686000F09EF994
:103940002046FFF7A5FF68680028EAD138680128FB
:10395000F9D9C9F80080BFF34F8FBFF36F8FF2E73B
:10396000081E00201800002004ED00E02DE9F047BB
:103970009A46DDE9098481466FF00303206B03EB6F
:1039800082021044089D20F00706700707D05020DF
:1039900080F31188BFF34F8FBFF36F8FFEE70027CF
:1039A00061B1002023180A5C83F834200A5C12B14C
:1039B000401C1028F6D384F8437001E084F834707A
:1039C000072D00D30625E562C4E91157201D00F03C
:1039D0000DF904F1180000F009F92461C5F10700A0
:1039E0006462A061E76484F85070524649463046EC
:1039F00000F0C0F82060B8F1000F01D0C8F8004016
:103A0000BDE8F08730B5114900E011460A688242EE
:103A1000FBD34B685C18844203D14068184448606B
:103A2000084643681C18944209D1084C183C246885
:103A3000A24209D052681A4442600A6812680260C1
:103A4000814200D0086030BD0460F9E76C000020BE
:103A50000648416B096829B1416BC968C968496862
:103A6000816270474FF0FF31FAE700001800002034
:103A700008484068401C4FF0500080F3118804D083
:103A8000BFF34F8FBFF36F8FFEE7BFF34F8FBFF3CF
:103A90006F8FFEE7740000202DE9F04105460026F7
:103AA00000F0A0F9324F386808B9FFF70BFF7869CA
:103AB00005424ED1C5B3083568070ED005F00700A2
:103AC000C0F108000544680707D0502080F3118832
:103AD000BFF34F8FBFF36F8FFEE72DB3786885423A
:103AE00037D8234918310846046801E021460446C6
:103AF0006068A84202D220680028F7D13868844262
:103B000027D00E682068086060680836411B1029BD
:103B10000FD96019420708D0502080F31188BFF3F5
:103B20004F8FBFF36F8FFEE713E041606560FFF7D3
:103B300069FF61687868401A7860BA68904200D27C
:103B4000B860786901430020C4E90001F868401CAE
:103B5000F86000F097FA700707D0502080F31188C2
:103B6000BFF34F8FBFF36F8FFEE73046BDE8F081A4
:103B70005400002010B5031F4FF080741C601B1F01
:103B800021F001011960191F024B0B6014394038F4
:103B90000A6010BD713A0008D0E9013201699A60EB
:103BA000D0E901235A604A68824201D182684A60A2
:103BB000002202610868401E086008687047000023
:103BC000034B036003F154000860802010607047CD
:103BD000D4190020704700F108014FF0FF32C0E90E
:103BE0000112C16001610021016070470021016183
:103BF000704730B50C68621C02D000F1080202E088
:103C0000026904E01A4653681D68A542FAD9536850
:103C10004B6099608A60516008610168491C0160CD
:103C200030BD42684A6093688B60936859609160C8
:103C300008610168491C016070470000502080F352
:103C40001188BFF34F8FBFF36F8F0A494868401C3C
:103C5000486001280CD10848006810F0FF0F07D019
:103C6000502080F31188BFF34F8FBFF36F8FFEE7B3
:103C7000704700007400002004ED00E00849486827
:103C800028B1401E486001D180F311887047502050
:103C900080F31188BFF34F8FBFF36F8FFEE70000F3
:103CA0007400002070B500282AD0164DA0F1080439
:103CB00060686969084207D1502080F31188BFF31A
:103CC0004F8FBFF36F8FFEE722683AB1502080F329
:103CD0001188BFF34F8FBFF36F8FFEE7884360609B
:103CE00000F080F860686968084468602046FFF763
:103CF00089FE2869401C2861BDE8704000F0C2B907
:103D000070BD0000540000204FF0E0200021016150
:103D1000816105494FF47A720968B1FBF2F1491EDD
:103D200041610721016170471400002010B50200B5
:103D300014D00F48006B38B1502080F31188BFF3C6
:103D40004F8FBFF36F8FFEE700F04CF80021104655
:103D5000FFF7FEFC00F096F9002807D105494FF067
:103D600080500860BFF34F8FBFF36F8F10BD00000E
:103D70001800002004ED00E010B586B00024039484
:103D800005AA04A903A80494FFF71AFFDDE90301BB
:103D90000094CDE9011000230EA11048059A00F00F
:103DA000D8F80F490028C86211D0502080F311883C
:103DB000BFF34F8FBFF36F8F4FF0FF30886201204A
:103DC0004861CC6006B0BDE8104000F041B806B0D4
:103DD00010BD000049444C450000000011390008A6
:103DE000180000200248016B491C01637047000065
:103DF00018000020144A106B10B10120D0617047E8
:103E00000020D06110691149B0FA80F0C0F11F00A4
:103E100000EB800051F820306BB101EB800000F125
:103E20000803416849684160994201D1496841608D
:103E3000C86810607047502080F31188BFF34F8F1F
:103E4000BFF36F8FFEE7000018000020401D002028
:103E50001CB5264908780190FF20087008788DF875
:103E600000009DF800009DF8002000F0F000904256
:103E700007D0502080F31188BFF34F8FBFF36F8FAF
:103E8000FEE79DF800001A4C00F05000207007205B
:103E9000A06006E0401EA0609DF8000040008DF884
:103EA00000009DF800000006A068F3D4032807D0A6
:103EB000502080F31188BFF34F8FBFF36F8FFEE761
:103EC0004FF44070A060019808700A48016841F4FE
:103ED00070010160016841F070410160FFF714FF5B
:103EE00000206060FCF786F900201CBD00E400E0C3
:103EF0007400002020ED00E02DE9FF5F8346DDE93E
:103F00000E87994616468A469000FFF7C5FD0500C4
:103F10001CD05420FFF7C0FD040014D000202563FE
:103F200084F85100CDE90240CDE900874B46324686
:103F300051465846FFF71AFD2046FFF741FC012085
:103F400004B0BDE8F09F2846FFF7ACFE4FF0FF300D
:103F5000F6E7F0B585B00546DDE90B040A9EA8B189
:103F6000E4B1542700972063022084F85100002018
:103F7000CDE9024004AF2846CDE90067FFF7F6FC23
:103F80002046FFF71DFC049805B0F0BD502080F3DB
:103F90001188BFF34F8FBFF36F8FFEE7502080F380
:103FA0001188BFF34F8FBFF36F8FFEE72DE9F0410C
:103FB000324F0026386B38B1B869401CB861FFF742
:103FC00009FE3046BDE8F081FD686D1CFD6013D12F
:103FD000786B006838B1502080F31188BFF34F8FA1
:103FE000BFF36F8FFEE7786BB96B7963B863386A9C
:103FF000401C3862FFF72CFDB86ADFF884808542E8
:1040000009D3786B006890B1786BC068C468606849
:1040100085420FD2B8623868C06A00EB800158F858
:104020002100012800D90126B86900B321E04FF032
:10403000FF30EFE7201DFFF7AFFDA06A18B104F1D4
:104040001800FFF7A9FDE06A01213A698140114398
:10405000396100EB800108EB8100211DFFF7E1FDD4
:10406000E06A3968C96A8842CBD30126C9E7FFF7FD
:10407000B1FDF8690028A4D00126A2E718000020AD
:10408000401D00202DE9F0472C4D00242746286BC9
:1040900038B1FFF7D3FD286B401E2863286B40B171
:1040A00046E0502080F31188BFF34F8FBFF36F8F2E
:1040B000FEE7A86822490126D0B3A1F1B4098846D9
:1040C000D8F80010E9B1D8F80C00C46804F1180061
:1040D000FFF762FD201DFFF75FFDE06A2A6906FA1F
:1040E00000F11143296100EB800109EB8100211DE2
:1040F000FFF797FDE06A2968C96A8842E0D3EE615C
:10410000DEE70CB1FFF7A4FCAC693CB1FFF74EFF52
:1041100000B1EE61641EF9D10020A861E86938B1F0
:104120000849012738070860BFF34F8FBFF36F8F2F
:10413000FFF7A4FD3846BDE8F08700001800002016
:10414000F41D002004ED00E0BC59000865310008B2
:1041500000000000000000008000000000000000DF
:1041600000000000010202030405060708090A0B0B
:104170000C0D0E0F101000000000000000000102E6
:104180000304060708090000000001020304000000
:1041900000000000000000000000000000003F40A0
:1041A000000000000000000030004000300040002F
:1041B000000009000BC03D000BC03D00090018C005
:1041C00024407FE0224031800000180024C01B0002
:1041D0000D803240018003801C4027401C80074036
:1041E000004010006000000000000000000000001F
:1041F000000000001F8020404020000040202040A0
:104200001F8000000000090006001F800600090052
:104210000000040004003F800400040000000010BF
:104220000060000000000000000004000400040022
:104230000400040000000000004000000000000036
:104240000000002001C006003800400000001F8070
:104250002040204020401F800000000010403FC050
:1042600000400000000018C02140224024401840B7
:10427000000010802040244024401B8000000200E9
:104280000D0011003FC0014000003C80244024404C
:104290002440238000001F802440244034400380B9
:1042A00000003000200027C03800200000001B80E4
:1042B0002440244024401B8000001C0022C02240D7
:1042C00022401F80000000000000084000000000A5
:1042D000000000000000046000000000000000007A
:1042E00004000A0011002080404009000900090074
:1042F00009000900000000004040208011000A0071
:1043000004001800200023402400180000001F8033
:104310002040274029401F400000004007C03900CE
:104320000F0001C0004020403FC0244024401B80BB
:1043300000001F80204020402040308000002040AE
:104340003FC0204020401F80000020403FC024404C
:104350002E4030C0000020403FC024402E003000DE
:1043600000000F00108020402240338002002040D7
:104370003FC0040004003FC02040204020403FC018
:104380002040204000000060202020203FC020006E
:10439000200020403FC024400B0030C0204020407F
:1043A0003FC020400040004000C03FC03C0003C070
:1043B0003C003FC0000020403FC00C4023003FC0F5
:1043C00020001F802040204020401F80000020400F
:1043D0003FC024402400180000001F8021402140DD
:1043E00020E01FA0000020403FC02440260019C04C
:1043F000004018C02440244022403180000030009A
:1044000020403FC020403000000020003F8000409E
:1044100000403F80200020003E0001C0070038001F
:104420002000380007C03C0007C0380000002040D2
:1044300039C0060039C0204000002000384007C0C5
:10444000384020000000304021C02640384020C0C5
:104450000000000000007FE040204020000000003D
:1044600070000C000380004000000000402040204D
:104470007FE000000000000020004000200000005D
:1044800000000010001000100010001000100000CC
:104490000000400000000000000000000280054015
:1044A000054003C0004020003FC00440044003809A
:1044B00000000000038004400440064000000000AB
:1044C0000380044024403FC00040000003800540BA
:1044D000054003400000000004401FC02440244069
:1044E0002000000002E00550055006500420204046
:1044F0003FC00440040003C000400000044027C047
:1045000000400000000000100010041027E0000030
:10451000000020403FC00140070004C0044020408C
:1045200020403FC000400040000007C0040007C01A
:10453000040003C00000044007C00440040003C09E
:104540000040000003800440044003800000041089
:1045500007F0045004400380000000000380044082
:10456000045007F00010044007C00240040004009B
:104570000000000006400540054004C000000000A7
:1045800004001F8004400040000004000780004039
:10459000044007C000400400070004C0018006007A
:1045A0000400060001C0070001C00600000004402E
:1045B00006C0010006C0044000000410071004E01B
:1045C0000180060004000000044005C006400440CD
:1045D00000000000000004007BE04020000000001C
:1045E00000000000FFF000000000000040207BE021
:1045F0000400000000004000800040002000200077
:10460000400000000000000000000000000000006A
:1046100000000000000000001FCC000C00000000A3
:10462000000000000800300060000800300060005A
:104630000000022003FC1E20022003FC1E2002209A
:10464000000000000E1811043FFF10840C780000D9
:1046500000000F0010840F3800C00778188400781D
:10466000000000780F8410C411240E9800E4008428
:104670000008080068007000000000000000000052
:10468000000000000000000007E0181820044002AD
:104690000000000040022004181807E0000000009D
:1046A00000000240024001800FF001800240024001
:1046B00000000080008000800FF8008000800080F3
:1046C00000000001000D000E0000000000000000CE
:1046D00000000000008000800080008000800080DA
:1046E00000800000000C000C000000000000000032
:1046F000000000000006001800600180060018009D
:104700002000000007F0080810041004080807F053
:1047100000000000080408041FFC0004000400005E
:10472000000000000E0C10141024104411840E0C14
:10473000000000000C1810041104110412880C7001
:104740000000000000E00320042408241FFC0024D3
:10475000000000001F9810841104110410881070CC
:104760000000000007F00888110411041888007088
:10477000000000001C00100010FC13001C001000C2
:10478000000000000E3811441084108411440E38CB
:10479000000000000700088C10441044088807F04F
:1047A0000000000000000000030C030C00000000EB
:1047B00000000000000000010106000000000000F1
:1047C00000000000008001400220041008081004CE
:1047D00000000220022002200220022002200220EB
:1047E00000000000100408080410022001400080AE
:1047F000000000000E001200100C106C10800F0062
:10480000000003E00C1813E4142417C4082807D090
:1048100000000004003C03C41C40074000E4001CEE
:10482000000410041FFC1104110411040E88007010
:10483000000003E00C1810041004100410081C10F1
:10484000000010041FFC100410041004080807F0F6
:10485000000010041FFC1104110417C410040818F0
:10486000000010041FFC1104110017C01000080004
:10487000000003E00C181004100410441C780040E1
:10488000000010041FFC10840080008010841FFCB6
:1048900010040000100410041FFC10041004000099
:1048A000000000030001100110011FFE10001000A5
:1048B000000010041FFC110403801464181C100471
:1048C000000010041FFC1004000400040004000C8D
:1048D000000010041FFC1F0000FC1F001FFC100440
:1048E000000010041FFC0C04030000E010181FFC63
:1048F000100007F00808100410041004080807F05E
:10490000000010041FFC10841080108010800F0025
:10491000000007F0081810241024101C080A07F2E1
:10492000000010041FFC1104110011C011300E0C06
:10493000000400000E1C11041084108410441C3864
:1049400000001800100010041FFC100410001800D4
:10495000000010001FF810040004000410041FF8E9
:10496000100010001E0011E0001C007013801C00DD
:1049700010001FC0103C00E01F0000E0103C1FC0F2
:1049800000001004180C163401C001C01634180CB5
:10499000100410001C00130400FC13041C00100081
:1049A00000000804101C1064108413041C04101868
:1049B00000000000000000007FFE400240024002B4
:1049C0000000000030000C0003800060001C0003A9
:1049D000000000004002400240027FFE0000000094
:1049E00000000000000020004000400040002000C7
:1049F00000000001000100010001000100010001B0
:104A00000001000040004000200000000000000005
:104A1000000000000098012401440144014400FC0E
:104A2000000410001FFC00880104010400880070CD
:104A300000000000007000880104010401040088E7
:104A400000000000007000880104010411081FFC30
:104A50000004000000F8014401440144014400C87E
:104A600000000000010401040FFC110411041100F6
:104A70001800000000D601290129012901C90106F9
:104A8000000010041FFC008401000100010400FC70
:104A9000000400000104190419FC000400040000D3
:104AA00000000000000300010101190119FE0000CF
:104AB000000010041FFC0024004001B4010C01049C
:104AC00000000000100410041FFC0004000400009B
:104AD0000000010401FC0104010001FC01040100CB
:104AE00000FC010401FC008401000100010400FC41
:104AF0000004000000F8010401040104010400F8AE
:104B00000000010101FF008501040104008800701C
:104B1000000000000070008801040104010501FF8D
:104B200000010104010401FC008401040100018072
:104B30000000000000CC012401240124012401987C
:104B4000000000000100010007F80104010400005A
:104B50000000010001F8000400040004010801FC49
:104B60000004010001800170000C00100160018050
:104B7000010001F0010C003001C00030010C01F017
:104B8000010000000104018C00740170018C01041B
:104B90000000010101810171000E00180160018017
:104BA000010000000184010C013401440184010C66
:104BB0000000000000000000000001003EFC400278
:104BC00040020000000000000000FFFF00000000A5
:104BD00000000000400240023EFC01000000000016
:104BE00000000000600080008000400040002000C5
:104BF0002000000000000000000000000000000095
:104C000000000000000000000000000000000000A4
:104C10000000000000000000000000000000000094
:104C200000000000000F80380FFE380F80380000B1
:104C30000000000000000000000000000000000074
:104C40000100000600000C000038000031000006E2
:104C500000000C00003800003000000000000000E0
:104C6000000061800067F807F980006180006180C2
:104C70000061800061800067F807F98000618000B2
:104C8000000000000000000001C0E003E0F006307A
:104C9000080418081FFFFE040E080787F00381E0D0
:104CA00000000000000001F000060C0004040806EB
:104CB0000C7001F9C0000E00003BE000EC18070882
:104CC00008040C180003E00000000001E00007F0F9
:104CD00003F818041C0804170807E1D003C0E0001B
:104CE00023B0003C08002008000010000000000075
:104CF000000100003100003200001C000000000034
:104D000000000000000000000000000000000000A3
:104D10000000000000000000000000000000000093
:104D200000007F0001FFC00780F00C001810000495
:104D30002000020000000000002000021000040C0F
:104D400000180780F001FFC0007F00000000000095
:104D50000000000000000000000000000000420011
:104D6000006600006600003C0000180003FFC00061
:104D70001800003C000066000066000042000000D1
:104D800000000800000800000800000800000800FB
:104D900001FFC00008000008000008000008000033
:104DA0000800000000000001000031000032000097
:104DB0001C000000000000000000000000000000D7
:104DC00000000000000000000000080000080000D3
:104DD00008000008000008000008000008000008A3
:104DE00000000800000800000000000000000000B3
:104DF000000038000038000038000000000000000B
:104E000000000000000000000000000000000000A2
:104E10000000000600001C000070000180000E0071
:104E200000380000C0000700001C00003000000037
:104E30000000000000007F8001FFE003807006009A
:104E40001804000804000806001803807001FFE041
:104E5000007F800000000000000000000100080149
:104E6000000801000803FFF807FFF8000008000031
:104E70000800000800000000000000000001C03829
:104E800002C058040098040118040218040418060B
:104E90001C1803F81801E0F80000000000000000F2
:104EA0000001C0E003C0F00400080408080408087A
:104EB00006180803F41801E7F00001E00000000004
:104EC0000000000000000300000D00001100006160
:104ED0000000810803010807FFF80FFFF800010830
:104EE0000001080000000000000000E007FCD00600
:104EF0000808061008061008061008061838060FDD
:104F0000F00607C0000000000000000000003F8025
:104F100001FFE0038430020818041008041008049C
:104F20001008071810030FF00007C0000000000071
:104F30000000000003C0000700000600000600F8A3
:104F40000607F806180006E000070000060000004B
:104F5000000000000001E1E003F7F006341004183F
:104F600008041808040C08040C0806161803F3F0CB
:104F700001C1E000000000000000F80003FC300365
:104F80000638040208040208040208040410030896
:104F9000F001FFC0007F00000000000000000000E2
:104FA00000000000000000000000703800703800B1
:104FB0007038000000000000000000000000000049
:104FC0000000000000000000000000000000301A97
:104FD00000301C0000000000000000000000000085
:104FE0000000000000000000000800001400002283
:104FF00000004100008080010040020020040010F9
:10500000080008000000000000002100002100004E
:1050100021000021000021000021000021000021CA
:10502000000021000021000000000000000000003E
:1050300008000804001002002001004000808000E9
:1050400041000022000014000008000000000000E1
:105050000003C00004C000040000080038080F3836
:105060000808380810000C300007E00003C00000FA
:105070000000000000003F8000FFE0038070020F8E
:105080001006708804C088048308047F8802C090DA
:1050900003012000FE400000080000180001F80095
:1050A0003E0801C20007020007E20000FE00001FE8
:1050B000C80001F800003800000804000807FFF8E5
:1050C00007FFF8040808040808040808040808068C
:1050D000180803F41801E7F00001E00000000000E8
:1050E00000003F8001FFE003807002001804000808
:1050F0000400080400080400100600200780C00017
:10510000000004000807FFF807FFF8040008040087
:105110000804000804001802001003807001FFE07A
:10512000007F8000000004000807FFF807FFF80474
:105130000808040808040808040808043E080400D5
:105140000806001801006000000004000807FFF8CE
:1051500007FFF80408080408000408000408000415
:105160003E00060000060000018000000000000074
:1051700000003F8001FFE003807006001804000873
:105180000402080402080203F00783F00002000092
:10519000020004000807FFF807FFF80408080008E9
:1051A0000000080000080000080004080807FFF8D5
:1051B00007FFF804000800000000000004000804D5
:1051C000000804000807FFF807FFF80400080400BF
:1051D00008040008000000000000000000000006B5
:1051E000000007000001040001040001040003079F
:1051F000FFFE07FFFC0400000400000400000400A0
:105200000807FFF807FFF8040C08001800003E002C
:1052100004C7800503C80600F8040038040018001D
:10522000000804000807FFF807FFF8040008000062
:10523000080000080000080000080000080000182E
:1052400000006000000004000807FFF8078008075E
:10525000FC00007FC00003F80007C0007800078052
:105260000807FFF807FFF804000804000807FFF824
:1052700007000803C00000E000003800001E000026
:1052800007000001C00400F007FFF8040000000060
:1052900000007F8001FFE003807006001804000812
:1052A00004000806001803003001FFE0007F8000C2
:1052B000000004000807FFF807FFF80404080404CE
:1052C00000040400040400040400060C0003F800B9
:1052D00001F000000000000000007F8001FFE003FB
:1052E00080700600880400880400C806003C0300A3
:1052F0003E01FFE6007F8400000004000807FFF87D
:1053000007FFF8040808040800040C00040F000458
:105310000BC00610F003F03801E0080000080000A0
:105320000001E0F803F030063010041808041808F3
:10533000040C08040C080206180207F00781E000BC
:1053400000000180000600000400000400000400CA
:105350000807FFF807FFF804000804000004000035
:1053600006000001800004000007FFE007FFF004D2
:1053700000180000080000080000080000080000F5
:105380000804001007FFE00400000400000600000D
:1053900007E00007FE00041FE00001F800003800ED
:1053A00001E0043E0007C000060000040000040005
:1053B0000007E00007FFC0041FF80007C007F8005F
:1053C00007FF80043FF80007C004F800070000044E
:1053D000000000000004000806001807C07805F16E
:1053E000C8003E00001F800463E80780F80600182C
:1053F0000400080000000400000600000780000709
:10540000E008047C08001FF80007F800180804E012
:10541000080700000600000400000000000100086A
:105420000600380400F80403E8040F08047C0805AB
:10543000F00807C008070018040060000000000022
:10544000000000000000000000000000003FFFFE20
:1054500020000220000220000220000220000200A2
:10546000000000000000000008000007000000C06D
:10547000000038000006000001C000003000000EEF
:1054800000000100000000000000000020000220D9
:1054900000022000022000022000023FFFFE000068
:1054A00000000000000000000000000000000000FC
:1054B0000000000800001000003000002000003054
:1054C00000001000000800000000000000000000C4
:1054D00001000001000001000001000001000001C6
:1054E00000000100000100000100000100000100B7
:1054F000000100000000000000000020000020006B
:10550000001000001000000000000000000000007B
:105510000000000000000000000000F00019F8008A
:105520001B18002208002608002408002410003F51
:10553000F8001FF800000800001800000004000038
:1055400007FFF80FFFF000181800100800200800EF
:105550002008003018001FF0000FC00000000000FD
:10556000000007C0001FF0001830002008002008CD
:10557000002008003C08001C100000600000000033
:1055800000000000000007C0001FF00038180020D5
:105590000800200800200804101007FFF80FFFF093
:1055A0000000100000000000000000000007C00024
:1055B0001FF00012300022180022080022080032DA
:1055C00008001E10000E2000000000000000200057
:1055D00000200800200801FFF803FFF80620080457
:1055E000200804200807200003000000000000003D
:1055F0000000000E000E6E001FF30031B10020B15C
:105600000020B1003191001F13002E1E00200E005B
:10561000300000000004000807FFF80FFFF800103A
:1056200008002000002000002008003FF8001FF8BC
:10563000000008000000000000000000002008003A
:105640002008002008063FF8063FF8000008000088
:10565000080000080000000000000000000000003A
:1056600000000300000300200100200100200306C9
:105670003FFE063FFC0000000000000000000000AC
:105680000004000807FFF80FFFF80001880003007E
:10569000002FC00038F80020380020080000080063
:1056A00000000000000000000400080400080400DE
:1056B0000807FFF80FFFF8000008000008000008C6
:1056C000000000000000002008003FF8003FF80044
:1056D0001008002000003FF8003FF80010080020EC
:1056E00000003FF8003FF80000080000000020081C
:1056F000003FF8003FF800100800100000200000F4
:105700002008003FF8001FF800000800000000001B
:10571000000007C0000FF00018300030080020081B
:10572000002008003008001830000FF00007C0000B
:105730000000000000002001003FFF003FFF0010BC
:1057400011002009002008002008003038001FF058
:10575000000FC00000000000000007C0001FF000A4
:105760003818002008002008002009001011001F30
:10577000FF003FFF0000010000000020080020089B
:10578000002008003FF8003FF8000808001008005B
:105790002008002000003000003000000000000061
:1057A00000000000000C78001E18003308002308D9
:1057B0000021080021880021980030F000386000A6
:1057C000000000000000200000200000200000FF7A
:1057D000F003FFF800200800200800200800003037
:1057E000000000000000000000002000003FF0006A
:1057F0007FF8000018000008000008002010003F9B
:10580000F8007FF000001000000000000000200001
:10581000003000003C00003F800023F000007800D2
:105820000070002380003C000030000020000020B9
:1058300000003C00003FE00023F80000E0002700EB
:10584000003E00003FE00021F80001E0003E0000C3
:105850002000000000002008002008003838003E2A
:10586000680027800003C8002CF800383800201892
:1058700000200800000000000000200000300300AD
:105880003C01003F830023EC000070002380003CBB
:1058900000002000002000000000000000000000C8
:1058A0000038080020380020F80023E8002F880086
:1058B0003E080038080020180000700000000000BA
:1058C00000000000000000000000000000000800D0
:1058D0000014001FF7FC300006200002000000004A
:1058E00000000000000000000000000000000000B8
:1058F00000000000FFFFFF000000000000000000AB
:105900000000000000000000000000002000023045
:1059100000061FF7FC001400000800000000000053
:10592000000000000000000000000000001800005F
:10593000600000400000400000200000100000084F
:1059400000000400000400000C0000100000000033
:10595000F4590008D8590008C8590008E859000847
:105960001F000000E007000000F80000FF07000033
:105970001FF80000E0FF000000000000FFFF000033
:105980003031323334353637383941424344454675
:10599000403058003031323334353637383961626F
:1059A0006364656640307800040000080000000071
:1059B0000000000200010000100000006465666144
:1059C000756C745461736B00526F746174696F6E9F
:1059D0003A32373000000000526F746174696F6EA4
:1059E0003A31383000000000526F746174696F6E94
:1059F0003A393000526F746174696F6E3A3000004A
:105A0000205A000800000020D419000028010008D6
:105A10006C6A0008D4190020CC160000840100082C
:105A200081320182100361127A1AAA016125FFFFF7
:105A3000D7E81E7DF8450849022B51F8061C450899
:105A40004510100A69085108410847FE4023B7F184
:105A5000137FFC138001120320090560091831042B
:105A6000C1023C1FF01001290813D4F2B809047FC9
:105A70000441044124490210161424120421044054
:105A8000948088B5C820403F7E48908508011C3F1F
:105A9000F801F233FFFE100A207FFC0820042004E6
:105AA000A0180D40B4FD08400840104023FC4808F1
:105AB000180E17FE3010501097FE10101210110221
:105AC000190D1420D6D812103BF83F3C1A01801A49
:105AD000117C29044952295014D0C2101508047FA2
