:020000040800F2
:10000000C028002081020008C3320008F127000840
:10001000C13200082B150008AD38000800000000B0
:10002000000000000000000000000000E9010008DE
:1000300071150008000000002D020008AD34000812
:100040009B0200089B0200089B0200089B0200081C
:100050009B0200089B0200089B0200089B0200080C
:100060009B0200089B0200089B0200089B020008FC
:100070009B0200089B0200089B0200089B020008EC
:100080002D150008391500089B0200089B02000886
:100090009B0200089B0200089B0200089B020008CC
:1000A0009B020008393500089B0200089B020008EB
:1000B0009B0200089B0200089B0200089B020008AC
:1000C0009B0200089B0200089B0200089B0200089C
:1000D0009B0200089B020008613800089B02000890
:1000E0009B0200089B0200089B02000800F002F837
:1000F00000F06AF80AA090E8000C82448344AAF158
:100100000107DA4501D100F05FF8AFF2090EBAE855
:100110000F0013F0010F18BFFB1A43F0010318473B
:100120008C680000AC6800000A444FF0000C10F826
:10013000013B13F0070408BF10F8014B1D1108BF65
:1001400010F8015B641E05D010F8016B641E01F805
:10015000016BF9D113F0080F1EBF10F8014BAD1C55
:100160000C1B09D16D1E58BF01F801CBFAD505E073
:1001700014F8016B01F8016B6D1EF9D59142D6D3CD
:10018000704700000023002400250026103A28BFF5
:1001900078C1FBD8520728BF30C148BF0B607047F9
:1001A000662904F08587642900F0C6800020704726
:1001B0001FB500F0BDFC04000020002104F028FE63
:1001C000E0601FBD10B510BD00F0B2FD1146FFF795
:1001D000EFFF03F053FF00F0D0FD03B4FFF7F2FF91
:1001E00003BC00F0D3FD0000224B19680868B0E89A
:1001F000F00F80F30988BFF36F8F4FF0000080F39A
:1002000011884EF00D0E704700000000064800688F
:10021000006880F3088862B661B6BFF34F8FBFF302
:100220006F8F00DF00BF00BF08ED00E0EFF3098033
:10023000BFF36F8F0F4B1A6820E9F00F106008B5FD
:100240004FF0500080F31188BFF34F8FBFF36F8FD3
:1002500004F026FC4FF0000080F31188BDE8084050
:1002600019680868B0E8F00F80F30988BFF36F8F52
:10027000704700BF18000020EFF3058070470000B2
:100280000948804709480047FEE7FEE7FEE7FEE72A
:10029000FEE7FEE7FEE7FEE7FEE7FEE70448054966
:1002A000054A064B7047000037350008ED0000088E
:1002B000C0220020C0280020C0240020C02400202C
:1002C0000FB41CB5074B06AA7B44694600900598FD
:1002D00000F015FC0020694600F024FC1CBC5DF811
:1002E00014FB00005908000070B5044685690068D9
:1002F000C10601D5302600E02026C00707D070BD1A
:10030000D4E9012130469047206A401C20626D1ECE
:10031000F6D570BD70B5044685690078C00707D171
:1003200070BDD4E9012120209047206A401C206242
:100330006D1EF6D570BD00002DE9F0410646002483
:1003400010687529314616A510D0AFF3008000283B
:1003500002DA404213A507E031688A0701D512A5E9
:1003600002E0490704D511A5012401E0AFF30080A4
:1003700000210A2206F1240709E0B0FBF2FCB0FBE1
:10038000F2F302FB1C00303078541846491C002858
:10039000F3D123462A463046BDE8F04100F041B98A
:1003A000000000002D0000002B00000020000000D5
:1003B0002DE9F05F894604464FF0000ADFF824B1CA
:1003C000FB44C0F820A02046E168884700287DD083
:1003D000252806D0D4E901219047206A401C2062DC
:1003E000F1E700255F462046E16888472028064659
:1003F00007DB312E05D2B81910F8200C08B10543DF
:10040000F1E7A80701D525F00405C4F81CA00027D2
:10041000C4F818A02A2E09D0304603F06CFA38B37D
:1004200004EB8708303EC8F8186019E059F8041B3F
:10043000204604EB87029161E1688847012F064658
:1004400018D1E069002820DA25F020051DE0D8F851
:10045000180000EB800006EB40003038C8F81800A8
:100460002046E1688847064603F045FA0028EED1A9
:10047000012F0AD02E2E08D12046E16888477F1C24
:100480000646022F45F02005C4DBA069002803DAE8
:10049000404245F00105A061E80701D025F01005B4
:1004A000A6B1A6F14100192802D8203645F400650E
:1004B0004A463146204625604D46FFF771FE60B141
:1004C000012807D0ED1D25F0070000E007E000F14E
:1004D000080978E705F1040975E730467AE7206AEC
:1004E000BDE8F09FF664000010B5203AC0F00B8024
:1004F000B1E81850203AA0E81850B1E81850A0E828
:100500001850BFF4F5AF5FEA027C24BFB1E8185081
:10051000A0E8185044BF18C918C0BDE810405FEAF1
:10052000827C24BF51F8043B40F8043B08BF70476D
:10053000D20728BF31F8023B48BF11F8012B28BF72
:1005400020F8023B48BF00F8012B70474FF0000233
:1005500000B5134694469646203922BFA0E80C50B9
:10056000A0E80C50B1F12001BFF4F7AF090728BF94
:10057000A0E80C5048BF0CC05DF804EB890028BF10
:1005800040F8042B08BF704748BF20F8022B11F039
:10059000804F18BF00F8012B704700004FF0013C5E
:1005A00050F8042B51F8043B9A4221D1A2EB0C03E2
:1005B000934313EACC1317D150F8042B51F8043BA2
:1005C0009A4215D1A2EB0C03934313EACC130BD13F
:1005D00050F8042B51F8043B9A4209D1A2EB0C03CA
:1005E000934313EACC13DBD04FF00000704700BFF9
:1005F000D01A01BAB1FA81F101F0180122FA01F022
:10060000CB40C1F12001DBB2C0B2C01A2CFA01F319
:10061000D11A914311EAC311E6D170477047704770
:1006200070472DE9F0470D4699469246044600F181
:1006300024080168880604D5E06921F010012160D2
:1006400000E00120A84201DD471B00E00027A1696E
:100650007A1902EB0900081AA0612078C00602D4BA
:100660002046FFF741FE002608E0D4E901211AF8F0
:1006700006009047206A401C761C20624E45F4DB41
:100680002078C0060AD52046FFF72EFE06E0D4E902
:10069000012130209047206A401C2062381EA7F1BB
:1006A0000107F4DC07E0D4E9012118F805009047C0
:1006B000206A401C2062281EA5F10105F3DC2046BB
:1006C000FFF728FE2078000602D50220BDE8F0875B
:1006D0000120FBE770472DE9FF4F0C461E464FF007
:1006E000FF378BB0D2E90001DDF860800A908A46BE
:1006F000C1F30A5505B93D46002108464FF00000F8
:10070000BAF1000F00F4400005DA00EB80004FF46E
:10071000400101EA50004FEA9059B9F1010F00DDA4
:10072000B9460A9850EA4A000ED044F61050A5F295
:10073000FF3545432F14B8F1000F1ED07542291E16
:100740001EDDC9F100021CE0B8F1010F4FF00000FE
:1007500001D0302103E0F24305E02154401CB042B7
:10076000FBDB30460022002121540B99C1F80880A0
:10077000C1E900200FB0BDE8F08FBD1B6D1CDEE7A6
:100780004A4600DA694206A800F05CFA06AB93E834
:10079000070003AB83E8070050460A9900F0FDFA12
:1007A0008DE80700A0F500501F3800900398002D39
:1007B0000ADD42F21F014A460844002303A90390C0
:1007C000684600F066FD09E0A0F500504A461F3873
:1007D000002303A90390684600F070FD8DE8070030
:1007E0000004000C03D04FF0FF30410800E0104639
:1007F000B8F1000F03D00022009215461EE0751ECE
:1008000005D400F099F9303262556D1EF9D5B34622
:100810000122084302D000227F1C04E02078302807
:1008200001D100227F1E002A099784D01DE0112DDE
:1008300007DA00F081F9303262556D1C50EA01028E
:10084000F5D1084302D00098C8B10EE00021681E1F
:1008500005E0235C625C63542254401E491C8142C3
:10086000F7DBAB46A81B401E0990002004F80B00E4
:100870000B98099AC0F80880C0E9002B7AE7112686
:100880004FF0000857E72DE9F04F88460446D21D87
:1008900022F0070191B0D1E90001CDE90A0103F08E
:1008A00006F802460B98C00F01D02D2007E0206803
:1008B000810701D52B2002E0202101EAC000032A94
:1008C000099001D0072A05DB03464146204600F087
:1008D00079F90BE12078800601D5E06900E0062077
:1008E000B8F1650F814606D0B8F1660F18D0B8F19F
:1008F000670F70D131E00020B9F1110F009001DBDA
:10090000112301E009F101030AAA01A90CA8FFF7CC
:10091000E2FEDDE90C70002609F10105834647E09F
:1009200001204B4600904FF000470AAA01A90CA8ED
:10093000FFF7D1FEDDE90DB00C995D46002610B938
:1009400009F101000D18B9EB050003D4C0F1FF3621
:1009500009F10105A5EB09002BE0B9F1010F01DA5E
:100960004FF001090020B9F1110F0090484601DD58
:10097000112300E003460AAA01A90CA8FFF7ABFE69
:10098000DDE90C704D4600268346207800070AD426
:10099000AB4500DA5D4601A8012D04DD411911F8CF
:1009A000011C302907D04F4502DA17F1040F04DA91
:1009B000012082460FE06D1EEEE7002F02DCED1BEA
:1009C0003E4403E0781CA84200DD7D1CB81B00F10A
:1009D000010A4FF000472078000703D4AA4501DB45
:1009E0004FF0FF3A0021B7F1004F0DF143088DF8A9
:1009F000431024D002202B23002F01DA7F422D2325
:100A00000A21021EA0F1010000DC5FB197FBF1FC9E
:100A100097FBF1F201FB1C7C17460CF1300C08F837
:100A200001CDEEE7A8F1010003702188090501D589
:100A3000452100E06521A0F1010800F8011C09989A
:100A40000FA9A1EB0807FF1D00B10120411901EB1F
:100A5000EA70A1693844081A401EA0612078C006D7
:100A600002D42046FFF740FC099828B1D4E90121BF
:100A70009047206A401C20622078C00622D520467C
:100A8000FFF732FC1EE0002E04DBB34502DD01A8B7
:100A9000805D00E03020D4E901219047206A401CAD
:100AA0002062761CAAF101005FEA000A0AD100F078
:100AB0003FF8C0680168405CD4E901219047206A92
:100AC000401C2062281EA5F10105DCDC07E0D4E90A
:100AD000012118F8010B9047206A401C2062381E43
:100AE000A7F10107F3DC2046FFF714FC032011B047
:100AF00041E6000001694A1C02610878704700B5B0
:100B00008FB0CDE901310021059105497944CDE946
:100B1000031011466846FFF74BFC0FB000BD000004
:100B2000E5FFFFFF0A6802F8010B0A60704700004A
:100B3000004870477C22002030B5B0F10A024FEA2D
:100B4000900E71F100034EEA817EB0EB0E0061EB76
:100B500091014FEA101E4EEA017E10EB0E0041EBB0
:100B600011114FEA102E4EEA016E10EB0E0041EB10
:100B700011214FEA104E4EEA014E10EB0E0041EBF0
:100B80001141401841F100014FEAD00040EA4170A4
:100B90004FEAD10110EB80054FEA810444EA9074DA
:100BA00044EB01046D1944EB0404521BA3414FF0C4
:100BB000000348BF0A3200D530BD401C41F100019E
:100BC00030BD00002DE9F0411F46044603260168B0
:100BD000072A01F4006004DB08B116A505E016A59C
:100BE00003E008B115A500E015A521F01000206074
:100BF000A069C01EA0610FB1401EA0612046FFF792
:100C000073FB4FB1D4E9012138469047206A401C5C
:100C10002062C01C206206E0206AFAE7D4E90121C4
:100C200015F8010B9047761EF8D22046FFF772FBAD
:100C3000BDE8F0814E414E006E616E00494E4600A7
:100C4000696E66002DE9F047814616468AB0354840
:100C500078440DC88DE80D0032487844801C03AC00
:100C60000DC884E80D0041F69B300844372190FB05
:100C7000F1F290FBF1F5A5F1800501FB12041B3C9C
:100C800002D56442012000E00020DFF898A08046F1
:100C90000027FA44AAF1BE0A0EE0E0070AD0324665
:100CA000684607EB470101230AEB810100F006FBD0
:100CB0008DE8070064107F1C002CEED1194F7F4493
:100CC000AE3F19E0E80715D007EB04100DF1180A44
:100CD00090E80E008AE80E00C068F04201D1981931
:100CE00008903246012306A903A800F0E7FA03ABF7
:100CF00083E807006D10641C002DE3D14FF0010361
:100D000032466946B8F1000F03A802D000F0C1FADC
:100D100001E000F0D3FAC9E90001C9F808200AB0DF
:100D2000BDE8F087F45C0000004870475C220020BA
:100D30007546FFF7F9FFAE4605006946534620F0B9
:100D40000700854618B020B5FFF7A8FABDE8204097
:100D50004FF000064FF000074FF000084FF0000B77
:100D600021F00701AC46ACE8C009ACE8C009ACE82A
:100D7000C009ACE8C0098D46704710B50446AFF312
:100D800000802046BDE81040FFF727BA014918202F
:100D9000ABBEFEE72600020070475FEA400C08BFCA
:100DA00091F0000F4FEA8C234FEAC12243EA5151E0
:100DB0004FEA1C5018BF00F5F0404FEA300018BF52
:100DC00041F000415FEA6C5C00F02980BCF1FF3F1C
:100DD00008BF40F080407047130C06BF12044FF06C
:100DE000100C4FF0000C130E04BF12020CF1080C93
:100DF000130F04BF12010CF1040C930F04BF9200F7
:100E00000CF1020CD30F04BF52000CF1010C11467F
:100E10004FF00002A0F11F00A0EB0C00704711F092
:100E2000004F08BF704731F000413FF4D5AF0B0CC5
:100E300006BF09044FF0100C4FF0000C0B0E04BF5E
:100E400009020CF1080C0B0F04BF09010CF1040C92
:100E50008B0F04BF89000CF1020CCB0F04BF4900BB
:100E60000CF1010CCCF12003A0EB0C0022FA03F3EF
:100E700002FA0CF241EA030100F10100704720F090
:100E80007F4C80EA030023F07F47ACEB070303F5B8
:100E90007C5300F0004003F1FF032DE980494FEA45
:100EA000154B09B44FEA144325EA0B4E24EA0348D4
:100EB0000FF2042606EB132749083E785FEA320258
:100EC00003FB0667C7F5000707FB06F64FEA543732
:100ED0004FEAD64606F1020607FB066CCCF1005C31
:100EE0004FEA1C472CEA074C07FB06F40CFB06F5FF
:100EF00004EB15464FEA961634BF00204FF0004031
:100F00004FEAD13706FB07FC4FEA1C4C0CFB0BF7F2
:100F1000D21B03FB0CF761EB07010CFB0EF7B0EBE8
:100F2000074072EB17420CFB08F734BFA2EB0742F5
:100F3000B2EB074261EB17414FEA0C444FEA9107CD
:100F400006FB07FC4FEA1C4C0CFB0BF7B0EBC74051
:100F500072EB573203FB0CF734BFA2EBC742B2EB84
:100F6000C74261EB57310CFB0EF7B0EBC70072EBD9
:100F700057720CFB08F734BFA2EBC702B2EBC702F3
:100F800061EB5771039F4FEA816141EA921104EBD3
:100F9000CC044FEAD1374FEA826206FB07FC42EAF3
:100FA00090124FEA80604FEA1C4C0CFB0BF7D21BEF
:100FB00003FB0CF761EB07010CFB0EF7B0EB0740EE
:100FC00072EB17420CFB08F734BFA2EB0742B2EBFF
:100FD000074261EB17414FEA8C554FEA910704EB4A
:100FE0009C2406FB07FC4FEA1C4C0CFB0BF7B0EBF8
:100FF000C74072EB573203FB0CF734BFA2EBC7427A
:10100000B2EBC74261EB57310CFB0EF7B0EBC700F8
:1010100072EB57720CFB08F734BFA2EBC702B2EBBE
:10102000C70261EB577115EB4C254FEA816141EA2C
:1010300092114FEA82624FEAD13742EA901206FBE0
:1010400007FC44F100044FEA80604FEA1C4C0CFBA3
:101050000BF7D21B03FB0CF761EB07010CFB0EF740
:10106000B0EB074072EB17420CFB08F734BFA2EB62
:101070000742B2EB074261EB174115EB1C154FEA33
:10108000813141EA92414FEA823242EA90424FEA8C
:1010900080304FEA0C7644F1000448EA03434EEAFC
:1010A0000B484FF0000EB2EB080C71EB030724BFA6
:1010B000624639464EEB0E0E4FF0000B00185241BF
:1010C00049414BEB0B0BB2EB080C71EB03077BF1C7
:1010D000000B24BF624639464EEB0E0E4FF0000B5C
:1010E0000018524149414BEB0B0BB2EB080C71EB72
:1010F00003077BF1000B24BF624639464EEB0E0E10
:1011000051EA020718BF46F0010616EB0E7655F1BC
:10111000000254F1000103D5BDE88901BDE8008853
:10112000BDE88901BDE80048B619524141EB010113
:10113000A3F10103704780807F7E7D7C7B7A797884
:10114000777676757473727171706F6E6E6D6C6C8C
:101150006B6A6A696868676666656464636362612E
:101160006160605F5F5E5E5D5D5C5C5B5B5A5A59AF
:10117000595858575756565555555454535352521B
:101180005251515050504F4F4F4E4E4D4D4D4C4C73
:101190004C4B4B4B4A4A4A494949484848474747BC
:1011A00047464646454545444444444343434342F9
:1011B000424242414141002B9C4630D477002BD023
:1011C0001CB54FEA370703B44FF010004FF0100181
:1011D000BAF1000F06D0BCF1000FDCBF40F00800F0
:1011E00040F008014FF000000FBCBDE810400BF1CB
:1011F000010BBBF1010F08BF5FEA170722BF12F115
:10120000010211F101014FF0004143F1000300F030
:10121000004043EA00007047F9D35708D0E746EA98
:10122000064613F1400F4FEA16461FDD13F1200F5B
:10123000DFBF16430A46002120335B42BED0C3F114
:10124000200746EA064602FA07F74FEA164646EA3C
:101250000706C3F1200722FA03F201FA07F721FA81
:1012600003F14FF0000342EA0702A7E746EA02064D
:1012700046EA06464FEA164646EA0106BCBF46EA7B
:101280000646360C4FF000034FF000024FF000010D
:1012900094E72DE9804C9A46934670B491E8380063
:1012A00007C831EA400C48BF34EA430C03D5FFF7C6
:1012B000E6FDFFF780FFF0BCBDE8008C2DE9804C17
:1012C0009A46934670B491E8380007C810F0804FF2
:1012D00008BF13F0804F03D100F005F8FFF76BFF54
:1012E000F0BCBDE8008C20F07F4780EA030023F0CB
:1012F0007F4C07EB0C03A3F57C5300F00040A3F1F7
:10130000FE0392F0000F00F0B38095F0000F00F0A4
:1013100077802DE901494FEA11404FEA144621EA4E
:10132000004800FB06FC24EA064708FB06F607FB1C
:1013300008F800FB07F718EB06484CEB164C4FEA91
:10134000124B18EB07484FEA15464CEB174022EAC0
:101350000B4E0BFB06FC25EA06470EFB06F607FBC9
:101360000EFE0BFB07F71EEB064E4CEB164C4FF038
:1013700000061EEB074E4CEB174B18EB0B0840F129
:10138000000018EB0E0B58EB000840F100008F1A1C
:101390004FF000013CBFC943661B14BFB5EB040C02
:1013A00000213CBFC943F61B4FEA17444EEA8E0E9C
:1013B00027EA04454FEA1C4704FB07622CEA074C66
:1013C00005FB07F70CFB05F604FB0CFC16EB0746C8
:1013D00042EB174216EB0C4642EB1C421BEB060697
:1013E00058EB0202414146EA9E0601D5BDE801895B
:1013F000B619524141EB0101A3F10103BDE8018996
:101400004FEA14454FEA114724EA054621EA074C02
:1014100005FB07F406FB07F70CFB06F105FB0CFCCC
:1014200011EB074144EB17444FEA124711EB0C4113
:1014300044EB1C4422EA074C05FB07F206FB07F7C6
:101440000CFB06F605FB0CFC16EB074642EB1742BD
:1014500016EB0C4642EB1C456A1854F1000148BFDC
:101460007047B619524141EB0101A3F101037047E6
:1014700095F0000F37D04FEA11424FEA144721EAA6
:10148000024624EA074C02FB07F106FB07F70CFBB8
:1014900006F402FB0CFC14EB074441EB17414FEA46
:1014A000154714EB0C4441EB1C4125EA074C02FBA9
:1014B00007F506FB07F70CFB06F602FB0CFC16EB28
:1014C000074645EB174516EB0C4645EB1C42121937
:1014D00051F1000148BF7047B619524141EB01017B
:1014E000A3F1010370474FEA14454FEA114724EA7C
:1014F000054621EA074C05FB07F106FB07F70CFB45
:1015000006F24FF0000605FB0CFC12EB074241EB24
:10151000174112EB0C4251EB1C4148BF7047921827
:1015200041EB0101A3F101037047FEE7014800F020
:1015300099B9000080140020014800F093B9000020
:101540003C14002030B590F840500124AC40C56BED
:101550006C60046863604368102B04D00368996072
:101560000068C26030BD03689A600068C16030BD29
:10157000704772B6FEE700002DE9FF4F83B00546C5
:101580008B46A946522001904FF000084FF0800A88
:101590004AE02F49059A08EB081011F8103012782C
:1015A00093423DD101EB400002904178059840788C
:1015B000814235D110231A465946284601F000FCD5
:1015C00001F058FD0026002402988719069878B18A
:1015D000B8782AFA04F1084203D05946284601F0A7
:1015E00081FA6D1CADB2A5EB0900102829D00FE0DF
:1015F000B8782AFA04F1084205D01548001F00887F
:1016000001F0FAFC04E01248001F408801F0F4FCED
:10161000641CE4B2082CD9D3761CF6B2202ED2D3A7
:1016200008F101081FFA88F801988045B1D30948EC
:1016300000214388028807B00846BDE8F04F01F05A
:10164000BFBB4D460BF1010B1FFA8BFBE4E700001B
:10165000CC0000204C2200202DE9FF4F83B005462E
:101660008B46A946062001904FF000084FF0800AF3
:101670004AE008EB88002E49059A00EB481011F863
:101680001030127893423BD101EB40000290417838
:1016900005984078814233D118231A465946284686
:1016A00001F08EFB01F0E6FC002600240298871969
:1016B000069878B1B8782AFA04F1084203D059465E
:1016C000284601F00FFA6D1CADB2A5EB09001828F1
:1016D00027D00DE0B8782AFA04F1084204D0154862
:1016E000008801F089FC03E01248408801F084FC86
:1016F000641CE4B2082CDBD3761CF6B2482ED4D39B
:1017000008F101081FFA88F801988045B1D30A480A
:1017100000214388028807B00846BDE8F04F01F079
:101720004FBB4D460BF1010B1FFA8BFBE4E70000AA
:10173000B00B0020C80000204C2200202DE9FF4FF4
:1017400083B005468B46A946082001904FF000085B
:101750004FF0800A48E02E49059A08EB881011F8EE
:101760001030127893423BD101EB40000290417857
:1017700005984078814233D120231A46594628469D
:1017800001F01EFB01F076FC002600240298871968
:10179000069878B1B8782AFA04F1084203D059467D
:1017A000284601F09FF96D1CADB2A5EB0900202879
:1017B00027D00DE0B8782AFA04F1084204D0154881
:1017C000008801F019FC03E01248408801F014FC85
:1017D000641CE4B2082CDBD3761CF6B2802ED4D382
:1017E00008F101081FFA88F801988045B3D30A4828
:1017F00000214388028807B00846BDE8F04F01F099
:10180000DFBA4D460BF1010B1FFA8BFBE4E700003A
:101810006C0D0020C80000204C22002010B590F86C
:1018200021100022022905D00421816380F82020A4
:10183000012010BD01680B6823F00E030B600168E6
:101840000B6823F001030B6090F84030C46B01215A
:1018500001FA03F3636080F8211080F8202010461D
:1018600010BD00002DE9F05FC16B0A6801680B68CC
:10187000046C4FF0040A0AFA04FA4E4D4E4E4F4FD4
:10188000DFF83CC1DFF83C81DFF83C911AEA020F37
:1018900031D05FEA437A2ED50A68920603D40A68EB
:1018A00022F004020A600168A94201D1042119E072
:1018B000B14201D1402115E0B94202D14FF480611B
:1018C00010E0614502D14FF480410BE0414502D167
:1018D0004FF4802106E0494502D14FF4800101E038
:1018E0004FF08061334A083A5160C16A00295FD0E5
:1018F000BDE8F05F08474FF0020E0EFA04FE1EEA44
:10190000020F4FF0000A4FF0010B35D05FEA837EE3
:1019100032D50A68920605D40A6822F00A020A60E3
:1019200080F821B00168A94201D1022119E0B14239
:1019300001D1202115E0B94202D14FF4007110E02D
:10194000614502D14FF400510BE0414502D14FF403
:10195000003106E0494502D14FF4001101E04FF09B
:101960000071144A083A516080F820A0816A002969
:101970001ED0BDE8F05F08470825A540154217D0E6
:101980001A0715D50A6822F00E020A6090F8401076
:10199000C26B0BFA01F15160C0F838B080F821B089
:1019A00080F820A0016B002902D0BDE8F05F084755
:1019B000BDE8F09F080002401C00024030000240D9
:1019C00044000240580002406C00024030B500283C
:1019D00027D0001D144A50F8041C14230A44B2FBFB
:1019E000F3F29200C263114A8263022242770A68CC
:1019F00043F6F0739A43D0E900342343D0E902451B
:101A00002C432343046923434469234384692343C8
:101A100013430B60002141630122427701770020CC
:101A200030BD012030BD0000F8FFFDBF00000240C6
:101A300070B50446002594F8200001280CD0012040
:101A400084F8200094F821600020012E06D084F84C
:101A500020000225284670BD022070BD022684F8B1
:101A60002160A0632068066826F001060660204613
:101A7000FFF768FDE06A28B12068016841F00E01B7
:101A8000016009E02068016821F00401016020681C
:101A9000016841F00A0101602068016841F001011C
:101AA0000160D7E770B5044600F014F90546601CE4
:101AB00002D004480078044400F00CF9401BA04216
:101AC000FAD370BD080000202DE9F84F0024002350
:101AD000DFF8C4914FF00F08A9F1040B09F1040AD3
:101AE000ABF1040ED1E00127A7403A40BA4275D1CC
:101AF000DFF8A8C14D68A5EB0C0665452BD00DDCC1
:101B0000032D34D005DC35B3012D19D0022D2FD192
:101B10001BE0112D16D0122D2AD119E0B6F5881F21
:101B200019D006DCB6F5803F15D0B6F5801F1FD161
:101B300011E0B6F5001F0ED0B6F5041F18D10AE06B
:101B4000CB6815E0CB681B1D12E0CB6808330FE0B3
:101B5000CB680C330CE08B6823B1012B04D0082335
:101B6000476105E0042303E00823076100E0002348
:101B7000FF2A01D8054601E000F1040502D84FEA2A
:101B8000840603E0A4F108064FEA86062F6808FAE7
:101B900006FC27EA0C0703FA06F647EA06072F6059
:101BA0004D68ED0070D53E4DAE6946F00106AE6160
:101BB000AD6905F0010500953A4D24F0030677194B
:101BC000BE68A5072D0F08FA05FC26EA0C06DFF80B
:101BD000D8C0604503D14FF0000C17E054E0DFF8A7
:101BE000CCC0604502D14FF0010C0FE0DFF8C0C05F
:101BF000604502D14FF0020C08E0DFF8B8C0604544
:101C000002D14FF0030C01E04FF0040C0CFA05FC7C
:101C10004CEA060CC7F808C04D68ED0205D5D9F8A6
:101C200000501543C9F8005004E0D9F8005095431E
:101C3000C9F800504D68AD0205D5DAF800501543DB
:101C4000CAF8005004E0DAF800509543CAF8005092
:101C50004D68AD0305D5DBF800501543CBF80050B7
:101C600004E0DBF800509543CBF800504D68ED03DD
:101C700005D5DEF800501543CEF8005004E0DEF83C
:101C800000509543CEF80050641C0A6832FA04F5FF
:101C90007FF429AFBDE8F88F08040140000011105F
:101CA000001002400000014000080140000C01400B
:101CB00000100140001401408068084201D001205A
:101CC000704700207047002A01D001617047090465
:101CD00001617047014880687047000008000020DB
:101CE0000248816802781144816070470800002032
:101CF00010B50748016841F010010160032000F0B1
:101D0000A1F80F2000F006F800F04AF8002010BDFE
:101D10000020024030B587B005461C48816941F477
:101D200000618161806900F40060009001A902A84F
:101D300000F044F900F076F91549B0FBF1F1491EC5
:101D40001548144A026040F2E732C2604160002246
:101D500002618260826100F05FFB044694B90E4824
:101D600000F080FB04466CB9192000F03DF8102DFE
:101D700007D200222946192000F044F807480560E0
:101D800000E0012407B0204630BD000000100240F2
:101D900040420F00002C0140C41400200C00002021
:101DA00008B50F48816941F001018161816901F045
:101DB00001010091C16941F08051C161C06900F029
:101DC0008050009000220F21901E00F01BF8054962
:101DD000486820F0E06040F00070486008BD0000F6
:101DE0000010024000000140002809DB00F01F0243
:101DF000012191404009800000F1E020C0F800116D
:101E000070470000F0B40D460D4B1B68C3F302236E
:101E1000C3F10704042C00D90424191D072901D299
:101E2000002300E0DB1E012606FA04F1491E2940CA
:101E300099409E40761E16403143F0BC01F04BBDE8
:101E40000CED00E000F00701054A10684FF6FF03B3
:101E5000184040EA01200349084310607047000021
:101E60000CED00E00000FA052DE9F04704460D46B0
:101E7000002C17D0DFF83081D8F8000000F0070000
:101E8000A84211D2D8F8000020F007002843C8F873
:101E90000000D8F8000000F00700A84204D001209C
:101EA000BDE8F0870120FBE72068404E810712D58E
:101EB000400703D5706840F4E06070602078000748
:101EC00003D5706840F4605070607068A16820F0BD
:101ED000F000084370602078C0072CD060680128AB
:101EE00006D0022809D0316889070BD40120D7E732
:101EF0003168890306D40120D2E73168890101D411
:101F00000120CDE7716821F0030101437160FFF703
:101F1000E1FE074641F2883906E0FFF7DBFEC01B11
:101F2000484501D90320BBE77068616800F00C00E8
:101F3000B0EB810FF1D1D8F8000000F00700A84203
:101F40000ED9D8F8000020F007002843C8F8000098
:101F5000D8F8000000F00700A84201D001209FE758
:101F60002078400705D57068E16820F4E0600843F8
:101F700070602078000706D57068216920F46050F1
:101F800040EAC100706000F05DF87168084AC1F372
:101F90000311515CC8400749086007480068FFF713
:101FA000B9FE00207CE70000002002400010024043
:101FB000E2500008140000200C0000200F220260F4
:101FC0000B4A536803F003034360536803F0F003C4
:101FD0008360536803F4E063C360526802F46052A4
:101FE000D20802610348006800F0070008607047EB
:101FF00000100240002002400148006870470000C5
:102000001400002000B5FFF7F7FF04494968044AAF
:10201000C1F30221515CC84000BD00000010024025
:10202000F250000800B5FFF7E7FF04494968044A89
:10203000C1F3C221515CC84000BD00000010024045
:10204000F25000080E4B59680E4801F00C02042AA9
:1020500011D0082A0FD10C48C1F38342805CC90318
:102060000AD55968084AC1F34041921E515C054A9D
:102070005043B0FBF1F070470449484370470000FB
:102080000010024000127A00D250000800093D0002
:102090002DE9F84F0446002C0ED02078D94DC0070A
:1020A0005ED06868C0F3810001280BD06868C0F377
:1020B0008100022803D00CE00120BDE8F88F686899
:1020C000C00306D5286880034AD56068A8BB0120F4
:1020D000F3E76068B0F5803F11D0A8B1B0F5A02F4C
:1020E0001BD0286820F480302860286820F48020E5
:1020F0002860606830B3FFF7EDFD06461EE02868F3
:1021000040F480302860F4E7286820F480302860AC
:10211000286820F480202860EBE7286840F48020BD
:102120002860286840F480302860E2E7FFF7D2FD9D
:10213000801B642802D90320BFE711E028688003D0
:10214000F4D50DE0FFF7C6FD064606E0FFF7C2FD39
:10215000801B642801D90320AFE728688003F5D4E9
:102160002078DFF8A48280074FF0010A4FF00009C1
:1021700045D5686810F00C0F07D06868C0F381007F
:10218000022812D16868C0030FD42868800704D5DC
:102190002069012801D001208FE72868616920F0BB
:1021A000F80040EAC100286029E02069B8B1C8F809
:1021B00000A0FFF78FFD064606E0FFF78BFD801BB2
:1021C000022801D9032078E728688007F5D5286818
:1021D000616920F0F80040EAC10028600FE0C8F80B
:1021E0000090FFF777FD064606E0FFF773FD801BC2
:1021F000022801D9032060E728688007F5D42078F9
:10220000000726D58148A16999B1C0F800A0FFF761
:1022100061FD064606E0FFF75DFD801B022801D93F
:1022200003204AE7686A8007F5D5012001F04AF8E3
:102230000FE0C0F80090FFF74DFD064606E0FFF7FF
:1022400049FD801B022801D9032036E7686A800710
:10225000F5D42078400773D50026E869C00008D47B
:10226000E86940F08050E861E86900F08050009033
:102270000126DFF89CB1DBF80000C00514D4DBF8C0
:10228000000040F48070CBF80000FFF723FD074604
:1022900006E0FFF71FFDC01B642801D903200CE7EF
:1022A000DBF80000C005F4D5E068012812D0B0B119
:1022B00005281DD0286A20F001002862286A20F035
:1022C00004002862E06841F2883B28B3FFF702FD72
:1022D00007461DE0286A40F001002862F2E7286AFC
:1022E00020F001002862286A20F004002862E9E753
:1022F000286A40F004002862286A40F00100286241
:10230000E0E7FFF7E7FCC01B584501D90320D4E6FE
:10231000286A8007F5D50DE0FFF7DCFC074606E0EC
:10232000FFF7D8FCC01B584501D90320C5E6286A31
:102330008007F5D4012E03D1E86920F08050E861D0
:10234000E069A0B36968C1F38101022946D002287F
:1023500005D0C8F86090FFF7BDFC04463AE0C8F825
:102360006090FFF7B7FC064606E0FFF7B3FC801B62
:10237000022801D90320A0E628688001F5D4206A4C
:10238000B0F5803F05D16868A16820F400300843AB
:102390006860D4E908010843696821F474110843AE
:1023A0006860C8F860A0FFF795FC044607E026E0E7
:1023B000FFF790FC001B022801D903207DE6286866
:1023C0008001F5D51BE0FFF785FC001B022801D931
:1023D000032072E628688001F5D410E001280CD0B3
:1023E0006868226A00F48031914204D1616A00F485
:1023F0007010884203D001205FE601205DE60020D6
:102400005BE60000001002400000424280044242AD
:10241000007000407047704710B50446002C03D090
:1024200094F83D0010B107E0012010BD002084F8B1
:102430003C00204600F015F8022084F83D00211DE4
:10244000206801F07FF801203D3460726070A07058
:10245000E07020716071A071E07120722070002026
:1024600010BD704790F83D10012901D00120704740
:10247000022180F83D100168CA6842F00102CA607A
:1024800000680E49884208D0B0F1804F05D00C4951
:10249000884202D00B49884209D1816801F00701C6
:1024A000062908D0016841F00101016003E00168DC
:1024B00041F001010160002070470000002C014044
:1024C000000400400008004070472DE9F041044638
:1024D0002068C56806694FF00007B10714D5A90741
:1024E00012D5F91E016101202077206880698007DC
:1024F00003D02046FFF7E8FF05E0204600F081F812
:10250000204600F07FF82777700717D5680715D5A4
:1025100021686FF00400086102202077206880693C
:1025200010F4407F03D02046FFF7CEFF05E02046A1
:1025300000F067F8204600F065F82777300716D5D9
:10254000280714D521686FF008000861042020775F
:102550002068C069800703D02046FFF7B5FF05E07B
:10256000204600F04EF8204600F04CF82777F006A1
:1025700017D5E80615D521686FF01000086108200E
:1025800020772068C06910F4407F03D02046FFF711
:102590009BFF05E0204600F034F8204600F032F8BA
:1025A0002777F00708D0E80706D021686FF0010010
:1025B0000861204600F028F8300608D5280606D520
:1025C00021686FF0800008612046FFF723FF700646
:1025D00008D5680606D521686FF0400008612046DE
:1025E00000F01CF8B0060AD5A80608D521686FF0DF
:1025F000200008612046BDE8F041FFF70CBFBDE8B0
:10260000F08170477047000000680349884201D19B
:10261000FFF766BB70470000002C01407047704711
:1026200010B5044620684069C0F3C01094F841100A
:10263000212911D180B12068143050E8001F21F009
:10264000800140E80012002AF5D1A06B08B1FFF725
:10265000E5F8204601F050F820684069C0F380108A
:1026600094F84210222911D180B12068143050E82A
:10267000001F21F0400140E80012002AF5D1E06B74
:1026800008B1FFF7CBF8204601F00FF8002010BD8D
:10269000704770B50446002C04D094F84100002522
:1026A00010B106E0012070BD84F84050204600F0D3
:1026B00023F8242084F841002068C16821F40051E7
:1026C000C160204601F026F82068016921F490419C
:1026D00001612068416921F02A0141612068C168D7
:1026E00041F40051C1606564202084F8410084F801
:1026F00042006563002070BDF0B585B0044600253A
:1027000001950295039504952C492068884253D180
:102710002B48C16941F40031C161C16901F4003144
:102720000091816941F004018161806900F0040039
:102730000090042001900220029003200490214E7A
:1027400001A93046FFF7C0F90820019002950395D2
:1027500001A93046FFF7B8F91C4E1B483060102025
:102760007060B5608027F76035617561B561F561AE
:102770003046FFF72BF908B1FEF7FBFEA663746243
:102780001148124E1438443630607560B560F760F9
:1027900035617561B561F5613046FFF717F908B12C
:1027A000FEF7E7FEE6637462002205212620FFF7AC
:1027B00029FB2620FFF718FB05B0F0BD00440040C0
:1027C0000010024000080140800002403C1400203C
:1027D00090F84230202B01D00220704721B11AB16D
:1027E0000023036300F0F2BF012070477047704779
:1027F000FEE7000030B585B00E48816941F0080160
:102800008161806900F0080000904FF440640194F9
:10281000112002900120039003200490064D01A98D
:102820002846FFF751F9012221462846FFF74BFAC7
:1028300005B030BD00100240000C014070B501220F
:102840000C4DD40221462846FFF73DFA012296029C
:1028500031462846FFF737FA01F0DEFB0022214619
:102860002846FFF730FA31462846BDE8704000227E
:10287000FFF729BA000C014070B50B4D4FF400640E
:10288000002221462846FFF71EFA0122910228461F
:10289000FFF719FA01F0C0FB21462846BDE8704059
:1028A0000122FFF710BA0000000C014070B50122B0
:1028B0000C4CD50229462046FFF705FA0122960264
:1028C00031462046FFF7FFF929462046FFF7F4F985
:1028D0000028F9D131462046BDE870400022FFF7BC
:1028E000F2B90000000C01402DE9F041044600253A
:1028F000144F4FF400684FF480660022314638468A
:10290000FFF7E1F9200605D5012241463846FFF7D9
:10291000DAF904E0002241463846FFF7D4F96006B0
:10292000040E012231463846FFF7CDF96D1CEDB299
:10293000082DE2D331463846BDE8F0410022FFF7CA
:10294000C2B90000000C014070B5064600240948D9
:10295000018845884D430021084600F017FA00F031
:1029600089FB03E0304600F047FB641CAC42F9D31E
:1029700070BD00004C2200202DE9F041F0212C23F5
:102980002A252B26304C4FF4A072002806D00128AF
:1029900004D0022818D0032816D024E00027A771FD
:1029A0002180628023816581A68130B1362000F0CC
:1029B000E5FAC02000F0A4FA15E0362000F0DEFAB7
:1029C000002000F09DFA0EE00127A77122806180AF
:1029D00023816581A68102282FD0362000F0CEFA0F
:1029E000602000F08DFA608900F0C8FA002000F045
:1029F00087FA002000F084FA2088401EC0F30F20E0
:102A000000F07EFA2078401EC0B200F079FAA0896A
:102A100000F0B4FA002000F073FA002000F070FA21
:102A20006088401EC0F30F2000F06AFAA078BDE86D
:102A3000F041401EC0B200F063BA362000F09EFAAA
:102A4000A02000F05DFACEE74C2200202DE9FE4FD9
:102A500000250026171AA3EB010881468A46681E46
:102A6000002F03DD4FF00101019107E003D14FF08A
:102A70000001019102E00190C7F10007B8F1000FD9
:102A800003DD4FF00100009007E003D14FF000009C
:102A9000009002E00090C8F10008474501DD3C4687
:102AA00000E044464FF0000B601C029015E01FFA56
:102AB0008AF11FFA89F000F015F83D444644A5421A
:102AC00002DD2D1B01988144A64202DD361B0098D1
:102AD00082440BF1010B1FFA8BFB02988345E6DD64
:102AE000BDE8FE8F10B500F051F900F0C3FA0348BD
:102AF0000088BDE8104000F07FBA0000C800002048
:102B00002DE9F04105460E4614461F46334622463F
:102B100031462846FFF79AFF3B462A46314628466B
:102B2000FFF794FF3B46224639462846FFF78EFFC3
:102B30003B46224631462046BDE8F041FFF786BFBE
:102B400010B5144600F022F9034821460089BDE87B
:102B5000104000F095BA00004C2200202DE9F84307
:102B60008046DDF820901F461E4CA088A0F5D0437B
:102B7000043B02D1A079012805D0A2EB0800401C3B
:102B800086B20D462BE00D462088811A491E89B277
:102B90003A46A0EB0800401E83B20020A0712A260E
:102BA00066812B27A7812846CDF80090FFF7D6FF36
:102BB0000120A0716781A681BDE8F88329464046BF
:102BC00000F0E4F800F056FA002404E0484600F073
:102BD00013FA641CA4B2B442F8D36D1CADB2BD426A
:102BE000ECD9E9E74C22002010B5674C0122802186
:102BF0002046FFF768F8012000F04EFF00228021F8
:102C00002046FFF760F80A2000F046FF01228021ED
:102C10002046FFF758F8782000F03EFF112000F022
:102C2000ADF9782000F038FF362000F0A7F9002039
:102C300000F066F93A2000F0A1F9052000F060F9F3
:102C4000B22000F09BF90C2000F05AF90C2000F0A3
:102C500057F9002000F054F9332000F051F93320E7
:102C600000F04EF9B72000F089F9352000F048F95E
:102C7000BB2000F083F9282000F042F9C02000F0CA
:102C80007DF92C2000F03CF9C22000F077F90120FA
:102C900000F036F9C32000F071F90B2000F030F994
:102CA000C42000F06BF9202000F02AF9C62000F0C3
:102CB00065F90F2000F024F9D02000F05FF9A4207E
:102CC00000F01EF9A12000F01BF9E02000F056F9F9
:102CD000D02000F015F9012000F012F9082000F0D2
:102CE0000FF90F2000F00CF9112000F009F92A204B
:102CF00000F006F9362000F003F9552000F000F945
:102D0000442000F0FDF83A2000F0FAF80B2000F023
:102D1000F7F8062000F0F4F8112000F0F1F8202078
:102D200000F0EEF8E12000F029F9D02000F0E8F8FA
:102D3000022000F0E5F8072000F0E2F80A2000F099
:102D4000DFF80B2000F0DCF8182000F0D9F8342070
:102D500000F0D6F8432000F0D3F84A2000F0D0F875
:102D60002B2000F0CDF81B2000F0CAF81C2000F04A
:102D7000C7F8222000F0C4F81F2000F0C1F8BDE819
:102D80001040292000F0FAB80008014070B5044650
:102D90000D460A4E708900F0F1F8200A00F0B0F8F4
:102DA000E0B200F0ADF8B08900F0E8F8280A00F0D1
:102DB000A7F8E8B2BDE8704000F0A2B84C220020AD
:102DC0002DE9F04104460D46A018401E86B2E818D1
:102DD000401E87B2DFF84480B8F80A0000F0CEF851
:102DE000200A00F08DF8E0B200F08AF8300A00F016
:102DF00087F8F0B200F084F8B8F80C0000F0BEF8E4
:102E0000280A00F07DF8E8B200F07AF8380A00F0FD
:102E100077F8F8B2BDE8F04100F072B84C2200201B
:102E20002DE9F84F82460C461F46A346780701D08D
:102E3000012000E0002000EBD70079084843C0B231
:102E40000090203A02F0FF09002649E00C2F14D030
:102E5000102F19D0182F46D1244909EBC90001EBD6
:102E60008000855D4FF00008280612D520482146D5
:102E700002885046FFF764FE13E01E4909EB490043
:102E800001EB8000855DEDE71B4800EB0910855DD7
:102E9000E8E70A9828B91648214642885046FFF7C5
:102EA0004FFE6806050E641CA4B214484088A04278
:102EB00019D9A4EB0B00B84209D15C460AF1010A0A
:102EC0001FFA8AFA0D48008850450CD906E008F12F
:102ED000010808F0FF08B8F1080FC5D3761CF6B258
:102EE00000988642B2D3BDE8F88F00005E5B000810
:102EF000C8000020FA5000086E5500084C2200203F
:102F00002DE9F0470546DFF86C9000224021484645
:102F1000FEF7D9FE184E012202213046FEF7D3FEFD
:102F200000244FF4805A4FF6FF787714280605D511
:102F3000012251463046FEF7C6FE04E0002251460B
:102F40003046FEF7C0FE08EA450500223946304605
:102F5000FEF7B9FE012239463046FEF7B4FE641C86
:102F6000E4B2082CE2D34846BDE8F04701224021F4
:102F7000FEF7A9BE00080140000C01402DE9F04712
:102F80000546DFF86C90002240214846FEF79BFE84
:102F9000184E002202213046FEF795FE00244FF421
:102FA000805A4FF6FF787714280605D5012251463E
:102FB0003046FEF788FE04E0002251463046FEF718
:102FC00082FE08EA4505002239463046FEF77BFEC0
:102FD000012239463046FEF776FE641CE4B2082C26
:102FE000E2D34846BDE8F04701224021FEF76BBE20
:102FF00000080140000C01402DE9F0470546DFF8CC
:103000006C90002240214846FEF75DFE184E0122DA
:1030100002213046FEF757FE00244FF4805A4FF647
:10302000FF787714280405D5012251463046FEF773
:103030004AFE04E0002251463046FEF744FE08EA0C
:103040004505002239463046FEF73DFE012239464D
:103050003046FEF738FE641CE4B2102CE2D348463A
:10306000BDE8F04701224021FEF72DBE00080140D7
:10307000000C014001480089FFF780BF4C2200206E
:1030800010B50C46FFF77AFF2046BDE81040FFF769
:10309000B3BF70B5C0F30324C5B2FFF7CFFBC020A8
:1030A000FFF722FCFFF702FC2046FFF71DFCFFF7AD
:1030B000FDFB2846FFF718FCFFF7F8FBFFF7DCFBEA
:1030C000BDE870400A20FEF7EDBC000008B50D48D1
:1030D000416941F001014161406900F00100009047
:1030E000002205211020FEF78DFE1020FEF77CFE49
:1030F000002205211120FEF785FEBDE808401120C1
:10310000FEF772BE0010024000B587B01C220649CF
:103110006846FDF7E9F90021684600F0ECFF034935
:10312000086007B000BD0000B45000080400002093
:103130002DE9F04385B0002501950295039504958E
:103140004D48816941F010018161816901F01001F0
:103150000091816941F020018161816901F02001C4
:103160000091816941F004018161816901F00401EC
:103170000091816941F008018161806900F00800D7
:1031800000903E4F4FF62174002221463846FEF74C
:103190009AFDDFF8EC80012248F6B0114046FEF7B8
:1031A00092FD002240214046FEF78DFDDFF8D490CD
:1031B000012247F2A2014846FEF785FD00224FF4A6
:1031C00054614846FEF77FFD019401240294039464
:1031D0000226049601A93846FEF776FCDE2001900F
:1031E0000295039401A93846FEF76EFC48F2F010F0
:1031F000019002940394049601A94046FEF764FCF2
:1032000047F2A210019002940394049601A9484643
:10321000FEF75AFC4FF44060019011200290039495
:10322000049601A94846FEF74FFC48F20820019099
:103230000295039401A94846FEF746FCE00201907E
:1032400002940395049601A94046FEF73DFC102028
:1032500001900295039501A94846FEF735FC4020F0
:10326000019002940395049601A94846FEF72CFCB0
:1032700005B0BDE8F08300000010024000100140DE
:1032800000080140000C014010B50C480A490160DB
:103290004FF4E131416000218160C16001610C2285
:1032A00042618161C161FFF7F4F9002803D0BDE8F4
:1032B0001040FEF75EB910BD00440040F41300203A
:1032C000FEE7FEE708B507494FF4FA520968B1FB7B
:1032D000F2F14143009100BF0098411E0091FAD2E3
:1032E00008BD00001400002010B50023002204E0F7
:1032F000845C23449BB2521CD2B28A42F8D3D8B227
:1033000010BD00002DE9F047DFF8A08098F800001C
:10331000002849D0DFF89890002799F80000072886
:1033200037D3254E234D75612978AA2931D12C79BF
:10333000A41DA0422DD1601EC1B22846FFF7D4FFC4
:10334000291911F8011C814223D17069C178102913
:1033500003D0202907D1017905E0D0F80510B1612B
:10336000D0F80910F1618078012812D1134C8246FF
:1033700084F811A0B069A0600546F169616001F0B0
:10338000CBFDE0600E48854202DD84F800A000E03D
:10339000277088F8007089F80070BDE8F04719229E
:1033A00004490848FFF714BABDE8F0870000002080
:1033B000010000208411002080000020FC2100205A
:1033C000CDCCCC3DF41300202DE9F84F0546DDF8B7
:1033D00028900F4616461C46AA464FF00008DFF814
:1033E000C0B01BE0B8F1000F1DD0BBF80000001BFF
:1033F000A84216DBBBF80200001BB84211DB4FF0FD
:103400000008202C3ED0182C43D04B46324639467B
:103410002846FEF7B1F8B61C281985B23278002A82
:10342000E0D1BDE8F88FBBF80000A0EB5400A84243
:10343000F7DBBBF80200001BB842F2DB802A02D99E
:103440004FF00108EAE70D2A0BD0182C0ED31823F1
:1034500039462846CDF80090FFF7E2FC0C35ADB2B6
:103460000EE0381987B25546761C09E023463946E6
:103470002846CDF80090FFF7D3FC05EB540085B249
:10348000761CCBE74B46324639462846FEF756F9BE
:10349000C1E74B46324639462846FEF7DDF8BAE723
:1034A0004C220020012000F019FEFBE710B550204F
:1034B00080F31188BFF34F8FBFF36F8F01F0D4FB00
:1034C00018B104494FF080500860002080F3118843
:1034D00010BD000004ED00E030B58FB0282105A834
:1034E000FDF734F814216846FDF730F80121059105
:1034F0000804069000240794099102250C950D906C
:103500004FF4E0100E9005A8FEF7C2FD08B1FEF7DB
:1035100030F80F200090019502944FF480600390E2
:10352000049402216846FEF79FFC002801D0FEF7B4
:1035300020F80FB030BD70470148FEF7C6BF00004D
:10354000C4140020F0B50268194C1A4D1A4E4FF001
:103550008047A04205D0B84203D0A84201D0B04273
:1035600003D122F070034A681A43A04205D0B84242
:1035700003D0A84201D0B04203D122F44073CA68FC
:103580001A434B6922F080021A4302608A68C262C1
:103590000A688262A04201D1096901630121416187
:1035A0000169C90703D0016921F001010161F0BD82
:1035B000002C0140000400400008004070B5446A3F
:1035C00020684069C0F3C01094F8411000252129FB
:1035D00004D118B1E584204600F08EF820684069D7
:1035E000C0F3801094F84210222904D118B1E58567
:1035F000204600F05AF8606C40F0100060642046ED
:10360000FFF746F870BD10B50146486A09680968B9
:103610004FF0000389062ED4C38501680C3151E8B0
:10362000002F22F4807241E80024002CF5D10168BB
:10363000143151E8002F22F0010241E80024002C4F
:10364000F5D10168143151E8002F22F0400241E821
:103650000024002CF5D1202180F84210016B0129B3
:1036600009D101680C3151E8002F22F0100241E825
:103670000024002CF5D14363016B012902D0FFF730
:10368000B5F810BD818DFEF7CAFF10BD10B5406AB8
:1036900001214163016B012902D0FFF7A8F810BD99
:1036A000818D4908FEF7BBFF10BD01680C3151E860
:1036B000002F22F4907241E80023002BF5D101681D
:1036C000143151E8002F22F0010241E80023002BC1
:1036D000F5D1016B012909D101680C3151E8002FA6
:1036E00022F0100241E80023002BF5D1202180F8C0
:1036F000421000210163704701680C3151E8002F2E
:1037000022F0C00241E80023002BF5D1202180F8EF
:103710004110704770B5044620680169E26821F4E1
:10372000405111430161A16820690143606901436F
:103730002068C26841F20C639A430A43C260206861
:103740004169A26921F44071114341611E49206819
:10375000884202D1FEF766FC01E0FEF753FC00EB65
:10376000C00101EB0010616864228900B0FBF1F335
:10377000B3FBF2F36FF018067343B0FBF1F5B0FB47
:10378000F1F605EB8305322303EB0515B5FBF2F5E6
:10379000B6FBF2F605F0F00505EB0615B0FBF1F609
:1037A000B0FBF1F0B0FBF2F06FF01801484306EB0C
:1037B000800003EB0010B0FBF2F0216800F00F0076
:1037C0002844886070BD00000038014037B582B0E1
:1037D00004461346039AA262A38500206064222156
:1037E00084F84210E56B1B49A962E56B1A49E9624E
:1037F000E56B1A492963E16B48632168E06B091D99
:10380000FEF716F92068016840680190206948B108
:1038100020680C3050E8001F41F4807140E800122D
:10382000002AF5D12068143050E8001F41F0010152
:1038300040E80012002AF5D12068143050E8001F3B
:1038400041F0400140E80012002AF5D105B0002007
:1038500030BD0000073600088D360008BD35000871
:1038600008B50E4800680168C943C90615D4016847
:10387000406800900948FEF7D3FE09480068406898
:10388000C0F119010748417001210170BDE80840ED
:10389000192205490148FEF79BBF08BDF41300201B
:1038A000801400200000002084110020FEE7490061
:1038B00050EAC12018BF04204A0D18BF40F0010093
:1038C00040F2FF72B2EB515F08BF40F002000128E6
:1038D00008BF052070470907090E002804DB00F126
:1038E000E02080F80014704700F00F0000F1E020A5
:1038F00080F8141D704730380A2801D20120704723
:103900000020704710B5FFF76FF90220FFF734F879
:103910000020FFF719F8034901208870BDE8104026
:1039200000F0DCBEA0000020FFF7ECFF022701241E
:103930000026584D00F044FEA871E97920EA010103
:103940002972E87100292ED0287807287ED2DFE876
:1039500000F00431656A6F7479006A78042903D134
:10396000D00701D0501E6870052904D16878C307BC
:1039700001D1401C6870072904D16878022801D35E
:10398000801E6870062904D16878022801D2801C44
:1039900068706878824201D000F0BEFE287A022862
:1039A00002D0032803D051E02C70AC704EE02F7091
:1039B000AC704BE0072903D1287908B1401E28716B
:1039C000062906D16A792879521E904201DA401CF4
:1039D000287103291CD1287950B101280AD0022866
:1039E0000BD003280CD004280DD005280ED00EE0F3
:1039F0002F700CE00420287009E00320287006E0F6
:103A00000520287003E00620287000E02E70AC70BE
:103A1000012901D12E70AC70AC7017E0012915D1CD
:103A20002E70AC7012E0012910D12C70AC700DE03A
:103A300001290BD12C70AC7008E0012906D12C7043
:103A4000AC7003E0012901D12C70AC70A878E8B10A
:103A50002878072819D2DFE800F004070A0D1013B0
:103A6000160000F0C5F810E000F006F90DE000F0D7
:103A70003FF80AE000F0D2F907E000F07DF904E039
:103A800000F050F901E000F009F8AE70642000F099
:103A90003DFF4FE7A0000020FEF704B838B5002432
:103AA000EF2340F23F12214620460094FFF756F8DC
:103AB000102307A208210A200094FFF785FC0C239D
:103AC00007A228210A200094FFF77EFC38BD0000E1
:103AD000B3E4B5E7BFD8D6C628CABEC0FD290000EA
:103AE000B7B5BBD83A2052455455524E000000009D
:103AF00030B589B00025EF2340F23F122946284611
:103B00000095FFF72BF8102322A208210A20009528
:103B1000FFF75AFC22482349407800EB800001EB74
:103B20008004606801F090F902460B461EA101A8CE
:103B3000FCF7C6FB0C2301AA28210A200095FFF7F9
:103B400043FCA06801F080F902460B461BA101A8C6
:103B5000FCF7B6FB0C2301AA41210A200095FFF7D0
:103B600033FCE06801F09CF9024619A101A8FCF7BA
:103B7000A7FB0C2301AA5A210A200095FFF724FC79
:103B80000C2317A282210A200095FFF71DFC09B023
:103B900030BD0000D7D3D5BECFEAC7E90000000092
:103BA000A0000020FC210020CAE4B3F6B5E7D1B99B
:103BB0003A20252E3266205600000000CAE4B3F6F3
:103BC000B5E7C1F73A20252E3266204100000000FB
:103BD000CAE4B3F6B9A6C2CA3A2025642057000049
:103BE000B7B5BBD83A2052455455524E000000009C
:103BF000F8B50020EF2340F23F1201460090FEF797
:103C0000ADFFFF200090102314A208218020FFF7B1
:103C1000DBFBE02000900C2313A220217820FFF78B
:103C2000D3FB0024134E462504F00100C0EB4010E6
:103C300000EB80000A30610801EB810105EB011106
:103C40007278944201D1012300E00023224600F063
:103C50000FF9641CE4B2042CE6D3F8BDD6F7D5BE48
:103C6000D7B4CCAC00000000A1F120D5FDB3A3D4A3
:103C7000CBD0D000A0000020F8B50026EF2340F202
:103C80003F12314630460096FEF768FF10231BA214
:103C900008210A200096FFF797FB0024194F22E025
:103CA000C4EB0410282101EB40053879844201D18E
:103CB0001F2001E044F20820009005F1180083B2B3
:103CC0004FF4967229461420FEF748FF0D480096DF
:103CD0001030AD1D50F82420A9B20C231E20FFF790
:103CE00073FB641CE4B278798442D9D30A2306A218
:103CF000DC2118460096FFF767FBF8BDD6F7B2CB7C
:103D0000B5A50000A0000020A1FCA1FDD1A1D4F127
:103D1000204F4BBDF8C8EB2052455455524EB7B515
:103D2000BBD8000038B50024EF2340F23F122146F3
:103D300020460094FEF712FF102307A208210A2054
:103D40000094FFF741FB0C2307A228210A200094CE
:103D5000FFF73AFB38BD0000CFB5CDB3BCE0BFD80C
:103D600028CABEC0FD290000B7B5BBD83A205245CD
:103D70005455524E0000000038B50024EF2340F2A5
:103D80003F12214620460094FEF7E8FE102307A2CA
:103D900008210A200094FFF717FB0C2307A2282113
:103DA0000A200094FFF710FB38BD0000B9A6C2CA74
:103DB000B9DCC0ED28CABEC0FD290000B7B5BBD82C
:103DC0003A2052455455524E000000002DE9F84368
:103DD0000546DDE908980F46164644F20820009093
:103DE000A819FC18401E641E82B2A3B239462846A8
:103DF000FEF7B4FE09FB06F96420B9FBF0F082B2CD
:103E0000002A09D0A818401E82B2A3B2394628461B
:103E1000CDF80080FEF7A2FEBDE8F88338B5002497
:103E2000EF2340F23F12214620460094FEF796FE13
:103E3000102307A208210A200094FFF7C5FA0C23DB
:103E400007A228210A200094FFF7BEFA38BD00001F
:103E5000CFB5CDB3C9E8D6C328CABEC0FD2900007E
:103E6000B7B5BBD83A2052455455524E0000000019
:103E70002DE9F04397B006460D4617464C4907EB2F
:103E8000870001EB8004002B01D01F2001E044F2E9
:103E90000820009005F14500804683B206F19000AD
:103EA000814682B229463046FEF758FE1FFA88F353
:103EB0001FFA89F229463046FEF722FE7A1C3DA100
:103EC00013A8FCF7FDF9681D4FF0000881B2771DBB
:103ED000B8B20C2313AACDF80080FFF775FA20784A
:103EE00001281BD020B302282BD035A10BA8FCF74A
:103EF000E7F905F1160081B2B8B20A230BAACDF892
:103F00000080FFF761FA207801281FD0607C00282C
:103F10002CD02DA103A8FCF7D3F92BE0A06800F06A
:103F200093FF02460B462CA10BA8FCF7C9F9E0E76A
:103F3000607C08B12CA100E02DA10BA8FCF7C0F912
:103F4000D7E72DA10BA8FCF7BBF9D2E7E06800F09A
:103F5000A7FF8146606800F077FF02460B4628A164
:103F600003A8CDF80090FCF7ABF903E027A103A864
:103F7000FCF7A6F905F1260081B2B8B20A2303AA1C
:103F8000CDF80080FFF720FA207801280CD14FF4FB
:103F9000FC61207CCDE9000138350A36A9B2B0B207
:103FA00006237D22FFF712FF17B0BDE8F083000063
:103FB000FC210020D7D3D5BE20253032640000007C
:103FC000CDEAB3C900000000A1F1B5E7B3D8D2D162
:103FD000C1ACBDD300000000B3E4B5E7D6D02025C6
:103FE0002E31664100000000BFD5CFD00000000098
:103FF000CEB4C1ACBDD30000B9CAD5CF000000001B
:10400000252E316656207C2025645700A1F0CEB4C1
:10401000C1ACBDD3000000000020401CC0B20A2883
:10402000FBD370474FF49B60FFF733F8052000F097
:104030006DFCFBE7034900220A704A68104448609F
:10404000704700007C1100201CB507480121CDE914
:1040500000100023802205A1074800F0A5FDBDE85F
:104060001C4000F0D1BC000080000020737461721D
:10407000745F7461736B000045460008FDF738FEFD
:10408000FFF72AFAFFF754F8FFF720F8FFF7FCF8DC
:1040900019220C490C48FEF79BFB0B480068C168CD
:1040A00041F01001C160FEF7A5FB00224FF4006152
:1040B0000648FDF708FEFFF7C7FFFFF725F800F0F9
:1040C00015F8FEE784110020F413002000080140D9
:1040D00001460020842900D0C81C704710B5002874
:1040E00000D1012000F012FC002010BD10B500F03E
:1040F0008BFC002010BD7FB504460D466169B4F904
:104100000800002910D0A16971B1FFF7E1FFD4E9DF
:104110000521CDE901210090D4E900102B46226948
:1041200000F074FD039010E0FFF7D2FF03A9CDE982
:104130000001208A2B4682B2D4E9001000F034FD41
:10414000012802D0002004B070BD0398FBE70000F6
:104150002DE9F04104460F46174EF5683068001D02
:1041600000F006FB38B9306890F82C100120884028
:10417000316981433161601C07D137B13168BDE8D5
:10418000F041091D0D4800F03ABB2C4430684460F2
:10419000AC4206D23168B06B091DBDE8F04100F0B9
:1041A00016BB3168706B091D00F011FBB06A8442C8
:1041B00000D2B462BDE8F08118000020E8150020AC
:1041C00070B5044600F028FB1C4DA868401CA86090
:1041D000286810B1686938B10CE02C60A868012823
:1041E00008D100F0F3F805E02868E16AC06A884267
:1041F00000D82C60686A401C6862E06A01212A6964
:104200008140114329610E4900EB800001EB8000E1
:10421000211D00F0F4FA00F01FFB686900280CD0A3
:104220002868E16AC06A884207D206494FF0805088
:104230000860BFF34F8FBFF36F8F70BD1800002071
:104240000C15002004ED00E070B50C4D0C4E11E093
:1042500000F0E2FAF068C468201D00F089FAA8684E
:10426000401EA8606868401E686000F0F5FA2046AD
:1042700000F008F868680028EAD170BD1800002036
:10428000D415002010B5044694F8510000280BD036
:10429000012811D0022814D0502080F31188BFF3D8
:1042A0004F8FBFF36F8FFEE7206B00F0EBFA2046D5
:1042B000BDE8104000F0E6BA2046BDE8104000F02E
:1042C000E1BA10BD4FF440610F48420706D0C01D4F
:1042D00020F007000C49411AC1F540610B4A1060FB
:1042E000002353600144083921F00701183A116096
:1042F0004B600B600B1A4360016040689060506037
:104300004FF0004050617047FC1500206C00002009
:10431000074E4FF08054074DFFF796FF3068012895
:10432000FAD92C60BFF34F8FBFF36F8FF4E7000013
:104330000C15002004ED00E02DE9F0478246DDE990
:1043400008580A9C9946521E206B00EB820020F010
:104350000706700707D0502080F31188BFF34F8FF6
:10436000BFF36F8FFEE7002761B1002023180A5CBE
:1043700083F834200A5C12B1401C1028F6D384F86C
:10438000437001E084F83470072D00D30625E56200
:104390006564A764201D00F017FA04F1180000F00E
:1043A00013FA2461C5F10700A0616462E76484F830
:1043B00050704A465146304600F0F4F82060B8F19B
:1043C000000F01D0C8F80040BDE8F08770B50024A8
:1043D000124D04EB840005EB800000F0EAF9641C48
:1043E000072CF6D30D488C3000F0E3F90B48A030D1
:1043F00000F0DFF90948B43000F0DBF90748C830B5
:1044000000F0D7F90548DC3000F0D3F9034904483F
:104410008C3141631431816370BD00000C150020A4
:104420001800002030B5134900E011460A688242A6
:10443000FBD34B685C18844203D140681844486041
:1044400008460D6844682318AB420DD1094B183B50
:104450001B689A4206D05268224442600A68126879
:10446000026002E0036000E00260814200D0086068
:1044700030BD00006C0000200748416B096800292E
:1044800005D0416BC968C9684968816270474FF0BF
:10449000FF31816270470000180000200948406821
:1044A000401C07D0502080F31188BFF34F8FBFF31B
:1044B0006F8FFEE7502080F31188BFF34F8FBFF35B
:1044C0006F8FFEE7740000202DE9F04105460026BD
:1044D00000F0DEFA324F386808B9FFF7F3FE78696A
:1044E00005424DD18DB1083568070ED005F00700A3
:1044F000C0F108000544680707D0502080F31188F8
:10450000BFF34F8FBFF36F8FFEE7CDB3786885425F
:1045100036D8234918310846046801E0214604468C
:104520006068A84202D220680028F7D13868844227
:1045300026D00E680836206808606068411B102984
:104540000ED96019420707D0502080F31188BFF3BD
:104550004F8FBFF36F8FFEE741606560FFF762FF2B
:1045600061687868401A7860BA68904200D2B86092
:1045700078690143616000202060F868401CF860A1
:1045800000F0E0FB700707D0502080F31188BFF3E4
:104590004F8FBFF36F8FFEE73046BDE8F08100001C
:1045A0005400002020384FF08073C36121F00101D6
:1045B00081610249416140F8202970479D4400080B
:1045C00070B500241A4D08212846FDF775FBF8B197
:1045D000184E04213046FDF76FFBD8B10821304654
:1045E000FDF76AFBC0B140213046FDF765FBA8B17D
:1045F00080213046FDF760FB90B110213046FDF779
:104600005BFB78B169152846FDF756FB60B10CE0FD
:1046100007240AE0022408E0032406E0052404E05D
:10462000062402E0042400E00124204670BD0000BE
:10463000000C014000100140FEF764FE0A2000F06B
:1046400065F9F9E77CB500F0E7F814480325CDE9F2
:1046500000500023802212A1154800F0A5FA0F4C4B
:10466000241FE06004F10800CDE9005000238022FF
:1046700010A1134800F098FA206100200221CDE932
:1046800000100346CA010FA1134800F08DFA00F094
:10469000E3F82068BDE87C4000F060B984000020A9
:1046A0006C765F64656D6F5F7461736B0000000012
:1046B0002540000872733438355F7461736B0000F5
:1046C000394600086368617267696E675F75695F84
:1046D0007461736B000000002939000870B50C4E3E
:1046E0000020B08100240B4D04EB840015F820104D
:1046F000012907D105EB8000C06800F0EDFBB1890E
:104700000844B081641CE4B2042CEDD370BD0000F9
:10471000A0000020FC2100202DE9F0410446134DAB
:10472000EA7802F00100C0EB401000EB80060A3688
:10473000500800EB8000462707EB001100233046AD
:10474000FFF796FB04F00100C0EB401000EB800681
:104750000A36600800EB800007EB001101232246B7
:104760003046FFF785FBEC70BDE8F081A00000202B
:104770000169D0E901329A60D0E901235A604A68A0
:10478000824201D182684A60002202610868401EAC
:104790000860086870470000034B036003F1540091
:1047A0000860802010607047A01100200120FFF7F2
:1047B00041BC00F1080141604FF0FF328260C160EE
:1047C000016100210160704700210161704730B52F
:1047D0000C68621C02D000F1080202E0026904E0E9
:1047E0001A4653681D68A542FAD953684B60996010
:1047F0008A60516008610168491C016030BD4268EF
:104800004A6093688B6093685960916008610168A1
:10481000491C016070470000502080F31188BFF3ED
:104820004F8FBFF36F8F0A494868401C48600128CA
:104830000CD10848006810F0FF0F07D0502080F31B
:104840001188BFF34F8FBFF36F8FFEE770470000F3
:104850007400002004ED00E009494868002806D0F3
:10486000401E4860002801D180F311887047502015
:1048700080F31188BFF34F8FBFF36F8FFEE7000007
:104880007400002070B500282AD008380446154D61
:1048900060686969084207D1502080F31188BFF32E
:1048A0004F8FBFF36F8FFEE722683AB1502080F33D
:1048B0001188BFF34F8FBFF36F8FFEE788436060AF
:1048C00000F0E6F860686968084468602046FFF711
:1048D000A9FD2869401C2861BDE8704000F032BA8B
:1048E00070BD0000540000204FF0E0200021016165
:1048F000816105494FF47A720968B1FBF2F1491EF2
:1049000041610721016170471400002010B5024683
:104910000020002A12D00F48006B38B1502080F3DD
:104920001188BFF34F8FBFF36F8FFEE700F0B0F831
:1049300000211046FFF70CFC00F004FA002807D114
:1049400005494FF080500860BFF34F8FBFF36F8F62
:1049500010BD00001800002004ED00E070B5044612
:10496000FFF75AFF254D04B92C68201DFFF700FF03
:1049700058B9E06A224A00EB800152F8211021B9AF
:1049800001218140286988432861A06A18B104F197
:104990001800FFF7EDFE686A401C686228688442D0
:1049A00008D11748211DC830FFF729FF6868401C4F
:1049B000686007E0A868401EA8602046FFF762FC18
:1049C000FFF75AFDFFF748FF6869002814D02868F0
:1049D000844211D1286B38B1502080F31188BFF385
:1049E0004F8FBFF36F8FFEE706494FF0805008608E
:1049F000BFF34F8FBFF36F8F70BD00001800002012
:104A00000C15002004ED00E010B586B000240594DC
:104A1000049403AA04A905A8FFF7BEFEDDE904106B
:104A2000CDE900410290002315A11748039A00F038
:104A3000EDF81649C86208B1012000E00020012805
:104A400009D0401C19D1502080F31188BFF34F8F3B
:104A5000BFF36F8FFEE7502080F31188BFF34F8FB5
:104A6000BFF36F8F4FF0FF30886201204861CC6048
:104A700006B0BDE8104000F043B806B010BD00001D
:104A800049444C4500000000114300081800002074
:104A90000248016B491C01637047000018000020A8
:104AA000154A106B002802D00120D0617047002009
:104AB000D0611069B0FA80F0C0F11F000F4900EB1F
:104AC000800051F8203073B101EB800041684968E3
:104AD000416000F10803994201D149684160406892
:104AE000C06810607047502080F31188BFF34F8F6B
:104AF000BFF36F8FFEE70000180000200C150020A8
:104B00001CB5264908780190FF20087008780090AD
:104B10009DF800009DF8002000F0F000904207D0C2
:104B2000502080F31188BFF34F8FBFF36F8FFEE7E4
:104B30009DF800001A4C00F0500020700720A06083
:104B400006E0A068401EA0609DF8000040000090B4
:104B50009DF800000006F4D4A068032807D0502078
:104B600080F31188BFF34F8FBFF36F8FFEE74FF4D1
:104B70004070A060019808700A48016841F4700113
:104B80000160016841F070410160FFF7ADFE002057
:104B90006060FBF73BFB00201CBD000000E400E070
:104BA0007400002020ED00E02DE9FF5F8146DDE983
:104BB0000E788A4616469B46B000FFF785FC0546F0
:104BC00028000AD05420FFF77FFC04460CB125636F
:104BD00004E02846FFF756FE00E000249CB10020C8
:104BE00084F85100CDE90240CDE900785B463246B9
:104BF00051464846FFF7A0FB2046FFF7E1FA0120A7
:104C000004B0BDE8F09F4FF0FF30F9E7F0B585B094
:104C10000746DDE90A600C9C002815D0E4B1542554
:104C200003952063022084F85100002004ADCDE9F3
:104C30000240CDE900653846FFF77EFB2046FFF7CE
:104C4000BFFA049805B0F0BD502080F31188BFF37F
:104C50004F8FBFF36F8FFEE7502080F31188BFF3B3
:104C60004F8FBFF36F8FFEE72DE9F0410026334FE2
:104C7000386B002807D0B869401CB861FFF796FD73
:104C80003046BDE8F081FD686D1CFD609DB9786B14
:104C9000006838B1502080F31188BFF34F8FBFF305
:104CA0006F8FFEE7786BB96B7963B863386A401C25
:104CB0003862FFF7E1FBB86ADFF8848085420DD3E4
:104CC000786B006838B1786BC068C46860688542EA
:104CD00010D2B86202E04FF0FF30B8623868C06AA4
:104CE00000EB800058F82000012800D90126B8699F
:104CF000E8B11EE0201DFFF73BFDA06A18B104F1EA
:104D00001800FFF735FDE06A01213A69814011433F
:104D1000396100EB800008EB8000211DFFF76FFD7B
:104D2000E06A3968C96A8842CAD30126C8E7FFF732
:104D30003DFDF8690028A3D00126A1E71800002056
:104D40000C1500202DE9F041002400272D4D286B83
:104D5000002807D0FFF760FD286B401E2863286BF2
:104D600040B14AE0502080F31188BFF34F8FBFF36A
:104D70006F8FFEE7A868E8B3DFF88C8001261EE09D
:104D8000D8F80C00C46804F11800FFF7F1FC201DEE
:104D9000FFF7EEFCE06A2A6906FA00F11143296187
:104DA000194900EB8000B43901EB8000211DFFF7A9
:104DB00026FDE06A2968C96A884200D3EE61D8F806
:104DC00000000028DCD10CB1FFF756FBAC6944B100
:104DD000FFF74AFF00B1EE61641E002CF8D10020FD
:104DE000A861E86930B10127084938070860BFF3B6
:104DF0004F8F00E001E0BFF36F8FFFF72DFD3846C6
:104E0000BDE8F08118000020C015002004ED00E08E
:104E100010B500290AD00878002807D00548784442
:104E2000FBF7BCFB002801D0002010BD02487844ED
:104E300010BD0000AE1B0000A61B00000808A0F576
:104E400000114FEA3101704743004FEAD30C4FEA9B
:104E50003C0C43401FBF40070CF1605113F0FE4F64
:104E600070471CF0006F03D100200CF00041704728
:104E70000CF0004343EA507010B540EACC0000F05B
:104E8000CCF800BF000000924FEA0001FFF7D6BF48
:104E90004FF000414FF00000A1F5002170470000E5
:104EA00041000B0ED3F19E0208D950F400034FEAE3
:104EB000032323FA02F048BF4042704710B500F0C8
:104EC000ACF800BF49922480002070476FF0004288
:104ED00082EA200070470000C10DD1F19E0206DB7E
:104EE0004FEA002343F0004323FA02F070470042E8
:104EF00007D54FEA4001B1F1FE4F02D24FF000005A
:104F0000704710B500F089F849922480002070475E
:104F10006FEA2000704700004FF47F0C1CEAD012AB
:104F20001EBF1CEAD11392EA0C0F93EA0C0F00F09B
:104F3000478090EA010F48BF42F480724FF0004C66
:104F40004CEA00204CEA012102EB0302A0FB011312
:104F5000A2F50002002918BF43F001035B0028BF3F
:104F60004FEA330342EB22425FEA132C4CEBC25070
:104F70002EBFBCEB436FB2F57C0F70474FEA036C5A
:104F8000BCF1004F08BF20F00100B2F57C0F38BF24
:104F900070470BD582F0FF0212F5803FC8BF704703
:104FA00000F1C040D8BF00F00040704700F5000C91
:104FB0005FEA4C0C48BF7047B0F1C04000F073B8D6
:104FC00090EA010F0CEAD11348BF42F480726245A7
:104FD00038BF634504D280EA010000F0004070470A
:104FE00010B500F01AF800BF8900013E00F007B8C4
:104FF00000F009B85FEA410C5FEA1C6C08D080EA57
:10500000010000F050B85FEA400C5FEA1C6CF6D17A
:105010004FF00040A0F5800070470EF1020E2EF018
:10502000030E5EF8044B244204D44FEA4102B2F16D
:105030007F4F11D84FEA4003B3F17F4F0CD80ED108
:105040004FEAD07CB2F17F4F0CEB4C0C0CF1020C10
:1050500008BF4CEBD17C04E04FF0080C01E04FEAB4
:10506000D17C0CEB4C0324FA03F404F00704B4F1F4
:10507000040C06D20EEB840CBDE810404CF0010C81
:105080006047DFE80CF0070802024FF00040A0F58F
:10509000800010BD0846420018BFD2F1807288BF60
:1050A00000F0004010BDFF2141EAD050C00570471C
:1050B000FBF7E9BB60690008A534000800000000A8
:1050C0000000000080000000000000000000000060
:1050D000010202030405060708090A0B0C0D0E0F56
:1050E0001010000000000000000001020304060789
:1050F0000809000000000102030400000000000095
:10510000000000000000000000003F400000000020
:1051100000000000300040003000400000000900A6
:105120000BC03D000BC03D00090018C024407FE0CB
:10513000224031800000180024C01B000D80324046
:10514000018003801C4027401C8007400040100065
:1051500060000000000000000000000000000000EF
:105160001F80204040200000402020401F80000081
:105170000000090006001F8006000900000004006E
:1051800004003F80040004000000001000600000E4
:1051900000000000000004000400040004000400FB
:1051A000000000000040000000000000000000209F
:1051B00001C006003800400000001F802040204051
:1051C00020401F800000000010403FC00040000051
:1051D000000018C0214022402440184000001080E8
:1051E0002040244024401B80000002000D001100DC
:1051F0003FC0014000003C802440244024402380E4
:1052000000001F8024402440344003800000300010
:10521000200027C03800200000001B8024402440CC
:1052200024401B8000001C0022C0224022401F801E
:105230000000000000000840000000000000000026
:1052400000000460000000000000000004000A00EC
:1052500011002080404009000900090009000900F0
:10526000000000004040208011000A0004001800E7
:10527000200023402400180000001F802040274009
:1052800029401F400000004007C039000F0001C046
:10529000004020403FC0244024401B8000001F806D
:1052A0002040204020403080000020403FC020406F
:1052B00020401F80000020403FC024402E4030C0CE
:1052C000000020403FC024402E00300000000F00AE
:1052D0001080204022403380020020403FC0040064
:1052E00004003FC02040204020403FC020402040DC
:1052F00000000060202020203FC02000200020402F
:105300003FC024400B0030C0204020403FC0204020
:105310000040004000C03FC03C0003C03C003FC014
:10532000000020403FC00C4023003FC020001F80F1
:105330002040204020401F80000020403FC02440EB
:105340002400180000001F802140214020E01FA001
:10535000000020403FC02440260019C0004018C073
:1053600024402440224031800000300020403FC0D3
:1053700020403000000020003F80004000403F807F
:10538000200020003E0001C0070038002000380047
:1053900007C03C0007C038000000204039C00600AC
:1053A00039C0204000002000384007C038402000AD
:1053B0000000304021C02640384020C000000000DE
:1053C00000007FE0402040200000000070000C0042
:1053D0000380004000000000402040207FE00000EB
:1053E000000000002000400020000000000000102D
:1053F000001000100010001000100000000040001D
:10540000000000000000000002800540054003C0CD
:10541000004020003FC00440044003800000000022
:105420000380044004400640000000000380044064
:1054300024403FC000400000038005400540034079
:105440000000000004401FC0244024402000000051
:1054500002E0055005500650042020403FC00440A3
:10546000040003C000400000044027C000400000CA
:10547000000000100010041027E000000000204091
:105480003FC00140070004C00440204020403FC00E
:1054900000400040000007C0040007C0040003C033
:1054A0000000044007C00440040003C000400000A6
:1054B00003800440044003800000041007F00450FF
:1054C000044003800000000003800440045007F003
:1054D0000010044007C00240040004000000000067
:1054E00006400540054004C00000000004001F8085
:1054F000044000400000040007800040044007C052
:1055000000400400070004C00180060004000600FB
:1055100001C0070001C006000000044006C00100F1
:1055200006C0044000000410071004E001800600DB
:1055300004000000044005C00640044000000000D4
:10554000000004007BE0402000000000000000009C
:10555000FFF000000000000040207BE0040000009D
:1055600000004000800040002000200040000000BB
:10557000000000000000000000000000000000002B
:10558000000000001FCC000C000000000000000024
:1055900008003000600008003000600000000220B9
:1055A00003FC1E20022003FC1E200220000000003D
:1055B0000E1811043FFF10840C78000000000F004B
:1055C00010840F3800C00778188400780000007835
:1055D0000F8410C411240E9800E400840008080011
:1055E00068007000000000000000000000000000E3
:1055F0000000000007E0181820044002000000002E
:1056000040022004181807E00000000000000240DB
:10561000024001800FF00180024002400000008043
:10562000008000800FF800800080008000000001F2
:10563000000D000E0000000000000000000000004F
:1056400000800080008000800080008000800000DA
:10565000000C000C00000000000000000000000032
:1056600000060018006001800600180020000000FD
:1056700007F0080810041004080807F000000000F4
:10568000080408041FFC00040004000000000000DF
:105690000E0C10141024104411840E0C0000000095
:1056A0000C1810041104110412880C700000000082
:1056B00000E00320042408241FFC00240000000054
:1056C0001F9810841104110410881070000000004D
:1056D00007F0088811041104188800700000000009
:1056E0001C00100010FC13001C0010000000000043
:1056F0000E3811441084108411440E38000000004C
:105700000700088C10441044088807F000000000CF
:1057100000000000030C030C00000000000000006B
:105720000000000101060000000000000000000071
:10573000008001400220041008081004000002202C
:10574000022002200220022002200220000000008D
:10575000100408080410022001400080000000002E
:105760000E001200100C106C10800F00000003E0FF
:105770000C1813E4142417C4082807D000000004F0
:10578000003C03C41C40074000E4001C000410045B
:105790001FFC1104110411040E880070000003E0C6
:1057A0000C1810041004100410081C100000100441
:1057B0001FFC100410041004080807F00000100477
:1057C0001FFC1104110417C4100408180000100471
:1057D0001FFC1104110017C010000800000003E0B6
:1057E0000C181004100410441C7800400000100431
:1057F0001FFC10840080008010841FFC1004000037
:10580000100410041FFC100410040000000000032A
:105810000001100110011FFE100010000000100414
:105820001FFC110403801464181C100400001004F1
:105830001FFC1004000400040004000C000010040D
:105840001FFC1F0000FC1F001FFC100400001004C0
:105850001FFC0C04030000E010181FFC100007F0F0
:105860000808100410041004080807F000001004D1
:105870001FFC10841080108010800F00000007F0C3
:10588000081810241024101C080A07F20000100445
:105890001FFC1104110011C011300E0C0004000097
:1058A0000E1C11041084108410441C3800001800D1
:1058B000100010041FFC100410001800000010005D
:1058C0001FF810040004000410041FF8100010005A
:1058D0001E0011E0001C007013801C0010001FC08F
:1058E000103C00E01F0000E0103C1FC0000010044E
:1058F000180C163401C001C01634180C1004100026
:105900001C00130400FC13041C0010000000080419
:10591000101C1064108413041C04101800000000F4
:10592000000000007FFE4002400240020000000034
:1059300030000C0003800060001C00030000000029
:105940004002400240027FFE000000000000000014
:105950000000200040004000400020000000000146
:105960000001000100010001000100010001000030
:105970004000400020000000000000000000000087
:105980000098012401440144014400FC000410007B
:105990001FFC008801040104008800700000000062
:1059A0000070008801040104010400880000000068
:1059B000007000880104010411081FFC00040000AD
:1059C00000F8014401440144014400C80000000003
:1059D000010401040FFC110411041100180000005F
:1059E00000D601290129012901C90106000010047E
:1059F0001FFC008401000100010400FC0004000001
:105A00000104190419FC0004000400000000000057
:105A1000000300010101190119FE0000000010043B
:105A20001FFC0024004001B4010C01040000000030
:105A3000100410041FFC0004000400000000010416
:105A400001FC0104010001FC0104010000FC01044F
:105A500001FC008401000100010400FC00040000BE
:105A600000F8010401040104010400F80000010130
:105A700001FF00850104010400880070000000009F
:105A80000070008801040104010501FF0001010408
:105A9000010401FC008401040100018000000000F9
:105AA00000CC0124012401240124019800000000FD
:105AB0000100010007F801040104000000000100DA
:105AC00001F8000400040004010801FC00040100C6
:105AD00001800170000C001001600180010001F0E4
