:020000040800F2
:10000000F047002061020008171B0008E5140008F3
:10001000151B0008D3040008391F00080000000069
:10002000000000000000000000000000C9010008FE
:1000300019050008000000000D0200083D1B000823
:100040007B0200087B0200087B0200087B0200089C
:100050007B0200087B0200087B0200087B0200088C
:100060007B0200087B0200087B0200087B0200087C
:100070007B0200087B0200087B0200087B0200086C
:10008000D5040008E10400087B0200087B02000898
:100090007B0200087B0200087B0200087B0200084C
:1000A0007B020008C91B00087B0200087B020008D5
:1000B0007B0200087B0200087B0200087B0200082C
:1000C0007B0200087B0200087B0200087B0200081C
:1000D0007B0200087B020008F11E00087B0200087A
:1000E0007B0200087B0200087B02000800F002F897
:1000F00000F05AF80AA090E8000C82448344AAF168
:100100000107DA4501D100F04FF8AFF2090EBAE865
:100110000F0013F0010F18BFFB1A43F0010318473B
:100120008CBF0100ACBF01000A444FF0000C10F876
:10013000013B13F0070408BF10F8014B1D1108BF65
:1001400010F8015B641E05D010F8016B641E01F805
:10015000016BF9D113F0080F1EBF10F8014BAD1C55
:100160000C1B09D16D1E58BF01F801CBFAD505E073
:1001700014F8016B01F8016B6D1EF9D59142D6D3CD
:10018000704700000023002400250026103A28BFF5
:1001900078C1FBD8520728BF30C148BF0B607047F9
:1001A0001FB51FBD10B510BD00F059F91146FFF77E
:1001B000F7FF12F03BFB00F077F903B4FFF7F2FF13
:1001C00003BC00F07FF90000224B19680868B0E812
:1001D000F00F80F30988BFF36F8F4FF0000080F3BA
:1001E00011884EF00D0E70470000000006480068B0
:1001F000006880F3088862B661B6BFF34F8FBFF323
:100200006F8F00DF00BF00BF08ED00E0EFF3098053
:10021000BFF36F8F0F4B1A6820E9F00F106008B51D
:100220004FF0500080F31188BFF34F8FBFF36F8FF3
:1002300014F010FB4FF0000080F31188BDE8084077
:1002400019680868B0E8F00F80F30988BFF36F8F72
:10025000704700BF1C000020EFF3058070470000CE
:100260000948804709480047FEE7FEE7FEE7FEE74A
:10027000FEE7FEE7FEE7FEE7FEE7FEE70448054986
:10028000054A064B70470000C71B0008ED00000838
:10029000F0410020F0470020F0430020F043002010
:1002A00040EA0103024630B59B0710D14FF00134FC
:1002B00000E008C208C91D1B9D4315EAC41FF8D001
:1002C00013F0FF0102F8011B0DD01B0AF8E711F82B
:1002D000013B002B02F8013B05D011F8013B002B3C
:1002E00002F8013BF3D130BD10B5431C02E010F819
:1002F000011B71B18107FAD14FF0013202C88C1A8B
:100300008C4314EAC211F9D0C01A0A0603D0C01EE9
:1003100010BDC01A10BD0A0401D0801E10BD090214
:10032000FCD0401E10BD10B5203AC0F00B80B1E8E3
:100330001850203AA0E81850B1E81850A0E818501A
:10034000BFF4F5AF5FEA027C24BFB1E81850A0E823
:10035000185044BF18C918C0BDE810405FEA827C3D
:1003600024BF51F8043B40F8043B08BF7047D20754
:1003700028BF31F8023B48BF11F8012B28BF20F8F5
:10038000023B48BF00F8012B70474FF0000200B558
:10039000134694469646203922BFA0E80C50A0E8A8
:1003A0000C50B1F12001BFF4F7AF090728BFA0E856
:1003B0000C5048BF0CC05DF804EB890028BF40F822
:1003C000042B08BF704748BF20F8022B11F0804F64
:1003D00018BF00F8012B70474FF0013C50F8042B78
:1003E00051F8043B9A4221D1A2EB0C03934313EA48
:1003F000CC1317D150F8042B51F8043B9A4215D175
:10040000A2EB0C03934313EACC130BD150F8042B4B
:1004100051F8043B9A4209D1A2EB0C03934313EA2F
:10042000CC13DBD04FF00000704700BFD01A01BAE8
:10043000B1FA81F101F0180122FA01F0CB40C1F1CB
:100440002001DBB2C0B2C01A2CFA01F3D11A9143D9
:1004500011EAC311E6D1704770477047704775467F
:1004600000F02CF8AE4605006946534620F0070020
:10047000854618B020B5FFF701FFBDE820404FF0DA
:1004800000064FF000074FF000084FF0000B21F07E
:100490000701AC46ACE8C009ACE8C009ACE8C0094B
:1004A000ACE8C0098D46704710B50446AFF3008034
:1004B0002046BDE81040FFF780BE000000487047AE
:1004C0008C41002001491820ABBEFEE72600020047
:1004D0007047FEE7014800F045B80000DC0100204D
:1004E000014800F03FB800009801002030B590F8B6
:1004F00040500124AC40C56B6C6004686360436885
:10050000102B04D0036899600068C26030BD036896
:100510009A600068C16030BD704772B6FEE710B5E2
:1005200090F821100022022905D00421816380F86F
:100530002020012010BD01680B6823F00E030B6022
:1005400001680B6823F001030B6090F84030C46B26
:10055000012101FA03F3636080F8211080F8202064
:10056000104610BD2DE9F05FC16B0A6801680B6889
:10057000046C4FF0040A0AFA04FA4E4D4E4E4F4FE7
:10058000DFF83CC1DFF83C81DFF83C911AEA020F4A
:1005900031D05FEA437A2ED50A68920603D40A68FE
:1005A00022F004020A600168A94201D1042119E085
:1005B000B14201D1402115E0B94202D14FF480612E
:1005C00010E0614502D14FF480410BE0414502D17A
:1005D0004FF4802106E0494502D14FF4800101E04B
:1005E0004FF08061334A083A5160C16A00295FD0F8
:1005F000BDE8F05F08474FF0020E0EFA04FE1EEA57
:10060000020F4FF0000A4FF0010B35D05FEA837EF6
:1006100032D50A68920605D40A6822F00A020A60F6
:1006200080F821B00168A94201D1022119E0B1424C
:1006300001D1202115E0B94202D14FF4007110E040
:10064000614502D14FF400510BE0414502D14FF416
:10065000003106E0494502D14FF4001101E04FF0AE
:100660000071144A083A516080F820A0816A00297C
:100670001ED0BDE8F05F08470825A540154217D0F9
:100680001A0715D50A6822F00E020A6090F8401089
:10069000C26B0BFA01F15160C0F838B080F821B09C
:1006A00080F820A0016B002902D0BDE8F05F084768
:1006B000BDE8F09F080002401C00024030000240EC
:1006C00044000240580002406C00024030B500284F
:1006D00027D0001D144A50F8041C14230A44B2FB0E
:1006E000F3F29200C263114A8263022242770A68DF
:1006F00043F6F0739A43D0E900342343D0E902452E
:100700002C432343046923434469234384692343DB
:1007100013430B60002141630122427701770020DF
:1007200030BD012030BD0000F8FFFDBF00000240D9
:1007300070B50446002594F8200001280CD0012053
:1007400084F8200094F821600020012E06D084F85F
:1007500020000225284670BD022070BD022684F8C4
:100760002160A0632068066826F001060660204626
:10077000FFF7BCFEE06A28B12068016841F00E0175
:10078000016009E02068016821F00401016020682F
:10079000016841F00A0101602068016841F001012F
:1007A0000160D7E770B5044600F00EF90546601CFD
:1007B00002D004480078044400F006F9401BA0422F
:1007C000FAD370BD0C0000202DE9F84F002400235F
:1007D000DFF8C4914FF00F08A9F1040B09F1040AE6
:1007E000ABF1040ED1E00127A7403A40BA4275D1DF
:1007F000DFF8A8C14D68A5EB0C0665452BD00DDCD4
:10080000032D34D005DC35B3012D19D0022D2FD1A5
:100810001BE0112D16D0122D2AD119E0B6F5881F34
:1008200019D006DCB6F5803F15D0B6F5801F1FD174
:1008300011E0B6F5001F0ED0B6F5041F18D10AE07E
:10084000CB6815E0CB681B1D12E0CB6808330FE0C6
:10085000CB680C330CE08B6823B1012B04D0082348
:10086000476105E0042303E00823076100E000235B
:10087000FF2A01D8054601E000F1040502D84FEA3D
:10088000840603E0A4F108064FEA86062F6808FAFA
:1008900006FC27EA0C0703FA06F647EA06072F606C
:1008A0004D68ED0070D53E4DAE6946F00106AE6173
:1008B000AD6905F0010500953A4D24F0030677195E
:1008C000BE68A5072D0F08FA05FC26EA0C06DFF81E
:1008D000D8C0604503D14FF0000C17E054E0DFF8BA
:1008E000CCC0604502D14FF0010C0FE0DFF8C0C072
:1008F000604502D14FF0020C08E0DFF8B8C0604557
:1009000002D14FF0030C01E04FF0040C0CFA05FC8F
:100910004CEA060CC7F808C04D68ED0205D5D9F8B9
:1009200000501543C9F8005004E0D9F80050954331
:10093000C9F800504D68AD0205D5DAF800501543EE
:10094000CAF8005004E0DAF800509543CAF80050A5
:100950004D68AD0305D5DBF800501543CBF80050CA
:1009600004E0DBF800509543CBF800504D68ED03F0
:1009700005D5DEF800501543CEF8005004E0DEF84F
:1009800000509543CEF80050641C0A6832FA04F512
:100990007FF429AFBDE8F88F080401400000111072
:1009A000001002400000014000080140000C01401E
:1009B0000010014000140140002A01D0016170477D
:1009C0000904016170470000014880687047000019
:1009D0000C00002002488168027811448160704751
:1009E0000C00002010B50748016841F010010160BB
:1009F000032000F0A1F80F2000F006F800F04AF8FC
:100A0000002010BD0020024030B587B005461C48CC
:100A1000816941F400618161806900F400600090A7
:100A200001A902A800F044F900F076F91549B0FBDD
:100A3000F1F1491E1548144A026040F2E732C260E3
:100A40004160002202618260826100F05FFB044627
:100A500094B90E4800F080FB04466CB9192000F0F0
:100A60003DF8102D07D200222946192000F044F845
:100A70000748056000E0012407B0204630BD0000B3
:100A80000010024040420F00002C014020020020D4
:100A90001000002008B50F48816941F00101816113
:100AA000816901F001010091C16941F08051C1618A
:100AB000C06900F08050009000220F21901E00F0CD
:100AC0001BF80549486820F0E06040F0007048607D
:100AD00008BD00000010024000000140002809DBB2
:100AE00000F01F02012191404009800000F1E02048
:100AF000C0F8001170470000F0B40D460D4B1B68A4
:100B0000C3F30223C3F10704042C00D90424191DE4
:100B1000072901D2002300E0DB1E012606FA04F1BA
:100B2000491E294099409E40761E16403143F0BC34
:100B300001F003BA0CED00E000F00701054A10686F
:100B40004FF6FF03184040EA0120034908431060B4
:100B5000704700000CED00E00000FA052DE9F047B9
:100B600004460D46002C17D0DFF83081D8F800007D
:100B700000F00700A84211D2D8F8000020F00700CA
:100B80002843C8F80000D8F8000000F00700A84289
:100B900004D00120BDE8F0870120FBE72068404E2B
:100BA000810712D5400703D5706840F4E06070609B
:100BB0002078000703D5706840F46050706070685A
:100BC000A16820F0F000084370602078C0072CD0A6
:100BD0006068012806D0022809D0316889070BD443
:100BE0000120D7E73168890306D40120D2E73168B4
:100BF000890101D40120CDE7716821F0030101438F
:100C00007160FFF7E1FE074641F2883906E0FFF721
:100C1000DBFEC01B484501D90320BBE77068616853
:100C200000F00C00B0EB810FF1D1D8F8000000F01B
:100C30000700A8420ED9D8F8000020F0070028438A
:100C4000C8F80000D8F8000000F00700A84201D062
:100C500001209FE72078400705D57068E16820F4FF
:100C6000E060084370602078000706D5706821694D
:100C700020F4605040EAC100706000F05DF87168D7
:100C8000084AC1F30311515CC8400749086007488E
:100C90000068FFF7B9FE00207CE70000002002405A
:100CA00000100240A2490108180000201000002096
:100CB0000F2202600B4A536803F00303436053683A
:100CC00003F0F0038360536803F4E063C360526889
:100CD00002F46052D20802610348006800F0070085
:100CE0000860704700100240002002400148006880
:100CF000704700001800002000B5FFF7F7FF044917
:100D00004968044AC1F30221515CC84000BD00009B
:100D100000100240B249010800B5FFF7E7FF04499F
:100D20004968044AC1F3C221515CC84000BD0000BB
:100D300000100240B24901080E4B59680E4801F0FC
:100D40000C02042A11D0082A0FD10C48C1F38342A7
:100D5000805CC9030AD55968084AC1F34041921E14
:100D6000515C054A5043B0FBF1F0704704494843D9
:100D7000704700000010024000127A0092490108FA
:100D800000093D002DE9F84F0446002C0ED02078D4
:100D9000D94DC0075ED06868C0F3810001280BD030
:100DA0006868C0F38100022803D00CE00120BDE890
:100DB000F88F6868C00306D5286880034AD5606844
:100DC000A8BB0120F3E76068B0F5803F11D0A8B15F
:100DD000B0F5A02F1BD0286820F480302860286848
:100DE00020F480202860606830B3FFF7EDFD0646F0
:100DF0001EE0286840F480302860F4E7286820F47A
:100E000080302860286820F480202860EBE728687C
:100E100040F480202860286840F480302860E2E7B1
:100E2000FFF7D2FD801B642802D90320BFE711E041
:100E300028688003F4D50DE0FFF7C6FD064606E0FE
:100E4000FFF7C2FD801B642801D90320AFE72868A3
:100E50008003F5D42078DFF8A48280074FF0010AE0
:100E60004FF0000945D5686810F00C0F07D068688E
:100E7000C0F38100022812D16868C0030FD428682B
:100E8000800704D52069012801D001208FE7286858
:100E9000616920F0F80040EAC100286029E020697B
:100EA000B8B1C8F800A0FFF78FFD064606E0FFF7CF
:100EB0008BFD801B022801D9032078E72868800772
:100EC000F5D52868616920F0F80040EAC100286083
:100ED0000FE0C8F80090FFF777FD064606E0FFF741
:100EE00073FD801B022801D9032060E72868800772
:100EF000F5D42078000726D58148A16999B1C0F8BA
:100F000000A0FFF761FD064606E0FFF75DFD801BD0
:100F1000022801D903204AE7686A8007F5D5012035
:100F200000F0FAFD0FE0C0F80090FFF74DFD064617
:100F300006E0FFF749FD801B022801D9032036E7B0
:100F4000686A8007F5D42078400773D50026E869E1
:100F5000C00008D4E86940F08050E861E86900F01A
:100F6000805000900126DFF89CB1DBF80000C0053E
:100F700014D4DBF8000040F48070CBF80000FFF7D9
:100F800023FD074606E0FFF71FFDC01B642801D9BB
:100F900003200CE7DBF80000C005F4D5E068012869
:100FA00012D0B0B105281DD0286A20F001002862B7
:100FB000286A20F004002862E06841F2883B28B3E8
:100FC000FFF702FD07461DE0286A40F00100286295
:100FD000F2E7286A20F001002862286A20F0040065
:100FE0002862E9E7286A40F004002862286A40F095
:100FF00001002862E0E7FFF7E7FCC01B584501D974
:101000000320D4E6286A8007F5D50DE0FFF7DCFC65
:10101000074606E0FFF7D8FCC01B584501D903205E
:10102000C5E6286A8007F5D4012E03D1E86920F0CF
:101030008050E861E069A0B36968C1F381010229C9
:1010400046D0022805D0C8F86090FFF7BDFC0446E2
:101050003AE0C8F86090FFF7B7FC064606E0FFF7F5
:10106000B3FC801B022801D90320A0E62868800178
:10107000F5D4206AB0F5803F05D16868A16820F4F6
:10108000003008436860D4E908010843696821F426
:10109000741108436860C8F860A0FFF795FC044627
:1010A00007E026E0FFF790FC001B022801D903208F
:1010B0007DE628688001F5D51BE0FFF785FC001B65
:1010C000022801D9032072E628688001F5D410E0D7
:1010D00001280CD06868226A00F48031914204D162
:1010E000616A00F47010884203D001205FE601209D
:1010F0005DE600205BE60000001002400000424276
:1011000080044242007000407047704710B50446AA
:10111000002C03D094F83D0010B107E0012010BD71
:10112000002084F83C00204600F015F8022084F8E6
:101130003D00211D206800F04DFD01203D3460720E
:101140006070A070E07020716071A071E071207219
:101150002070002010BD704790F83D10012901D08B
:1011600001207047022180F83D100168CA6842F0F2
:101170000102CA6000680E49884208D0B0F1804F71
:1011800005D00C49884202D00B49884209D18168B8
:1011900001F00701062908D0016841F00101016052
:1011A00003E0016841F00101016000207047000088
:1011B000002C0140000400400008004070472DE969
:1011C000F04104462068C56806694FF00007B10782
:1011D00014D5A90712D5F91E0161012020772068D6
:1011E0008069800703D02046FFF7E8FF05E020462E
:1011F00000F081F8204600F07FF82777700717D5B8
:10120000680715D521686FF0040008610220207777
:101210002068806910F4407F03D02046FFF7CEFF9E
:1012200005E0204600F067F8204600F065F82777D3
:10123000300716D5280714D521686FF0080008611B
:10124000042020772068C069800703D02046FFF77C
:10125000B5FF05E0204600F04EF8204600F04CF8BF
:101260002777F00617D5E80615D521686FF010002E
:101270000861082020772068C06910F4407F03D0FF
:101280002046FFF79BFF05E0204600F034F820469B
:1012900000F032F82777F00708D0E80706D0216879
:1012A0006FF001000861204600F028F8300608D5EC
:1012B000280606D521686FF0800008612046FFF7F8
:1012C00023FF700608D5680606D521686FF0400038
:1012D0000861204600F01CF8B0060AD5A80608D51B
:1012E00021686FF0200008612046BDE8F041FFF75B
:1012F0000CBFBDE8F08170477047000000680349EB
:10130000884201D1FFF766BB70470000002C014006
:101310007047704710B5044620684069C0F3C0109C
:1013200094F84110212911D180B12068143050E87F
:10133000001F21F0800140E80012002AF5D1A06BC7
:1013400008B1FFF7ECF8204600F01EFD2068406968
:10135000C0F3801094F84210222911D180B1206886
:10136000143050E8001F21F0400140E80012002A2C
:10137000F5D1E06B08B1FFF7D2F8204600F0DDFCB4
:10138000002010BD704770B50446002C04D094F8BE
:101390004100002510B106E0012070BD84F84050E6
:1013A000204600F023F8242084F841002068C1681A
:1013B00021F40051C160204600F0F4FC206801696E
:1013C00021F4904101612068416921F02A014161C5
:1013D0002068C16841F40051C1606564202084F830
:1013E000410084F842006563002070BDF0B585B00F
:1013F0000446002501950295039504952C49206823
:10140000884253D12B48C16941F40031C161C1699F
:1014100001F400310091816941F00401816180692A
:1014200000F00400009004200190022002900320AC
:101430000490214E01A93046FFF7C6F9082001901B
:101440000295039501A93046FFF7BEF91C4E1B48D3
:10145000306010207060B5608027F760356175617D
:10146000B561F5613046FFF731F908B1FFF755F87E
:10147000A66374621148124E1438443630607560A9
:10148000B560F76035617561B561F5613046FFF7AC
:101490001DF908B1FFF741F8E663746200220521E7
:1014A0002620FFF729FB2620FFF718FB05B0F0BD2B
:1014B000004400400010024000080140800002404B
:1014C0009801002090F84230202B01D00220704774
:1014D00021B11AB10023036300F0C0BC01207047A2
:1014E00070477047FEE7000070B5064600240948C3
:1014F000018845884D430021084600F059F900F065
:1015000025FA03E0304600F0E5F9641CAC42F9D35B
:1015100070BD0000580300202DE9F041F0212C237C
:101520002A252B26304C4FF4A072002806D0012823
:1015300004D0022818D0032816D024E00027A77171
:101540002180628023816581A68130B1362000F040
:1015500085F9C02000F046F915E0362000F07EF94C
:10156000002000F03FF90EE00127A7712280618082
:1015700023816581A68102282FD0362000F06EF9E4
:10158000602000F02FF9608900F068F9002000F079
:1015900029F9002000F026F92088401EC0F30F2012
:1015A00000F020F92078401EC0B200F01BF9A0899D
:1015B00000F054F9002000F015F9002000F012F9B5
:1015C0006088401EC0F30F2000F00CF9A078BDE841
:1015D000F041401EC0B200F005B9362000F03EF9DF
:1015E000A02000F0FFF8CEE75803002010B5144605
:1015F00000F0DEF8034821460089BDE8104000F005
:10160000ABB900005803002070B50122674D940368
:1016100021462846FFF7D0F9012003F056F80022B2
:1016200021462846FFF7C8F90A2003F04EF80122A8
:1016300021462846FFF7C0F9782003F046F811202C
:1016400000F00CF9782003F040F8362000F006F99D
:10165000002000F0C7F83A2000F000F9052000F063
:10166000C1F8B22000F0FAF80C2000F0BBF80C2012
:1016700000F0B8F8002000F0B5F8332000F0B2F820
:10168000332000F0AFF8B72000F0E8F8352000F084
:10169000A9F8BB2000F0E2F8282000F0A3F8C02051
:1016A00000F0DCF82C2000F09DF8C22000F0D6F805
:1016B000012000F097F8C32000F0D0F80B2000F0D4
:1016C00091F8C42000F0CAF8202000F08BF8C62062
:1016D00000F0C4F80F2000F085F8D02000F0BEF82C
:1016E000A42000F07FF8A12000F07CF8E02000F0BA
:1016F000B5F8D02000F076F8012000F073F808204B
:1017000000F070F80F2000F06DF8112000F06AF87A
:101710002A2000F067F8362000F064F8552000F029
:1017200061F8442000F05EF83A2000F05BF80B20EE
:1017300000F058F8062000F055F8112000F052F89B
:10174000202000F04FF8E12000F088F8D02000F0D1
:1017500049F8022000F046F8072000F043F80A207C
:1017600000F040F80B2000F03DF8182000F03AF8A7
:10177000342000F037F8432000F034F84A2000F01D
:1017800031F82B2000F02EF81B2000F02BF81C2045
:1017900000F028F8222000F025F81F2000F022F8A1
:1017A000BDE87040292000F059B80000000C01404D
:1017B00070B504460D460A4E708900F04FF8200AB5
:1017C00000F010F8E0B200F00DF8B08900F046F833
:1017D000280A00F007F8E8B2BDE8704000F002B84F
:1017E000580300202DE9F04705461B4E4FF40048F2
:1017F000002241463046FFF7DFF801225103304610
:10180000FFF7DAF800244FF480594FF6FF772806E7
:1018100005D5012249463046FFF7CEF804E0002204
:1018200049463046FFF7C8F807EA4505002202217D
:101830003046FFF7C1F8012202213046FFF7BCF81D
:10184000641CE4B2082CE2D341463046BDE8F047C0
:101850000122FFF7B1B80000000C01402DE9F0476C
:1018600005461B4E4FF40048002241463046FFF724
:10187000A3F8002271143046FFF79EF800244FF4BD
:1018800080594FF6FF77280605D501224946304694
:10189000FFF792F804E0002249463046FFF78CF843
:1018A00007EA4505002202213046FFF785F80122AC
:1018B00002213046FFF780F8641CE4B2082CE2D322
:1018C00041463046BDE8F0470122FFF775B80000F9
:1018D000000C01402DE9F04705461B4E4FF400482F
:1018E000002241463046FFF767F801225103304697
:1018F000FFF762F800244FF480594FF6FF77280471
:1019000005D5012249463046FFF756F804E000228B
:1019100049463046FFF750F807EA45050022022104
:101920003046FFF749F8012202213046FFF744F81C
:10193000641CE4B2102CE2D341463046BDE8F047C7
:101940000122FFF739B80000000C0140014800896E
:10195000FFF784BF5803002010B50C46FFF77EFF49
:101960002046BDE81040FFF7B5BF000008B50D48A0
:10197000416941F001014161406900F001000090BE
:10198000002205211020FFF7B7F81020FFF7A6F876
:10199000002205211120FFF7AFF8BDE80840112013
:1019A000FFF79CB8001002402DE9F04385B00024F9
:1019B00001940294039404944448816941F0100115
:1019C0008161816901F010010091816941F020017C
:1019D0008161816901F020010091816941F0040178
:1019E0008161816901F004010091816941F0080180
:1019F0008161806900F008000090354F4FF6FF7557
:101A0000002229463846FEF7D7FFDFF8C8800122BA
:101A100048F6B0114046FEF7CFFFDFF8BC90012238
:101A20004FF2AA014846FEF7C7FF00224FF4A0710B
:101A30004846FEF7C1FF0195012502950395022650
:101A4000049601A93846FEF7BFFE48F2B010019097
:101A500002950395049601A94046FEF7B5FE40277E
:101A600001970294039401A94046FEF7ADFE4FF2A0
:101A7000AA10019002950395049601A94846FEF725
:101A8000A3FEE802019002950394049601A9404642
:101A9000FEF79AFE102001900294039401A9484693
:101AA000FEF792FE019702950394049601A9484619
:101AB000FEF78AFE680201900294039501A9484648
:101AC000FEF782FE05B0BDE8F08300000010024082
:101AD0000010014000080140000C014010B50C4806
:101AE0000A4901604FF4E131416000218160C16029
:101AF00001610C2242618161C161FFF744FC002851
:101B000003D0BDE81040FEF708BD10BD0044004002
:101B100050010020FEE7FEE708B507494FF4FA52EE
:101B20000968B1FBF2F14143009100BF0098411EEA
:101B30000091FAD208BD00001800002010B5502016
:101B400080F31188BFF34F8FBFF36F8F12F0B2FE97
:101B500018B104494FF080500860002080F31188CC
:101B600010BD000004ED00E030B58FB0282105A8BD
:101B7000FEF70BFC14216846FEF707FC01210591D6
:101B80000804069000240794099102250C950D90F5
:101B90004FF4E0100E9005A8FFF7F4F808B1FEF737
:101BA000BCFC0F200090019502944FF480600390DC
:101BB000049402216846FEF7D1FF002801D0FEF709
:101BC000ACFC0FB030BD70470148FFF7F8BA000019
:101BD00020020020F0B50268194C1A4D1A4E4FF041
:101BE0008047A04205D0B84203D0A84201D0B042FD
:101BF00003D122F070034A681A43A04205D0B842CC
:101C000003D0A84201D0B04203D122F44073CA6885
:101C10001A434B6922F080021A4302608A68C2624A
:101C20000A688262A04201D1096901630121416110
:101C30000169C90703D0016921F001010161F0BD0B
:101C4000002C0140000400400008004070B5446AC8
:101C500020684069C0F3C01094F841100025212984
:101C600004D118B1E584204600F08EF82068406960
:101C7000C0F3801094F84210222904D118B1E585F0
:101C8000204600F05AF8606C40F010006064204676
:101C9000FFF778FB70BD10B50146486A096809680E
:101CA0004FF0000389062ED4C38501680C3151E83A
:101CB000002F22F4807241E80024002CF5D1016845
:101CC000143151E8002F22F0010241E80024002CD9
:101CD000F5D10168143151E8002F22F0400241E8AB
:101CE0000024002CF5D1202180F84210016B01293D
:101CF00009D101680C3151E8002F22F0100241E8AF
:101D00000024002CF5D14363016B012902D0FFF7B9
:101D1000E7FB10BD818DFFF7FCFA10BD10B5406ADE
:101D200001214163016B012902D0FFF7DAFB10BDED
:101D3000818D4908FFF7EDFA10BD01680C3151E8BB
:101D4000002F22F4907241E80023002BF5D10168A6
:101D5000143151E8002F22F0010241E80023002B4A
:101D6000F5D1016B012909D101680C3151E8002F2F
:101D700022F0100241E80023002BF5D1202180F849
:101D8000421000210163704701680C3151E8002FB7
:101D900022F0C00241E80023002BF5D1202180F879
:101DA0004110704770B5044620680169E26821F46B
:101DB000405111430161A1682069014360690143F9
:101DC0002068C26841F20C639A430A43C2602068EB
:101DD0004169A26921F44071114341611E492068A3
:101DE000884202D1FEF798FF01E0FEF785FF00EB85
:101DF000C00101EB0010616864228900B0FBF1F3BF
:101E0000B3FBF2F36FF018067343B0FBF1F5B0FBD0
:101E1000F1F605EB8305322303EB0515B5FBF2F56F
:101E2000B6FBF2F605F0F00505EB0615B0FBF1F692
:101E3000B0FBF1F0B0FBF2F06FF01801484306EB95
:101E4000800003EB0010B0FBF2F0216800F00F00FF
:101E50002844886070BD00000038014037B582B06A
:101E600004461346039AA262A385002060642221DF
:101E700084F84210E56B1B49A962E56B1A49E962D7
:101E8000E56B1A492963E16B48632168E06B091D22
:101E9000FEF74EFC2068016840680190206948B157
:101EA00020680C3050E8001F41F4807140E80012B7
:101EB000002AF5D12068143050E8001F41F00101DC
:101EC00040E80012002AF5D12068143050E8001FC5
:101ED00041F0400140E80012002AF5D105B0002091
:101EE00030BD0000971C00081D1D00084D1C000897
:101EF00008B50E4800680168C943C90615D40168D1
:101F0000406800900948FFF705FA094800684068F2
:101F1000C0F1070107484170012101700722811CAF
:101F2000BDE808400148FFF7CDBA08BD50010020C8
:101F3000DC01002000000020FEE70907090E002850
:101F400004DB00F1E02080F80014704700F00F007F
:101F500000F1E02080F8141D7047000010B540210A
:101F6000074800F0D5FC00221E21064810F006F8B4
:101F7000054CA06001F09EF90020207010BD00000B
:101F8000C017002065330008C40000202DE9FC4183
:101F900007460D4616463146284600F022F940B164
:101FA00000223146284600F0BCF828B10020BDE8E8
:101FB000FC814FF0FF30FAE70024284607F010F8C4
:101FC000401E0FFA80F8284606F0C5FF401E02B2F8
:101FD0007088B5F90210401A00B200280FDD2B8876
:101FE000ADF80030ADF80210AB88ADF8043008440D
:101FF000ADF8060000983860019801247860B6F9C1
:1020000006006988411A511A09B2002917DDB5F98D
:102010000620904213DA2A88ADF80020ADF80200BD
:10202000AA88ADF804200844ADF80600204607EB66
:10203000C00000990160641C019964B24160B6F966
:102040000200B5F90210884200DC0846B6F9061015
:10205000B5F90620914200DB1146091A09B232880F
:10206000B5F90030D21A12B2002A14DD002912DDAF
:10207000ADF80030ADF802001A44ADF80420421863
:10208000ADF80620224607EBC202009B1360641CD9
:10209000019B64B25360B6F904202B88D31AA8EBD5
:1020A00003031BB2002B12DDADF80020ADF80200D7
:1020B0001A44ADF804200844ADF80600204607EBAA
:1020C000C00000990160641C019964B2416020461F
:1020D0006DE770B5B1F90040B2F900309C4200DD07
:1020E00023460380B1F90240B2F90250AC4200DC51
:1020F0002C464480B1F90460B2F90450AE4200DAD3
:1021000035468580B1F90610B2F90620914200DB10
:102110001146C1800120AB4201DC8C4200DD002071
:1021200070BDF8B504460D4616460020B4F90010FF
:10213000B5F90020914212DBB4F90220B5F9023062
:102140009A420CDBB4F90420B5F904309A4206DC5B
:10215000B4F90620B5F906309A4200DC012088B3B4
:102160008EB3ADF800106088ADF8020032466946C3
:10217000284600F0ACF838B3A088ADF800006088BD
:10218000ADF8020032466946284600F0A0F810B3C8
:102190002088ADF80000E088ADF8020032466946BC
:1021A000284600F094F8C0B1A088ADF80000E0889F
:1021B000ADF8020032466946284600F088F870B152
:1021C0000120F8BD01E002E003E00020F9E7012072
:1021D000F7E70020F5E70020F3E70020F1E7002013
:1021E000EFE7B0F90020B1F904309A4213DCB0F9FE
:1021F0000420B1F900309A420DDBB0F90220B1F9A8
:1022000006309A4207DCB0F90600B1F902108842A4
:1022100001DB0120704700207047F8B504460D46E9
:102220001646B4F90400B5F90010884211DBB4F980
:102230000600B5F9021088420BDBB4F90000B5F9CD
:102240000410884205DCB4F90210B5F90620914269
:1022500001DD0120F8BD66B1ADF800006088ADF881
:10226000020032466946284600F031F818B10020D5
:10227000F8BD0020F8BDA088ADF800006088ADF87A
:10228000020032466946284600F021F808B10020D5
:10229000F8BD2088ADF80000E088ADF802003246B5
:1022A0006946284600F013F808B10020F8BDA08860
:1022B000ADF80000E088ADF80200324669462846D5
:1022C00000F005F808B10020F8BD0120F8BD2DE9A7
:1022D000FC4105460F4614460020B7F90010B5F939
:1022E000002091420EDBB5F9042091420ADCB7F9D7
:1022F0000210B5F90220914204DBB5F906209142A3
:1023000000DC012020B1002C04DC0120BDE8FC81B0
:102310000020FBE7284606F063FE00EBD070461075
:10232000284606F018FE00EBD0704010864200DA16
:102330003046844200DD04462888ADF80000288835
:102340002044ADF804006888ADF802006888204495
:10235000ADF80600002239466846FFF7B8FF70B1B5
:10236000BDF804002044ADF80400BDF80600204488
:10237000ADF80600394668460FF008F9C6E7E88868
:10238000001BADF80200E888ADF8060000223946CF
:102390006846FFF79CFF70B1BDF804002044ADF81B
:1023A0000400BDF80200001BADF802003946684683
:1023B0000FF0ECF8AAE7A888001BADF80000A88889
:1023C000ADF80400002239466846FFF780FF70B17F
:1023D000BDF80000001BADF80000BDF80200001BB6
:1023E000ADF80200394668460FF0D0F88EE76888ED
:1023F000ADF8020068882044ADF806000022394696
:102400006846FFF764FF70B1BDF80000001BADF82F
:102410000000BDF806002044ADF8060039466846C5
:102420000FF0B4F872E7012070E710B5B1F9003091
:10243000B2F90040A34200DB23460380B1F9023029
:10244000B2F90240A34200DB23464380B1F90440C5
:10245000B2F904309C4200DD23468380B1F90610B6
:10246000B2F90620914200DC1146C18010BD000087
:10247000F8B504460FF06EFD074600250095364E70
:102480002CB1E068706020460FF04EFE02E007F0CD
:10249000A1F87060706800690EF0AAFF706840696A
:1024A00008B10EF0A5FF7068C0690EF0A1FF70685A
:1024B000006A0EF09DFF7068016991B10FF0EEF8AF
:1024C00011F0FCF810F034FF7068B0F85011D9B377
:1024D0000068017CC9071DD0C0684068D0B10024E5
:1024E00013E0A0F85051F8BD011991F8301151B91D
:1024F00000F5AC7000F06CFA716801EBC4010A6B76
:102500000260496B4160641CA4B27068B0F850115D
:10251000A142E9D870684FF4807130300BF083FC31
:102520007068202100F598700BF07DFC7068A0F8B1
:10253000505138460FF002FD009070680068436A01
:1025400013B13268009998470BF0FEFA00F030F8AA
:10255000BDE8F84000F002B88800002070B5002403
:10256000084EC4EBC40556F8250008B10BF062FB19
:1025700006EB85001C210BF056FC641CE4B2042C15
:10258000EFD370BD9C180020084949680AE04A68EA
:10259000824202D00A68824203D10A7E42F00102DE
:1025A0000A7649690029F2D1704700005C000020DA
:1025B000704700000421014800F0AAB9B4170020B8
:1025C0001C21014800F0A4B9CC1700202DE9FF41DF
:1025D0000446DDE90A671D460020002D02D1B6F54C
:1025E000807F2BD00090019002900390ADF80410F2
:1025F000ADF80A20ADF80C10ADF80E203B4632467F
:10260000294668460EF01EFF3B463246294601A881
:102610000EF018FF3B463246294602A80EF012FF84
:102620003B463246294603A80EF00CFFBDF90000D8
:10263000BDF90410884209DA054608E02080608070
:10264000491EA180521EE280BDE8FF810D46BDF902
:102650000820BDF90C309A4201DA164600E01E4609
:10266000B54203DA884206DB084604E09A4201DA02
:10267000104600E01846801E2080BDF90020BDF9FC
:102680000400824201DD154600E00546BDF9081050
:10269000BDF90C30994201DD0E4600E01E46B54200
:1026A00003DD824206DD104604E0994201DD084662
:1026B00000E01846801CA080BDF90220BDF906305C
:1026C0009A4201DA154600E01D46BDF90A10BDF92F
:1026D0000E00814201DA0E4600E00646B54205DAF8
:1026E0009A4201DA104604E0184602E0814200DA1C
:1026F0000846801E6080BDF90200BDF90630984290
:1027000001DD054600E01D46BDF90A10BDF90E20A9
:10271000914201DD0E4600E01646B54203DD9842C7
:1027200006DC184604E0914201DD084600E0104650
:10273000801CE08088E70000F7B506461746114C7C
:102740000FF008FC05463B4631462046019A0AF048
:102750004BFB20B10020A062E06948B10CE02C21C5
:1027600020460BF060FB4FF00040A0620020FEBD51
:1027700028460FF0E3FBE061E06908B90120E06161
:102780002046FEBDF017002010B510210C4800F0C7
:10279000BFF80AF0E9FA02468AB10A4910460AF07F
:1027A0009CFB094910460AF09AFB084910460AF0BA
:1027B00098FBBDE81040064910460AF08CBBFEE7C6
:1027C000D8170020E9C60008DDCA0008D1CC0008EF
:1027D000B5C600087FB504460D46002C02D106F0B0
:1027E000F9FE0446002C31D0204606F064FF002894
:1027F0002CD094F82800400728D400263DB3ADF82B
:102800000860ADF80A60204606F0FAFE401EADF8FA
:102810000C00204606F039FF401EADF80E0002AA5B
:1028200029466846FFF755FC00280FD02068017C38
:1028300089070FD5DDE90201C4E90C010120A4F8E4
:1028400050016068002801D00FF07AFC7FBDA4F829
:1028500050617FBD82690AB16946904700250AE050
:1028600004EBC501303100226846FFF75AFC00280E
:10287000EFD16D1CADB2B4F85001A842F0D8B4F855
:102880005001202806D204EBC0003030694606F023
:1028900017FB06E0A4F8506104F1300002A906F02D
:1028A0000FFBB4F85001401CA4F8500160680028E8
:1028B000CFD00FF045FC7FBD70B50646304600F026
:1028C00012F804460CE02146304600F012F80546A6
:1028D0002146304600F0A7F820460BF0ABF92C4615
:1028E000002CF0D170BD002801D040687047002056
:1028F00070470068091D0844006870470068084474
:1029000000687047002801D0806870470020704739
:10291000002242608260C91C21F0030101607047FF
:1029200070B50446206808300BF0F4F805469DB1F8
:1029300000222946204610F0C4FA29462046626843
:1029400010F0B6FA616819B12A46204610F0B9FABB
:102950006560A06800B9A560284670BD2DE9F0410A
:1029600006460D46002E0BD055B13046FFF7BBFF93
:10297000A8420AD13046FFF7D3FF04461CB123E03A
:102980000020BDE8F0810020FBE7306808300BF044
:10299000C1F80446D4B129463046FFF7AFFF0746D9
:1029A00022463946304610F083FA3A4621463046F0
:1029B00010F087FA22462946304610F082FA2A465D
:1029C0002146304610F074FA2046DAE70020D8E7B6
:1029D00070B50446206808300BF09CF805469DB1A0
:1029E00000222946204610F063FA29462046A268B4
:1029F00010F067FAA16819B12A46204610F058FA7B
:102A0000A560606800B96560284670BD002802D0E6
:102A1000416811B103E001207047806808B10020CF
:102A200070470120704770B504460B46002C13D048
:102A30002046FFF758FF002298420ED11946204643
:102A4000FFF757FF606030B101462046BDE8704097
:102A5000002210F036BAA26070BD2046FFF752FF88
:102A600098420ED119462046FFF748FFA06030B1CA
:102A700001462046BDE87040002210F019BA62609D
:102A800070BD19462046FFF739FF05461946204616
:102A9000FFF72FFF064632462946204610F008FA77
:102AA0002A4631462046BDE8704010F00ABA10B5FB
:102AB0000446206882680AB1214690472068006871
:102AC000002801D02060F4E710BD8068002802D003
:102AD000B0F916007047002070478068002802D0C7
:102AE000807E800970470020704770B506460C460E
:102AF000154654EA05001CD030460BF043FAB06886
:102B0000018A21440182B068418A2944418201231B
:102B10002A46214630460DF04AFB00220B21304662
:102B200009F012F9012803D130460DF0AFFA012067
:102B300070BD012070BDF7B582B005460E46049FFA
:102B4000002D1ED02846314662220CF05CFF019019
:102B50000446200012D0206880B128463146632206
:102B60000CF051FF0190C2B242B1236839462046B1
:102B700098470190BDF80400ADF81000049805B026
:102B8000F0BD3846FBE700002DE9F04792B004465F
:102B90001A9D0F4691461E46E08B40F00800E083E8
:102BA000A4F81C902A89394620460CF02CFF824656
:102BB0001190A6832A89394620460CF024FF8046CE
:102BC0001090E18B21F00801E183824505D1BDF829
:102BD0004400BDF84010884268D0A4F81C902A89AF
:102BE000394620460CF00FFF82461190A6833946E5
:102BF000204605F0E5FC2989006852460FF0DCF814
:102C000028890B2825D147F6FF79CA4501D0C84548
:102C10001FD120460DF05FF800EBD0704610204623
:102C20000CF0E9F800EBD07040101199494506D13D
:102C3000711C421C914200DA00E0411C1191C84510
:102C400007D1711C421C914201DA701C00E0401C4B
:102C500010901848FFF764FE064656B31198F060CE
:102C60001098306134602889B080B760684606F0FB
:102C70007FF8009610480190104802901048039089
:102C80000020FF2107900890099128880A90688801
:102C900040420B90E868069000209DF83E1060F3DB
:102CA00000018DF83E10684606F0B8F812B0BDE895
:102CB000F087FEE7E4170020494301087D4501083D
:102CC000CD44010814210148FFF722BEE41700207B
:102CD0002DE9F84F074688469146002500264FF01B
:102CE000040A1AE1F8680AEBC6014058810175D45C
:102CF00020F07F400EF045FB30EA080112D00021A1
:102D000030EA090010D00020814267D0F86850F8FE
:102D100036B000246A46102158460EF083FE28B1D2
:102D200001248BE00121EBE70120EDE76A46112148
:102D300058460EF077FE08B101247FE06A46122162
:102D400058460EF06FFE08B1012477E06A46132161
:102D500058460EF067FE08B101246FE06A4615215F
:102D600058460EF05FFE08B1012467E06A46142160
:102D700058460EF057FE08B101245FE06A460A216A
:102D800058460EF04FFE08B1012457E06A466B2109
:102D900058460EF047FE08B101244FE06A466C2108
:102DA00058460EF03FFE08B1012447E06A46012173
:102DB00058460EF037FE08B101243FE06A46042170
:102DC00058460EF02FFE08B1012437E06A46022172
:102DD00058460EF027FE10B101242FE09CE06A4611
:102DE000032158460EF01EFE08B1012426E06A4673
:102DF000052158460EF016FE08B101241EE06A4671
:102E0000062158460EF00EFE08B1012416E06A466F
:102E1000322158460EF006FE08B101240EE06A4643
:102E20006E2158460EF0FEFD08B1012406E06A4608
:102E30006D2158460EF0F6FD00B1012414B10320B7
:102E4000BDE8F88F6A46692158460EF0EBFD08B1DF
:102E5000022561E06A466A2158460EF0E3FD08B19A
:102E6000022559E06A466E2158460EF0DBFD08B196
:102E7000022551E06A466D2158460EF0D3FD08B197
:102E8000022549E06A46372158460EF0CBFD08B1CD
:102E9000022541E06A46382158460EF0C3FD08B1CC
:102EA000022539E06A46352158460EF0BBFD08B1CF
:102EB000022531E06A46402158460EF0B3FD08B1C4
:102EC000022529E06A46452158460EF0ABFD08B1BF
:102ED000022521E06A46412158460EF0A3FD08B1C3
:102EE000022519E06A46422158460EF09BFD08B1C2
:102EF000022511E06A46432158460EF093FD08B1C1
:102F0000022509E06A46492158460EF08BFD08B1BA
:102F1000022501E005B90125761CF88BC0F30510E8
:102F2000B0423FF6DFAE28468AE70000014840681D
:102F300070470000880000207047C0F30410072885
:102F400000D90720C0B27047A0F57F41FF3905D0F6
:102F500030B1712806D20A49085C70471F207047BB
:102F600000207047713880B20649096829B1064AC5
:102F70005268904201D2085C704700207047000000
:102F800094820108F00000200401002010B51821EF
:102F90000348FFF7BDFCBDE8104001200FF020B84A
:102FA000901700202DE9F04180460C4615461F463B
:102FB000084E3946404672689047206028B138680C
:102FC000726840440021904700E000202860BDE87E
:102FD000F0810000200100202DE9F04F87B0044669
:102FE000DDE910588A4693461E464FF00009002D31
:102FF00001D0A5F800906CB1207878B1BAF1000F3B
:103000000ED0002708F0020008F0040108431AD08F
:10301000002008E0002007B0BDE8F08F0020FAE7AC
:103020000020F8E7401C215C0A2903D00D2901D0BB
:103030000029F7D1215C01B1401C002DEBD04FF0ED
:10304000FF312980E7E75FEA887001D541F6FF7616
:10305000CDF81890CDF8149023E0CDF81090059895
:1030600038B3002106AA04ABCDE90221CDE90083E3
:10307000204433465A4651460FF096F90499721A85
:1030800016B239440FB288B10599084405902178E9
:103090000A290BD00D2909D0205C0A280BD00D2855
:1030A00009D00598205C08B1002ED6DC059830B117
:1030B00011E00121D6E70598401C0590F6E7084A83
:1030C00005A9204652689047014625B10022504686
:1030D00008F028FF07B205B12F8005989BE7000094
:1030E0002001002010B5002223290ED103782BB136
:1030F0000024012B05D0022B05D006E0012202702E
:1031000003E0047001E0047001220378012B04D174
:10311000202901D1022101700122104610BD2DE9A4
:10312000F04781460D4614461F46DDF8208012E028
:10313000660806FB075A51464846C047002808DD86
:1031400044F30000C0EB5404A4F101040AEB0705AA
:1031500001E005DA3446002CEAD12046BDE8F087CC
:103160005046FBE710B50024002808D000F019F8FD
:10317000B0F5804F03D20C2800D80C20044620461E
:1031800010BD0A46491E0A4200D0FEE70140401A1F
:1031900070470844401E4A1E9043114200D0FEE78B
:1031A00070474A1E114200D0FEE70844401E90437B
:1031B000704700002DE9F84F83460F469BF8090041
:1031C00000F0070002281DD09146974200DD3A46E4
:1031D0001646032000EB460020F003051035DFF80B
:1031E000C480DFF8C4A0D8F80840DAF80000201A3C
:1031F000D8F804102A188A4206D2606820F00040ED
:1032000060602CE0B946E0E78D421ED84FF0FF34F5
:103210000FE0009400226946244805F085FA002258
:103220006946234805F080FAD8F80800DAF800105B
:10323000401AD8F8041028448842EAD8D8F8084040
:10324000606820F00040606009E028460AF062FCF7
:103250000446200019D0606840F0004060603A46A3
:103260004946584601F030F82060606800F0404060
:10327000401C20F080406060A681A4F80E900028D9
:1032800004DA04F11000A06008E0FEE7D8F80800B6
:1032900000F11001A1602844C8F808002046BDE8EC
:1032A000F88F000090000020EC0000201F7F000835
:1032B0008D87000810B5084C012020700748FFF7E3
:1032C00012FB20B1A068BDE810400EF039BFA06825
:1032D000BDE810400EF028BFC4000020C017002039
:1032E00010B5044694F83E00810707D4A18F29B198
:1032F000A1F57F42FF3A01D0491EA187A28F616BE1
:10330000AAB909B1820712D521461548FFF78BFBF0
:10331000FFF7D0FFE16809B120468847216909B16C
:10332000204688472046BDE810400AF083BCA26BC7
:103330005242E262002911D0820702D4226B52422B
:10334000E2624210521C62F3410084F83E00E069E0
:10335000626AE2616062A06AA162606310BD0000FF
:10336000C017002070B5334E70680EF0E7FD0546BB
:10337000707880F0010070702F48FFF7B4FA0446AF
:1033800052E00020307094F83E007178C0F3800263
:103390008A423DD061F3820084F83E00E16A4A1916
:1033A000030719D4002917DC002A15DBC00709D14F
:1033B000616939B120468847E1690144E161616A88
:1033C00008446062A16809B12046884794F83E002D
:1033D00040F0080084F83E00E06A2844E0620028DB
:1033E00016DBA16A884200DDE162A16920468847B8
:1033F0000146206A884204D0216262680AB12068CE
:103400009047D4E90A10884202DB2046FFF768FFA4
:10341000307820B10848FFF766FA044604E02146F8
:103420000548FFF766FA0446002CAAD10EF092FD7B
:10343000706070BDC4000020C017002070B5044645
:103440000D466068002802D02946FFF7F7FF226882
:10345000002A04D029462046BDE87040104770BDC0
:103460002DE9FF4F8FB09846DDE92259DDE91C01B7
:103470000790069100200490B9F1040F16D0B9F11D
:10348000050F17D0B9F1060F18D0B9F1140F7DD17F
:103490000120059002260024119908FB01F00E90EE
:1034A0001098401E0D90481E0C9060E10020059081
:1034B0000226F0E7012005900326ECE701200590A5
:1034C0000226FFF733FD0068806B0490E3E71E9847
:1034D0000799604301EB20231F980699604301EB95
:1034E000202219121012002907DB109FB94204DABA
:1034F000002802DB119FB84202DB0020285534E18E
:10350000DFB2D2B2802F05DA4FF0FF33C7F17F0769
:103510007F0002E00123803F7F00802A06DA4FF01F
:10352000FF3CC2F17F024FEA420A04E04FF0010C77
:10353000803A4FEA420ADDF83CB000FB08F20B92F9
:10354000724301FB06225A4411EB030BCDF828B05D
:1035500077D4DDF834E0DDF828B0F34571DC10EB0A
:103560000C0BCDF824B06CD4DDF830E0DDF824B0DD
:10357000F34566DC03FB06230CFB08FC0CFB062C66
:10358000DDF814B0BBF1000F70D000E0F3E0B9F14A
:10359000050F32D0B9F1140F34D0B9F1060F51D064
:1035A000FF218B46FF208B4507D00BFB0AFBCAF59A
:1035B000807E01FB0EBBCBF3072B884206D07843FD
:1035C000C7F5807E01FB0E00C0F307205844400879
:1035D0002855002844D01078517800EB0120039042
:1035E0009CF800009CF8011000EB01200290187874
:1035F000597800EB0120019041E091789CF802B0ED
:103600009878D0E7DDE90EBE0EEB4B0BCDF800B09D
:10361000DDF800B0DDF82CE08B44CDF820B01EF8CA
:103620000B10DDF800B000FB08BB0A981BF8000087
:10363000DDF824E0DDF820B00EFB08FE1EF80BB02C
:10364000B1E747E01188BDF81000814206D0BCF810
:103650000010814202D01988814202D100202855F1
:1036600083E0FF218B46FF209DE7FFE71088039052
:1036700018880190BCF800000290FF202855BDF882
:103680000C00BDF8081088420AD1BDF80410884229
:1036900006D12198BDF80C1000EB4400018064E0D5
:1036A000DDE902010AF0FF0205F06AFE0290FAB2BB
:1036B0000399019805F064FE0190DDE901017F2284
:1036C00005F05EFE00902198BDF8001000EB44006C
:1036D00001804AE092F800B092F801E00BEB0E2B6B
:1036E000DDF884E01FFA8BFB2EF814B0B9F1050F5A
:1036F00008D0B9F1060F07D0B9F1140F0CD0FF2292
:1037000099B114E09278FBE7BDF81020934501D100
:103710000022F5E7FF22F3E70F9A00FB082B0E9A31
:1037200001EB42021BF80220EAE7002B05DBDDF883
:1037300034B0594507D1002B05DDC7F1FF005043D8
:10374000000A285511E010B9BCF1000F05DB0C99F7
:10375000884208D1BCF1000F05DDCAF1FF005043DB
:10376000000A285501E000202855641C24B2209846
:103770008442FFF6ACAE13B0BDE8F08F2DE9F04FF8
:10378000DDE909C8DDE90CABDDF82C900F9F0024C2
:1037900028E009FB04F50CEB25260AFB04F508EBF1
:1037A000252536122D12002E05DB8E4203DA002D60
:1037B00001DB954202DB00253D5511E05D4305EB41
:1037C000450506EB4606354405442E7895F801E09C
:1037D00006EB0E26DDF838E02EF81460AD783D5586
:1037E000641C24B25C45D4DBBDE8F08F70B50446A0
:1037F0000D46204600F030F800B1FEE7284600F004
:1038000013F96168001D08446060204600F030F83C
:10381000204670BD10B50C4600F006F91034A042E9
:1038200001D3012010BD002010BD083870477CB5C1
:1038300005460C46204600F0F7F86A4601A90FF04D
:10384000E3FADDE900322146284604F02FFF7CBD73
:10385000007900F00100704710B500F0E5F808B1FC
:10386000002010BD012010BD007900F0020070475B
:1038700010B50446204600F07AF8046010BD7CB50F
:1038800006460D460020019000900024002D0DD02A
:103890006A4601A928460FF0CEFA0198082805DAF1
:1038A0006A4601A9304610F0D1FA04465CB12046C0
:1038B00000F0BAF8A84200D2FEE7DDE90032214666
:1038C00030460FF0B9FF20467CBD10B504462046B7
:1038D000FFF7CEFF00F093F82046BDE8104000F05F
:1038E00089B810B50446204600F041F800F08CF885
:1038F0002046BDE8104000F092B870B506460D466F
:10390000284600F034F8044644B12046FFF7A0FFF3
:1039100070B12846FFF7A0FF08B1FEE7FEE7214699
:10392000304600F056F821462846FFF75FFF05466F
:10393000284670BD70B506460D462846FFF794FF31
:1039400088B1284600F03CF8044674B12046FFF7E1
:103950007FFF58B12146304600F03BF8294620460B
:10396000FFF744FF0546284670BDFEE7FEE770B549
:103970000546284600F058F8041F284600F091F844
:1039800021460FF03BFB04462846FFF765FF00B1D8
:10399000FEE7204670BD10B503460C460020002C03
:1039A0000DD05AB12146184600F07DF82046FFF7A9
:1039B00098FF2046BDE8104000F073B8FEE710BD48
:1039C00010B504462046FFF74FFF08B1206810BD30
:1039D000FEE77CB505460C46204600F025F86A4611
:1039E00001A90FF011FADDE90032214628460FF057
:1039F00023FF7CBD416841F001014160704741688F
:103A000041F0020141607047416821F002014160CC
:103A10007047027902F003020A434260704741682E
:103A200021F0010141607047406820F003007047B9
:103A30002DE9F04106460C46304600F032F8211FD1
:103A40000FF0DCFA80463046FFF7EEFF051B2D1F16
:103A5000404600F026F80746404600F022F80421D0
:103A6000FFF797FB874200D0FEE73046FFF7DCFF09
:103A70002919091D884200D0FEE729464046FFF774
:103A8000C8FF4046FFF7D0FF0C2800D2FEE72146D2
:103A90003046FFF7BEFF4046FFF717FF4046BDE840
:103AA000F0810830704770B506460D46144628462A
:103AB000FFF7CEFEB0B121462846FFF7ABFE002847
:103AC00011D021462846FFF7B3FF04462846FFF7EA
:103AD000CFFE2046FFF793FF21463046BDE87040F9
:103AE000FFF7A5BEFEE770BD70B505460C4616464D
:103AF0002046FFF7ADFE00B1FEE731462046FFF756
:103B000089FE002811D031462046FFF791FF044678
:103B10002046FFF779FF21462846FFF7EEFE0146D3
:103B20002846BDE87040FFF782BE70BD2DE9F05F0A
:103B300007460022114638460DF012FA0021384699
:103B40000BF0BDFE0446002138460BF050FF204428
:103B50000FFA80F8002138460BF025FF20440FFAB9
:103B600080FA38460BF04EFE404450440FFA80F97C
:103B70002C4C38460BF08DF88346002517E0B868CA
:103B8000006850F82560284930460CF0AEF868B956
:103B900030460CF0DDFAC0B1B6F91600B7F91210D4
:103BA000401A411CA14200DB441C24B26D1C5D453F
:103BB000E5D341F6FF70C44232D004EB0A0000B2F4
:103BC000484500DC4846BDE8F09F002130460BF038
:103BD0003DFED0B1012818D0022816D0032814D0F9
:103BE000002130460BF0BCFF0028DFD106F11000A9
:103BF000064605F092F94044A04204DB304605F049
:103C00008CF900EB080424B2D0E7B6F91600B7F936
:103C10001210401A411CA14200DB441C24B2C5E72B
:103C20004846D0E701E0FFFF010004002DE9F05F06
:103C300005460022114628460DF07CF90021284651
:103C40000BF03DFE0446002128460BF0C4FE204444
:103C50000FFA80F8002128460BF0B1FE20440FFA3D
:103C600080F928460BF0DCFD484440440FFA80FB05
:103C70005A4C28460BF00DF88246002128460BF0DE
:103C8000EEFD012801D0002666E0002617E0A868B6
:103C9000006850F82670524938460CF026F868B98A
:103CA00038460CF055FAA0B1B5F91400B7F9101068
:103CB000401A411CA14200DB441C24B2761C56452C
:103CC000E5D341F6FF70C4424FD004EB090004B2C3
:103CD0004BE0002138460BF0B9FDD0B1032818D0D5
:103CE000062816D0082814D0002138460BF032FFE1
:103CF0000028E3D107F11000074605F047F94044DA
:103D0000A04204DB384605F041F900EB080424B278
:103D1000D4E7B5F91400B7F91010401A411CA142BC
:103D200000DB441C24B2C9E7A868006850F826707C
:103D30002B4938460BF0D9FF68B938460CF008FA21
:103D4000D0B1B7F91400B5F91010401A411CA142C6
:103D500000DB441C24B2761C5645E5D341F6FF70C7
:103D6000C44202D004EB080004B241F6FF70C44222
:103D70002DD15846BDE8F09F002138460BF066FD76
:103D8000D0B1012818D0042816D0072814D000215B
:103D900038460BF0E5FE0028DDD107F1100007469C
:103DA00005F0F4F84844A04204DB384605F0EEF88C
:103DB00000EB090424B2CEE7B7F91400B5F91010EE
:103DC000401A411CA14200DB441C24B2C3E75C45FD
:103DD00001DD2046CEE75846CCE7000001E0FFFFBA
:103DE0000100040038B50446204600216E220BF085
:103DF0000AFE009000B208B1022038BD2046002122
:103E00006D220BF000FE009000B2B0F5807F01D073
:103E1000022038BD2046002161220BF0F4FD009005
:103E2000C0B2FF2801D0012038BD20460021682201
:103E30000BF0E9FD0090C0B208B1012038BD0020B0
:103E400038BD1CB50B8804892344ADF800304B887D
:103E500044892344ADF802308B8804892344ADF8AB
:103E60000430C98843891944ADF80610436969468E
:103E700098471CBD2DE9F04F8BB005468A46BAF134
:103E8000000F43D0A5F818A0286808B109F0D2FEA9
:103E90000AEB4A00062101EB400009F03BFE2860D6
:103EA00040B36860022101EB4A010144E96004214A
:103EB00001EB8A010144A9604FF00008BAF1010F3B
:103EC00019D00AF101000446C00009F053FE06466D
:103ED00006EB8407C1464FEA8A0002B209A90AA884
:103EE00000F030F90024BDF9280080100590002072
:103EF0000190B2E0FEE7B4210170E868A0F800800C
:103F0000E96801204880A868A0F800800BB0BDE8EF
:103F1000F08F4FF000080DF1140B09A90AA800F06A
:103F200018F90AA800F004F970B1BDF92800811051
:103F30004BF8281000F0030101A840F8281008F100
:103F40000108B8F1040FE8DBB8F1040F7ED108993D
:103F50000598884213D1059826F8140027F8149084
:103F6000DDE901010844DDE90312114408446968F0
:103F70000855696800010855641C24B26BE0DDE94E
:103F80000501884220D0059826F8140027F81490DF
:103F9000696801980855696800010855641C20B2D9
:103FA0000599491E26F8101027F81090DDE9021235
:103FB0000A440499091D11446A6811546A68090188
:103FC0001154401C04B246E007990598884220D05D
:103FD000059826F8140027F81490DDE9010108443B
:103FE00069680855696800010855641C20B2059984
:103FF000491E26F8101027F81090DDE9031211442D
:104000006A68083111546A6809011154401C04B2ED
:1040100021E0059826F8140027F81490DDE9010145
:1040200008440399084469680855696800010855FF
:10403000641C20B20599491E26F8101027F810902C
:1040400004996A680C311154090100E00BE06A68B8
:104050001154401C04B209F101090AA800F068F8E3
:1040600000287FF456AF40F2D3200AFB00FA4FEA53
:10407000AA20611E36F91120824203D137F91110AE
:1040800081421AD0AAEB8021B1F5007F03DC4943BD
:104090004900091406E0C1F580614943490009144B
:1040A000C1F10F0126F8140027F8140068680155C3
:1040B000686809010155641C24B2A01E0DE037F8A0
:1040C000101026F8141036F8101027F8141069682C
:1040D0000A5C0A55401E641C24B20028EFDA002155
:1040E0000020EB6800221A801CE0EA6822F8110028
:1040F000AB6836F8102023F811200BE0D5F808C083
:1041000036F910303CF811209A4200DB1A462CF8A0
:104110001120401C37F910208A4201D1A042EDDB6A
:10412000491C09B2A042E0DB304609F071FDEDE622
:10413000B0F90210B0F90000814201DC01207047A3
:1041400000207047028000234380C2F101000880F4
:10415000704710B5B1F90030B0F90220002B05DC32
:10416000032404EB42021A440A8009E00488121B6B
:10417000052404EB42021A440A800188491E01808A
:104180004188491C418010BD17B581B0022A03D86F
:10419000BDF8080004B010BDBDF80830BDF804003B
:1041A000D90A01EBD0211F2900D31F2161F3CF20B1
:1041B0000190C3F34511C0F3451421443F2900D3B6
:1041C0003F2161F34A10019003F01F0100F01F032B
:1041D00019441F2900D31F2161F304000190FF2A15
:1041E00007D0DDE9010105F0ADF80090BDF8000051
:1041F000D0E7BDF80400CDE717B581B0022A03D897
:10420000BDF8080004B010BDBDF80400BDF80810EA
:10421000C30ACC0A63435B0963F3CF2000F01F039A
:1042200001F01F0463435B0963F30400C0F345130B
:10423000C1F345114B43990961F34A100190FF2ADC
:1042400007D0DDE9010105F07DF80090BDF8000020
:10425000D8E7BDF80400D5E717B581B0022A03D826
:10426000BDF8080004B010BDBDF80830BDF804006A
:10427000D90AA1EBD021002900DC002161F3CF2075
:104280000190C3F34511C0F34514091B002900DC5C
:10429000002161F34A10019003F01F0100F01F0399
:1042A000C91A002900DC002161F304000190FF2AF3
:1042B00007D0DDE9010105F045F80090BDF80000E8
:1042C000D0E7BDF80400CDE781EA620148407047BD
:1042D00030B58060C06000250561002200EB8201DE
:1042E0004D61002100EBC21303EB81046063491CA4
:1042F0002029F9DB521C082AF0DB30BD2DE9FF4FE5
:1043000087B00746DDE91695DDF85080189EDDF888
:1043100020A04FEA480004B2B9F1040F21D0B9F14E
:10432000060F1ED0B9F1050F63D0B9F1140F5DD19E
:10433000B7F90200B7F9001000FB08F0400000EBED
:10434000410000EB0A0B0594384604F0F8FD824664
:10435000384604F02DFE814600244FEA49000690BD
:1043600089E0384604F003FE05903046059909F0CF
:1043700082FDB7F90200B7F9001000FB08F0400019
:1043800000EB410000EB0A08384604F011FE8246BB
:104390004FEA4A0004900394AB46B7F902400AE0A2
:1043A00041465846049A09F085FC039880440BEB7B
:1043B0004A0B641C24B2B7F90600A042F0DAB9F146
:1043C000060F13D14FF4FC6000210190BDF80400EA
:1043D0000290BDF80820002005E035F81030934227
:1043E00000D13154401C059B9842F6D30BB0BDE878
:1043F000F08FB7F90000B7F9021000EB400008EBAE
:10440000480201FB020000EB0A04384604F0D0FD2C
:10441000A8EB000000EB40000FFA80F8384604F0EB
:104420008EFD8146384604F0C3FD0146002214E0AB
:1044300000200AE0A37833542378677803EB07233E
:1044400025F81030E41C401C00B28842F2DB05EB7A
:1044500041050E444444521C12B24A45E8DBC5E70C
:1044600059462846069A09F025FC05EB49050598AA
:104470008344641C24B25445F2DB089809994A002D
:104480000A9902FB0100B7F90010B7F9022008FBF6
:1044900002110D18002408E04A462946304609F06A
:1044A00009FC4E444544641C24B25445F4DB9DE7AA
:1044B0002DE9F04F89B005460F461446F87A0228D8
:1044C00003D8012009B0BDE8F08F18463A69B968F1
:1044D000FEF732F980465FEA080008D098F8140029
:1044E00000F01F0008F0DEF818B1062613E00020E7
:1044F000E8E798F8140000F01F000E2806D01428F2
:1045000006D008F0BFF828B1052604E00E2602E028
:10451000142600E004264FF480790E2E08D1388846
:1045200010B97888484503D005260020C8F818003F
:10453000D8F8202022B1214628460FF0CAFEBFE05D
:10454000D8F81800F0B3214607A804F0D4FCB7F956
:10455000003013B97888484529D0A0882188401AAE
:10456000401C01B2E0886288801A401C02B2381DEB
:10457000B7F802C0CDE900C007A8FEF727F8BDF8DC
:104580001C0021880844ADF81C00BDF81E0061889D
:104590000844ADF81E00BDF8200021880844ADF89D
:1045A0002000BDF8220061880844ADF8220007AA67
:1045B00005A8A968FDF78DFD80B1D5F8089005A87C
:1045C000A86000E00FE00096224639462846D8F859
:1045D000183005F0BBF8C5F8089071E0404601F0CE
:1045E000DAF801206EE7224607A8A968FDF771FDF9
:1045F00018B3BDF82000BDF81C10401A401C0FFA7B
:1046000080FA0AEB4A0009F0B5FA0690D5F808B02E
:1046100007A904A804F06FFC012104A804F00DFD13
:10462000BDF91C00B4F90010401A0390BDF91E90AA
:10463000B4F90200A9EB000439E0404601F0ABF800
:1046400001203FE704AA594601A8FDF742FD60B3E7
:104650000698009003980FFA8AF301B222B24046FE
:1046600008F026FC01280CD0404608F06AFB0698AA
:1046700009F0CEFA404601F08EF8C5F808B00020E7
:1046800020E701A8A860009604AA39462846069BA0
:1046900005F05CF8BDF81200401CADF81200BDF842
:1046A0001600401CADF81600641C09F10109BDF9A3
:1046B00022004845C6DAC5F808B0069809F0A8FAFD
:1046C000404601F068F80120FCE6FCF76BB80000FA
:1046D0002DE9F04180460F4616460F480078002825
:1046E00015D0B7F902500EE0B7F9004006E0328865
:1046F000A9B2A0B2FCF77AFFB61C641CB7F904009B
:10470000A042F4DA6D1CB7F90600A842ECDA404684
:10471000BDE8F04104F058BF5800002070472DE973
:10472000F74F0C4698B01146E078022876D916A8C3
:1047300004F0D8FBB4F92000012828DD94F8220009
:10474000FD2824D3208810B314F8230FBDF8581087
:104750004008C0F380021144ADF85810BDF85A105B
:10476000C0F340000844ADF85A002178BDF85C0061
:104770004908C1F3C001401AADF85C0014F82319D0
:10478000BDF85E00C1F34001401AADF85E00189814
:1047900016A9826814A8FDF79CFC00283ED0E07B97
:1047A00000F00705C5B1E0881390BDF84C006189A1
:1047B000884200D1002516A805F068FD07461C2197
:1047C0000CA8FBF7E2FDA0788DF84900BDF84C007D
:1047D000ADF838001FB105E060681390E5E7208868
:1047E00000B995B194F80390B9F1FD0F01D34FF0E2
:1047F000FF0916A804F0E8FB834616A804F0A5FB01
:104800000646B3450DDA58460CE016A80C90E07841
:104810008DF848000CA9189806F0AAFA1BB0BDE85C
:10482000F08F3046B4F900A0BAEB600F01DB4FEA1D
:10483000600A14A804F0C8FB80464FF0FF300B90CC
:1048400000200A90BAF1000F00DC7FB1404609F069
:1048500091F90A9000230FFA8AF216A904A805F02C
:10486000BBFF002104A805F0F1FA0B90BDF8500041
:10487000ADF80800BDF85400ADF80C000A980F9090
:1048800002A80C901190FF208DF84800324659463E
:10489000A01D07F089FD064630000BD0022D09D17E
:1048A000BDF95010B06800EB4100BDF95810A0EB05
:1048B00041000D9087B3BDF9524028E027B2ADF812
:1048C0000A70ADF80E70424649460A9809F07EFA21
:1048D000BDF950100FFA88F33A460A9805F094FC97
:1048E0008DF84000012802D102208DF84000012DF2
:1048F00008D1BDF95A10B068611A00EB4100008878
:10490000ADF838000CA9189806F032FA641CBDF90D
:104910005600A042D2DABCE0FFE74FF0000B54E0B3
:10492000BDF85A00584404B2BDF85E00A0EB0B007D
:1049300007B2BDF95200A04203DDBDF95600B842EE
:1049400041DB424649460A9809F040FABDF9081091
:104950000FFA88F322460A9805F056FC8DF84000BD
:10496000012802D102208DF84000BDF95200A0427A
:1049700012DCADF80A40ADF80E40012D08D1BDF9AA
:104980005A10B068611A00EB41000088ADF8380099
:104990000CA9189806F0ECF9BDF95600B84212DBE4
:1049A000ADF80A70ADF80E70012D08D1BDF95A109E
:1049B000B068791A00EB41000088ADF838000CA906
:1049C000189806F0D5F90BF1010BD345A8DBBDF81B
:1049D0005800ADF80000BDF85C00ADF80400BDF86B
:1049E0005A005044ADF80200BDF85E00A0EB0A008A
:1049F000ADF80600684605F049FC074657EA050091
:104A00000DD08DF8489001208DF84000BDF95E0072
:104A1000A0EB0A0BBDF95A0000EB0A0437E0BDF821
:104A20005A005044ADF80A00BDF85E00A0EB0A0041
:104A3000ADF80E008DF8489000200F900CA9189842
:104A400006F096F925E077B1424649460A9809F002
:104A5000BDF9BDF950100FFA88F322B20A9805F09B
:104A6000D3FB8DF84000ADF80A40ADF80E40012DA3
:104A700008D1BDF95A10B068611A00EB41000088F6
:104A8000ADF838000CA9189806F072F9641C5C4562
:104A9000D9DD0A9810B10A9809F0BAF80B98401CB1
:104AA00005D00B9805F046FF04A805F0D1FB002EB9
:104AB0003FF4B4AE304607F071FCAFE62DE9F041AB
:104AC00090B006460C461546206900287DD0A07E91
:104AD00002287AD929460EA8B268FDF7FAFA00280A
:104AE00073D0B7680EA8B060206908F0FCF90228FE
:104AF00006D00DA9206908F047F901284AD0CFE077
:104B00004FF0000841F6FF70CDE90080CDF8088035
:104B1000D4E9041243460DA80DF0F0FC284604F039
:104B200053FA298800EBD07001EB6001BDF9340025
:104B300000EBD072A1EB6201ADF82C100844401ECE
:104B4000ADF83000284604F000FA698800EBD07018
:104B500001EB6000BDF9361001EBD172A0EB6200F1
:104B6000ADF82E000844401EADF8320003A805F051
:104B7000B3F860690390208BADF81800A07E8DF823
:104B80002600CDF800800BAA03A93046236904F063
:104B9000FFFD85E007A804F0E1FDA0788DF828006E
:104BA000208BADF82400E07E8DF82600A07E8DF8E5
:104BB0002700207F4FF0FF3858B16888ADF8160005
:104BC0000D9908EB5151084400E06AE0ADF81A0075
:104BD00060E0284604F0F8F9298800EBD07001EB7A
:104BE00060000D99C1F38A21A0EB5100ADF81400CB
:104BF000284604F0AAF9698800EBD07001EB600147
:104C00000D98A1EB9051ADF81610BDF81430C0F31B
:104C10008A22521E1A44ADF8182008EB505008445E
:104C2000ADF81A0005AA07A93046236904F05CFD17
:104C300036E02888ADF814000D99C1F38A21491E89
:104C40000844ADF8180012E005AA07A93046236908
:104C500004F04AFD0D98BDF81410C0F38A200144F9
:104C6000ADF81410BDF818100844ADF81800BDF9DF
:104C70001400B5F904108842E6DDBDF816100D9851
:104C800001EB5051ADF81610BDF81A1001EB505061
:104C9000ADF81A00BDF91600B5F906108842C8DD56
:104CA000B76010B0BDE8F0812DE9F04186B007464D
:104CB0000C46164694F82200022874D9208C00284D
:104CC00071D094F8230010F03E0F6CD0C0076AD169
:104CD000304604F079F98046304604F036F9B4F9EC
:104CE0000050804500DA4046B5EB600F00DD45100E
:104CF000314604A804F0F6F894F82300BDF910201A
:104D0000C0F34401480702D5B4F9200003E0B4F928
:104D10002000284440421044ADF81000BDF9142092
:104D2000080702D5B4F9200003E0B4F920002844B4
:104D30004042101AADF8140094F82300BDF9121087
:104D40004008800702D5B4F9200003E0B4F9200040
:104D5000284440420844ADF8120094F82300BDF9FD
:104D600016104008C00702D0B4F9200003E0B4F9DF
:104D7000200028444042081AADF81600208C281A5A
:104D800000B2002800DA0020A17894F82220CDE9B2
:104D90000221E18BADF8041000902BB204AA314639
:104DA000384600F003F806B0BDE8F0812DE9FF4F6A
:104DB0009DB00C46DDE92C6A2A9F15469946FF2EC8
:104DC00000D3FF26204605F061FA804648EA090034
:104DD000384371D01D98214682681BA8FDF779F9E8
:104DE000002870D01BA804F0EFF81A901C2113A81B
:104DF00009F019F81A9808F0BDFE16904FF0FF3030
:104E00001290B9F1000F0ADD00234A4621460CA892
:104E100005F0E2FC00210CA805F018F8129001231F
:104E20003A46294606A805F0D7FC002106A805F059
:104E30000DF8059003A813901890BDF8AC00ADF8DC
:104E400054008DF864608DF865A0B4F90000B5F9E0
:104E500000104844884200DC0846ADF80400B4F96C
:104E60000400B5F90410A0EB0900884200DB0846F5
:104E7000ADF80800B4F90200B5F9021048448842C0
:104E800000DC0846ADF80600B4F90600B5F90610D6
:104E9000A0EB0900884200DB0846ADF80A0001A833
:104EA00004F092F8B4F90210B5F9022091420DDC39
:104EB00001270CE000E006E000962A4621462B9BE5
:104EC0001D9800F0E3F921B0BDE8F08F0027B4F998
:104ED0000610B5F90620914201DB012600E000260C
:104EE000B8F1000F43D0BDF86C00ADF80C00BDF870
:104EF0007000ADF81000BDF96E4021E01FB9BDF99A
:104F00000600A0421BDC1EB9BDF90A00A0421BDB53
:104F100025B2ADF80E50ADF812501A99169808F057
:104F2000AAFF1A9ABDF96C1013B22A46169805F01A
:104F30006BF98DF85C0013A91D9805F019FF641C2E
:104F4000BDF97200A042D9DA06A805F081F90598EA
:104F500005F0F0FC1298401C05D00CA805F078F97B
:104F6000129805F0E7FC169808F052FEABE7B4F98A
:104F70000010B5F90020914202DC4FF0010A01E077
:104F80004FF0000AB4F90410B5F90420914202DB95
:104F90004FF0010801E04FF000084FF0010B0AEA62
:104FA00008013940314203D0322801DA4FF0000BBA
:104FB00001208DF85C0017EA0B0F12D0BDF8040039
:104FC000ADF80C00BDF80800ADF810006088ADF831
:104FD0000E006888401EADF8120013A91D9805F058
:104FE000C7FE16EA0B0F12D0BDF80400ADF80C0096
:104FF000BDF80800ADF81000E888401CADF80E00C0
:10500000E088ADF8120013A91D9805F0B1FEBAF1C1
:10501000000F12D02088ADF80C002888401EADF893
:105020001000BDF80600ADF80E00BDF80A00ADF89E
:10503000120013A91D9805F09BFEB8F1000F12D0C5
:10504000A888401CADF80C00A088ADF81000BDF891
:105050000600ADF80E00BDF80A00ADF8120013A965
:105060001D9805F085FEBBF1000F0CD0BDF86C005B
:10507000ADF80C00BDF90400BDF97010421E91425C
:105080004DDA08464CE0BDF86C00ADF80C00BDF8F8
:105090007000ADF81000B5F90200B4F90210401A22
:1050A000484500DB81460FFA89F8002534E0608826
:1050B000284406B2E088401B07B2BDF96E00B0423A
:1050C00003DDBDF97200B84225DB1A99169808F085
:1050D000D2FE1A9ABDF90C1013B23246169805F09A
:1050E00093F88DF85C00BDF96E00B04207DCADF8B6
:1050F0000E60ADF8126013A91D9805F039FEBDF9D8
:105100007200B84207DBADF80E70ADF8127013A94B
:105110001D9805F02DFE6D1C4545C8DBA6E0401E20
:10512000ADF8100003A803F04FFF8146B9F1000F5E
:1051300042DD5AEA07001DD0BDF96E4016E025B2E7
:10514000ADF80E50ADF812504946169808F093FE8F
:10515000BDF90C104B462A46169805F055F88DF807
:105160005C0013A91D9805F003FE641CBDF9060040
:10517000A042E4DC5AEA060A1ED0BDF90A40641CCB
:1051800016E025B2ADF80E50ADF81250494616980B
:1051900008F071FEBDF90C104B462A46169805F032
:1051A00033F88DF85C0013A91D9805F0E1FD641C2F
:1051B000BDF97200A042E4DABDF90800BDF96C1037
:1051C000421C914201DD084600E0401CADF80C0095
:1051D000BDF87000ADF8100003A803F0F5FE81469D
:1051E000B9F1000F42DD58EA07001DD0BDF96E404D
:1051F00016E025B2ADF80E50ADF81250494616989B
:1052000008F039FEBDF90C104B462A46169804F0FA
:10521000FBFF8DF85C0013A91D9805F0A9FD641C27
:10522000BDF90600A042E4DC58EA06081ED0BDF92C
:105230000A40641C16E025B2ADF80E50ADF81250CD
:105240004946169808F017FEBDF90C104B462A4641
:10525000169804F0D9FF8DF85C0013A91D9805F08D
:1052600087FD641CBDF97200A042E4DA06A804F0D0
:10527000EFFF059805F05EFB0CA804F0E9FF12981B
:1052800005F058FB169808F0C3FC1CE62DE9FF4713
:105290008AB08246169E0C4615461C2101A808F0CD
:1052A000C2FD08A80190BDF83400ADF80C008DF8DF
:1052B0001C60B4F90200B5F90210884201DC012635
:1052C00000E00026B4F90600B5F90610884201DBBB
:1052D000012700E00027B4F90010B5F90000814271
:1052E00002DC4FF0010801E04FF00008B4F90400BF
:1052F000B5F90420904202DB4FF0010901E04FF0C4
:105300000009ADF82010A088ADF824006088ADF841
:1053100022006888401EADF826001EB101A9504643
:1053200005F026FDE888401CADF82200E088ADF8C5
:1053300026001FB101A9504605F01AFD2088ADF8DE
:1053400020002888401EADF8240016B1B5F90200EF
:1053500001E0B4F90200ADF8220017B1B5F906007A
:1053600001E0B4F90600ADF82600B8F1000F03D053
:1053700001A9504605F0FCFCA888401CADF82000AF
:10538000A088ADF82400B9F1000F03D001A9504660
:1053900005F0EEFC0EB0BDE8F08700002DE9F0410D
:1053A00007462F4E706804F028F904463868C56B2C
:1053B000696B09B12846884770680068B0F9001029
:1053C000B0F902004143E068814201D1012000E0D0
:1053D0000020216859B1616849B128B107E07068BF
:1053E0000068816A01B1884720690028F7D101214E
:1053F000216170680068C0688269D20704D0806942
:10540000800701D5616101E000206061606908B139
:10541000012600E000263868416971B1016911F088
:10542000300F06D0490704D5D5E9001000F01AF86E
:1054300003E0D5E90021FEF704FD206800280BD029
:105440006168002908D03A68127CB243D20703D1C0
:10545000A268824202D1A160BDE8F081A060FBE7B2
:10546000880000202DE9F34F83B00446714841685D
:105470000D682869820701D5420774D4C0F3011072
:1054800002281AD0012801D003286CD100200290F4
:10549000084604F0B2F88046204603F07DFD07463A
:1054A000204603F040FD82464FF4A051B1FBF7F0D7
:1054B00050450FDAB1FBF7F00DE021462846049A7B
:1054C00000F0C4F8049A05B021462846BDE8F04F24
:1054D000FEF7B7BC50460190B4F902B0287CC0F387
:1054E0000110012806D020886080791E0844E080E1
:1054F000002690E068882188401A401EE080C01B8A
:10550000401C6080F4E70199AAEB0600884200DDA8
:1055100001980FFA80F90120C8F8100026BBBA459F
:1055200022DBB946287CC0F30110032812D00020EA
:105530003946049A00F0E7F8287CC0F301100128EE
:105540000AD02888A0EB0B00401EA080C01B401C86
:1055500020802CE00120EBE7A4F800B00BEB070063
:10556000401EA08023E062E0029820B94FF4205052
:1055700008F000FB029002980090287CC0F3011014
:10558000032823D000204A463946049B00F091F8B6
:10559000287CC0F3011001281AD02888A0EB0B004A
:1055A000801B401EA080A0EB0900401C20804E44C0
:1055B000564514DBD8F81800C00710D0D8F81800EA
:1055C00080070CD50120C8F814000BE00120DAE7B1
:1055D0000BEB060020804844401EA080E7E7002037
:1055E000C8F81400029828B1029A21462846FEF70E
:1055F00028FC05E0049AF8E7A96A09B1284688471B
:10560000D8F810000028F7D1049907FB09F001EB46
:105610004000049036B25645FFF675AF0298002858
:1056200005D0029805B0BDE8F04F08F0F1BA05B01A
:10563000BDE8F08F8800002030B504880D88058013
:1056400010880880188810801C8030BD2DE9F84330
:1056500007460D469046284603F09EFC0446284621
:1056600003F061FC4443641E00200AE008EB44019F
:105670000B88009308EB400632880A803380641E52
:10568000401C8442F2D8E88879886A88891A491EC1
:10569000E9807988081A401E6880A88839882A8895
:1056A000891A491EA9803988081A401E2880BDE839
:1056B000F8832DE9F047089F01FB02F8A8F10108E3
:1056C000A1F1010909FB02F9002618E009EB060423
:1056D00008B1A8EB040400250DE09C4607EB440A42
:1056E000BCF800C09B1CAAF800C008B1144400E03C
:1056F000A41A6D1C2DB28D42EFDB761C36B2964299
:10570000E4DBBDE8F0872DE9F04781460C461646FC
:10571000002704EBD47A39E00025601C00EBD07838
:105720002FE0E01B401E01B2601B401E00B2B9F129
:10573000000F12D005FB041201FB040106EB42032B
:1057400000FB047006EB410206EB400107FB04502E
:1057500006EB4000FFF770FF11E000FB047201FB55
:10576000040006EB420306EB400205FB041006EBC7
:10577000400107FB045006EB4000FFF75DFF6D1C86
:105780002DB2B5EB680FCCDB7F1C3FB2B7EB6A0FD5
:10579000C2DBBDE8F08707F0D4BA00002DE9FF4F67
:1057A00097B00D46249F987B00F00F06A97E032E2C
:1057B00000D10426012E1AD0022E20D0042E26D08D
:1057C000082E71D1DFF894824FF0FF097201FD2994
:1057D00036D2DFF88CC29CF80000884203D1DCF896
:1057E0000400B04226D00020DFF878A220E0DFF8E5
:1057F0006C82A8F116084FF080090222E7E7DFF873
:105800005C82A8F114084FF0C0090422DFE7DFF83A
:105810004C82A8F110084FF0F0091022D7E718F8D1
:105820000040FF2C1ED04C43240A0AF80040401CC4
:105830009042F4D3DFF82C828CF80010CCF804608E
:10584000DC881494B3F808A0149C74431998B0F938
:10585000001017988068B0F90020914204DB4FF0E7
:10586000000B03E00C46E0E7A2EB010B149A8B1847
:10587000B0F90420934201DC149901E0511A491C4B
:1058800013911999B0F90220B1F90210914201DB8C
:10589000002200E0521A1292B0F9060001EB0A024F
:1058A000824202DC504602E0D4E0401A401C1190D3
:1058B000129860430BFB060007EBD00700F00704CB
:1058C0001C210AA808F0AFFAA889ADF83000A87E1C
:1058D0008DF84000A87FC0F3C2008DF84100FDF7AD
:1058E00025FB03F08DFE149901FB0AF1814200DCD7
:1058F00008460990099808F03DF98246CDF834A091
:105900000025199800885844ADF81C0019990A8898
:105910001399491E1144ADF82010199A5388129A10
:105920001A44ADF81E20ADF822200B1A5B1C1BB2E6
:105930000693ADF81000ADF81220ADF814101198D0
:105940001044ADF8160004A804F0A0FC039007A8CA
:105950000A900F90C6F108000290149800EB0B011A
:105960001398081A70430190129815905BE02B462B
:1059700029FA04F059461BE03A78DDF808C00240E5
:10598000ACEB040C22FA0CF222B118F802200AF84F
:10599000052002E000220AF80520029A944202D271
:1059A0003444F04002E0002448467F1C6D1C491C32
:1059B000139A9142E0DB039880B10AEB0300BDF932
:1059C0001C10BDF922201690069B04F01DFC8DF8DA
:1059D000380018B90699169808F025FA1398A0EB24
:1059E0000B0041190998814205D2BDF82200401CE4
:1059F000ADF822000EE002208DF838000AA91798B1
:105A000005F0B6F9BDF82200401CADF81E00ADF857
:105A1000220000250198204407EBD00700F007047E
:105A20001598401C15901199159888429FDBBDF977
:105A30001E10BDF92200814209D0401EADF822009F
:105A400002208DF838000AA9179805F091F9504600
:105A500008F0DEF81BB0BDE8F08F0000F249010845
:105A60009C000020901600202DE9F04F89B083465D
:105A70000C46B4F90200401E411000F00100461827
:105A8000B2F90000B3F90050A84200DB2846ADF897
:105A90001C00B2F90000B3F90030984200DC18464F
:105AA000401EADF820005088801BADF81E005088C5
:105AB0000844ADF8220007A907A8DBF80820FCF786
:105AC00008FB002820D0E08818B1A08808B1012781
:105AD00000E00027012607A804F0D8FB08B1002643
