:020000040800F2
:100000005817002021020008D7160008991500088B
:10001000D51600088B030008F51A00080000000040
:10002000000000000000000000000000890100083E
:10003000CF03000800000000CD0100084D170008A4
:100040003B0200083B0200083B0200083B0200089C
:100050003B0200083B0200083B0200083B0200088C
:100060003B0200083B0200083B0200083B0200087C
:100070003B0200083B0200083B0200083B0200086C
:100080008D030008990300083B0200083B020008AA
:100090003B0200083B0200083B0200083B0200084C
:1000A0003B020008D91700083B0200083B02000889
:1000B0003B0200083B0200083B0200083B0200082C
:1000C0003B0200083B0200083B0200083B0200081C
:1000D0003B0200083B020008E91A00083B02000846
:1000E0003B0200083B0200083B02000800F002F857
:1000F00000F03AF80AA090E8000C82448344AAF188
:100100000107DA4501D100F02FF8AFF2090EBAE885
:100110000F0013F0010F18BFFB1A43F0010318473B
:100120005026000070260000103A24BF78C878C11D
:10013000FAD8520724BF30C830C144BF04680C60ED
:10014000704700000023002400250026103A28BF35
:1001500078C1FBD8520728BF30C148BF0B60704739
:100160001FB51FBD10B510BD00F0D6F81146FFF742
:10017000F7FF01F0EFFC00F0F4F803B4FFF7F2FF33
:1001800003BC00F0FBF80000224B19680868B0E8D7
:10019000F00F80F30988BFF36F8F4FF0000080F3FA
:1001A00011884EF00D0E70470000000006480068F0
:1001B000006880F3088862B661B6BFF34F8FBFF363
:1001C0006F8F00DF00BF00BF08ED00E0EFF3098094
:1001D000BFF36F8F0F4B1A6820E9F00F106008B55E
:1001E0004FF0500080F31188BFF34F8FBFF36F8F34
:1001F00002F0EAF84FF0000080F31188BDE80840F3
:1002000019680868B0E8F00F80F30988BFF36F8FB2
:10021000704700BF14000020EFF305807047000016
:100220000948804709480047FEE7FEE7FEE7FEE78A
:10023000FEE7FEE7FEE7FEE7FEE7FEE704480549C6
:10024000054A064B70470000D5170008ED0000086E
:100250005811002058170020581300205813002070
:1002600010B5203AC0F00B80B1E81850203AA0E851
:100270001850B1E81850A0E81850BFF4F5AF5FEA85
:10028000027C24BFB1E81850A0E8185044BF18C938
:1002900018C0BDE810405FEA827C24BF51F8043BDF
:1002A00040F8043B08BF7047D20728BF31F8023B33
:1002B00048BF11F8012B28BF20F8023B48BF00F8C7
:1002C000012B70474FF0000200B513469446964646
:1002D000203922BFA0E80C50A0E80C50B1F1200159
:1002E000BFF4F7AF090728BFA0E80C5048BF0CC007
:1002F0005DF804EB890028BF40F8042B08BF704765
:1003000048BF20F8022B11F0804F18BF00F8012BD6
:100310007047704770477047754600F02BF8AE463F
:1003200005006946534620F00700854618B020B501
:10033000FFF784FFBDE820404FF000064FF00007B4
:100340004FF000084FF0000B21F00701AC46ACE87D
:10035000C009ACE8C009ACE8C009ACE8C0098D46EA
:10036000704710B50446AFF300802046BDE810404A
:10037000FFF703BF00487047F41000200149182020
:10038000ABBEFEE7260002007047FEE7014800F022
:1003900091B8000078030020014800F08BB80000FD
:1003A0003403002030B590F840500124AC40C56BB8
:1003B0006C60046863604368102B036803D0996025
:1003C0000068C26030BD9A600068C16030BD70478F
:1003D00072B6FEE710B590F821100022022905D070
:1003E0000421816380F82020012010BD01680B6882
:1003F00023F00E030B6001680B6823F001030B6010
:1004000090F84030012404FA03F1C36B596080F87E
:10041000214080F82020104610BD000010B590F853
:1004200021100024022903D00421816301243DE02E
:1004300001680A6822F00E020A6001680A6822F068
:1004400001020A601A4A0168914201D1012121E0AA
:10045000174A1432914201D110211BE0144A28326C
:10046000914201D1891515E0114A3C32914201D1E6
:1004700089140FE00E4A5032914202D14FF480317C
:1004800008E00B4A6432914202D14FF4801101E03E
:100490004FF08071064A083A5160012180F821101E
:1004A000002180F82010416B01B18847204610BD23
:1004B000080002402DE9F05FC16B0B6801680A6813
:1004C000046C4FF0040C0CFA04FC4A4DDFF828A130
:1004D0004A4E4B4FDFF82CB1DFF82CE11CEA030F3A
:1004E0002DD05FEA427C2AD50A68920603D40A68B6
:1004F00022F004020A600168A94201D1042119E036
:10050000514501D1402115E0B14202D14FF4806143
:1005100010E0B94202D14FF480410BE0594502D1BD
:100520004FF4802106E0714502D14FF4800101E0D3
:100530004FF080612F4A083A5160C16A3BE04FF0AA
:10054000020808FA04F818EA030F4FF000094FF008
:10055000010C35D05FEA827832D50A68920605D45C
:100560000A6822F00A020A6080F821C00168A942E4
:1005700001D1022119E0514501D1202115E0B142FC
:1005800002D14FF4007110E0B94202D14FF4005192
:100590000BE0594502D14FF4003106E0714502D11C
:1005A0004FF4001101E04FF00071124A083A516017
:1005B00080F82090816A00291AD0BDE8F05F0847D2
:1005C0000825A5401D4213D0120711D50A6822F054
:1005D0000E020A6090F84010C26B0CFA01F15160F3
:1005E000C0F838C080F821C080F82090016BE2E7A5
:1005F000BDE8F09F080002401C00024030000240AD
:1006000044000240580002406C00024030B528B35C
:1006100002C8134A14230A44B2FBF3F29200C263E5
:10062000104A8263022242770B6843F6F0729343CA
:10063000D0E900242243D0E902452C432243046937
:10064000224344692243846922431A430A600021F9
:100650004163012242770177084630BD012030BD59
:10066000F8FFFDBF0000024070B5044690F820007E
:10067000002501280CD0012084F8200094F8216086
:100680000020012E06D084F820000225284670BDE7
:10069000022070BD022684F82160A06320680668ED
:1006A00026F0010606602046FFF77CFEE06A00287F
:1006B0002068016802D041F00E0106E021F004013B
:1006C00001602068016841F00A010160206801684A
:1006D00041F001010160D9E72DE9F84FDFF8A4915D
:1006E0000024A9F1040B23464FF00F0809F1040A76
:1006F000ABF1040EBEE00127A7403A40BA4272D1E6
:10070000DFF884C14D68A5EB0C0665452BD00DDCE8
:10071000032D34D005DC35B3012D19D0022D2FD196
:100720001BE0112D16D0122D2AD119E0B6F5881F25
:1007300019D006DCB6F5803F15D0B6F5801F1FD165
:1007400011E0B6F5001F0ED0B6F5041F18D10AE06F
:10075000CB6815E0CB681B1D12E0CB6808330FE0B7
:10076000CB680C330CE08B682BB1012B4FF00803E6
:1007700003D0476104E0042302E0076100E00023A6
:10078000FF2A01D8064601E000F104064FEA84057D
:1007900001D9A5F12005376808FA05FC27EA0C07FE
:1007A00003FA05F547EA050737604D68ED0060D5A7
:1007B000364DAE6946F00106AE61AD6924F0030620
:1007C00005F001050095324D7719BE68A5072D0F7C
:1007D00008FA05FC26EA0C06DFF8B8C0604503D12C
:1007E0004FF0000C17E044E0DFF8ACC0604502D1E8
:1007F0004FF0010C0FE0DFF8A4C0604502D14FF0CC
:10080000020C08E0DFF898C0604502D14FF0030CFD
:1008100001E04FF0040C0CFA05FC4CEA060CC7F89A
:1008200008C04D68D9F80060ED024D4601D5164369
:1008300000E096432E604D68DAF80060AD02554640
:1008400001D5164300E096432E604D68DBF800604A
:10085000AD035D4601D5164300E096432E604D681A
:10086000DEF80060ED03754601D5164300E09643BF
:100870002E60641C0A6832FA04F57FF43CAFBDE8D0
:10088000F88F000008040140000011100010024021
:100890000000014000080140000C01400010014030
:1008A000001401400AB1016170470904FBE7000030
:1008B00001488068704700000400002002488168F9
:1008C000027811448160704704000020074810B589
:1008D000016841F010010160032000F0A1F80F2031
:1008E00000F006F800F04AF8002010BD0020024099
:1008F00030B505461C4887B0816941F400618161CB
:10090000806905A900F400600690684600F036F999
:1009100000F064F91549164AB0FBF1F11548491E7B
:10092000026040F2E732C26000220261C0E90112B7
:10093000826100F017FB040012D10E4800F040FB6A
:1009400004000DD1192000F03DF8102D07D200222F
:100950002946192000F044F80748056000E001240A
:1009600007B0204630BD00000010024040420F009A
:10097000002C0140BC030020080000200F4808B5EF
:10098000816941F001018161816901F001010091FA
:10099000C16941F08051C161C069002200F08050FE
:1009A00000900F21901E00F01BF80549486820F0C8
:1009B000E06040F00070486008BD00000010024098
:1009C00000000140002809DB00F01F0201219140D6
:1009D0004009800000F1E020C0F8001170470000DD
:1009E000F0B40E4B1B68C3F30223C3F10704042CBD
:1009F00000D904241D1D072D01D2002300E0DB1EB9
:100A0000012606FA04F56D1E0D409D409E40761E9F
:100A1000164045EA0601F0BC01F06DB80CED00E0AF
:100A2000064A00F0070110684FF6FF03184040EA3D
:100A30000120034908431060704700000CED00E0FE
:100A40000000FA052DE9F0470D46040067D0DFF8F5
:100A50001881D8F8000000F00700A8420CD2D8F89E
:100A6000001021F007012943C8F80010D8F8000051
:100A700000F00700A84252D120683C4E810712D5F1
:100A8000400703D5706840F4E0607060207800078C
:100A900003D5706840F4605070607068A16820F001
:100AA000F000084370602078C00727D060680128F4
:100AB00010D03168022810D0890700292FDA716818
:100AC00021F0030101437160FFF7F2FE074641F296
:100AD00088390CE031688903EFE78901EDE7FFF71A
:100AE000E7FEC11B494502D90320BDE8F0877068C5
:100AF000616800F00C00B0EB810FF0D1D8F8001065
:100B0000404601F00701A9420BD9016821F0070115
:100B100029430160006800F00700A84201D00120CD
:100B2000E3E72078400705D57068E16820F4E060CD
:100B3000084370602078000706D57068216920F4AA
:100B4000605040EAC100706000F058F87168084ACF
:100B5000C1F30311515CC8400649086006480068AB
:100B6000FFF7C6FE0020C0E7002002400010024050
:100B70004A27000810000020080000200F22026011
:100B80000C4A536803F003034360536803F0F00317
:100B90008360536803F4E063C36052684FF4E0631A
:100BA00003EAD20202610448006800F0070008600E
:100BB0007047000000100240002002400448054930
:100BC00000684968044AC1F30221515CC84070477B
:100BD00010000020001002405A2700080448054970
:100BE00000684968044AC1F3C221515CC84070479B
:100BF00010000020001002405A2700080E4B5968D0
:100C00000E4801F00C02042A11D0082A0FD10C481A
:100C1000C1F38342C903805C0AD55968084AC1F30D
:100C20004041921E515C054A5043B0FBF1F07047C1
:100C300004494843704700000010024000127A0047
:100C40003A27000800093D002DE9F84F04006FD055
:100C50002078BE4DC00747D06868C0F381000128E6
:100C600007D06868C0F38100022809D16868C00312
:100C700006D52868800337D560680028E7D033E0C0
:100C80006068B0F5803F0BD010B1B0F5A02F11D047
:100C9000286820F480302860286820F4802002E052
:100CA000286840F480302860606888B1FFF700FE53
:100CB000064609E0286840F480202860F0E7FFF746
:100CC000F7FD801B642873D828688003F7D50BE0F4
:100CD000FFF7EEFD064604E0FFF7EAFD801B6428FF
:100CE000F1D828688003F7D42078DFF86482800781
:100CF0004FF0010A4FF0000939D5686810F00C0F69
:100D000007D06868C0F38100022809D16868C00371
:100D100006D42868800714D52069012808D110E07E
:100D20002069B0B1C8F800A0FFF7C2FD064605E093
:100D300007E1FFF7BDFD801B0228C4D828688007A3
:100D4000F7D52868616920F0F80040EAC100286002
:100D50000DE0C8F80090FFF7ABFD064604E0FFF792
:100D6000A7FD801B022823D828688007F7D42078A5
:100D700000072CD57748A169D9B1C0F800A0FFF7CA
:100D800097FD064604E0FFF793FD801B02280FD86D
:100D9000686A8007F7D570484FF4FA510068B0FBD5
:100DA000F1F0009000BF0098411E0091FAD20EE0D1
:100DB0007CE0C0F80090FFF77BFD064604E0FFF7FB
:100DC00077FD801B022871D8686A8007F7D42078E5
:100DD00040075BD5E8690027C00008D4E86940F007
:100DE0008050E861E869012700F0805000905B487E
:100DF0000168C90511D40168834641F4807101601E
:100E0000FFF756FD064604E0FFF752FD801B6428FD
:100E10004CD8DBF80000C005F6D5E06801280AD000
:100E200008B1052813D0286A20F001002862286A3A
:100E300020F0040002E0286A40F001002862E06827
:100E400041F2883B88B1FFF733FD064609E0286A86
:100E500040F004002862EEE7FFF72AFD811B5945A8
:100E60005BD8286A8007F7D50BE0FFF721FD06461F
:100E700004E0FFF71DFD811B59454ED8286A800705
:100E8000F7D41FB1E86920F08050E861E069A8B3A9
:100E90006968C1F38101022946D00228484606D07C
:100EA000C8F86000FFF704FD044639E035E0474626
:100EB000C8F86000FFF7FCFC064604E0FFF7F8FC0A
:100EC000801B022829D828688001F7D4206AB0F551
:100ED000803F05D16868A16820F40030084368604D
:100EE000D4E908010843696821F474110843686073
:100EF000C7F860A0FFF7DCFC044605E023E0FFF73D
:100F0000D7FC001B022808D828688001F7D51AE012
:100F1000FFF7CEFC001B022802D90320BDE8F88FA2
:100F200028688001F4D40EE00128F7D06868226AAE
:100F300000F48031914204D1616A00F4701088425B
:100F400001D00120EAE70020E8E70000001002409D
:100F50000000424280044242100000200070004025
:100F60007047704710B5040003D094F83D0010B1ED
:100F700007E0012010BD002084F83C00204600F06E
:100F80001EF8022084F83D00211D206800F02AFC94
:100F9000012084F8460084F83E0084F83F0084F87D
:100FA000400084F8410084F8420084F8430084F84B
:100FB000440084F8450084F83D00002010BD7047CF
:100FC00090F83D10012901D001207047022180F8DE
:100FD0003D100168CA6842F00102CA6000680B490E
:100FE000884208D0B0F1804F05D00949884202D02C
:100FF0000849884204D1816801F00701062903D01D
:10100000016841F00101016000207047002C01409F
:10101000000400400008004070472DE9F0410446FC
:101020000068C66805694FF00007A90713D5B10726
:1010300011D5F91E016101202077206880698007A1
:10104000204602D0FFF7E8FF04E000F07EF82046DB
:1010500000F07CF82777680716D5700714D521684B
:101060006FF004000861022020772068806910F486
:10107000407F204602D0FFF7CFFF04E000F065F884
:10108000204600F063F82777280715D5300713D5D9
:1010900021686FF008000861042020772068C0698B
:1010A0008007204602D0FFF7B7FF04E000F04DF8BC
:1010B000204600F04BF82777E80616D5F00614D541
:1010C00021686FF010000861082020772068C0694F
:1010D00010F4407F204602D0FFF79EFF04E000F0AE
:1010E00034F8204600F032F82777E80708D0F007F8
:1010F00006D021686FF001000861204600F028F852
:10110000280608D5300606D521686FF080000861F2
:101110002046FFF725FF680608D5700606D521682A
:101120006FF040000861204600F01CF8A8060AD5C0
:10113000B00608D521686FF0200008612046BDE8A0
:10114000F041FFF70EBFBDE8F08170477047000027
:1011500000680349884201D1FFF7B0BB7047000027
:10116000002C01407047704770470000F8B50168D7
:1011700004460868CA684B6910F00F0F4FF000056D
:1011800059D003F0010602F49077374365D0C107C8
:1011900005D0D10503D5616C41F0010161644107BF
:1011A00005D5D90703D0616C41F002016164810764
:1011B00005D5D90703D0616C41F0040161640107D2
:1011C00007D502F02001314303D0616C41F00801E2
:1011D0006164616C00293AD0800604D5900602D57E
:1011E000204600F0C3FB20684069616CC0F38010AA
:1011F000090700D460B3204600F083FB20684069F3
:10120000400621D52068143050E8001F21F040012D
:1012100040E80012002AF5D1E06BA8B16D494163A6
:10122000E06BFFF7FBF8002811D0E06B416B01B0D9
:10123000BDE8F040084783060FD593060DD520463C
:10124000BDE8F84000F092BB2046FFF78DFFF8BDE7
:101250002046FFF789FF6564F8BD266B2023012E29
:101260007CD1C6067AD5D60678D50868486800903D
:1012700048694FF00206400640D5E16B08684068B7
:101280000004000CE8D0A28D8242E5D9E08588698F
:1012900020282DD020680C3050E8001F21F48071E8
:1012A00040E80012002AF5D12068143050E8001FF1
:1012B00021F0010140E80012002AF5D12068143025
:1012C00050E8001F21F0400140E80012002AF5D14B
:1012D00084F84230256320680C3050E8001F21F06C
:1012E000100140E80012002AF5D1E06BFFF772F818
:1012F0006663A08DE18D401A81B22AE0A08DE18D58
:10130000401A81B2E08D0028A6D00029A4D0206820
:101310000C3050E8002F22F4907240E80027002F94
:10132000F5D12068143050E8002F22F0010240E887
:101330000027002FF5D184F84230256320680C3057
:1013400050E8002F22F0100240E80023002BF5D1D6
:1013500066632046FFF707FFF8BDFFE705062BD5BC
:10136000150629D594F841002128F5D1A068B0F5DB
:10137000805F01D12069B0B1206A411C21622168DF
:1013800000784860E08C401E0004000CE084E3D14B
:101390002068C16821F08001C1602068C16841F007
:1013A0004001C160D8E7206A0088C0F308004860A7
:1013B000206A801C2062E5E74006CDD55006CBD5DB
:1013C000CA68204622F04002CA6084F8413000F02A
:1013D000E1F8C1E75D18000870B5040004D094F886
:1013E0004100002510B106E0012070BD84F8405096
:1013F000204600F023F8242084F841002068C168CA
:1014000021F40051C160204600F012FB2068016900
:1014100021F4904101612068416921F02A01416174
:101420002068C16841F40051C1606564202084F8DF
:10143000410084F842006563002070BDF0B585B0BE
:1014400000250446009501950295039500682C49F6
:10145000884252D12B48C16941F40031C161C16950
:1014600001F400310491816941F0040181618069D6
:10147000254E00F00400049004200090022001900A
:101480000320039069463046FFF726F90820CDE98E
:101490000005694630460295FFF71EF91C4E1B48B1
:1014A000802701C61020A1C6194846F81059756159
:1014B000B561F561FFF7AAF808B1FEF789FFA663E9
:1014C0007462134E114844361438C6E90005C6E963
:1014D000025735617561B5613046F561FFF796F8E1
:1014E00008B1FEF775FFE66300220521262074622D
:1014F000FFF776FA2620FFF765FA05B0F0BD000089
:1015000000440040001002400008014080000240FA
:10151000340300207047000037B5044690F84100BE
:10152000202801D002203EBD019951B34AB3216267
:10153000A284E28400206064212384F84130A56BFA
:10154000114BAB62A56B114BEB62A56B104B2B6380
:10155000A36B586320681346A56B021D2846FFF74E
:1015600083F821686FF0400008602068143050E86C
:10157000001F41F0800140E80012002AF5D1002050
:101580003EBD01203EBD0000B7180008F918000854
:101590006D18000870477047FEE700000D4808B559
:1015A000416941F0010141614069002200F0010000
:1015B000009005211020FFF713FA1020FFF702FA20
:1015C000002205211120FFF70BFABDE80840112089
:1015D000FFF7F8B90010024000B587B01C22064999
:1015E0006846FEF73DFE0021684600F0DDFA03493B
:1015F000086007B000BD00001C27000800000020A4
:101600002DE9F04385B00024214800940194029410
:101610000394816941F020018161816901F0200119
:101620000491816941F004018161816901F0040143
:101630000491816941F0080181618069DFF854807B
:1016400000F008004FF4006504900022294640464F
:10165000FFF728F90122DFF840901602314648468C
:10166000FFF720F90127CDE90057022569464046DA
:10167000CDE90245FFF730F869464846CDE9024515
:10168000CDE90067FFF728F805B0BDE8F08300005A
:101690000010024000080140000C01400C4810B549
:1016A0000A4901604FF4E1314160002181600C2260
:1016B000C160C0E904128161C161FFF78DFE00289D
:1016C00003D0BDE81040FEF783BE10BD00440040CB
:1016D000EC020020FEE7FEE710B500231A4604E006
:1016E000845C521C23449BB2D2B28A42F8D3D8B253
:1016F00010BD00001CB5AA228DF800208DF8010055
:1017000000208DF8020020208DF8030001208DF8C4
:1017100004008DF8051006216846FFF7DDFF074934
:101720008DF80600009A0A60BDF804208A8088714E
:1017300007220348FFF7F0FE1CBD00007C000020DC
:10174000EC020020012000F023FAFBE710B5502046
:1017500080F31188BFF34F8FBFF36F8F00F010FF3E
:1017600018B104494FF080500860002080F31188C0
:1017700010BD000004ED00E030B58FB028216846B0
:10178000FEF7A0FD14210AA8FEF79CFD012001042C
:1017900000248DE8130004904FF4E010CDE9081008
:1017A000022507956846FFF74FFA08B172B6FEE7C3
:1017B0000F20CDE90A054FF48060CDE90C400221ED
:1017C0000AA80E94FFF73EF9002801D072B6FEE792
:1017D0000FB030BD704700000148FFF71EBC00008D
:1017E000BC030020F0B50268194C1A4D1A4E4FF098
:1017F0008047A04205D0B84203D0A84201D0B042F1
:1018000003D122F070034A681A43A04205D0B842BF
:1018100003D0A84201D0B04203D122F44073CA6879
:101820001A434B6922F080021A4302608A68C2623E
:101830000A688262A04201D1096901630121416104
:101840000169C90703D0016921F001010161F0BDFF
:10185000002C0140000400400008004010B5406A20
:101860000021C185C184FFF77FFC10BD70B5446ABB
:101870002068406994F84110C0F3C0100025212968
:1018800004D118B1E584204600F062F82068406970
:1018900094F84210C0F38010222904D118B1E585D4
:1018A000204600F02EF8606C40F010006064204686
:1018B000FFF75AFC70BD10B50146406A0968096817
:1018C000890616D40021C1840168143151E8002F23
:1018D00022F0800241E80023002BF5D101680C3191
:1018E00051E8002F42F0400241E80023002BF5D1DF
:1018F00010BDFFF74FFE10BD10B5406AFFF74BFE5D
:1019000010BD01680C3151E8002F22F4907241E8BB
:101910000023002BF5D10168143151E8002F22F08B
:10192000010241E80023002BF5D1016B012909D107
:1019300001680C3151E8002F22F0100241E8002329
:10194000002BF5D1202180F842100021016370475F
:1019500001680C3151E8002F22F0C00241E8002359
:10196000002BF5D1202180F84110704708B590F880
:101970004210222901D0022008BD81684FF4805313
:10198000994201D1026922B1826A99421BD049B1C0
:101990000AE00268816A5268C2F308020A80816A1A
:1019A000891C08E0016971B10168496801F07F0193
:1019B0001170816A491C8162C18D491E0904090C9C
:1019C000C18503D01BE001684968F1E70168CA6876
:1019D00022F02002CA600168CA6822F48072CA60DC
:1019E00001684A6922F001024A61202180F8421010
:1019F00000214163026B012A03D0FFF78BFD002019
:101A000008BD016301680C3151E8002F22F010027B
:101A100041E80023002BF5D101680A68D20602D5FF
:101A20000A6849680091818DFFF79DFBE7E7000098
:101A300070B5044600680169E26821F44051114321
:101A40000161A16820690143606901432068C2689F
:101A500041F20C639A430A43C26020684169A2695B
:101A600021F44071114341611E492068884202D12E
:101A7000FFF7B4F801E0FFF7A1F800EBC00101EBBC
:101A80000011606864228000B1FBF0F3B3FBF2F355
:101A90006FF018067343B1FBF0F5B1FBF0F605EB00
:101AA0008305322303EB0515B5FBF2F5B6FBF2F621
:101AB00005F0F00505EB0615B1FBF0F6B1FBF0F013
:101AC000B0FBF2F06FF01801484306EB800003EB27
:101AD0000010B0FBF2F0216800F00F00284488608D
:101AE00070BD0000003801400148FFF73FBB000017
:101AF000EC020020FEE70907090E002804DB00F1D4
:101B0000E02080F80014704700F00F0000F1E020A2
:101B100080F8141D7047052000F09CFBFBE70000D7
:101B20001CB507490120CDE900010023802205A151
:101B3000074800F0CBFCBDE81C4000F007BC0000EB
:101B40008400002073746172745F7461736B0000B1
:101B500055200008FEF7BAFEFFF70EFEFFF750FD16
:101B6000FFF71CFDFFF79AFD0122D1020448FEF7A2
:101B700099FEFFF7D5FFFFF72FFD00F010F8FEE705
:101B80000008014001460020842900D0C81C70478D
:101B900010B500B9012000F05DFB002010BD10B5AC
:101BA00000F0D4FB002010BD7FB50D46044641690E
:101BB000B0F9080081B1A16971B1FFF7E3FFD4E981
:101BC00005128DE80700D4E900102B46226900F0C9
:101BD000AAFC039004B070BDFFF7D4FF03A9CDE9C0
:101BE0000001208A2B4682B2D4E9001000F06EFC7E
:101BF000012801D00020EDE70398EBE72DE9F04143
:101C0000184E0F460446F5683068001D00F058FA7B
:101C100038B9306890F82C10012088403169814330
:101C20003161601C07D137B13168BDE8F0410E4821
:101C3000091D00F08ABA30682C44AC424460316817
:101C400005D2B06BBDE8F041091D00F066BA706BBB
:101C5000091D00F062FAB06A844200D2B462BDE8A5
:101C6000F081000014000020E00400202DE9F04184
:101C7000054600F077FA2E4EB068401CB060306820
:101C80002C4F10B1706940B32DE03560B068012869
:101C900029D1002404EB840007EB800000F02FFA28
:101CA000641C072CF6D323488C3000F028FA214816
:101CB000A03000F024FA1F48B43000F020FA1D488C
:101CC000C83000F01CFA1B48DC3000F018FA194844
:101CD0008C3070631430B06305E03068E96AC06A24
:101CE000884200D83560706A0121401C7062E86A41
:101CF000326981401143316100EB800007EB8000C5
:101D0000291D00F022FA00F04DFA706900280CD06D
:101D10003068E96AC06A884207D207494FF08050AC
:101D20000860BFF34F8FBFF36F8FBDE8F0810000F5
:101D3000140000200404002004ED00E010B5044667
:101D400090F8510058B101280CD002280FD0502033
:101D500080F31188BFF34F8FBFF36F8FFEE7206BC7
:101D600000F034FA2046BDE8104000F02FBA10BD54
:101D700010484FF44061420706D0C01D0D4920F0C5
:101D80000700411AC1F540610B4A00230144C2E932
:101D900000030839183A21F0070111604B600B600D
:101DA0000B1AC0E9001393604FF00040536050617C
:101DB00070470000F404002068000020134E144D0A
:101DC000A6F1C8074FF08058DFF8489011E000F006
:101DD000C9F9F068C468201D00F072F9A868401EB7
:101DE000A8606868401E686000F0DCF92046FFF7D4
:101DF000A5FF68680028EAD138680128F9D9C9F830
:101E00000080BFF34F8FBFF36F8FF2E7CC04002049
:101E10001400002004ED00E02DE9F0479A46DDE9CA
:101E2000098481466FF00303206B03EB82021044A8
:101E3000089D20F00706700707D0502080F3118816
:101E4000BFF34F8FBFF36F8FFEE7002761B1002014
:101E500023180A5C83F834200A5C12B1401C102855
:101E6000F6D384F8437001E084F83470072D00D372
:101E70000625E562C4E91157201D00F04BF904F175
:101E8000180000F047F92461C5F107006462A06101
:101E9000E76484F8507052464946304600F0C0F876
:101EA0002060B8F1000F01D0C8F80040BDE8F0870D
:101EB00030B5114900E011460A688242FBD34B68F5
:101EC0005C18844203D1406818444860084643685F
:101ED0001C18944209D1084C183C2468A24209D02D
:101EE00052681A4442600A6812680260814200D057
:101EF000086030BD0460F9E7680000200648416BC7
:101F0000096829B1416BC968C9684968816270472D
:101F10004FF0FF31FAE70000140000200848406845
:101F2000401C4FF0500080F3118804D0BFF34F8F56
:101F3000BFF36F8FFEE7BFF34F8FBFF36F8FFEE7E7
:101F4000700000202DE9F0410546002600F034FA2B
:101F5000324F386808B9FFF70BFF786905424ED158
:101F6000C5B3083568070ED005F00700C0F10800BA
:101F70000544680707D0502080F31188BFF34F8FC6
:101F8000BFF36F8FFEE72DB37868854237D82349BA
:101F900018310846046801E0214604466068A842FA
:101FA00002D220680028F7D13868844227D00E6812
:101FB0002068086060680836411B10290FD9601935
:101FC000420708D0502080F31188BFF34F8FBFF332
:101FD0006F8FFEE713E041606560FFF769FF61689E
:101FE0007868401A7860BA68904200D2B860786920
:101FF00001430020C4E90001F868401CF86000F0CB
:102000002BFB700707D0502080F31188BFF34F8F50
:10201000BFF36F8FFEE73046BDE8F081500000202F
:1020200010B5031F4FF080741C601B1F21F00101CD
:102030001960191F024B0B60143940380A6010BD3B
:102040001D1F000801210846FFF754FB0A2000F07D
:1020500001F9F7E77CB500F085F80F480325CDE9D5
:102060000050002380220DA1104800F02FFA0A4CE6
:102070000023241F8022E06004F10800CDE9005015
:102080000BA10E4800F022FA206100F08BF82068C6
:10209000BDE87C4000F004B9880000206C765F64E5
:1020A000656D6F5F7461736B00000000171B0008A3
:1020B00072733438355F7461736B0000452000081B
:1020C000D0E9013201699A60D0E901235A604A6877
:1020D000824201D182684A60002202610868401E83
:1020E0000860086870470000034B036003F1540068
:1020F000086080201060704798000020704700F151
:1021000008014FF0FF32C0E90112C16001610021F6
:102110000160704700210161704730B50C68621C96
:1021200002D000F1080202E0026904E01A46536896
:102130001D68A542FAD953684B6099608A60516066
:1021400008610168491C016030BD42684A609368BB
:102150008B6093685960916008610168491C016057
:1021600070470000502080F31188BFF34F8FBFF3FA
:102170006F8F0A494868401C486001280CD1084804
:10218000006810F0FF0F07D0502080F31188BFF3D4
:102190004F8FBFF36F8FFEE7704700007000002085
:1021A00004ED00E00849486828B1401E486001D1AC
:1021B00080F311887047502080F31188BFF34F8F50
:1021C000BFF36F8FFEE700007000002070B500289D
:1021D0002AD0164DA0F1080460686969084207D149
:1021E000502080F31188BFF34F8FBFF36F8FFEE74E
:1021F00022683AB1502080F31188BFF34F8FBFF3AC
:102200006F8FFEE78843606000F0D6F86068696809
:10221000084468602046FFF74BFE2869401C28618F
:10222000BDE8704000F018BA70BD000050000020FA
:102230004FF0E02000210161816105494FF47A727D
:102240000968B1FBF2F1491E416107210161704744
:102250001000002010B5020014D00F48006B38B1F8
:10226000502080F31188BFF34F8FBFF36F8FFEE7CD
:1022700000F0A2F800211046FFF7C0FC00F0ECF9D6
:10228000002807D105494FF080500860BFF34F8FF9
:10229000BFF36F8F10BD00001400002004ED00E0BC
:1022A00070B50446FFF75EFF254D04B92C68201D6C
:1022B000FFF706FF58B9E06A224A00EB800152F8A6
:1022C000211021B901218140286988432861A06A31
:1022D00018B104F11800FFF7F3FE686A401C686249
:1022E0002868844208D11748211DC830FFF72DFF08
:1022F0006868401C686007E0A868401EA860204627
:10230000FFF71CFDFFF7FAFDFFF74CFF6869002897
:1023100014D02868844211D1286B38B1502080F342
:102320001188BFF34F8FBFF36F8FFEE706494FF061
:1023300080500860BFF34F8FBFF36F8F70BD0000F8
:10234000140000200404002004ED00E010B586B065
:102350000024039405AA04A903A80494FFF7C4FE6B
:10236000DDE903010094CDE9011000230EA110481E
:10237000059A00F0D8F80F490028C86211D0502003
:1023800080F31188BFF34F8FBFF36F8F4FF0FF3093
:10239000886201204861CC6006B0BDE8104000F0C2
:1023A00041B806B010BD000049444C450000000093
:1023B000BD1D0008140000200248016B491C016388
:1023C0007047000014000020144A106B10B1012067
:1023D000D06170470020D06110691149B0FA80F0D7
:1023E000C0F11F0000EB800051F820306BB101EB11
:1023F000800000F10803416849684160994201D1B9
:1024000049684160C86810607047502080F31188A7
:10241000BFF34F8FBFF36F8FFEE700001400002063
:10242000040400201CB5264908780190FF2008709C
:1024300008788DF800009DF800009DF8002000F05D
:10244000F000904207D0502080F31188BFF34F8FE7
:10245000BFF36F8FFEE79DF800001A4C00F05000AC
:1024600020700720A06006E0401EA0609DF80000DC
:1024700040008DF800009DF800000006A068F3D42D
:10248000032807D0502080F31188BFF34F8FBFF38C
:102490006F8FFEE74FF44070A060019808700A4803
:1024A000016841F470010160016841F07041016010
:1024B000FFF7BEFE00206060FDF778FE00201CBD27
:1024C00000E400E07000002020ED00E02DE9FF5F57
:1024D0008346DDE90E87994616468A469000FFF747
:1024E00031FD05001CD05420FFF72CFD040014D052
:1024F0000020256384F85100CDE90240CDE9008732
:102500004B46324651465846FFF786FC2046FFF7B9
:10251000ADFB012004B0BDE8F09F2846FFF756FE52
:102520004FF0FF30F6E7F0B585B00546DDE90B0466
:102530000A9EA8B1E4B1542700972063022084F8D2
:1025400051000020CDE9024004AF2846CDE90067E4
:10255000FFF762FC2046FFF789FB049805B0F0BD49
:10256000502080F31188BFF34F8FBFF36F8FFEE7CA
:10257000502080F31188BFF34F8FBFF36F8FFEE7BA
:102580002DE9F041324F0026386B38B1B869401C54
:10259000B861FFF7B3FD3046BDE8F081FD686D1C02
:1025A000FD6013D1786B006838B1502080F311883A
:1025B000BFF34F8FBFF36F8FFEE7786BB96B796313
:1025C000B863386A401C3862FFF798FCB86ADFF8D5
:1025D0008480854209D3786B006890B1786BC068BD
:1025E000C468606885420FD2B8623868C06A00EB80
:1025F000800158F82100012800D90126B86900B3EC
:1026000021E04FF0FF30EFE7201DFFF759FDA06AF2
:1026100018B104F11800FFF753FDE06A01213A698F
:1026200081401143396100EB800108EB8100211DDD
:10263000FFF78BFDE06A3968C96A8842CBD301266F
:10264000C9E7FFF75BFDF8690028A4D00126A2E7DF
:1026500014000020040400202DE9F0472C4D002434
:102660002746286B38B1FFF77DFD286B401E286395
:10267000286B40B146E0502080F31188BFF34F8FA4
:10268000BFF36F8FFEE7A86822490126D0B3A1F1FE
:10269000B4098846D8F80010E9B1D8F80C00C4682D
:1026A00004F11800FFF70CFD201DFFF709FDE06A9B
:1026B0002A6906FA00F11143296100EB800109EB58
:1026C0008100211DFFF741FDE06A2968C96A88423F
:1026D000E0D3EE61DEE70CB1FFF710FCAC693CB172
:1026E000FFF74EFF00B1EE61641EF9D10020A86132
:1026F000E86938B10849012738070860BFF34F8FF0
:10270000BFF36F8FFFF74EFD3846BDE8F08700003E
:1027100014000020B804002004ED00E06427000845
:1027200045170008000000000000000080000000C5
:10273000000000000000000001020203040506077B
:1027400008090A0B0C0D0E0F10100000000000000D
:10275000000001020304060708090000000001024E
:102760000304000064656661756C745461736B00EA
:1027700090270008000000209800000028010008B1
:102780002828000898000020C01600004401000816
:102790000000000001000000100000000000000028
:1027A00000127A000000000000000000000000009D
:1027B0000000000000000000000000000000000019
:1027C0000000000000000000000000000000000009
:1027D00000000000000000000000000000000000F9
:1027E00000000000000000000000000000000000E9
:1027F00000000000000000000000000000000000D9
:1028000000000000AAAAAAAA000000000000000020
:1028100000000000000000000000000000000000B8
:082820000000000000000000B0
:04000005080000ED02
:00000001FF
