:020000040800F2
:10000000D8150020610200086F2000083116000892
:100010006D200008690300086D250008000000003D
:10002000000000000000000000000000C9010008FE
:10003000B1030008000000000D0200087121000853
:100040007B0200087B0200087B0200087B0200089C
:100050007B0200087B0200087B0200087B0200088C
:100060007B0200087B0200087B0200087B0200087C
:100070007B0200087B0200087B0200087B0200086C
:100080006D030008790300087B0200087B0200086A
:100090007B0200087B0200087B0200087B0200084C
:1000A0007B020008FD2100087B0200087B0200089B
:1000B0007B0200087B0200087B0200087B0200082C
:1000C0007B0200087B0200087B0200087B0200081C
:1000D0007B0200087B020008252500087B0200083F
:1000E0007B0200087B0200087B02000800F002F897
:1000F00000F05AF80AA090E8000C82448344AAF168
:100100000107DA4501D100F04FF8AFF2090EBAE865
:100110000F0013F0010F18BFFB1A43F0010318473B
:10012000D0410000F04100000A444FF0000C10F8EC
:10013000013B13F0070408BF10F8014B1D1108BF65
:1001400010F8015B641E05D010F8016B641E01F805
:10015000016BF9D113F0080F1EBF10F8014BAD1C55
:100160000C1B09D16D1E58BF01F801CBFAD505E073
:1001700014F8016B01F8016B6D1EF9D59142D6D3CD
:10018000704700000023002400250026103A28BFF5
:1001900078C1FBD8520728BF30C148BF0B607047F9
:1001A0001FB51FBD10B510BD00F0A4F81146FFF734
:1001B000F7FF02F091FB00F0C2F803B4FFF7F2FF83
:1001C00003BC00F0CBF80000224B19680868B0E8C7
:1001D000F00F80F30988BFF36F8F4FF0000080F3BA
:1001E00011884EF00D0E70470000000006480068B0
:1001F000006880F3088862B661B6BFF34F8FBFF323
:100200006F8F00DF00BF00BF08ED00E0EFF3098053
:10021000BFF36F8F0F4B1A6820E9F00F106008B51D
:100220004FF0500080F31188BFF34F8FBFF36F8FF3
:1002300002F0CAFB4FF0000080F31188BDE80840CF
:1002400019680868B0E8F00F80F30988BFF36F8F72
:10025000704700BF1C000020EFF3058070470000CE
:100260000948804709480047FEE7FEE7FEE7FEE74A
:10027000FEE7FEE7FEE7FEE7FEE7FEE70448054986
:10028000054A064B70470000FB210008ED000008FE
:10029000D80F0020D8150020D8110020D811002038
:1002A0004FF0000200B5134694469646203922BF0F
:1002B000A0E80C50A0E80C50B1F12001BFF4F7AF5A
:1002C000090728BFA0E80C5048BF0CC05DF804EB3C
:1002D000890028BF40F8042B08BF704748BF20F8AA
:1002E000022B11F0804F18BF00F8012B70477047A8
:1002F00070477047754600F02BF8AE46050069461A
:10030000534620F00700854618B020B5FFF7B6FF2A
:10031000BDE820404FF000064FF000074FF0000806
:100320004FF0000B21F00701AC46ACE8C009ACE887
:10033000C009ACE8C009ACE8C0098D46704710B5EB
:100340000446AFF300802046BDE81040FFF735BFFC
:1003500000487047740F00207047000001491820C2
:10036000ABBEFEE726000200FEE70000014800F0F9
:1003700099B90000E80D0020014800F093B9000091
:10038000A40D002030B590F840500124AC40C56B5E
:100390006C60046863604368102B04D00368996044
:1003A0000068C26030BD03689A600068C16030BDFB
:1003B000704772B6FEE700002DE9FF4F83B0054697
:1003C0008B46A946362001904FF000084FF0800A76
:1003D0004AE02F49059A08EB081011F810301278FE
:1003E00093423DD101EB400002904178059840785E
:1003F000814235D110231A465946284601F0D2FBD6
:1004000001F02AFD0026002402988719069878B189
:10041000B8782AFA04F1084203D05946284601F078
:1004200035FA6D1CADB2A5EB0900102829D00FE0FC
:10043000B8782AFA04F1084205D01548001F008850
:1004400001F0CCFC04E01248001F408801F0C6FC1B
:10045000641CE4B2082CD9D3761CF6B2202ED2D379
:1004600008F101081FFA88F801988045B1D30948BE
:1004700000214388028807B00846BDE8F04F01F02C
:1004800091BB4D460BF1010B1FFA8BFBE4E700001B
:100490005C000020640F00202DE9FF4F83B005466B
:1004A0008B46A946062001904FF000084FF0800AC5
:1004B0004AE008EB88002E49059A00EB481011F835
:1004C0001030127893423BD101EB4000029041780A
:1004D00005984078814233D118231A465946284658
:1004E00001F060FB01F0B8FC002600240298871997
:1004F000069878B1B8782AFA04F1084203D0594630
:10050000284601F0C3F96D1CADB2A5EB090018280F
:1005100027D00DE0B8782AFA04F1084204D0154833
:10052000008801F05BFC03E01248408801F056FCB3
:10053000641CE4B2082CDBD3761CF6B2482ED4D36C
:1005400008F101081FFA88F801988045B1D30A48DC
:1005500000214388028807B00846BDE8F04F01F04B
:1005600021BB4D460BF1010B1FFA8BFBE4E70000AA
:100570008807002058000020640F00202DE9FF4F5D
:1005800083B005468B46A946082001904FF000082D
:100590004FF0800A48E02E49059A08EB881011F8C0
:1005A0001030127893423BD101EB40000290417829
:1005B00005984078814233D120231A46594628466F
:1005C00001F0F0FA01F048FC002600240298871997
:1005D000069878B1B8782AFA04F1084203D059464F
:1005E000284601F053F96D1CADB2A5EB0900202897
:1005F00027D00DE0B8782AFA04F1084204D0154853
:10060000008801F0EBFB03E01248408801F0E6FBB4
:10061000641CE4B2082CDBD3761CF6B2802ED4D353
:1006200008F101081FFA88F801988045B3D30A48F9
:1006300000214388028807B00846BDE8F04F01F06A
:10064000B1BA4D460BF1010B1FFA8BFBE4E700003A
:100650004409002058000020640F002010B590F8D5
:1006600021100022022905D00421816380F8202076
:10067000012010BD01680B6823F00E030B600168B8
:100680000B6823F001030B6090F84030C46B01212C
:1006900001FA03F3636080F8211080F820201046EF
:1006A00010BD00002DE9F05FC16B0A6801680B689E
:1006B000046C4FF0040A0AFA04FA4E4D4E4E4F4FA6
:1006C000DFF83CC1DFF83C81DFF83C911AEA020F09
:1006D00031D05FEA437A2ED50A68920603D40A68BD
:1006E00022F004020A600168A94201D1042119E044
:1006F000B14201D1402115E0B94202D14FF48061ED
:1007000010E0614502D14FF480410BE0414502D138
:100710004FF4802106E0494502D14FF4800101E009
:100720004FF08061334A083A5160C16A00295FD0B6
:10073000BDE8F05F08474FF0020E0EFA04FE1EEA15
:10074000020F4FF0000A4FF0010B35D05FEA837EB5
:1007500032D50A68920605D40A6822F00A020A60B5
:1007600080F821B00168A94201D1022119E0B1420B
:1007700001D1202115E0B94202D14FF4007110E0FF
:10078000614502D14FF400510BE0414502D14FF4D5
:10079000003106E0494502D14FF4001101E04FF06D
:1007A0000071144A083A516080F820A0816A00293B
:1007B0001ED0BDE8F05F08470825A540154217D0B8
:1007C0001A0715D50A6822F00E020A6090F8401048
:1007D000C26B0BFA01F15160C0F838B080F821B05B
:1007E00080F820A0016B002902D0BDE8F05F084727
:1007F000BDE8F09F080002401C00024030000240AB
:1008000044000240580002406C00024030B500280D
:1008100027D0001D144A50F8041C14230A44B2FBCC
:10082000F3F29200C263114A8263022242770A689D
:1008300043F6F0739A43D0E900342343D0E90245EC
:100840002C4323430469234344692343846923439A
:1008500013430B600021416301224277017700209E
:1008600030BD012030BD0000F8FFFDBF0000024098
:1008700070B50446002594F8200001280CD0012012
:1008800084F8200094F821600020012E06D084F81E
:1008900020000225284670BD022070BD022684F883
:1008A0002160A0632068066826F0010606602046E5
:1008B000FFF768FDE06A28B12068016841F00E0189
:1008C000016009E02068016821F0040101602068EE
:1008D000016841F00A0101602068016841F00101EE
:1008E0000160D7E770B5044600F014F90546601CB6
:1008F00002D004480078044400F00CF9401BA042E8
:10090000FAD370BD0C0000202DE9F84F002400231D
:10091000DFF8C4914FF00F08A9F1040B09F1040AA4
:10092000ABF1040ED1E00127A7403A40BA4275D19D
:10093000DFF8A8C14D68A5EB0C0665452BD00DDC92
:10094000032D34D005DC35B3012D19D0022D2FD164
:100950001BE0112D16D0122D2AD119E0B6F5881FF3
:1009600019D006DCB6F5803F15D0B6F5801F1FD133
:1009700011E0B6F5001F0ED0B6F5041F18D10AE03D
:10098000CB6815E0CB681B1D12E0CB6808330FE085
:10099000CB680C330CE08B6823B1012B04D0082307
:1009A000476105E0042303E00823076100E000231A
:1009B000FF2A01D8054601E000F1040502D84FEAFC
:1009C000840603E0A4F108064FEA86062F6808FAB9
:1009D00006FC27EA0C0703FA06F647EA06072F602B
:1009E0004D68ED0070D53E4DAE6946F00106AE6132
:1009F000AD6905F0010500953A4D24F0030677191D
:100A0000BE68A5072D0F08FA05FC26EA0C06DFF8DC
:100A1000D8C0604503D14FF0000C17E054E0DFF878
:100A2000CCC0604502D14FF0010C0FE0DFF8C0C030
:100A3000604502D14FF0020C08E0DFF8B8C0604515
:100A400002D14FF0030C01E04FF0040C0CFA05FC4E
:100A50004CEA060CC7F808C04D68ED0205D5D9F878
:100A600000501543C9F8005004E0D9F800509543F0
:100A7000C9F800504D68AD0205D5DAF800501543AD
:100A8000CAF8005004E0DAF800509543CAF8005064
:100A90004D68AD0305D5DBF800501543CBF8005089
:100AA00004E0DBF800509543CBF800504D68ED03AF
:100AB00005D5DEF800501543CEF8005004E0DEF80E
:100AC00000509543CEF80050641C0A6832FA04F5D1
:100AD0007FF429AFBDE8F88F080401400000111031
:100AE000001002400000014000080140000C0140DD
:100AF00000100140001401408068084201D001202C
:100B0000704700207047002A01D001617047090436
:100B10000161704701488068704700000C000020A8
:100B20000248816802781144816070470C000020FF
:100B300010B50748016841F010010160032000F082
:100B4000A1F80F2000F006F800F04AF8002010BDD0
:100B50000020024030B587B005461C48816941F449
:100B600000618161806900F40060009001A902A821
:100B700000F044F900F076F91549B0FBF1F1491E97
:100B80001548144A026040F2E732C2604160002218
:100B900002618260826100F05FFB044694B90E48F6
:100BA00000F080FB04466CB9192000F03DF8102DD0
:100BB00007D200222946192000F044F807480560B2
:100BC00000E0012407B0204630BD000000100240C4
:100BD00040420F00002C01402C0E0020100000208D
:100BE00008B50F48816941F001018161816901F017
:100BF00001010091C16941F08051C161C06900F0FB
:100C00008050009000220F21901E00F01BF8054933
:100C1000486820F0E06040F00070486008BD0000C7
:100C20000010024000000140002809DB00F01F0214
:100C3000012191404009800000F1E020C0F800113E
:100C400070470000F0B40D460D4B1B68C3F3022340
:100C5000C3F10704042C00D90424191D072901D26B
:100C6000002300E0DB1E012606FA04F1491E29409C
:100C700099409E40761E16403143F0BC01F077BC8F
:100C80000CED00E000F00701054A10684FF6FF0385
:100C9000184040EA012003490843106070470000F3
:100CA0000CED00E00000FA052DE9F04704460D4682
:100CB000002C17D0DFF83081D8F8000000F00700D2
:100CC000A84211D2D8F8000020F007002843C8F845
:100CD0000000D8F8000000F00700A84204D001206E
:100CE000BDE8F0870120FBE72068404E810712D560
:100CF000400703D5706840F4E0607060207800071A
:100D000003D5706840F4605070607068A16820F08E
:100D1000F000084370602078C0072CD0606801287C
:100D200006D0022809D0316889070BD40120D7E703
:100D30003168890306D40120D2E73168890101D4E2
:100D40000120CDE7716821F0030101437160FFF7D5
:100D5000E1FE074641F2883906E0FFF7DBFEC01BE3
:100D6000484501D90320BBE77068616800F00C00BA
:100D7000B0EB810FF1D1D8F8000000F00700A842D5
:100D80000ED9D8F8000020F007002843C8F800006A
:100D9000D8F8000000F00700A84201D001209FE72A
:100DA0002078400705D57068E16820F4E0600843CA
:100DB00070602078000706D57068216920F46050C3
:100DC00040EAC100706000F05DF87168084AC1F344
:100DD0000311515CC8400749086007480068FFF7E5
:100DE000B9FE00207CE70000002002400010024015
:100DF000162B000818000020100000200F220260AF
:100E00000B4A536803F003034360536803F0F00395
:100E10008360536803F4E063C360526802F4605275
:100E2000D20802610348006800F0070008607047BC
:100E30000010024000200240014800687047000096
:100E40001800002000B5FFF7F7FF04494968044A7D
:100E5000C1F30221515CC84000BD000000100240F7
:100E6000262B000800B5FFF7E7FF04494968044A4C
:100E7000C1F3C221515CC84000BD00000010024017
:100E8000262B00080E4B59680E4801F00C02042A6C
:100E900011D0082A0FD10C48C1F38342805CC903EA
:100EA0000AD55968084AC1F34041921E515C054A6F
:100EB0005043B0FBF1F070470449484370470000CD
:100EC0000010024000127A00062B000800093D00C5
:100ED0002DE9F84F0446002C0ED02078D94DC007DC
:100EE0005ED06868C0F3810001280BD06868C0F349
:100EF0008100022803D00CE00120BDE8F88F68686B
:100F0000C00306D5286880034AD56068A8BB0120C5
:100F1000F3E76068B0F5803F11D0A8B1B0F5A02F1D
:100F20001BD0286820F480302860286820F48020B6
:100F30002860606830B3FFF7EDFD06461EE02868C4
:100F400040F480302860F4E7286820F4803028607E
:100F5000286820F480202860EBE7286840F480208F
:100F60002860286840F480302860E2E7FFF7D2FD6F
:100F7000801B642802D90320BFE711E028688003A2
:100F8000F4D50DE0FFF7C6FD064606E0FFF7C2FD0B
:100F9000801B642801D90320AFE728688003F5D4BB
:100FA0002078DFF8A48280074FF0010A4FF0000993
:100FB00045D5686810F00C0F07D06868C0F3810051
:100FC000022812D16868C0030FD42868800704D5AE
:100FD0002069012801D001208FE72868616920F08D
:100FE000F80040EAC100286029E02069B8B1C8F8DB
:100FF00000A0FFF78FFD064606E0FFF78BFD801B84
:10100000022801D9032078E728688007F5D52868E9
:10101000616920F0F80040EAC10028600FE0C8F8DC
:101020000090FFF777FD064606E0FFF773FD801B93
:10103000022801D9032060E728688007F5D42078CA
:10104000000726D58148A16999B1C0F800A0FFF733
:1010500061FD064606E0FFF75DFD801B022801D911
:1010600003204AE7686A8007F5D5012001F000F8FF
:101070000FE0C0F80090FFF74DFD064606E0FFF7D1
:1010800049FD801B022801D9032036E7686A8007E2
:10109000F5D42078400773D50026E869C00008D44D
:1010A000E86940F08050E861E86900F08050009005
:1010B0000126DFF89CB1DBF80000C00514D4DBF892
:1010C000000040F48070CBF80000FFF723FD0746D6
:1010D00006E0FFF71FFDC01B642801D903200CE7C1
:1010E000DBF80000C005F4D5E068012812D0B0B1EB
:1010F00005281DD0286A20F001002862286A20F007
:1011000004002862E06841F2883B28B3FFF702FD43
:1011100007461DE0286A40F001002862F2E7286ACD
:1011200020F001002862286A20F004002862E9E724
:10113000286A40F004002862286A40F00100286212
:10114000E0E7FFF7E7FCC01B584501D90320D4E6D0
:10115000286A8007F5D50DE0FFF7DCFC074606E0BE
:10116000FFF7D8FCC01B584501D90320C5E6286A03
:101170008007F5D4012E03D1E86920F08050E861A2
:10118000E069A0B36968C1F38101022946D0022851
:1011900005D0C8F86090FFF7BDFC04463AE0C8F8F7
:1011A0006090FFF7B7FC064606E0FFF7B3FC801B34
:1011B000022801D90320A0E628688001F5D4206A1E
:1011C000B0F5803F05D16868A16820F4003008437D
:1011D0006860D4E908010843696821F47411084380
:1011E0006860C8F860A0FFF795FC044607E026E0B9
:1011F000FFF790FC001B022801D903207DE6286838
:101200008001F5D51BE0FFF785FC001B022801D902
:10121000032072E628688001F5D410E001280CD084
:101220006868226A00F48031914204D1616A00F456
:101230007010884203D001205FE601205DE60020A7
:101240005BE600000010024000004242800442427F
:10125000007000407047704710B50446002C03D062
:1012600094F83D0010B107E0012010BD002084F883
:101270003C00204600F015F8022084F83D00211DB6
:10128000206800F0C1FF01203D3460726070A070E2
:10129000E07020716071A071E071207220700020F8
:1012A00010BD704790F83D10012901D00120704712
:1012B000022180F83D100168CA6842F00102CA604C
:1012C00000680E49884208D0B0F1804F05D00C4923
:1012D000884202D00B49884209D1816801F0070198
:1012E000062908D0016841F00101016003E00168AE
:1012F00041F001010160002070470000002C014016
:10130000000400400008004070472DE9F041044609
:101310002068C56806694FF00007B10714D5A90712
:1013200012D5F91E016101202077206880698007AD
:1013300003D02046FFF7E8FF05E0204600F081F8E3
:10134000204600F07FF82777700717D5680715D576
:1013500021686FF00400086102202077206880690E
:1013600010F4407F03D02046FFF7CEFF05E0204673
:1013700000F067F8204600F065F82777300716D5AB
:10138000280714D521686FF0080008610420207731
:101390002068C069800703D02046FFF7B5FF05E04D
:1013A000204600F04EF8204600F04CF82777F00673
:1013B00017D5E80615D521686FF0100008610820E0
:1013C00020772068C06910F4407F03D02046FFF7E3
:1013D0009BFF05E0204600F034F8204600F032F88C
:1013E0002777F00708D0E80706D021686FF00100E2
:1013F0000861204600F028F8300608D5280606D5F2
:1014000021686FF0800008612046FFF723FF700617
:1014100008D5680606D521686FF0400008612046AF
:1014200000F01CF8B0060AD5A80608D521686FF0B0
:10143000200008612046BDE8F041FFF70CBFBDE881
:10144000F08170477047000000680349884201D16D
:10145000FFF766BB70470000002C014070477047E3
:1014600010B5044620684069C0F3C01094F84110DC
:10147000212911D180B12068143050E8001F21F0DB
:10148000800140E80012002AF5D1A06B08B1FFF7F7
:10149000E5F8204600F092FF20684069C0F3801014
:1014A00094F84210222911D180B12068143050E8FC
:1014B000001F21F0400140E80012002AF5D1E06B46
:1014C00008B1FFF7CBF8204600F051FF002010BD17
:1014D000704770B50446002C04D094F841000025F4
:1014E00010B106E0012070BD84F84050204600F0A5
:1014F00023F8242084F841002068C16821F40051B9
:10150000C160204600F068FF2068016921F4904125
:1015100001612068416921F02A0141612068C168A8
:1015200041F40051C1606564202084F8410084F8D2
:1015300042006563002070BDF0B585B0044600250B
:1015400001950295039504952C492068884253D152
:101550002B48C16941F40031C161C16901F4003116
:101560000091816941F004018161806900F004000B
:101570000090042001900220029003200490214E4C
:1015800001A93046FFF7C0F90820019002950395A4
:1015900001A93046FFF7B8F91C4E1B4830601020F7
:1015A0007060B5608027F76035617561B561F56180
:1015B0003046FFF72BF908B1FEF7FBFEA663746215
:1015C0001148124E1438443630607560B560F760CB
:1015D00035617561B561F5613046FFF717F908B1FE
:1015E000FEF7E7FEE6637462002205212620FFF77E
:1015F00029FB2620FFF718FB05B0F0BD0044004092
:10160000001002400008014080000240A40D0020AC
:1016100090F84230202B01D00220704721B11AB13E
:101620000023036300F034BF012070477047704708
:10163000FEE7000030B585B00E48816941F0080131
:101640008161806900F0080000904FF440640194CB
:10165000112002900120039003200490064D01A95F
:101660002846FFF751F9012221462846FFF74BFA99
:1016700005B030BD00100240000C014070B50122E1
:101680000C4DD40221462846FFF73DFA012296026E
:1016900031462846FFF737FA01F00EF900222146BD
:1016A0002846FFF730FA31462846BDE87040002250
:1016B000FFF729BA000C014070B50B4D4FF40064E0
:1016C000002221462846FFF71EFA012291022846F1
:1016D000FFF719FA01F0F0F821462846BDE87040FE
:1016E0000122FFF710BA0000000C014070B5012282
:1016F0000C4CD50229462046FFF705FA0122960236
:1017000031462046FFF7FFF929462046FFF7F4F956
:101710000028F9D131462046BDE870400022FFF78D
:10172000F2B90000000C01402DE9F041044600250B
:10173000144F4FF400684FF480660022314638465B
:10174000FFF7E1F9200605D5012241463846FFF7AB
:10175000DAF904E0002241463846FFF7D4F9600682
:10176000040E012231463846FFF7CDF96D1CEDB26B
:10177000082DE2D331463846BDE8F0410022FFF79C
:10178000C2B90000000C014070B5064600240948AB
:10179000018845884D430021084600F0E9F900F032
:1017A0005BFB03E0304600F019FB641CAC42F9D34C
:1017B00070BD0000640F00202DE9F041F0212C23C2
:1017C0002A252B26304C4FF4A072002806D0012881
:1017D00004D0022818D0032816D024E00027A771CF
:1017E0002180628023816581A68130B1362000F09E
:1017F000B7FAC02000F076FA15E0362000F0B0FA13
:10180000002000F06FFA0EE00127A77122806180AE
:1018100023816581A68102282FD0362000F0A0FA0E
:10182000602000F05FFA608900F09AFA002000F072
:1018300059FA002000F056FA2088401EC0F30F200D
:1018400000F050FA2078401EC0B200F04BFAA08998
:1018500000F086FA002000F045FA002000F042FA7D
:101860006088401EC0F30F2000F03CFAA078BDE86D
:10187000F041401EC0B200F035BA362000F070FAD8
:10188000A02000F02FFACEE7640F002010B500F082
:101890006FF900F0E1FA03480088BDE8104000F05D
:1018A0009DBA00005800002010B5144600F060F901
:1018B000034821460089BDE8104000F0D3BA00007B
:1018C000640F00202DE9F8438046DDF820901F4684
:1018D0001E4CA088A0F5D043043B02D1A07901287A
:1018E00005D0A2EB0800401C86B20D462BE00D4649
:1018F0002088811A491E89B23A46A0EB0800401E92
:1019000083B20020A0712A2666812B27A781284652
:10191000CDF80090FFF7D6FF0120A0716781A68166
:10192000BDE8F8832946404600F022F900F094FA19
:10193000002404E0484600F051FA641CA4B2B4420A
:10194000F8D36D1CADB2BD42ECD9E9E7640F0020BD
:101950002DE9F84F8246DDE90A45894693469846C7
:10196000ABEB04060AEB0407B2B2B8B243464946F1
:101970000095FFF7A7FFA8EB0408A1441FFA88F31E
:101980001FFA89F15A4650460095FFF79BFF1FFA50
:1019900089F1B8B22B46224600F031FF1FFA89F1D7
:1019A000B0B22B46224600F02AFF1FFA88F1B8B2E7
:1019B0002B46224600F023FF01B01FFA88F1B0B297
:1019C0002B462246BDE8F04F00F019BF10B5674C1A
:1019D000012280212046FFF796F8012000F0D7FD74
:1019E000002280212046FFF78EF80A2000F0CFFD6C
:1019F000012280212046FFF786F8782000F0C7FDFD
:101A0000112000F0ADF9782000F0C1FD362000F083
:101A1000A7F9002000F066F93A2000F0A1F90520AE
:101A200000F060F9B22000F09BF90C2000F05AF9A8
:101A30000C2000F057F9002000F054F9332000F09A
:101A400051F9332000F04EF9B72000F089F9352024
:101A500000F048F9BB2000F083F9282000F042F99B
:101A6000C02000F07DF92C2000F03CF9C22000F0ED
:101A700077F9012000F036F9C32000F071F90B204E
:101A800000F030F9C42000F06BF9202000F02AF9B2
:101A9000C62000F065F90F2000F024F9D02000F0F6
:101AA0005FF9A42000F01EF9A12000F01BF9E0204E
:101AB00000F056F9D02000F015F9012000F012F9DD
:101AC000082000F00FF90F2000F00CF9112000F0B1
:101AD00009F92A2000F006F9362000F003F9552014
:101AE00000F000F9442000F0FDF83A2000F0FAF888
:101AF0000B2000F0F7F8062000F0F4F8112000F0B9
:101B0000F1F8202000F0EEF8E12000F029F9D020D3
:101B100000F0E8F8022000F0E5F8072000F0E2F815
:101B20000A2000F0DFF80B2000F0DCF8182000F0AD
:101B3000D9F8342000F0D6F8432000F0D3F84A203A
:101B400000F0D0F82B2000F0CDF81B2000F0CAF8F0
:101B50001C2000F0C7F8222000F0C4F81F2000F07D
:101B6000C1F8BDE81040292000F0FAB80008014093
:101B700070B504460D460A4E708900F0F1F8200A4F
:101B800000F0B0F8E0B200F0ADF8B08900F0E8F88D
:101B9000280A00F0A7F8E8B2BDE8704000F0A2B84B
:101BA000640F00202DE9F04104460D46A018401EA8
:101BB00086B2E818401E87B2DFF84480B8F80A0001
:101BC00000F0CEF8200A00F08DF8E0B200F08AF8BC
:101BD000300A00F087F8F0B200F084F8B8F80C0092
:101BE00000F0BEF8280A00F07DF8E8B200F07AF8BC
:101BF000380A00F077F8F8B2BDE8F04100F072B8AA
:101C0000640F00202DE9F84F82460C461F46A3467C
:101C1000780701D0012000E0002000EBD700790810
:101C20004843C0B20090203A02F0FF09002649E084
:101C30000C2F14D0102F19D0182F46D1244909EB9E
:101C4000C90001EB8000855D4FF00008280612D521
:101C50002048214602885046FFF726FE13E01E4921
:101C600009EB490001EB8000855DEDE71B4800EBC7
:101C70000910855DE8E70A9828B916482146428888
:101C80005046FFF711FE6806050E641CA4B2144806
:101C90004088A04219D9A4EB0B00B84209D15C4698
:101CA0000AF1010A1FFA8AFA0D48008850450CD93A
:101CB00006E008F1010808F0FF08B8F1080FC5D3E5
:101CC000761CF6B200988642B2D3BDE8F88F0000C9
:101CD00092350008580000202E2B0008A22F000883
:101CE000640F00202DE9F0470546DFF86C900022D4
:101CF00040214846FEF707FF184E012202213046D8
:101D0000FEF701FF00244FF4805A4FF6FF78771456
:101D1000280605D5012251463046FEF7F4FE04E0C0
:101D2000002251463046FEF7EEFE08EA4505002245
:101D300039463046FEF7E7FE012239463046FEF7C7
:101D4000E2FE641CE4B2082CE2D34846BDE8F0474A
:101D500001224021FEF7D7BE00080140000C0140DF
:101D60002DE9F0470546DFF86C90002240214846F7
:101D7000FEF7C9FE184E002202213046FEF7C3FED0
:101D800000244FF4805A4FF6FF787714280605D5C3
:101D9000012251463046FEF7B6FE04E000225146CD
:101DA0003046FEF7B0FE08EA4505002239463046C7
:101DB000FEF7A9FE012239463046FEF7A4FE641C58
:101DC000E4B2082CE2D34846BDE8F04701224021A6
:101DD000FEF799BE00080140000C01402DE9F047D4
:101DE0000546DFF86C90002240214846FEF78BFE46
:101DF000184E012202213046FEF785FE00244FF4E2
:101E0000805A4FF6FF787714280405D501225146F1
:101E10003046FEF778FE04E0002251463046FEF7D9
:101E200072FE08EA4505002239463046FEF76BFE91
:101E3000012239463046FEF766FE641CE4B2102CDF
:101E4000E2D34846BDE8F04701224021FEF75BBEE1
:101E500000080140000C014001480089FFF780BFE5
:101E6000640F002010B50C46FFF77AFF2046BDE84E
:101E70001040FFF7B3BF70B5C0F30324C5B2FFF73E
:101E8000FDFBC020FFF750FCFFF730FC2046FFF7BA
:101E90004BFCFFF72BFC2846FFF746FCFFF726FC20
:101EA000FFF70AFCBDE870400A20FEF71BBD0000EA
:101EB00008B50D48416941F001014161406900F0F8
:101EC00001000090002205211020FEF7BBFE10202B
:101ED000FEF7AAFE002205211120FEF7B3FEBDE8A1
:101EE00008401120FEF7A0BE001002402DE9F0438B
:101EF00085B00025019502950395049549488169AF
:101F000041F010018161816901F010010091816946
:101F100041F020018161816901F020010091816916
:101F200041F004018161816901F00401009181693E
:101F300041F008018161806900F0080000903A4F8B
:101F40004FF6FF74002221463846FEF7DCFDDFF82D
:101F5000DC80012248F6B0114046FEF7D4FD002295
:101F600040214046FEF7CFFDDFF8C490012247F242
:101F7000AA014846FEF7C7FD00224FF454614846C7
:101F8000FEF7C1FD019401240294039402260496F5
:101F900001A93846FEF7B8FC48F2F010019002940F
:101FA0000394049601A94046FEF7AEFC47F2AA103E
:101FB000019002940394049601A94846FEF7A4FCFC
:101FC0004FF440600190112002900394049601A9FF
:101FD0004846FEF799FC4FF40240019002950394A5
:101FE00001A94846FEF790FCE00201900294039597
:101FF000049601A94046FEF787FC10200190029547
:10200000039501A94846FEF77FFC40200190029409
:102010000395049601A94846FEF776FC05B0BDE895
:10202000F083000000100240001001400008014051
:10203000000C014010B50C480A4901604FF4E13131
:10204000416000218160C16001610C2242618161B7
:10205000C161FFF73EFA002803D0BDE81040FEF74B
:10206000A8B910BD004400405C0D0020FEE7FEE76B
:1020700008B507494FF4FA520968B1FBF2F1414340
:10208000009100BF0098411E0091FAD208BD0000E7
:10209000180000202DE9F84F0546DDF828900F467E
:1020A00016461C46AA464FF00008DFF8C0B01BE0F9
:1020B000B8F1000F1DD0BBF80000001BA84216DBD2
:1020C000BBF80200001BB84211DB4FF00008202CC7
:1020D0003ED0182C43D04B46324639462846FEF7B0
:1020E0006BF9B61C281985B23278002AE0D1BDE818
:1020F000F88FBBF80000A0EB5400A842F7DBBBF858
:102100000200001BB842F2DB802A02D94FF001081E
:10211000EAE70D2A0BD0182C0ED31823394628468F
:10212000CDF80090FFF76EFD0C35ADB20EE038191A
:1021300087B25546761C09E0234639462846CDF835
:102140000090FFF75FFD05EB540085B2761CCBE7EE
:102150004B46324639462846FEF710FAC1E74B4651
:10216000324639462846FEF797F9BAE7640F002051
:1021700010B5502080F31188BFF34F8FBFF36F8FDE
:1021800000F052FC18B104494FF080500860002064
:1021900080F3118810BD000004ED00E030B58FB071
:1021A000282105A8FEF77CF814216846FEF778F888
:1021B0000121059108040690002407940991022545
:1021C0000C950D904FF4E0100E9005A8FEF780FEE0
:1021D00008B1FEF7EEF80F200090019502944FF43D
:1021E00080600390049402216846FEF75DFD00289C
:1021F00001D0FEF7DEF80FB030BD70470148FFF7A1
:1022000084B800002C0E0020F0B50268194C1A4D5D
:102210001A4E4FF08047A04205D0B84203D0A842E2
:1022200001D0B04203D122F070034A681A43A042A1
:1022300005D0B84203D0A84201D0B04203D122F465
:102240004073CA681A434B6922F080021A43026045
:102250008A68C2620A688262A04201D10969016388
:10226000012141610169C90703D0016921F0010120
:102270000161F0BD002C0140000400400008004056
:1022800070B5446A20684069C0F3C01094F84110EA
:102290000025212904D118B1E584204600F08EF8EC
:1022A00020684069C0F3801094F84210222904D1BC
:1022B00018B1E585204600F05AF8606C40F0100037
:1022C00060642046FFF704F970BD10B50146486A06
:1022D000096809684FF0000389062ED4C385016898
:1022E0000C3151E8002F22F4807241E80024002CC8
:1022F000F5D10168143151E8002F22F0010241E8C4
:102300000024002CF5D10168143151E8002F22F08F
:10231000400241E80024002CF5D1202180F8421031
:10232000016B012909D101680C3151E8002F22F01D
:10233000100241E80024002CF5D14363016B012910
:1023400002D0FFF773F910BD818DFFF788F810BD3B
:1023500010B5406A01214163016B012902D0FFF7EA
:1023600066F910BD818D4908FFF779F810BD016845
:102370000C3151E8002F22F4907241E80023002B29
:10238000F5D10168143151E8002F22F0010241E833
:102390000023002BF5D1016B012909D101680C3113
:1023A00051E8002F22F0100241E80023002BF5D164
:1023B000202180F8421000210163704701680C3130
:1023C00051E8002F22F0C00241E80023002BF5D194
:1023D000202180F84110704770B5044620680169DB
:1023E000E26821F4405111430161A1682069014371
:1023F000606901432068C26841F20C639A430A4352
:10240000C26020684169A26921F4407111434161B1
:102410001E492068884202D1FEF724FD01E0FEF744
:1024200011FD00EBC00101EB00106168642289001E
:10243000B0FBF1F3B3FBF2F36FF018067343B0FB9C
:10244000F1F5B0FBF1F605EB8305322303EB05153F
:10245000B5FBF2F5B6FBF2F605F0F00505EB061557
:10246000B0FBF1F6B0FBF1F0B0FBF2F06FF0180149
:10247000484306EB800003EB0010B0FBF2F021684C
:1024800000F00F002844886070BD00000038014053
:1024900037B582B004461346039AA262A385002092
:1024A0006064222184F84210E56B1B49A962E56B48
:1024B0001A49E962E56B1A492963E16B48632168AF
:1024C000E06B091DFEF7D4F92068016840680190AF
:1024D000206948B120680C3050E8001F41F4807139
:1024E00040E80012002AF5D12068143050E8001F9F
:1024F00041F0010140E80012002AF5D120681430B3
:1025000050E8001F41F0400140E80012002AF5D1D8
:1025100005B0002030BD0000CB2200085123000888
:102520008122000808B50E4800680168C943C90641
:1025300015D40168406800900948FEF791FF0948EA
:1025400000684068C0F1070107484170012101702F
:102550000722811CBDE808400148FFF759B808BDB3
:102560005C0D0020E80D002000000020FEE70907B8
:10257000090E002804DB00F1E02080F80014704709
:1025800000F00F0000F1E02080F8141D7047FEF706
:10259000A9B900002DE9FC5F0020EF2340F23F12B3
:1025A00001460090FFF78EF94FF426500A21009063
:1025B0002A2340F235120846FFF784F9604D4FF6A2
:1025C000FF762E805F4F4FF4265038800124182369
:1025D0005DA212213C200094FFF75CFD00200090DA
:1025E0005C2340F2351234210A20FFF76BF92E806C
:1025F00000203880182359A23A2178200094FFF750
:1026000049FD4FF4FC602880102357A2522150202E
:102610000094FFF73FFD42F2E0784FF00A09CDE960
:102620000098682114209E23A022FFF791F92E80A4
:10263000A7F8008010234FA26E211E200094FFF700
:1026400029FD4FF0820A10234CA251461E2000940F
:10265000FFF720FD4FF0920B10234BA259461E208E
:102660000094FFF717FD44F20820CDE900909E2367
:1026700068215A00B020FFF76BF92E8044F2082041
:102680003880102343A26E21BA200094FFF702FD88
:10269000102342A25146BA200094FFF7FBFC4FF4EE
:1026A0007840288010233FA25946BA200094FFF7B3
:1026B000F1FCCDE900984FF0E00B4FF0D40A142064
:1026C0005B46A022AA21FFF743F92E80A7F80080DD
:1026D000102338A2B0211E200094FFF7DBFC10234A
:1026E00036A2C4211E200094FFF7D4FC102336A28A
:1026F00051461E200094FFF7CDFCCDE900985B46C3
:102700004FF49E72AA21B020FFF722F92E80A7F87D
:10271000008010232FA2B021BA200094FFF7BAFC4A
:10272000102326A2C421BA200094FFF7B3FC102383
:102730002AA25146BA200094FFF7ACFCBDE8FC9FEA
:10274000580000205A000020B5E7B6AFB9A4BEDF9C
:10275000B3E4B5E7D5BE2076312E3000D6F7D5BE2E
:10276000D7B4CCAC00000000A1F120D5FDB3A3D4B8
:10277000CBD0D000D7D3D5BE20303100B3E4B5E7FD
:10278000D6D020322E35410033352E3556207C20D0
:1027900039305700D7D3D5BE20303200BFD5CFD087
:1027A00000000000A1F020C7EBC1ACBDD3B5E7B37A
:1027B000D8000000D7D3D5BE20303300B3E4B5E74E
:1027C000D6D020324100000034332E3056207C20F9
:1027D00032355700D7D3D5BE20303400302E365690
:1027E000207C20323557000008B5002A06D002446C
:1027F000521E009392B20B46FFF764F808BD2DE914
:10280000FF4F81B007460E4640F2C32050434FF4BD
:102810007A71B0FBF1F808F1010802FB02F000EB5D
:10282000520000901446B91A4FF6FF7909EA4200A7
:102830008DB2024631462846049BFFF7D5FF01259D
:1028400035E005FB05F004FB04010098814219D92D
:10285000444516D9681E09EA40023019A7EB050A5B
:1028600081B20AF1010A93461FFA8AF0049BFFF72E
:10287000BBFF301B81B25A461FFA8AF0049BFFF758
:10288000B3FF641E701909EA440281B2A7EB040A7F
:1028900093461FFA8AF0049BFFF7A6FF701B81B2D4
:1028A0005A461FFA8AF0049BFFF79EFF6D1C4545B0
:1028B000C7D905B0BDE8F08F0020401CC0B20A287F
:1028C000FBD37047034900220A704A6810444860ED
:1028D00070470000540D0020FEF72AF9FFF75EFC58
:1028E000FFF704FBFFF7E4FAFFF7A4FB0722184900
:1028F0001848FEF78DFE17480068C16841F01001C6
:10290000C160154C0122D1022046FEF7FCF80A20D6
:10291000FDF7E8FFFFF75AF80320FEF74DFF4FF6EB
:10292000FF70FEF731FFFEF785FE01228021204671
:10293000FEF7E9F8012280210848FEF7E4F8FFF7E6
:1029400029FE4FF41B742046FFF795FAFBE70000C1
:10295000020000205C0D002000080140000C014036
:102960000748416B0968002905D0416BC968C968EF
:102970004968816270474FF0FF3181627047000003
:102980001C0000200169D0E901329A60D0E90123DE
:102990005A604A68824201D182684A60002202611C
:1029A0000868401E0860086870470120FFF78ABF6A
:1029B00042684A6093688B609368596091600861CF
:1029C0000168491C01607047154A106B002802D04D
:1029D0000120D06170470020D0611069B0FA80F00A
:1029E000C0F11F000F4900EB800051F8203073B197
:1029F00001EB800041684968416000F10803994299
:102A000001D1496841604068C0681060704750203B
:102A100080F31188BFF34F8FBFF36F8FFEE7000085
:102A20001C000020740E00202DE9F0410026334FD9
:102A3000386B002807D0B869401CB861FFF7B5FFB4
:102A40003046BDE8F081FD686D1CFD609DB9786B76
:102A5000006838B1502080F31188BFF34F8FBFF367
:102A60006F8FFEE7786BB96B7963B863386A401C87
:102A70003862FFF775FFB86ADFF8848085420DD3AE
:102A8000786B006838B1786BC068C468606885424C
:102A900010D2B86202E04FF0FF30B8623868C06A06
:102AA00000EB800058F82000012800D90126B86901
:102AB000E8B11EE0201DFFF765FFA06A18B104F120
:102AC0001800FFF75FFFE06A01213A698140114376
:102AD000396100EB800008EB8000211DFFF768FFE3
:102AE000E06A3968C96A8842CAD30126C8E7FFF795
:102AF0005CFFF8690028A3D00126A1E71C00002094
:102B0000740E0020010202030405060708090A0BDF
:102B10000C0D0E0F1010000000000000000001025C
:102B20000304060708090000000001020304000076
:102B300000000000000000000000000000003F4016
:102B400000000000000000003000400030004000A5
:102B5000000009000BC03D000BC03D00090018C07B
:102B600024407FE0224031800000180024C01B0078
:102B70000D803240018003801C4027401C800740AC
:102B80000040100060000000000000000000000095
:102B9000000000001F802040402000004020204016
:102BA0001F8000000000090006001F8006000900C9
:102BB0000000040004003F80040004000000001036
:102BC0000060000000000000000004000400040099
:102BD00004000400000000000040000000000000AD
:102BE0000000002001C006003800400000001F80E7
:102BF0002040204020401F800000000010403FC0C7
:102C000000400000000018C021402240244018402D
:102C1000000010802040244024401B80000002005F
:102C20000D0011003FC0014000003C8024402440C2
:102C30002440238000001F8024402440344003802F
:102C400000003000200027C03800200000001B805A
:102C50002440244024401B8000001C0022C022404D
:102C600022401F800000000000000840000000001B
:102C700000000000000004600000000000000000F0
:102C800004000A00110020804040090009000900EA
:102C900009000900000000004040208011000A00E7
:102CA00004001800200023402400180000001F80AA
:102CB0002040274029401F400000004007C0390045
:102CC0000F0001C0004020403FC0244024401B8032
:102CD00000001F8020402040204030800000204025
:102CE0003FC0204020401F80000020403FC02440C3
:102CF0002E4030C0000020403FC024402E00300055
:102D000000000F001080204022403380020020404D
:102D10003FC0040004003FC02040204020403FC08E
:102D20002040204000000060202020203FC02000E4
:102D3000200020403FC024400B0030C020402040F5
:102D40003FC020400040004000C03FC03C0003C0E6
:102D50003C003FC0000020403FC00C4023003FC06B
:102D600020001F802040204020401F800000204085
:102D70003FC024402400180000001F802140214053
:102D800020E01FA0000020403FC02440260019C0C2
:102D9000004018C024402440224031800000300010
:102DA00020403FC020403000000020003F80004015
:102DB00000403F80200020003E0001C00700380096
:102DC0002000380007C03C0007C038000000204049
:102DD00039C0060039C0204000002000384007C03C
:102DE000384020000000304021C02640384020C03C
:102DF0000000000000007FE04020402000000000B4
:102E000070000C00038000400000000040204020C3
:102E10007FE00000000000002000400020000000D3
:102E20000000001000100010001000100010000042
:102E3000000040000000000000000000028005408B
:102E4000054003C0004020003FC004400440038010
:102E50000000000003800440044006400000000021
:102E60000380044024403FC0004000000380054030
:102E7000054003400000000004401FC024402440DF
:102E80002000000002E005500550065004202040BC
:102E90003FC00440040003C000400000044027C0BD
:102EA00000400000000000100010041027E00000A7
:102EB000000020403FC00140070004C00440204003
:102EC00020403FC000400040000007C0040007C091
:102ED000040003C00000044007C00440040003C015
:102EE0000040000003800440044003800000041000
:102EF00007F00450044003800000000003800440F9
:102F0000045007F00010044007C002400400040011
:102F10000000000006400540054004C0000000001D
:102F200004001F80044000400000040007800040AF
:102F3000044007C000400400070004C001800600F0
:102F40000400060001C0070001C0060000000440A4
:102F500006C0010006C0044000000410071004E091
:102F60000180060004000000044005C00640044043
:102F700000000000000004007BE040200000000092
:102F800000000000FFF000000000000040207BE097
:102F900004000000000040008000400020002000ED
:102FA00040000000000000000000000000000000E1
:102FB00000000000000000001FCC000C000000001A
:102FC00000000000080030006000080030006000D1
:102FD0000000022003FC1E20022003FC1E20022011
:102FE000000000000E1811043FFF10840C78000050
:102FF00000000F0010840F3800C007781884007894
:10300000000000780F8410C411240E9800E400849E
:1030100000080800680070000000000000000000C8
:10302000000000000000000007E018182004400223
:103030000000000040022004181807E00000000013
:1030400000000240024001800FF001800240024077
:1030500000000080008000800FF800800080008069
:1030600000000001000D000E000000000000000044
:103070000000000000800080008000800080008050
:1030800000800000000C000C0000000000000000A8
:103090000000000000060018006001800600180013
:1030A0002000000007F0080810041004080807F0CA
:1030B00000000000080408041FFC000400040000D5
:1030C000000000000E0C10141024104411840E0C8B
:1030D000000000000C1810041104110412880C7078
:1030E0000000000000E00320042408241FFC00244A
:1030F000000000001F981084110411041088107043
:103100000000000007F008881104110418880070FE
:10311000000000001C00100010FC13001C00100038
:10312000000000000E3811441084108411440E3841
:10313000000000000700088C10441044088807F0C5
:103140000000000000000000030C030C0000000061
:103150000000000000000001010600000000000067
:103160000000000000800140022004100808100444
:103170000000022002200220022002200220022061
:103180000000000010040808041002200140008024
:10319000000000000E001200100C106C10800F00D8
:1031A000000003E00C1813E4142417C4082807D007
:1031B00000000004003C03C41C40074000E4001C65
:1031C000000410041FFC1104110411040E88007087
:1031D000000003E00C1810041004100410081C1068
:1031E000000010041FFC100410041004080807F06D
:1031F000000010041FFC1104110417C41004081867
:10320000000010041FFC1104110017C0100008007A
:10321000000003E00C181004100410441C78004057
:10322000000010041FFC10840080008010841FFC2C
:1032300010040000100410041FFC1004100400000F
:10324000000000030001100110011FFE100010001B
:10325000000010041FFC110403801464181C1004E7
:10326000000010041FFC1004000400040004000C03
:10327000000010041FFC1F0000FC1F001FFC1004B6
:10328000000010041FFC0C04030000E010181FFCD9
:10329000100007F00808100410041004080807F0D4
:1032A000000010041FFC10841080108010800F009C
:1032B000000007F0081810241024101C080A07F258
:1032C000000010041FFC1104110011C011300E0C7D
:1032D000000400000E1C11041084108410441C38DB
:1032E00000001800100010041FFC1004100018004B
:1032F000000010001FF810040004000410041FF860
:10330000100010001E0011E0001C007013801C0053
:1033100010001FC0103C00E01F0000E0103C1FC068
:1033200000001004180C163401C001C01634180C2B
:10333000100410001C00130400FC13041C001000F7
:1033400000000804101C1064108413041C041018DE
:1033500000000000000000007FFE4002400240022A
:103360000000000030000C0003800060001C00031F
:10337000000000004002400240027FFE000000000A
:10338000000000000000200040004000400020003D
:103390000000000100010001000100010001000126
:1033A000000100004000400020000000000000007C
:1033B000000000000098012401440144014400FC85
:1033C000000410001FFC0088010401040088007044
:1033D000000000000070008801040104010400885E
:1033E00000000000007000880104010411081FFCA7
:1033F0000004000000F8014401440144014400C8F5
:1034000000000000010401040FFC1104110411006C
:103410001800000000D601290129012901C901066F
:10342000000010041FFC008401000100010400FCE6
:10343000000400000104190419FC00040004000049
:1034400000000000000300010101190119FE000045
:10345000000010041FFC0024004001B4010C010412
:1034600000000000100410041FFC00040004000011
:103470000000010401FC0104010001FC0104010041
:1034800000FC010401FC008401000100010400FCB7
:103490000004000000F8010401040104010400F824
:1034A0000000010101FF0085010401040088007093
:1034B000000000000070008801040104010501FF04
:1034C00000010104010401FC0084010401000180E9
:1034D0000000000000CC01240124012401240198F3
:1034E000000000000100010007F8010401040000D1
:1034F0000000010001F8000400040004010801FCC0
:103500000004010001800170000C001001600180C6
:10351000010001F0010C003001C00030010C01F08D
:10352000010000000104018C00740170018C010491
:103530000000010101810171000E0018016001808D
:10354000010000000184010C013401440184010CDC
:103550000000000000000000000001003EFC4002EE
:1035600040020000000000000000FFFF000000001B
:1035700000000000400240023EFC0100000000008C
:10358000000000006000800080004000400020003B
:10359000200000000000000000000000000000000B
:1035A000000000000000000000000000000000001B
:1035B000000000000000000000000000000000000B
:1035C00000000000000F80380FFE380F8038000028
:1035D00000000000000000000000000000000000EB
:1035E0000100000600000C00003800003100000659
:1035F00000000C0000380000300000000000000057
:10360000000061800067F807F98000618000618038
:103610000061800061800067F807F9800061800028
:10362000000000000000000001C0E003E0F00630F0
:10363000080418081FFFFE040E080787F00381E046
:1036400000000000000001F000060C000404080661
:103650000C7001F9C0000E00003BE000EC180708F8
:1036600008040C180003E00000000001E00007F06F
:1036700003F818041C0804170807E1D003C0E00091
:1036800023B0003C080020080000100000000000EB
:10369000000100003100003200001C0000000000AA
:1036A000000000000000000000000000000000001A
:1036B000000000000000000000000000000000000A
:1036C00000007F0001FFC00780F00C00181000040C
:1036D0002000020000000000002000021000040C86
:1036E00000180780F001FFC0007F0000000000000C
:1036F0000000000000000000000000000000420088
:10370000006600006600003C0000180003FFC000D7
:103710001800003C00006600006600004200000047
:103720000000080000080000080000080000080071
:1037300001FFC000080000080000080000080000A9
:10374000080000000000000100003100003200000D
:103750001C0000000000000000000000000000004D
:103760000000000000000000000008000008000049
:103770000800000800000800000800000800000819
:103780000000080000080000000000000000000029
:103790000000380000380000380000000000000081
:1037A0000000000000000000000000000000000019
:1037B0000000000600001C000070000180000E00E8
:1037C00000380000C0000700001C000030000000AE
:1037D0000000000000007F8001FFE0038070060011
:1037E0001804000804000806001803807001FFE0B8
:1037F000007F8000000000000000000001000801C0
:10380000000801000803FFF807FFF80000080000A7
:103810000800000800000000000000000001C0389F
:1038200002C0580400980401180402180404180681
:103830001C1803F81801E0F8000000000000000068
:103840000001C0E003C0F0040008040808040808F0
:1038500006180803F41801E7F00001E0000000007A
:103860000000000000000300000D000011000061D6
:103870000000810803010807FFF80FFFF8000108A6
:103880000001080000000000000000E007FCD00676
:103890000808061008061008061008061838060F53
:1038A000F00607C0000000000000000000003F809C
:1038B00001FFE00384300208180410080410080413
:1038C0001008071810030FF00007C00000000000E8
:1038D0000000000003C0000700000600000600F81A
:1038E0000607F806180006E00007000006000000C2
:1038F000000000000001E1E003F7F00634100418B6
:1039000008041808040C08040C0806161803F3F041
:1039100001C1E000000000000000F80003FC3003DB
:10392000063804020804020804020804041003080C
:10393000F001FFC0007F0000000000000000000058
:103940000000000000000000000070380070380027
:1039500070380000000000000000000000000000BF
:103960000000000000000000000000000000301A0D
:1039700000301C00000000000000000000000000FB
:1039800000000000000000000008000014000022F9
:10399000000041000080800100400200200400106F
:1039A00008000800000000000000210000210000C5
:1039B0002100002100002100002100002100002141
:1039C00000002100002100000000000000000000B5
:1039D0000800080400100200200100400080800060
:1039E0004100002200001400000800000000000058
:1039F0000003C00004C000040000080038080F38AD
:103A00000808380810000C300007E00003C0000070
:103A10000000000000003F8000FFE0038070020F04
:103A20001006708804C088048308047F8802C09050
:103A300003012000FE400000080000180001F8000B
:103A40003E0801C20007020007E20000FE00001F5E
:103A5000C80001F800003800000804000807FFF85B
:103A600007FFF80408080408080408080408080602
:103A7000180803F41801E7F00001E000000000005E
:103A800000003F8001FFE00380700200180400087E
:103A90000400080400080400100600200780C0008D
:103AA000000004000807FFF807FFF80400080400FE
:103AB0000804000804001802001003807001FFE0F1
:103AC000007F8000000004000807FFF807FFF804EB
:103AD0000808040808040808040808043E0804004C
:103AE0000806001801006000000004000807FFF845
:103AF00007FFF8040808040800040800040800048C
:103B00003E000600000600000180000000000000EA
:103B100000003F8001FFE0038070060018040008E9
:103B20000402080402080203F00783F00002000008
:103B3000020004000807FFF807FFF804080800085F
:103B40000000080000080000080004080807FFF84B
:103B500007FFF8040008000000000000040008044B
:103B6000000804000807FFF807FFF8040008040035
:103B7000080400080000000000000000000000062B
:103B80000000070000010400010400010400030715
:103B9000FFFE07FFFC040000040000040000040016
:103BA0000807FFF807FFF8040C08001800003E00A3
:103BB00004C7800503C80600F80400380400180094
:103BC000000804000807FFF807FFF80400080000D9
:103BD00008000008000008000008000008000018A5
:103BE00000006000000004000807FFF807800807D5
:103BF000FC00007FC00003F80007C00078000780C9
:103C00000807FFF807FFF804000804000807FFF89A
:103C100007000803C00000E000003800001E00009C
:103C200007000001C00400F007FFF80400000000D6
:103C300000007F8001FFE003807006001804000888
:103C400004000806001803003001FFE0007F800038
:103C5000000004000807FFF807FFF8040408040444
:103C600000040400040400040400060C0003F8002F
:103C700001F000000000000000007F8001FFE00371
:103C800080700600880400880400C806003C030019
:103C90003E01FFE6007F8400000004000807FFF8F3
:103CA00007FFF8040808040800040C00040F0004CF
:103CB0000BC00610F003F03801E008000008000017
:103CC0000001E0F803F0300630100418080418086A
:103CD000040C08040C080206180207F00781E00033
:103CE0000000018000060000040000040000040041
:103CF0000807FFF807FFF8040008040000040000AC
:103D000006000001800004000007FFE007FFF00448
:103D1000001800000800000800000800000800006B
:103D20000804001007FFE004000004000006000083
:103D300007E00007FE00041FE00001F80000380063
:103D400001E0043E0007C00006000004000004007B
:103D50000007E00007FFC0041FF80007C007F800D5
:103D600007FF80043FF80007C004F80007000004C4
:103D7000000000000004000806001807C07805F1E4
:103D8000C8003E00001F800463E80780F8060018A2
:103D9000040008000000040000060000078000077F
:103DA000E008047C08001FF80007F800180804E089
:103DB00008070000060000040000000000010008E1
:103DC0000600380400F80403E8040F08047C080522
:103DD000F00807C008070018040060000000000099
:103DE000000000000000000000000000003FFFFE97
:103DF0002000022000022000022000022000020019
:103E0000000000000000000008000007000000C0E3
:103E1000000038000006000001C000003000000E65
:103E2000000001000000000000000000200002204F
:103E300000022000022000022000023FFFFE0000DE
:103E40000000000000000000000000000000000072
:103E500000000008000010000030000020000030CA
:103E6000000010000008000000000000000000003A
:103E7000010000010000010000010000010000013C
:103E8000000001000001000001000001000001002D
:103E900000010000000000000000002000002000E1
:103EA00000100000100000000000000000000000F2
:103EB0000000000000000000000000F00019F80001
:103EC0001B18002208002608002408002410003FC8
:103ED000F8001FF8000008000018000000040000AF
:103EE00007FFF80FFFF00018180010080020080066
:103EF0002008003018001FF0000FC0000000000074
:103F0000000007C0001FF000183000200800200843
:103F1000002008003C08001C1000006000000000A9
:103F200000000000000007C0001FF000381800204B
:103F30000800200800200804101007FFF80FFFF009
:103F40000000100000000000000000000007C0009A
:103F50001FF0001230002218002208002208003250
:103F600008001E10000E20000000000000002000CD
:103F700000200800200801FFF803FFF806200804CD
:103F800020080420080720000300000000000000B3
:103F90000000000E000E6E001FF30031B10020B1D2
:103FA0000020B1003191001F13002E1E00200E00D2
:103FB000300000000004000807FFF80FFFF80010B1
:103FC00008002000002000002008003FF8001FF833
:103FD00000000800000000000000000000200800B1
:103FE0002008002008063FF8063FF80000080000FF
:103FF00008000008000000000000000000000000B1
:10400000000003000003002001002001002003063F
:104010003FFE063FFC000000000000000000000022
:104020000004000807FFF80FFFF8000188000300F4
:10403000002FC00038F800203800200800000800D9
:104040000000000000000000040008040008040054
:104050000807FFF80FFFF80000080000080000083C
:10406000000000000000002008003FF8003FF800BA
:104070001008002000003FF8003FF8001008002062
:1040800000003FF8003FF800000800000000200892
:10409000003FF8003FF8001008001000002000006A
:1040A0002008003FF8001FF8000008000000000092
:1040B000000007C0000FF000183000300800200892
:1040C000002008003008001830000FF00007C00082
:1040D0000000000000002001003FFF003FFF001033
:1040E00011002009002008002008003038001FF0CF
:1040F000000FC00000000000000007C0001FF0001B
:104100003818002008002008002009001011001FA6
:10411000FF003FFF00000100000000200800200811
:10412000002008003FF8003FF800080800100800D1
:1041300020080020000030000030000000000000D7
:1041400000000000000C78001E180033080023084F
:104150000021080021880021980030F0003860001C
:10416000000000000000200000200000200000FFF0
:10417000F003FFF8002008002008002008000030AD
:10418000000000000000000000002000003FF000E0
:104190007FF8000018000008000008002010003F11
:1041A000F8007FF000001000000000000000200078
:1041B000003000003C00003F800023F00000780049
:1041C0000070002380003C00003000002000002030
:1041D00000003C00003FE00023F80000E000270062
:1041E000003E00003FE00021F80001E0003E00003A
:1041F0002000000000002008002008003838003EA1
:10420000680027800003C8002CF800383800201808
:104210000020080000000000000020000030030023
:104220003C01003F830023EC000070002380003C31
:10423000000020000020000000000000000000003E
:104240000038080020380020F80023E8002F8800FC
:104250003E08003808002018000070000000000030
:104260000000000000000000000000000000080046
:104270000014001FF7FC30000620000200000000C0
:10428000000000000000000000000000000000002E
:1042900000000000FFFFFF00000000000000000021
:1042A00000000000000000000000000020000230BC
:1042B00000061FF7FC0014000008000000000000CA
:1042C00000000000000000000000000000180000D6
:1042D00060000040000040000020000010000008C6
:1042E00000000400000400000C00001000000000AA
:1042F00010430008000000205C0D000028010008A9
:10430000F84C00085C0D00207C08000084010008C7
:10431000C132018210033F127A25FFFFD7E81E7DCC
:10432000F8450849022B51F8061C45084510100AAB
:1043300069085108410847FE4023B7F1137FFC1379
:10434000800112032009056009183104C1023C1FD5
:10435000F01001290813D4F2B809047F0441044184
:10436000244902101614241204210440948088B5B4
:10437000C820403F7E48908508011C3FF801C633A5
:10438000FFFE100A207FFC0820042004A0180D4026
:10439000B4FD08400840104023FC4808180E17FEE2
:1043A0003010501097FE101012101102190D1C2021
:1043B000D6D8F93BF83F3C1A01801A117C290449F0
:1043C00052295014D0C2101508047F78180D4022CD
:1043D000401440FF7E084808487F04180E2A4849C8
:1043E00048888828881108C8E7104519023D7CFED6
:1043F0004422021808424424441444080416227C2F
:1044000042448023C9EE180C27FC140414A4811024
:1044100042084092100F17FC2040E0E02150224853
:104420002C462040480840DBDA11041124025AFDD2
:10443000082902180E1D24E124422402040404CA9F
:10444000D002A6212B7FFCEA29A05B2108022C28A0
:1044500021101213BAE8101E108020407C1F4484E3
:104460006444544444044C2440447EC40247025CE7
:104470007A4802400A1C04D1B68819E01C111001C8
:10448000022DF11017D00C1902C80C12150A190AC6
:1044900011060102B5E75E9908160A010201021C25
:1044A000FED7D3841AF8EF122015400180014BFF8C
:1044B000FE324902120512021AD3AA1A0218120475
:1044C0001204280D0FF0081018102FF04810881053
:1044D0000C190226500820CFDE180A7BF84A085231
:1044E0000853F8620610124BF84A444A486A3052A0
:1044F000204210428843064213B9AB1B80040218C5
:104500000D08400840102020104208820650200A62
:1045100040082010203FF0101023CBBE133FF812AC
:10452000082C087FE8061B1F88633902290A11122C
:10453000281C10CDBCAA1820FC4204420447E44CBD
:10454000445284410446C4783C43044084460441B8
:10455000847FFC4004D0CE22680E8412041208121C
:104560001012221202FFC40A281322042208421049
:104570008260D3A208200820FFFE0820DE2D1FF055
:104580001110022DFFFE02808C38083018C006CEB4
:10459000C402FA1CFFFE1001292E160440028001FD
:1045A000892213CAD4100A2820241024102007FEC0
:1045B000280820F02017E01120461009151019CA0C
:1045C000170A02062C02D6D04229026D3FF82108B4
:1045D00002290C691813B2E2180B0427C4144414FE
:1045E00054855445021A150210112554E55421042E
:1045F0002284224424140808D2BA28248020401798
:10460000FE11208120423C4244166412942348E269
:104610004822302220225022880306BEA70FE0A0A5
:104620006906218F7EFC428442840623CFD42B1F4F
:10463000F0C86906200F0440444424441448145030
:104640000440FFFE23CABE833FF82BFFFE9C19CC1B
:104650001009082104410281020512022BC6C12261
:10466000196119C01F241022202FF880180B203F39
:10467000FC22204220442084191808D0FD208010FC
:1046800080103C12FE180921FC20243C2424A002A6
:104690002ABC06164560553E8A3CD7AA2001281739
:1046A000FDFC4020504093FEFC40108011FC1C0497
:1046B000F088505010209A14B3CC081E1DFCF10451
:1046C000110214FDFC101230180939FE5420542038
:1046D00091FC20152013FE1024D0F20115803FFE1E
:1046E000201B23F8133EA020402FFE832A400113F5
:1046F00081401480C6AC5B4010021A1F4429022B73
:104700001FE0403A107E2D4020D0E8CC1201100866
:104710007FFE41029D74012B1D70F41A02141B24AC
:10472000880226A82010D2AA1F7FFC04400440144F
:104730002F4824483FF80210180E2008401C800320
:104740008006703808D0A36019521411FEFC280EA0
:10475000108831043A0254885088905010CA181DAD
:104760005010881306D7BC01404120212023FE02AF
:104770002016201BFC1220222023FCE2061908131D
:10478000FE2212022BB4A590180A782049FC91242D
:104790007D24550210107DFC552454207C2854247F
:1047A00057FE45028C100CC3FE1110111017FC119E
:1047B00010FC00191613F8120817F81A0833F8D06D
:1047C0004017FC10A0111052082406A3AC1A3002A6
:1047D0001210322013C7EB100A40404027FC204043
:1047E00003F81540E7FE202D23F8220804180C2BAF
:1047F000F8320822280210B5E3028E12022B03FCC5
:10480000061B3FF0D71902233FF0100C24882244E6
:1048100042448004BBF70129024B3FF8082BFFFEFE
:10482000064B210802133FF82408C4BB1E3FF820A2
:1048300008200E1808241022202FF80426100C112E
:10484000103FF8D116115011200113B6C119EE1501
:1048500011FC1020101B2003FEF0021094105011C8
:1048600010109013FE1428184410820302BACD04CD
:10487000120E1278180E087C0844FF4408441844AD
:104880001C442A021C484488121208120814D1D56C
:10489000101C08FE7F60280B147C7F44445448544D
:1048A000525406280D51544228442488423082C96B
:1048B000AB2868091FE020204040BFF8A019732AE8
:1048C0000202231FFE3818D6B5084008400FFC101E
:1048D00040104033F8320853F8920813F8120416C7
:1048E00012081FFE103CB3E402E4120412041C0878
:1048F0002010C42D0448044002198628094410449D
:10490000603CD5BE10EB14207E201D3E04204402E6
:10491000401325FC290429040F04F104410401FC7F
:104920000104D6D022103A18063903DF1FFFF81809
:1049300010180349157C1010102759364939217376
:10494000CEC46A201A180908083FFFFC0101800341
:10495000112281190322832242224622246A2C3EFC
:10496000226617C3800301F00C137C30320863B257
:10497000E2121018090809FE080D86080103380A1A
:10498000B66841B64833B64813036A05032B09A637
:1049900003281439A44819600818580818C40818BE
:1049A00086081B0238045A1173CAD412011510016B
:1049B000F00813980C138804258404FFFE1A800362
:1049C00018097E028004FF800408032DC0040840FB
:1049D0000310104860048922050E320670120E4042
:1049E0001C04220E32025ACF4A1503FFC002136084
:1049F000021A4003390C2909590C1380401A62E14C
:104A00001810181042100C42200642400642800244
:104A1000431295083FFFFC83CABEE5200FFFF01B41
:104A2000047F2919B91218130119201803188003DB
:104A300018400618200C183008181810180C2018E8
:104A40000841F81A703B4183B2E2220814100C208E
:104A5000380918063FF018033030041114303318A9
:104A600014323398180D33B3183033331818B33366
:104A7000181C041A0C041A09102A01044A32045A98
:104A800002041A0604180B7E3623181C2603180C81
:104A90000504180D0C80180C0840180C1870180C20
:104AA00054150C6031F05D80107001829BCAD4BC3B
:104AB000311407C00C14067006140630031B0610D0
:104AC000041A180412081A3FD611320649041A01B2
:104AD00004147F801614031FFA1C030182049A83B6
:104AE000042A81041C80030904100E118CC40321C4
:104AF000F0C40343C06403DE14740388143C0380D1
:104B00001A1C7E5A0C711183C0FD1916111301C0B5
:104B100014180180100C1001801010037FF810038E
:104B200006182010020602100606031006040310E1
:104B30000F0C23100A0FFB101A0823101218631011
:104B40002210041908180B422C43100226C310022D
:104B500046042E0583100201041E031002030240C6
:104B600019441A04041A08041A1004162003F00247
:104B700040237002422093B3CC32101279180A10ED
:104B800003E1FFF83D818030C7C9045808898030AF
:104B90007FFDFFF0101119CC10091803E3FFFC038F
:104BA000B8041B0798041388041A0504140D800424
:104BB000180A098004101181FFF8110C1A21041A37
:104BC00041044A01041E08018FFFFCE639F241C38B
:104BD000CFD42A011814FFFF801A8024A9040919D0
:104BE00014394A2B0C3004101520080C3070060CB8
:104BF0003060070C30C0038C3180018C3324018C71
:104C0000321B8C34202A3824C6303FFFFFF8F3CA09
:104C1000BE199E11061BC003FFFFE01A18461AFCBE
:104C2000D119B3590423618823F18413C183181F58
:104C300001C18180018180C0030180E00601807094
:104C40000C018038080180181001801020612C1A96
:104C50001F0432076202F3C6C11A207E23F0037AD2
:104C600030041910192D1530020402140206071C15
:104C7000020306041204100C02010860027FFFF018
:104C8000060206D9041B3005E81A040C1A0C044B62
:104C90000806041B100C041308061B2030041B60BC
:104CA00006B9520493D0F2420132C0126012041CC1
:104CB00060300746320619041E40063FFFC0341319
:104CC000E00612031C060104141AD8041A60041A20
:104CD00070044B30102C143038041B3020044B402F
:104CE0000C04119A08043A100412201C2007E00654
:084CF00012E01A4002C10000AD
:04000005080000ED02
:00000001FF
